{
	"First-Run/CityTouchToken.sol": {
		"CityTouchToken": {
			"abi": [
				{
					"inputs": [
						{
							"internalType": "address",
							"name": "_treasury",
							"type": "address"
						}
					],
					"stateMutability": "nonpayable",
					"type": "constructor"
				},
				{
					"anonymous": false,
					"inputs": [
						{
							"indexed": true,
							"internalType": "address",
							"name": "owner",
							"type": "address"
						},
						{
							"indexed": true,
							"internalType": "address",
							"name": "spender",
							"type": "address"
						},
						{
							"indexed": false,
							"internalType": "uint256",
							"name": "value",
							"type": "uint256"
						}
					],
					"name": "Approval",
					"type": "event"
				},
				{
					"anonymous": false,
					"inputs": [
						{
							"indexed": true,
							"internalType": "address",
							"name": "from",
							"type": "address"
						},
						{
							"indexed": true,
							"internalType": "address",
							"name": "to",
							"type": "address"
						},
						{
							"indexed": false,
							"internalType": "uint256",
							"name": "amount",
							"type": "uint256"
						},
						{
							"indexed": false,
							"internalType": "string",
							"name": "message",
							"type": "string"
						}
					],
					"name": "MessageSent",
					"type": "event"
				},
				{
					"anonymous": false,
					"inputs": [
						{
							"indexed": true,
							"internalType": "address",
							"name": "previousOwner",
							"type": "address"
						},
						{
							"indexed": true,
							"internalType": "address",
							"name": "newOwner",
							"type": "address"
						}
					],
					"name": "OwnershipTransferred",
					"type": "event"
				},
				{
					"anonymous": false,
					"inputs": [
						{
							"indexed": true,
							"internalType": "address",
							"name": "from",
							"type": "address"
						},
						{
							"indexed": true,
							"internalType": "address",
							"name": "to",
							"type": "address"
						},
						{
							"indexed": false,
							"internalType": "uint256",
							"name": "amountIn",
							"type": "uint256"
						},
						{
							"indexed": false,
							"internalType": "uint256",
							"name": "amountOut",
							"type": "uint256"
						}
					],
					"name": "Swap",
					"type": "event"
				},
				{
					"anonymous": false,
					"inputs": [
						{
							"indexed": true,
							"internalType": "address",
							"name": "from",
							"type": "address"
						},
						{
							"indexed": true,
							"internalType": "address",
							"name": "to",
							"type": "address"
						},
						{
							"indexed": false,
							"internalType": "uint256",
							"name": "value",
							"type": "uint256"
						}
					],
					"name": "Transfer",
					"type": "event"
				},
				{
					"inputs": [
						{
							"internalType": "address",
							"name": "owner",
							"type": "address"
						},
						{
							"internalType": "address",
							"name": "spender",
							"type": "address"
						}
					],
					"name": "allowance",
					"outputs": [
						{
							"internalType": "uint256",
							"name": "",
							"type": "uint256"
						}
					],
					"stateMutability": "view",
					"type": "function"
				},
				{
					"inputs": [
						{
							"internalType": "address",
							"name": "spender",
							"type": "address"
						},
						{
							"internalType": "uint256",
							"name": "amount",
							"type": "uint256"
						}
					],
					"name": "approve",
					"outputs": [
						{
							"internalType": "bool",
							"name": "",
							"type": "bool"
						}
					],
					"stateMutability": "nonpayable",
					"type": "function"
				},
				{
					"inputs": [
						{
							"internalType": "address",
							"name": "account",
							"type": "address"
						}
					],
					"name": "balanceOf",
					"outputs": [
						{
							"internalType": "uint256",
							"name": "",
							"type": "uint256"
						}
					],
					"stateMutability": "view",
					"type": "function"
				},
				{
					"inputs": [],
					"name": "checkHalving",
					"outputs": [],
					"stateMutability": "nonpayable",
					"type": "function"
				},
				{
					"inputs": [],
					"name": "checkOwnerBalance",
					"outputs": [
						{
							"internalType": "uint256",
							"name": "",
							"type": "uint256"
						}
					],
					"stateMutability": "view",
					"type": "function"
				},
				{
					"inputs": [],
					"name": "decimals",
					"outputs": [
						{
							"internalType": "uint8",
							"name": "",
							"type": "uint8"
						}
					],
					"stateMutability": "view",
					"type": "function"
				},
				{
					"inputs": [
						{
							"internalType": "address",
							"name": "spender",
							"type": "address"
						},
						{
							"internalType": "uint256",
							"name": "subtractedValue",
							"type": "uint256"
						}
					],
					"name": "decreaseAllowance",
					"outputs": [
						{
							"internalType": "bool",
							"name": "",
							"type": "bool"
						}
					],
					"stateMutability": "nonpayable",
					"type": "function"
				},
				{
					"inputs": [
						{
							"internalType": "uint256",
							"name": "amount",
							"type": "uint256"
						}
					],
					"name": "getSwapRate",
					"outputs": [
						{
							"internalType": "uint256",
							"name": "",
							"type": "uint256"
						}
					],
					"stateMutability": "pure",
					"type": "function"
				},
				{
					"inputs": [],
					"name": "halvingFactor",
					"outputs": [
						{
							"internalType": "uint256",
							"name": "",
							"type": "uint256"
						}
					],
					"stateMutability": "view",
					"type": "function"
				},
				{
					"inputs": [],
					"name": "halvingInterval",
					"outputs": [
						{
							"internalType": "uint256",
							"name": "",
							"type": "uint256"
						}
					],
					"stateMutability": "view",
					"type": "function"
				},
				{
					"inputs": [
						{
							"internalType": "address",
							"name": "spender",
							"type": "address"
						},
						{
							"internalType": "uint256",
							"name": "addedValue",
							"type": "uint256"
						}
					],
					"name": "increaseAllowance",
					"outputs": [
						{
							"internalType": "bool",
							"name": "",
							"type": "bool"
						}
					],
					"stateMutability": "nonpayable",
					"type": "function"
				},
				{
					"inputs": [
						{
							"internalType": "address",
							"name": "to",
							"type": "address"
						},
						{
							"internalType": "uint256",
							"name": "amount",
							"type": "uint256"
						}
					],
					"name": "mint",
					"outputs": [],
					"stateMutability": "nonpayable",
					"type": "function"
				},
				{
					"inputs": [],
					"name": "name",
					"outputs": [
						{
							"internalType": "string",
							"name": "",
							"type": "string"
						}
					],
					"stateMutability": "view",
					"type": "function"
				},
				{
					"inputs": [],
					"name": "nextHalving",
					"outputs": [
						{
							"internalType": "uint256",
							"name": "",
							"type": "uint256"
						}
					],
					"stateMutability": "view",
					"type": "function"
				},
				{
					"inputs": [],
					"name": "owner",
					"outputs": [
						{
							"internalType": "address",
							"name": "",
							"type": "address"
						}
					],
					"stateMutability": "view",
					"type": "function"
				},
				{
					"inputs": [],
					"name": "renounceOwnership",
					"outputs": [],
					"stateMutability": "nonpayable",
					"type": "function"
				},
				{
					"inputs": [],
					"name": "reward",
					"outputs": [
						{
							"internalType": "uint256",
							"name": "",
							"type": "uint256"
						}
					],
					"stateMutability": "view",
					"type": "function"
				},
				{
					"inputs": [
						{
							"internalType": "address",
							"name": "_swapToken",
							"type": "address"
						}
					],
					"name": "setSwapToken",
					"outputs": [],
					"stateMutability": "nonpayable",
					"type": "function"
				},
				{
					"inputs": [],
					"name": "swapToken",
					"outputs": [
						{
							"internalType": "address",
							"name": "",
							"type": "address"
						}
					],
					"stateMutability": "view",
					"type": "function"
				},
				{
					"inputs": [
						{
							"internalType": "address",
							"name": "to",
							"type": "address"
						},
						{
							"internalType": "uint256",
							"name": "amount",
							"type": "uint256"
						}
					],
					"name": "swapTokens",
					"outputs": [
						{
							"internalType": "bool",
							"name": "",
							"type": "bool"
						}
					],
					"stateMutability": "nonpayable",
					"type": "function"
				},
				{
					"inputs": [],
					"name": "symbol",
					"outputs": [
						{
							"internalType": "string",
							"name": "",
							"type": "string"
						}
					],
					"stateMutability": "view",
					"type": "function"
				},
				{
					"inputs": [],
					"name": "totalSupply",
					"outputs": [
						{
							"internalType": "uint256",
							"name": "",
							"type": "uint256"
						}
					],
					"stateMutability": "view",
					"type": "function"
				},
				{
					"inputs": [
						{
							"internalType": "address",
							"name": "recipient",
							"type": "address"
						},
						{
							"internalType": "uint256",
							"name": "amount",
							"type": "uint256"
						}
					],
					"name": "transfer",
					"outputs": [
						{
							"internalType": "bool",
							"name": "",
							"type": "bool"
						}
					],
					"stateMutability": "nonpayable",
					"type": "function"
				},
				{
					"inputs": [
						{
							"internalType": "address",
							"name": "sender",
							"type": "address"
						},
						{
							"internalType": "address",
							"name": "recipient",
							"type": "address"
						},
						{
							"internalType": "uint256",
							"name": "amount",
							"type": "uint256"
						}
					],
					"name": "transferFrom",
					"outputs": [
						{
							"internalType": "bool",
							"name": "",
							"type": "bool"
						}
					],
					"stateMutability": "nonpayable",
					"type": "function"
				},
				{
					"inputs": [
						{
							"internalType": "address",
							"name": "newOwner",
							"type": "address"
						}
					],
					"name": "transferOwnership",
					"outputs": [],
					"stateMutability": "nonpayable",
					"type": "function"
				},
				{
					"inputs": [
						{
							"internalType": "address",
							"name": "recipient",
							"type": "address"
						},
						{
							"internalType": "uint256",
							"name": "amount",
							"type": "uint256"
						}
					],
					"name": "transferTokensToUser",
					"outputs": [],
					"stateMutability": "nonpayable",
					"type": "function"
				},
				{
					"inputs": [
						{
							"internalType": "address",
							"name": "recipient",
							"type": "address"
						},
						{
							"internalType": "uint256",
							"name": "amount",
							"type": "uint256"
						},
						{
							"internalType": "string",
							"name": "message",
							"type": "string"
						}
					],
					"name": "transferWithMessage",
					"outputs": [
						{
							"internalType": "bool",
							"name": "",
							"type": "bool"
						}
					],
					"stateMutability": "nonpayable",
					"type": "function"
				},
				{
					"inputs": [
						{
							"internalType": "address",
							"name": "recipient",
							"type": "address"
						},
						{
							"internalType": "uint256",
							"name": "amount",
							"type": "uint256"
						}
					],
					"name": "transferWithTreasury",
					"outputs": [
						{
							"internalType": "bool",
							"name": "",
							"type": "bool"
						}
					],
					"stateMutability": "nonpayable",
					"type": "function"
				},
				{
					"inputs": [],
					"name": "treasury",
					"outputs": [
						{
							"internalType": "address",
							"name": "",
							"type": "address"
						}
					],
					"stateMutability": "view",
					"type": "function"
				}
			],
			"devdoc": {
				"kind": "dev",
				"methods": {},
				"version": 1
			},
			"evm": {
				"assembly": "    /* \"First-Run/CityTouchToken.sol\":157:3615  contract CityTouchToken is ERC20, Ownable {... */\n  mstore(0x40, 0x80)\n    /* \"First-Run/CityTouchToken.sol\":257:267  decimals() */\n  tag_1\n    /* \"First-Run/CityTouchToken.sol\":257:265  decimals */\n  shl(0x20, tag_2)\n    /* \"First-Run/CityTouchToken.sol\":257:267  decimals() */\n  0x20\n  shr\n  jump\t// in\ntag_1:\n    /* \"First-Run/CityTouchToken.sol\":251:253  10 */\n  0x0a\n    /* \"First-Run/CityTouchToken.sol\":251:267  10 ** decimals() */\n  tag_3\n  swap2\n  swap1\n  tag_4\n  jump\t// in\ntag_3:\n    /* \"First-Run/CityTouchToken.sol\":238:248  25_000_000 */\n  0x017d7840\n    /* \"First-Run/CityTouchToken.sol\":238:267  25_000_000 * 10 ** decimals() */\n  tag_5\n  swap2\n  swap1\n  tag_6\n  jump\t// in\ntag_5:\n    /* \"First-Run/CityTouchToken.sol\":205:267  uint256 private _initialSupply = 25_000_000 * 10 ** decimals() */\n  0x06\n  sstore\n    /* \"First-Run/CityTouchToken.sol\":390:398  365 days */\n  0x01e13380\n    /* \"First-Run/CityTouchToken.sol\":357:398  uint256 public halvingInterval = 365 days */\n  0x08\n  sstore\n    /* \"First-Run/CityTouchToken.sol\":505:506  2 */\n  0x02\n    /* \"First-Run/CityTouchToken.sol\":474:506  uint256 public halvingFactor = 2 */\n  0x0a\n  sstore\n    /* \"First-Run/CityTouchToken.sol\":592:602  decimals() */\n  tag_7\n    /* \"First-Run/CityTouchToken.sol\":592:600  decimals */\n  shl(0x20, tag_2)\n    /* \"First-Run/CityTouchToken.sol\":592:602  decimals() */\n  0x20\n  shr\n  jump\t// in\ntag_7:\n    /* \"First-Run/CityTouchToken.sol\":586:588  10 */\n  0x0a\n    /* \"First-Run/CityTouchToken.sol\":586:602  10 ** decimals() */\n  tag_8\n  swap2\n  swap1\n  tag_4\n  jump\t// in\ntag_8:\n    /* \"First-Run/CityTouchToken.sol\":579:583  1000 */\n  0x03e8\n    /* \"First-Run/CityTouchToken.sol\":579:602  1000 * 10 ** decimals() */\n  tag_9\n  swap2\n  swap1\n  tag_6\n  jump\t// in\ntag_9:\n    /* \"First-Run/CityTouchToken.sol\":555:602  uint256 public reward = 1000 * 10 ** decimals() */\n  0x0b\n  sstore\n    /* \"First-Run/CityTouchToken.sol\":893:1156  constructor(address _treasury) ERC20(\"CityTouch\", \"CTT\") {... */\n  callvalue\n  dup1\n  iszero\n  tag_10\n  jumpi\n  revert(0x00, 0x00)\ntag_10:\n  pop\n  mload(0x40)\n  sub(codesize, bytecodeSize)\n  dup1\n  bytecodeSize\n  dup4\n  codecopy\n  dup2\n  dup2\n  add\n  0x40\n  mstore\n  dup2\n  add\n  swap1\n  tag_11\n  swap2\n  swap1\n  tag_12\n  jump\t// in\ntag_11:\n    /* \"First-Run/ERC20.sol\":1238:1351  constructor(string memory name_, string memory symbol_) {... */\n  mload(0x40)\n  dup1\n  0x40\n  add\n  0x40\n  mstore\n  dup1\n  0x09\n  dup2\n  mstore\n  0x20\n  add\n  0x43697479546f7563680000000000000000000000000000000000000000000000\n  dup2\n  mstore\n  pop\n  mload(0x40)\n  dup1\n  0x40\n  add\n  0x40\n  mstore\n  dup1\n  0x03\n  dup2\n  mstore\n  0x20\n  add\n  0x4354540000000000000000000000000000000000000000000000000000000000\n  dup2\n  mstore\n  pop\n    /* \"First-Run/ERC20.sol\":1312:1317  name_ */\n  dup2\n    /* \"First-Run/ERC20.sol\":1304:1309  _name */\n  0x03\n    /* \"First-Run/ERC20.sol\":1304:1317  _name = name_ */\n  swap1\n  dup2\n  tag_17\n  swap2\n  swap1\n  tag_18\n  jump\t// in\ntag_17:\n  pop\n    /* \"First-Run/ERC20.sol\":1337:1344  symbol_ */\n  dup1\n    /* \"First-Run/ERC20.sol\":1327:1334  _symbol */\n  0x04\n    /* \"First-Run/ERC20.sol\":1327:1344  _symbol = symbol_ */\n  swap1\n  dup2\n  tag_19\n  swap2\n  swap1\n  tag_18\n  jump\t// in\ntag_19:\n  pop\n    /* \"First-Run/ERC20.sol\":1238:1351  constructor(string memory name_, string memory symbol_) {... */\n  pop\n  pop\n    /* \"First-Run/Ownable.sol\":224:245  _setOwner(msg.sender) */\n  tag_21\n    /* \"First-Run/Ownable.sol\":234:244  msg.sender */\n  caller\n    /* \"First-Run/Ownable.sol\":224:233  _setOwner */\n  shl(0x20, tag_22)\n    /* \"First-Run/Ownable.sol\":224:245  _setOwner(msg.sender) */\n  0x20\n  shr\n  jump\t// in\ntag_21:\n    /* \"First-Run/CityTouchToken.sol\":971:980  _treasury */\n  dup1\n    /* \"First-Run/CityTouchToken.sol\":960:968  treasury */\n  0x07\n  0x00\n    /* \"First-Run/CityTouchToken.sol\":960:980  treasury = _treasury */\n  0x0100\n  exp\n  dup2\n  sload\n  dup2\n  0xffffffffffffffffffffffffffffffffffffffff\n  mul\n  not\n  and\n  swap1\n  dup4\n  0xffffffffffffffffffffffffffffffffffffffff\n  and\n  mul\n  or\n  swap1\n  sstore\n  pop\n    /* \"First-Run/CityTouchToken.sol\":1022:1037  halvingInterval */\n  sload(0x08)\n    /* \"First-Run/CityTouchToken.sol\":1004:1019  block.timestamp */\n  timestamp\n    /* \"First-Run/CityTouchToken.sol\":1004:1037  block.timestamp + halvingInterval */\n  tag_24\n  swap2\n  swap1\n  tag_25\n  jump\t// in\ntag_24:\n    /* \"First-Run/CityTouchToken.sol\":990:1001  nextHalving */\n  0x09\n    /* \"First-Run/CityTouchToken.sol\":990:1037  nextHalving = block.timestamp + halvingInterval */\n  dup2\n  swap1\n  sstore\n  pop\n    /* \"First-Run/CityTouchToken.sol\":1116:1149  _mint(msg.sender, _initialSupply) */\n  tag_26\n    /* \"First-Run/CityTouchToken.sol\":1122:1132  msg.sender */\n  caller\n    /* \"First-Run/CityTouchToken.sol\":1134:1148  _initialSupply */\n  sload(0x06)\n    /* \"First-Run/CityTouchToken.sol\":1116:1121  _mint */\n  shl(0x20, tag_27)\n    /* \"First-Run/CityTouchToken.sol\":1116:1149  _mint(msg.sender, _initialSupply) */\n  0x20\n  shr\n  jump\t// in\ntag_26:\n    /* \"First-Run/CityTouchToken.sol\":893:1156  constructor(address _treasury) ERC20(\"CityTouch\", \"CTT\") {... */\n  pop\n    /* \"First-Run/CityTouchToken.sol\":157:3615  contract CityTouchToken is ERC20, Ownable {... */\n  jump(tag_28)\n    /* \"First-Run/ERC20.sol\":1569:1660  function decimals() public view virtual override returns (uint8) {... */\ntag_2:\n    /* \"First-Run/ERC20.sol\":1627:1632  uint8 */\n  0x00\n    /* \"First-Run/ERC20.sol\":1651:1653  18 */\n  0x12\n    /* \"First-Run/ERC20.sol\":1644:1653  return 18 */\n  swap1\n  pop\n    /* \"First-Run/ERC20.sol\":1569:1660  function decimals() public view virtual override returns (uint8) {... */\n  swap1\n  jump\t// out\n    /* \"First-Run/Ownable.sol\":763:932  function _setOwner(address newOwner) private {... */\ntag_22:\n    /* \"First-Run/Ownable.sol\":818:834  address oldOwner */\n  0x00\n    /* \"First-Run/Ownable.sol\":837:843  _owner */\n  0x05\n  0x00\n  swap1\n  sload\n  swap1\n  0x0100\n  exp\n  swap1\n  div\n  0xffffffffffffffffffffffffffffffffffffffff\n  and\n    /* \"First-Run/Ownable.sol\":818:843  address oldOwner = _owner */\n  swap1\n  pop\n    /* \"First-Run/Ownable.sol\":862:870  newOwner */\n  dup2\n    /* \"First-Run/Ownable.sol\":853:859  _owner */\n  0x05\n  0x00\n    /* \"First-Run/Ownable.sol\":853:870  _owner = newOwner */\n  0x0100\n  exp\n  dup2\n  sload\n  dup2\n  0xffffffffffffffffffffffffffffffffffffffff\n  mul\n  not\n  and\n  swap1\n  dup4\n  0xffffffffffffffffffffffffffffffffffffffff\n  and\n  mul\n  or\n  swap1\n  sstore\n  pop\n    /* \"First-Run/Ownable.sol\":916:924  newOwner */\n  dup2\n    /* \"First-Run/Ownable.sol\":885:925  OwnershipTransferred(oldOwner, newOwner) */\n  0xffffffffffffffffffffffffffffffffffffffff\n  and\n    /* \"First-Run/Ownable.sol\":906:914  oldOwner */\n  dup2\n    /* \"First-Run/Ownable.sol\":885:925  OwnershipTransferred(oldOwner, newOwner) */\n  0xffffffffffffffffffffffffffffffffffffffff\n  and\n  0x8be0079c531659141344cd1fd0a4f28419497f9722a3daafe3b4186f6b6457e0\n  mload(0x40)\n  mload(0x40)\n  dup1\n  swap2\n  sub\n  swap1\n  log3\n    /* \"First-Run/Ownable.sol\":808:932  {... */\n  pop\n    /* \"First-Run/Ownable.sol\":763:932  function _setOwner(address newOwner) private {... */\n  pop\n  jump\t// out\n    /* \"First-Run/ERC20.sol\":3966:4236  function _mint(address account, uint256 amount) internal virtual {... */\ntag_27:\n    /* \"First-Run/ERC20.sol\":4068:4069  0 */\n  0x00\n    /* \"First-Run/ERC20.sol\":4049:4070  account != address(0) */\n  0xffffffffffffffffffffffffffffffffffffffff\n  and\n    /* \"First-Run/ERC20.sol\":4049:4056  account */\n  dup3\n    /* \"First-Run/ERC20.sol\":4049:4070  account != address(0) */\n  0xffffffffffffffffffffffffffffffffffffffff\n  and\n  sub\n    /* \"First-Run/ERC20.sol\":4041:4106  require(account != address(0), \"ERC20: mint to the zero address\") */\n  tag_32\n  jumpi\n  mload(0x40)\n  0x08c379a000000000000000000000000000000000000000000000000000000000\n  dup2\n  mstore\n  0x04\n  add\n  tag_33\n  swap1\n  tag_34\n  jump\t// in\ntag_33:\n  mload(0x40)\n  dup1\n  swap2\n  sub\n  swap1\n  revert\ntag_32:\n    /* \"First-Run/ERC20.sol\":4133:4139  amount */\n  dup1\n    /* \"First-Run/ERC20.sol\":4117:4129  _totalSupply */\n  0x02\n  0x00\n    /* \"First-Run/ERC20.sol\":4117:4139  _totalSupply += amount */\n  dup3\n  dup3\n  sload\n  tag_35\n  swap2\n  swap1\n  tag_25\n  jump\t// in\ntag_35:\n  swap3\n  pop\n  pop\n  dup2\n  swap1\n  sstore\n  pop\n    /* \"First-Run/ERC20.sol\":4171:4177  amount */\n  dup1\n    /* \"First-Run/ERC20.sol\":4149:4158  _balances */\n  0x00\n    /* \"First-Run/ERC20.sol\":4149:4167  _balances[account] */\n  0x00\n    /* \"First-Run/ERC20.sol\":4159:4166  account */\n  dup5\n    /* \"First-Run/ERC20.sol\":4149:4167  _balances[account] */\n  0xffffffffffffffffffffffffffffffffffffffff\n  and\n  0xffffffffffffffffffffffffffffffffffffffff\n  and\n  dup2\n  mstore\n  0x20\n  add\n  swap1\n  dup2\n  mstore\n  0x20\n  add\n  0x00\n  keccak256\n  0x00\n    /* \"First-Run/ERC20.sol\":4149:4177  _balances[account] += amount */\n  dup3\n  dup3\n  sload\n  tag_36\n  swap2\n  swap1\n  tag_25\n  jump\t// in\ntag_36:\n  swap3\n  pop\n  pop\n  dup2\n  swap1\n  sstore\n  pop\n    /* \"First-Run/ERC20.sol\":4213:4220  account */\n  dup2\n    /* \"First-Run/ERC20.sol\":4192:4229  Transfer(address(0), account, amount) */\n  0xffffffffffffffffffffffffffffffffffffffff\n  and\n    /* \"First-Run/ERC20.sol\":4209:4210  0 */\n  0x00\n    /* \"First-Run/ERC20.sol\":4192:4229  Transfer(address(0), account, amount) */\n  0xffffffffffffffffffffffffffffffffffffffff\n  and\n  0xddf252ad1be2c89b69c2b068fc378daa952ba7f163c4a11628f55a4df523b3ef\n    /* \"First-Run/ERC20.sol\":4222:4228  amount */\n  dup4\n    /* \"First-Run/ERC20.sol\":4192:4229  Transfer(address(0), account, amount) */\n  mload(0x40)\n  tag_37\n  swap2\n  swap1\n  tag_38\n  jump\t// in\ntag_37:\n  mload(0x40)\n  dup1\n  swap2\n  sub\n  swap1\n  log3\n    /* \"First-Run/ERC20.sol\":3966:4236  function _mint(address account, uint256 amount) internal virtual {... */\n  pop\n  pop\n  jump\t// out\n    /* \"#utility.yul\":7:187   */\ntag_39:\n    /* \"#utility.yul\":55:132   */\n  0x4e487b7100000000000000000000000000000000000000000000000000000000\n    /* \"#utility.yul\":52:53   */\n  0x00\n    /* \"#utility.yul\":45:133   */\n  mstore\n    /* \"#utility.yul\":152:156   */\n  0x11\n    /* \"#utility.yul\":149:150   */\n  0x04\n    /* \"#utility.yul\":142:157   */\n  mstore\n    /* \"#utility.yul\":176:180   */\n  0x24\n    /* \"#utility.yul\":173:174   */\n  0x00\n    /* \"#utility.yul\":166:181   */\n  revert\n    /* \"#utility.yul\":193:295   */\ntag_40:\n    /* \"#utility.yul\":235:243   */\n  0x00\n    /* \"#utility.yul\":282:287   */\n  dup2\n    /* \"#utility.yul\":279:280   */\n  0x01\n    /* \"#utility.yul\":275:288   */\n  shr\n    /* \"#utility.yul\":254:288   */\n  swap1\n  pop\n    /* \"#utility.yul\":193:295   */\n  swap2\n  swap1\n  pop\n  jump\t// out\n    /* \"#utility.yul\":301:1149   */\ntag_41:\n    /* \"#utility.yul\":362:367   */\n  0x00\n    /* \"#utility.yul\":369:373   */\n  0x00\n    /* \"#utility.yul\":393:399   */\n  dup3\n    /* \"#utility.yul\":384:399   */\n  swap2\n  pop\n    /* \"#utility.yul\":417:422   */\n  dup4\n    /* \"#utility.yul\":408:422   */\n  swap1\n  pop\n    /* \"#utility.yul\":431:1143   */\ntag_79:\n    /* \"#utility.yul\":452:453   */\n  0x01\n    /* \"#utility.yul\":442:450   */\n  dup6\n    /* \"#utility.yul\":439:454   */\n  gt\n    /* \"#utility.yul\":431:1143   */\n  iszero\n  tag_81\n  jumpi\n    /* \"#utility.yul\":547:551   */\n  dup1\n    /* \"#utility.yul\":542:545   */\n  dup7\n    /* \"#utility.yul\":538:552   */\n  div\n    /* \"#utility.yul\":532:536   */\n  dup2\n    /* \"#utility.yul\":529:553   */\n  gt\n    /* \"#utility.yul\":526:576   */\n  iszero\n  tag_82\n  jumpi\n    /* \"#utility.yul\":556:574   */\n  tag_83\n  tag_39\n  jump\t// in\ntag_83:\n    /* \"#utility.yul\":526:576   */\ntag_82:\n    /* \"#utility.yul\":606:607   */\n  0x01\n    /* \"#utility.yul\":596:604   */\n  dup6\n    /* \"#utility.yul\":592:608   */\n  and\n    /* \"#utility.yul\":589:1040   */\n  iszero\n  tag_84\n  jumpi\n    /* \"#utility.yul\":1021:1025   */\n  dup1\n    /* \"#utility.yul\":1014:1019   */\n  dup3\n    /* \"#utility.yul\":1010:1026   */\n  mul\n    /* \"#utility.yul\":1001:1026   */\n  swap2\n  pop\n    /* \"#utility.yul\":589:1040   */\ntag_84:\n    /* \"#utility.yul\":1071:1075   */\n  dup1\n    /* \"#utility.yul\":1065:1069   */\n  dup2\n    /* \"#utility.yul\":1061:1076   */\n  mul\n    /* \"#utility.yul\":1053:1076   */\n  swap1\n  pop\n    /* \"#utility.yul\":1101:1133   */\n  tag_85\n    /* \"#utility.yul\":1124:1132   */\n  dup6\n    /* \"#utility.yul\":1101:1133   */\n  tag_40\n  jump\t// in\ntag_85:\n    /* \"#utility.yul\":1089:1133   */\n  swap5\n  pop\n    /* \"#utility.yul\":431:1143   */\n  jump(tag_79)\ntag_81:\n    /* \"#utility.yul\":301:1149   */\n  swap5\n  pop\n  swap5\n  swap3\n  pop\n  pop\n  pop\n  jump\t// out\n    /* \"#utility.yul\":1155:2228   */\ntag_42:\n    /* \"#utility.yul\":1209:1214   */\n  0x00\n    /* \"#utility.yul\":1400:1408   */\n  dup3\n    /* \"#utility.yul\":1390:1430   */\n  tag_87\n  jumpi\n    /* \"#utility.yul\":1421:1422   */\n  0x01\n    /* \"#utility.yul\":1412:1422   */\n  swap1\n  pop\n    /* \"#utility.yul\":1423:1428   */\n  jump(tag_86)\n    /* \"#utility.yul\":1390:1430   */\ntag_87:\n    /* \"#utility.yul\":1449:1453   */\n  dup2\n    /* \"#utility.yul\":1439:1475   */\n  tag_88\n  jumpi\n    /* \"#utility.yul\":1466:1467   */\n  0x00\n    /* \"#utility.yul\":1457:1467   */\n  swap1\n  pop\n    /* \"#utility.yul\":1468:1473   */\n  jump(tag_86)\n    /* \"#utility.yul\":1439:1475   */\ntag_88:\n    /* \"#utility.yul\":1535:1539   */\n  dup2\n    /* \"#utility.yul\":1583:1584   */\n  0x01\n    /* \"#utility.yul\":1578:1605   */\n  dup2\n  eq\n  tag_90\n  jumpi\n    /* \"#utility.yul\":1619:1620   */\n  0x02\n    /* \"#utility.yul\":1614:1805   */\n  dup2\n  eq\n  tag_91\n  jumpi\n    /* \"#utility.yul\":1528:1805   */\n  jump(tag_89)\n    /* \"#utility.yul\":1578:1605   */\ntag_90:\n    /* \"#utility.yul\":1596:1597   */\n  0x01\n    /* \"#utility.yul\":1587:1597   */\n  swap2\n  pop\n    /* \"#utility.yul\":1598:1603   */\n  pop\n  jump(tag_86)\n    /* \"#utility.yul\":1614:1805   */\ntag_91:\n    /* \"#utility.yul\":1659:1662   */\n  0xff\n    /* \"#utility.yul\":1649:1657   */\n  dup5\n    /* \"#utility.yul\":1646:1663   */\n  gt\n    /* \"#utility.yul\":1643:1686   */\n  iszero\n  tag_92\n  jumpi\n    /* \"#utility.yul\":1666:1684   */\n  tag_93\n  tag_39\n  jump\t// in\ntag_93:\n    /* \"#utility.yul\":1643:1686   */\ntag_92:\n    /* \"#utility.yul\":1715:1723   */\n  dup4\n    /* \"#utility.yul\":1712:1713   */\n  0x02\n    /* \"#utility.yul\":1708:1724   */\n  exp\n    /* \"#utility.yul\":1699:1724   */\n  swap2\n  pop\n    /* \"#utility.yul\":1750:1753   */\n  dup5\n    /* \"#utility.yul\":1743:1748   */\n  dup3\n    /* \"#utility.yul\":1740:1754   */\n  gt\n    /* \"#utility.yul\":1737:1777   */\n  iszero\n  tag_94\n  jumpi\n    /* \"#utility.yul\":1757:1775   */\n  tag_95\n  tag_39\n  jump\t// in\ntag_95:\n    /* \"#utility.yul\":1737:1777   */\ntag_94:\n    /* \"#utility.yul\":1790:1795   */\n  pop\n  jump(tag_86)\n    /* \"#utility.yul\":1528:1805   */\ntag_89:\n  pop\n    /* \"#utility.yul\":1914:1916   */\n  0x20\n    /* \"#utility.yul\":1904:1912   */\n  dup4\n    /* \"#utility.yul\":1901:1917   */\n  lt\n    /* \"#utility.yul\":1895:1898   */\n  0x0133\n    /* \"#utility.yul\":1889:1893   */\n  dup4\n    /* \"#utility.yul\":1886:1899   */\n  lt\n    /* \"#utility.yul\":1882:1918   */\n  and\n    /* \"#utility.yul\":1864:1866   */\n  0x4e\n    /* \"#utility.yul\":1854:1862   */\n  dup5\n    /* \"#utility.yul\":1851:1867   */\n  lt\n    /* \"#utility.yul\":1846:1848   */\n  0x0b\n    /* \"#utility.yul\":1840:1844   */\n  dup5\n    /* \"#utility.yul\":1837:1849   */\n  lt\n    /* \"#utility.yul\":1833:1868   */\n  and\n    /* \"#utility.yul\":1817:1928   */\n  or\n    /* \"#utility.yul\":1814:2060   */\n  iszero\n  tag_96\n  jumpi\n    /* \"#utility.yul\":1970:1978   */\n  dup3\n    /* \"#utility.yul\":1964:1968   */\n  dup3\n    /* \"#utility.yul\":1960:1979   */\n  exp\n    /* \"#utility.yul\":1951:1979   */\n  swap1\n  pop\n    /* \"#utility.yul\":2005:2008   */\n  dup4\n    /* \"#utility.yul\":1998:2003   */\n  dup2\n    /* \"#utility.yul\":1995:2009   */\n  gt\n    /* \"#utility.yul\":1992:2032   */\n  iszero\n  tag_97\n  jumpi\n    /* \"#utility.yul\":2012:2030   */\n  tag_98\n  tag_39\n  jump\t// in\ntag_98:\n    /* \"#utility.yul\":1992:2032   */\ntag_97:\n    /* \"#utility.yul\":2045:2050   */\n  jump(tag_86)\n    /* \"#utility.yul\":1814:2060   */\ntag_96:\n    /* \"#utility.yul\":2085:2127   */\n  tag_99\n    /* \"#utility.yul\":2123:2126   */\n  dup5\n    /* \"#utility.yul\":2113:2121   */\n  dup5\n    /* \"#utility.yul\":2107:2111   */\n  dup5\n    /* \"#utility.yul\":2104:2105   */\n  0x01\n    /* \"#utility.yul\":2085:2127   */\n  tag_41\n  jump\t// in\ntag_99:\n    /* \"#utility.yul\":2070:2127   */\n  swap3\n  pop\n  swap1\n  pop\n    /* \"#utility.yul\":2159:2163   */\n  dup2\n    /* \"#utility.yul\":2154:2157   */\n  dup5\n    /* \"#utility.yul\":2150:2164   */\n  div\n    /* \"#utility.yul\":2143:2148   */\n  dup2\n    /* \"#utility.yul\":2140:2165   */\n  gt\n    /* \"#utility.yul\":2137:2188   */\n  iszero\n  tag_100\n  jumpi\n    /* \"#utility.yul\":2168:2186   */\n  tag_101\n  tag_39\n  jump\t// in\ntag_101:\n    /* \"#utility.yul\":2137:2188   */\ntag_100:\n    /* \"#utility.yul\":2217:2221   */\n  dup2\n    /* \"#utility.yul\":2210:2215   */\n  dup2\n    /* \"#utility.yul\":2206:2222   */\n  mul\n    /* \"#utility.yul\":2197:2222   */\n  swap1\n  pop\n    /* \"#utility.yul\":1155:2228   */\ntag_86:\n  swap4\n  swap3\n  pop\n  pop\n  pop\n  jump\t// out\n    /* \"#utility.yul\":2234:2311   */\ntag_43:\n    /* \"#utility.yul\":2271:2278   */\n  0x00\n    /* \"#utility.yul\":2300:2305   */\n  dup2\n    /* \"#utility.yul\":2289:2305   */\n  swap1\n  pop\n    /* \"#utility.yul\":2234:2311   */\n  swap2\n  swap1\n  pop\n  jump\t// out\n    /* \"#utility.yul\":2317:2403   */\ntag_44:\n    /* \"#utility.yul\":2352:2359   */\n  0x00\n    /* \"#utility.yul\":2392:2396   */\n  0xff\n    /* \"#utility.yul\":2385:2390   */\n  dup3\n    /* \"#utility.yul\":2381:2397   */\n  and\n    /* \"#utility.yul\":2370:2397   */\n  swap1\n  pop\n    /* \"#utility.yul\":2317:2403   */\n  swap2\n  swap1\n  pop\n  jump\t// out\n    /* \"#utility.yul\":2409:2690   */\ntag_4:\n    /* \"#utility.yul\":2467:2472   */\n  0x00\n    /* \"#utility.yul\":2491:2514   */\n  tag_105\n    /* \"#utility.yul\":2509:2513   */\n  dup3\n    /* \"#utility.yul\":2491:2514   */\n  tag_43\n  jump\t// in\ntag_105:\n    /* \"#utility.yul\":2483:2514   */\n  swap2\n  pop\n    /* \"#utility.yul\":2535:2560   */\n  tag_106\n    /* \"#utility.yul\":2551:2559   */\n  dup4\n    /* \"#utility.yul\":2535:2560   */\n  tag_44\n  jump\t// in\ntag_106:\n    /* \"#utility.yul\":2523:2560   */\n  swap3\n  pop\n    /* \"#utility.yul\":2579:2683   */\n  tag_107\n    /* \"#utility.yul\":2616:2682   */\n  0xffffffffffffffffffffffffffffffffffffffffffffffffffffffffffffffff\n    /* \"#utility.yul\":2606:2614   */\n  dup5\n    /* \"#utility.yul\":2600:2604   */\n  dup5\n    /* \"#utility.yul\":2579:2683   */\n  tag_42\n  jump\t// in\ntag_107:\n    /* \"#utility.yul\":2570:2683   */\n  swap1\n  pop\n    /* \"#utility.yul\":2409:2690   */\n  swap3\n  swap2\n  pop\n  pop\n  jump\t// out\n    /* \"#utility.yul\":2696:3106   */\ntag_6:\n    /* \"#utility.yul\":2736:2743   */\n  0x00\n    /* \"#utility.yul\":2759:2779   */\n  tag_109\n    /* \"#utility.yul\":2777:2778   */\n  dup3\n    /* \"#utility.yul\":2759:2779   */\n  tag_43\n  jump\t// in\ntag_109:\n    /* \"#utility.yul\":2754:2779   */\n  swap2\n  pop\n    /* \"#utility.yul\":2793:2813   */\n  tag_110\n    /* \"#utility.yul\":2811:2812   */\n  dup4\n    /* \"#utility.yul\":2793:2813   */\n  tag_43\n  jump\t// in\ntag_110:\n    /* \"#utility.yul\":2788:2813   */\n  swap3\n  pop\n    /* \"#utility.yul\":2848:2849   */\n  dup3\n    /* \"#utility.yul\":2845:2846   */\n  dup3\n    /* \"#utility.yul\":2841:2850   */\n  mul\n    /* \"#utility.yul\":2870:2900   */\n  tag_111\n    /* \"#utility.yul\":2888:2899   */\n  dup2\n    /* \"#utility.yul\":2870:2900   */\n  tag_43\n  jump\t// in\ntag_111:\n    /* \"#utility.yul\":2859:2900   */\n  swap2\n  pop\n    /* \"#utility.yul\":3049:3050   */\n  dup3\n    /* \"#utility.yul\":3040:3047   */\n  dup3\n    /* \"#utility.yul\":3036:3051   */\n  div\n    /* \"#utility.yul\":3033:3034   */\n  dup5\n    /* \"#utility.yul\":3030:3052   */\n  eq\n    /* \"#utility.yul\":3010:3011   */\n  dup4\n    /* \"#utility.yul\":3003:3012   */\n  iszero\n    /* \"#utility.yul\":2983:3066   */\n  or\n    /* \"#utility.yul\":2960:3099   */\n  tag_112\n  jumpi\n    /* \"#utility.yul\":3079:3097   */\n  tag_113\n  tag_39\n  jump\t// in\ntag_113:\n    /* \"#utility.yul\":2960:3099   */\ntag_112:\n    /* \"#utility.yul\":2744:3106   */\n  pop\n    /* \"#utility.yul\":2696:3106   */\n  swap3\n  swap2\n  pop\n  pop\n  jump\t// out\n    /* \"#utility.yul\":3193:3310   */\ntag_46:\n    /* \"#utility.yul\":3302:3303   */\n  0x00\n    /* \"#utility.yul\":3299:3300   */\n  0x00\n    /* \"#utility.yul\":3292:3304   */\n  revert\n    /* \"#utility.yul\":3439:3565   */\ntag_48:\n    /* \"#utility.yul\":3476:3483   */\n  0x00\n    /* \"#utility.yul\":3516:3558   */\n  0xffffffffffffffffffffffffffffffffffffffff\n    /* \"#utility.yul\":3509:3514   */\n  dup3\n    /* \"#utility.yul\":3505:3559   */\n  and\n    /* \"#utility.yul\":3494:3559   */\n  swap1\n  pop\n    /* \"#utility.yul\":3439:3565   */\n  swap2\n  swap1\n  pop\n  jump\t// out\n    /* \"#utility.yul\":3571:3667   */\ntag_49:\n    /* \"#utility.yul\":3608:3615   */\n  0x00\n    /* \"#utility.yul\":3637:3661   */\n  tag_119\n    /* \"#utility.yul\":3655:3660   */\n  dup3\n    /* \"#utility.yul\":3637:3661   */\n  tag_48\n  jump\t// in\ntag_119:\n    /* \"#utility.yul\":3626:3661   */\n  swap1\n  pop\n    /* \"#utility.yul\":3571:3667   */\n  swap2\n  swap1\n  pop\n  jump\t// out\n    /* \"#utility.yul\":3673:3795   */\ntag_50:\n    /* \"#utility.yul\":3746:3770   */\n  tag_121\n    /* \"#utility.yul\":3764:3769   */\n  dup2\n    /* \"#utility.yul\":3746:3770   */\n  tag_49\n  jump\t// in\ntag_121:\n    /* \"#utility.yul\":3739:3744   */\n  dup2\n    /* \"#utility.yul\":3736:3771   */\n  eq\n    /* \"#utility.yul\":3726:3789   */\n  tag_122\n  jumpi\n    /* \"#utility.yul\":3785:3786   */\n  0x00\n    /* \"#utility.yul\":3782:3783   */\n  0x00\n    /* \"#utility.yul\":3775:3787   */\n  revert\n    /* \"#utility.yul\":3726:3789   */\ntag_122:\n    /* \"#utility.yul\":3673:3795   */\n  pop\n  jump\t// out\n    /* \"#utility.yul\":3801:3944   */\ntag_51:\n    /* \"#utility.yul\":3858:3863   */\n  0x00\n    /* \"#utility.yul\":3889:3895   */\n  dup2\n    /* \"#utility.yul\":3883:3896   */\n  mload\n    /* \"#utility.yul\":3874:3896   */\n  swap1\n  pop\n    /* \"#utility.yul\":3905:3938   */\n  tag_124\n    /* \"#utility.yul\":3932:3937   */\n  dup2\n    /* \"#utility.yul\":3905:3938   */\n  tag_50\n  jump\t// in\ntag_124:\n    /* \"#utility.yul\":3801:3944   */\n  swap3\n  swap2\n  pop\n  pop\n  jump\t// out\n    /* \"#utility.yul\":3950:4301   */\ntag_12:\n    /* \"#utility.yul\":4020:4026   */\n  0x00\n    /* \"#utility.yul\":4069:4071   */\n  0x20\n    /* \"#utility.yul\":4057:4066   */\n  dup3\n    /* \"#utility.yul\":4048:4055   */\n  dup5\n    /* \"#utility.yul\":4044:4067   */\n  sub\n    /* \"#utility.yul\":4040:4072   */\n  slt\n    /* \"#utility.yul\":4037:4156   */\n  iszero\n  tag_126\n  jumpi\n    /* \"#utility.yul\":4075:4154   */\n  tag_127\n  tag_46\n  jump\t// in\ntag_127:\n    /* \"#utility.yul\":4037:4156   */\ntag_126:\n    /* \"#utility.yul\":4195:4196   */\n  0x00\n    /* \"#utility.yul\":4220:4284   */\n  tag_128\n    /* \"#utility.yul\":4276:4283   */\n  dup5\n    /* \"#utility.yul\":4267:4273   */\n  dup3\n    /* \"#utility.yul\":4256:4265   */\n  dup6\n    /* \"#utility.yul\":4252:4274   */\n  add\n    /* \"#utility.yul\":4220:4284   */\n  tag_51\n  jump\t// in\ntag_128:\n    /* \"#utility.yul\":4210:4284   */\n  swap2\n  pop\n    /* \"#utility.yul\":4166:4294   */\n  pop\n    /* \"#utility.yul\":3950:4301   */\n  swap3\n  swap2\n  pop\n  pop\n  jump\t// out\n    /* \"#utility.yul\":4307:4406   */\ntag_52:\n    /* \"#utility.yul\":4359:4365   */\n  0x00\n    /* \"#utility.yul\":4393:4398   */\n  dup2\n    /* \"#utility.yul\":4387:4399   */\n  mload\n    /* \"#utility.yul\":4377:4399   */\n  swap1\n  pop\n    /* \"#utility.yul\":4307:4406   */\n  swap2\n  swap1\n  pop\n  jump\t// out\n    /* \"#utility.yul\":4412:4592   */\ntag_53:\n    /* \"#utility.yul\":4460:4537   */\n  0x4e487b7100000000000000000000000000000000000000000000000000000000\n    /* \"#utility.yul\":4457:4458   */\n  0x00\n    /* \"#utility.yul\":4450:4538   */\n  mstore\n    /* \"#utility.yul\":4557:4561   */\n  0x41\n    /* \"#utility.yul\":4554:4555   */\n  0x04\n    /* \"#utility.yul\":4547:4562   */\n  mstore\n    /* \"#utility.yul\":4581:4585   */\n  0x24\n    /* \"#utility.yul\":4578:4579   */\n  0x00\n    /* \"#utility.yul\":4571:4586   */\n  revert\n    /* \"#utility.yul\":4598:4778   */\ntag_54:\n    /* \"#utility.yul\":4646:4723   */\n  0x4e487b7100000000000000000000000000000000000000000000000000000000\n    /* \"#utility.yul\":4643:4644   */\n  0x00\n    /* \"#utility.yul\":4636:4724   */\n  mstore\n    /* \"#utility.yul\":4743:4747   */\n  0x22\n    /* \"#utility.yul\":4740:4741   */\n  0x04\n    /* \"#utility.yul\":4733:4748   */\n  mstore\n    /* \"#utility.yul\":4767:4771   */\n  0x24\n    /* \"#utility.yul\":4764:4765   */\n  0x00\n    /* \"#utility.yul\":4757:4772   */\n  revert\n    /* \"#utility.yul\":4784:5104   */\ntag_55:\n    /* \"#utility.yul\":4828:4834   */\n  0x00\n    /* \"#utility.yul\":4865:4866   */\n  0x02\n    /* \"#utility.yul\":4859:4863   */\n  dup3\n    /* \"#utility.yul\":4855:4867   */\n  div\n    /* \"#utility.yul\":4845:4867   */\n  swap1\n  pop\n    /* \"#utility.yul\":4912:4913   */\n  0x01\n    /* \"#utility.yul\":4906:4910   */\n  dup3\n    /* \"#utility.yul\":4902:4914   */\n  and\n    /* \"#utility.yul\":4933:4951   */\n  dup1\n    /* \"#utility.yul\":4923:5004   */\n  tag_133\n  jumpi\n    /* \"#utility.yul\":4989:4993   */\n  0x7f\n    /* \"#utility.yul\":4981:4987   */\n  dup3\n    /* \"#utility.yul\":4977:4994   */\n  and\n    /* \"#utility.yul\":4967:4994   */\n  swap2\n  pop\n    /* \"#utility.yul\":4923:5004   */\ntag_133:\n    /* \"#utility.yul\":5051:5053   */\n  0x20\n    /* \"#utility.yul\":5043:5049   */\n  dup3\n    /* \"#utility.yul\":5040:5054   */\n  lt\n    /* \"#utility.yul\":5020:5038   */\n  dup2\n    /* \"#utility.yul\":5017:5055   */\n  sub\n    /* \"#utility.yul\":5014:5098   */\n  tag_134\n  jumpi\n    /* \"#utility.yul\":5070:5088   */\n  tag_135\n  tag_54\n  jump\t// in\ntag_135:\n    /* \"#utility.yul\":5014:5098   */\ntag_134:\n    /* \"#utility.yul\":4835:5104   */\n  pop\n    /* \"#utility.yul\":4784:5104   */\n  swap2\n  swap1\n  pop\n  jump\t// out\n    /* \"#utility.yul\":5110:5251   */\ntag_56:\n    /* \"#utility.yul\":5159:5163   */\n  0x00\n    /* \"#utility.yul\":5182:5185   */\n  dup2\n    /* \"#utility.yul\":5174:5185   */\n  swap1\n  pop\n    /* \"#utility.yul\":5205:5208   */\n  dup2\n    /* \"#utility.yul\":5202:5203   */\n  0x00\n    /* \"#utility.yul\":5195:5209   */\n  mstore\n    /* \"#utility.yul\":5239:5243   */\n  0x20\n    /* \"#utility.yul\":5236:5237   */\n  0x00\n    /* \"#utility.yul\":5226:5244   */\n  keccak256\n    /* \"#utility.yul\":5218:5244   */\n  swap1\n  pop\n    /* \"#utility.yul\":5110:5251   */\n  swap2\n  swap1\n  pop\n  jump\t// out\n    /* \"#utility.yul\":5257:5350   */\ntag_57:\n    /* \"#utility.yul\":5294:5300   */\n  0x00\n    /* \"#utility.yul\":5341:5343   */\n  0x20\n    /* \"#utility.yul\":5336:5338   */\n  0x1f\n    /* \"#utility.yul\":5329:5334   */\n  dup4\n    /* \"#utility.yul\":5325:5339   */\n  add\n    /* \"#utility.yul\":5321:5344   */\n  div\n    /* \"#utility.yul\":5311:5344   */\n  swap1\n  pop\n    /* \"#utility.yul\":5257:5350   */\n  swap2\n  swap1\n  pop\n  jump\t// out\n    /* \"#utility.yul\":5356:5463   */\ntag_58:\n    /* \"#utility.yul\":5400:5408   */\n  0x00\n    /* \"#utility.yul\":5450:5455   */\n  dup3\n    /* \"#utility.yul\":5444:5448   */\n  dup3\n    /* \"#utility.yul\":5440:5456   */\n  shl\n    /* \"#utility.yul\":5419:5456   */\n  swap1\n  pop\n    /* \"#utility.yul\":5356:5463   */\n  swap3\n  swap2\n  pop\n  pop\n  jump\t// out\n    /* \"#utility.yul\":5469:5862   */\ntag_59:\n    /* \"#utility.yul\":5538:5544   */\n  0x00\n    /* \"#utility.yul\":5588:5589   */\n  0x08\n    /* \"#utility.yul\":5576:5586   */\n  dup4\n    /* \"#utility.yul\":5572:5590   */\n  mul\n    /* \"#utility.yul\":5611:5708   */\n  tag_140\n    /* \"#utility.yul\":5641:5707   */\n  0xffffffffffffffffffffffffffffffffffffffffffffffffffffffffffffffff\n    /* \"#utility.yul\":5630:5639   */\n  dup3\n    /* \"#utility.yul\":5611:5708   */\n  tag_58\n  jump\t// in\ntag_140:\n    /* \"#utility.yul\":5729:5768   */\n  tag_141\n    /* \"#utility.yul\":5759:5767   */\n  dup7\n    /* \"#utility.yul\":5748:5757   */\n  dup4\n    /* \"#utility.yul\":5729:5768   */\n  tag_58\n  jump\t// in\ntag_141:\n    /* \"#utility.yul\":5717:5768   */\n  swap6\n  pop\n    /* \"#utility.yul\":5801:5805   */\n  dup1\n    /* \"#utility.yul\":5797:5806   */\n  not\n    /* \"#utility.yul\":5790:5795   */\n  dup5\n    /* \"#utility.yul\":5786:5807   */\n  and\n    /* \"#utility.yul\":5777:5807   */\n  swap4\n  pop\n    /* \"#utility.yul\":5850:5854   */\n  dup1\n    /* \"#utility.yul\":5840:5848   */\n  dup7\n    /* \"#utility.yul\":5836:5855   */\n  and\n    /* \"#utility.yul\":5829:5834   */\n  dup5\n    /* \"#utility.yul\":5826:5856   */\n  or\n    /* \"#utility.yul\":5816:5856   */\n  swap3\n  pop\n    /* \"#utility.yul\":5545:5862   */\n  pop\n  pop\n    /* \"#utility.yul\":5469:5862   */\n  swap4\n  swap3\n  pop\n  pop\n  pop\n  jump\t// out\n    /* \"#utility.yul\":5868:5928   */\ntag_60:\n    /* \"#utility.yul\":5896:5899   */\n  0x00\n    /* \"#utility.yul\":5917:5922   */\n  dup2\n    /* \"#utility.yul\":5910:5922   */\n  swap1\n  pop\n    /* \"#utility.yul\":5868:5928   */\n  swap2\n  swap1\n  pop\n  jump\t// out\n    /* \"#utility.yul\":5934:6076   */\ntag_61:\n    /* \"#utility.yul\":5984:5993   */\n  0x00\n    /* \"#utility.yul\":6017:6070   */\n  tag_144\n    /* \"#utility.yul\":6035:6069   */\n  tag_145\n    /* \"#utility.yul\":6044:6068   */\n  tag_146\n    /* \"#utility.yul\":6062:6067   */\n  dup5\n    /* \"#utility.yul\":6044:6068   */\n  tag_43\n  jump\t// in\ntag_146:\n    /* \"#utility.yul\":6035:6069   */\n  tag_60\n  jump\t// in\ntag_145:\n    /* \"#utility.yul\":6017:6070   */\n  tag_43\n  jump\t// in\ntag_144:\n    /* \"#utility.yul\":6004:6070   */\n  swap1\n  pop\n    /* \"#utility.yul\":5934:6076   */\n  swap2\n  swap1\n  pop\n  jump\t// out\n    /* \"#utility.yul\":6082:6157   */\ntag_62:\n    /* \"#utility.yul\":6125:6128   */\n  0x00\n    /* \"#utility.yul\":6146:6151   */\n  dup2\n    /* \"#utility.yul\":6139:6151   */\n  swap1\n  pop\n    /* \"#utility.yul\":6082:6157   */\n  swap2\n  swap1\n  pop\n  jump\t// out\n    /* \"#utility.yul\":6163:6432   */\ntag_63:\n    /* \"#utility.yul\":6273:6312   */\n  tag_149\n    /* \"#utility.yul\":6304:6311   */\n  dup4\n    /* \"#utility.yul\":6273:6312   */\n  tag_61\n  jump\t// in\ntag_149:\n    /* \"#utility.yul\":6334:6425   */\n  tag_150\n    /* \"#utility.yul\":6383:6424   */\n  tag_151\n    /* \"#utility.yul\":6407:6423   */\n  dup3\n    /* \"#utility.yul\":6383:6424   */\n  tag_62\n  jump\t// in\ntag_151:\n    /* \"#utility.yul\":6375:6381   */\n  dup5\n    /* \"#utility.yul\":6368:6372   */\n  dup5\n    /* \"#utility.yul\":6362:6373   */\n  sload\n    /* \"#utility.yul\":6334:6425   */\n  tag_59\n  jump\t// in\ntag_150:\n    /* \"#utility.yul\":6328:6332   */\n  dup3\n    /* \"#utility.yul\":6321:6426   */\n  sstore\n    /* \"#utility.yul\":6239:6432   */\n  pop\n    /* \"#utility.yul\":6163:6432   */\n  pop\n  pop\n  pop\n  jump\t// out\n    /* \"#utility.yul\":6438:6511   */\ntag_64:\n    /* \"#utility.yul\":6483:6486   */\n  0x00\n    /* \"#utility.yul\":6504:6505   */\n  0x00\n    /* \"#utility.yul\":6497:6505   */\n  swap1\n  pop\n    /* \"#utility.yul\":6438:6511   */\n  swap1\n  jump\t// out\n    /* \"#utility.yul\":6517:6706   */\ntag_65:\n    /* \"#utility.yul\":6594:6626   */\n  tag_154\n  tag_64\n  jump\t// in\ntag_154:\n    /* \"#utility.yul\":6635:6700   */\n  tag_155\n    /* \"#utility.yul\":6693:6699   */\n  dup2\n    /* \"#utility.yul\":6685:6691   */\n  dup5\n    /* \"#utility.yul\":6679:6683   */\n  dup5\n    /* \"#utility.yul\":6635:6700   */\n  tag_63\n  jump\t// in\ntag_155:\n    /* \"#utility.yul\":6570:6706   */\n  pop\n    /* \"#utility.yul\":6517:6706   */\n  pop\n  pop\n  jump\t// out\n    /* \"#utility.yul\":6712:6898   */\ntag_66:\n    /* \"#utility.yul\":6772:6892   */\ntag_157:\n    /* \"#utility.yul\":6789:6792   */\n  dup2\n    /* \"#utility.yul\":6782:6787   */\n  dup2\n    /* \"#utility.yul\":6779:6793   */\n  lt\n    /* \"#utility.yul\":6772:6892   */\n  iszero\n  tag_159\n  jumpi\n    /* \"#utility.yul\":6843:6882   */\n  tag_160\n    /* \"#utility.yul\":6880:6881   */\n  0x00\n    /* \"#utility.yul\":6873:6878   */\n  dup3\n    /* \"#utility.yul\":6843:6882   */\n  tag_65\n  jump\t// in\ntag_160:\n    /* \"#utility.yul\":6816:6817   */\n  0x01\n    /* \"#utility.yul\":6809:6814   */\n  dup2\n    /* \"#utility.yul\":6805:6818   */\n  add\n    /* \"#utility.yul\":6796:6818   */\n  swap1\n  pop\n    /* \"#utility.yul\":6772:6892   */\n  jump(tag_157)\ntag_159:\n    /* \"#utility.yul\":6712:6898   */\n  pop\n  pop\n  jump\t// out\n    /* \"#utility.yul\":6904:7447   */\ntag_67:\n    /* \"#utility.yul\":7005:7007   */\n  0x1f\n    /* \"#utility.yul\":7000:7003   */\n  dup3\n    /* \"#utility.yul\":6997:7008   */\n  gt\n    /* \"#utility.yul\":6994:7440   */\n  iszero\n  tag_162\n  jumpi\n    /* \"#utility.yul\":7039:7077   */\n  tag_163\n    /* \"#utility.yul\":7071:7076   */\n  dup2\n    /* \"#utility.yul\":7039:7077   */\n  tag_56\n  jump\t// in\ntag_163:\n    /* \"#utility.yul\":7123:7152   */\n  tag_164\n    /* \"#utility.yul\":7141:7151   */\n  dup5\n    /* \"#utility.yul\":7123:7152   */\n  tag_57\n  jump\t// in\ntag_164:\n    /* \"#utility.yul\":7113:7121   */\n  dup2\n    /* \"#utility.yul\":7109:7153   */\n  add\n    /* \"#utility.yul\":7306:7308   */\n  0x20\n    /* \"#utility.yul\":7294:7304   */\n  dup6\n    /* \"#utility.yul\":7291:7309   */\n  lt\n    /* \"#utility.yul\":7288:7337   */\n  iszero\n  tag_165\n  jumpi\n    /* \"#utility.yul\":7327:7335   */\n  dup2\n    /* \"#utility.yul\":7312:7335   */\n  swap1\n  pop\n    /* \"#utility.yul\":7288:7337   */\ntag_165:\n    /* \"#utility.yul\":7350:7430   */\n  tag_166\n    /* \"#utility.yul\":7406:7428   */\n  tag_167\n    /* \"#utility.yul\":7424:7427   */\n  dup6\n    /* \"#utility.yul\":7406:7428   */\n  tag_57\n  jump\t// in\ntag_167:\n    /* \"#utility.yul\":7396:7404   */\n  dup4\n    /* \"#utility.yul\":7392:7429   */\n  add\n    /* \"#utility.yul\":7379:7390   */\n  dup3\n    /* \"#utility.yul\":7350:7430   */\n  tag_66\n  jump\t// in\ntag_166:\n    /* \"#utility.yul\":7009:7440   */\n  pop\n  pop\n    /* \"#utility.yul\":6994:7440   */\ntag_162:\n    /* \"#utility.yul\":6904:7447   */\n  pop\n  pop\n  pop\n  jump\t// out\n    /* \"#utility.yul\":7453:7570   */\ntag_68:\n    /* \"#utility.yul\":7507:7515   */\n  0x00\n    /* \"#utility.yul\":7557:7562   */\n  dup3\n    /* \"#utility.yul\":7551:7555   */\n  dup3\n    /* \"#utility.yul\":7547:7563   */\n  shr\n    /* \"#utility.yul\":7526:7563   */\n  swap1\n  pop\n    /* \"#utility.yul\":7453:7570   */\n  swap3\n  swap2\n  pop\n  pop\n  jump\t// out\n    /* \"#utility.yul\":7576:7745   */\ntag_69:\n    /* \"#utility.yul\":7620:7626   */\n  0x00\n    /* \"#utility.yul\":7653:7704   */\n  tag_170\n    /* \"#utility.yul\":7701:7702   */\n  0x00\n    /* \"#utility.yul\":7697:7703   */\n  not\n    /* \"#utility.yul\":7689:7694   */\n  dup5\n    /* \"#utility.yul\":7686:7687   */\n  0x08\n    /* \"#utility.yul\":7682:7695   */\n  mul\n    /* \"#utility.yul\":7653:7704   */\n  tag_68\n  jump\t// in\ntag_170:\n    /* \"#utility.yul\":7649:7705   */\n  not\n    /* \"#utility.yul\":7734:7738   */\n  dup1\n    /* \"#utility.yul\":7728:7732   */\n  dup4\n    /* \"#utility.yul\":7724:7739   */\n  and\n    /* \"#utility.yul\":7714:7739   */\n  swap2\n  pop\n    /* \"#utility.yul\":7627:7745   */\n  pop\n    /* \"#utility.yul\":7576:7745   */\n  swap3\n  swap2\n  pop\n  pop\n  jump\t// out\n    /* \"#utility.yul\":7750:8045   */\ntag_70:\n    /* \"#utility.yul\":7826:7830   */\n  0x00\n    /* \"#utility.yul\":7972:8001   */\n  tag_172\n    /* \"#utility.yul\":7997:8000   */\n  dup4\n    /* \"#utility.yul\":7991:7995   */\n  dup4\n    /* \"#utility.yul\":7972:8001   */\n  tag_69\n  jump\t// in\ntag_172:\n    /* \"#utility.yul\":7964:8001   */\n  swap2\n  pop\n    /* \"#utility.yul\":8034:8037   */\n  dup3\n    /* \"#utility.yul\":8031:8032   */\n  0x02\n    /* \"#utility.yul\":8027:8038   */\n  mul\n    /* \"#utility.yul\":8021:8025   */\n  dup3\n    /* \"#utility.yul\":8018:8039   */\n  or\n    /* \"#utility.yul\":8010:8039   */\n  swap1\n  pop\n    /* \"#utility.yul\":7750:8045   */\n  swap3\n  swap2\n  pop\n  pop\n  jump\t// out\n    /* \"#utility.yul\":8050:9445   */\ntag_18:\n    /* \"#utility.yul\":8167:8204   */\n  tag_174\n    /* \"#utility.yul\":8200:8203   */\n  dup3\n    /* \"#utility.yul\":8167:8204   */\n  tag_52\n  jump\t// in\ntag_174:\n    /* \"#utility.yul\":8269:8287   */\n  0xffffffffffffffff\n    /* \"#utility.yul\":8261:8267   */\n  dup2\n    /* \"#utility.yul\":8258:8288   */\n  gt\n    /* \"#utility.yul\":8255:8311   */\n  iszero\n  tag_175\n  jumpi\n    /* \"#utility.yul\":8291:8309   */\n  tag_176\n  tag_53\n  jump\t// in\ntag_176:\n    /* \"#utility.yul\":8255:8311   */\ntag_175:\n    /* \"#utility.yul\":8335:8373   */\n  tag_177\n    /* \"#utility.yul\":8367:8371   */\n  dup3\n    /* \"#utility.yul\":8361:8372   */\n  sload\n    /* \"#utility.yul\":8335:8373   */\n  tag_55\n  jump\t// in\ntag_177:\n    /* \"#utility.yul\":8420:8487   */\n  tag_178\n    /* \"#utility.yul\":8480:8486   */\n  dup3\n    /* \"#utility.yul\":8472:8478   */\n  dup3\n    /* \"#utility.yul\":8466:8470   */\n  dup6\n    /* \"#utility.yul\":8420:8487   */\n  tag_67\n  jump\t// in\ntag_178:\n    /* \"#utility.yul\":8514:8515   */\n  0x00\n    /* \"#utility.yul\":8538:8542   */\n  0x20\n    /* \"#utility.yul\":8525:8542   */\n  swap1\n  pop\n    /* \"#utility.yul\":8570:8572   */\n  0x1f\n    /* \"#utility.yul\":8562:8568   */\n  dup4\n    /* \"#utility.yul\":8559:8573   */\n  gt\n    /* \"#utility.yul\":8587:8588   */\n  0x01\n    /* \"#utility.yul\":8582:9200   */\n  dup2\n  eq\n  tag_180\n  jumpi\n    /* \"#utility.yul\":9244:9245   */\n  0x00\n    /* \"#utility.yul\":9261:9267   */\n  dup5\n    /* \"#utility.yul\":9258:9335   */\n  iszero\n  tag_181\n  jumpi\n    /* \"#utility.yul\":9310:9319   */\n  dup3\n    /* \"#utility.yul\":9305:9308   */\n  dup8\n    /* \"#utility.yul\":9301:9320   */\n  add\n    /* \"#utility.yul\":9295:9321   */\n  mload\n    /* \"#utility.yul\":9286:9321   */\n  swap1\n  pop\n    /* \"#utility.yul\":9258:9335   */\ntag_181:\n    /* \"#utility.yul\":9361:9428   */\n  tag_182\n    /* \"#utility.yul\":9421:9427   */\n  dup6\n    /* \"#utility.yul\":9414:9419   */\n  dup3\n    /* \"#utility.yul\":9361:9428   */\n  tag_70\n  jump\t// in\ntag_182:\n    /* \"#utility.yul\":9355:9359   */\n  dup7\n    /* \"#utility.yul\":9348:9429   */\n  sstore\n    /* \"#utility.yul\":9217:9439   */\n  pop\n    /* \"#utility.yul\":8552:9439   */\n  jump(tag_179)\n    /* \"#utility.yul\":8582:9200   */\ntag_180:\n    /* \"#utility.yul\":8634:8638   */\n  0x1f\n    /* \"#utility.yul\":8630:8639   */\n  not\n    /* \"#utility.yul\":8622:8628   */\n  dup5\n    /* \"#utility.yul\":8618:8640   */\n  and\n    /* \"#utility.yul\":8668:8705   */\n  tag_183\n    /* \"#utility.yul\":8700:8704   */\n  dup7\n    /* \"#utility.yul\":8668:8705   */\n  tag_56\n  jump\t// in\ntag_183:\n    /* \"#utility.yul\":8727:8728   */\n  0x00\n    /* \"#utility.yul\":8741:8949   */\ntag_184:\n    /* \"#utility.yul\":8755:8762   */\n  dup3\n    /* \"#utility.yul\":8752:8753   */\n  dup2\n    /* \"#utility.yul\":8749:8763   */\n  lt\n    /* \"#utility.yul\":8741:8949   */\n  iszero\n  tag_186\n  jumpi\n    /* \"#utility.yul\":8834:8843   */\n  dup5\n    /* \"#utility.yul\":8829:8832   */\n  dup10\n    /* \"#utility.yul\":8825:8844   */\n  add\n    /* \"#utility.yul\":8819:8845   */\n  mload\n    /* \"#utility.yul\":8811:8817   */\n  dup3\n    /* \"#utility.yul\":8804:8846   */\n  sstore\n    /* \"#utility.yul\":8885:8886   */\n  0x01\n    /* \"#utility.yul\":8877:8883   */\n  dup3\n    /* \"#utility.yul\":8873:8887   */\n  add\n    /* \"#utility.yul\":8863:8887   */\n  swap2\n  pop\n    /* \"#utility.yul\":8932:8934   */\n  0x20\n    /* \"#utility.yul\":8921:8930   */\n  dup6\n    /* \"#utility.yul\":8917:8935   */\n  add\n    /* \"#utility.yul\":8904:8935   */\n  swap5\n  pop\n    /* \"#utility.yul\":8778:8782   */\n  0x20\n    /* \"#utility.yul\":8775:8776   */\n  dup2\n    /* \"#utility.yul\":8771:8783   */\n  add\n    /* \"#utility.yul\":8766:8783   */\n  swap1\n  pop\n    /* \"#utility.yul\":8741:8949   */\n  jump(tag_184)\ntag_186:\n    /* \"#utility.yul\":8977:8983   */\n  dup7\n    /* \"#utility.yul\":8968:8975   */\n  dup4\n    /* \"#utility.yul\":8965:8984   */\n  lt\n    /* \"#utility.yul\":8962:9141   */\n  iszero\n  tag_187\n  jumpi\n    /* \"#utility.yul\":9035:9044   */\n  dup5\n    /* \"#utility.yul\":9030:9033   */\n  dup10\n    /* \"#utility.yul\":9026:9045   */\n  add\n    /* \"#utility.yul\":9020:9046   */\n  mload\n    /* \"#utility.yul\":9078:9126   */\n  tag_188\n    /* \"#utility.yul\":9120:9124   */\n  0x1f\n    /* \"#utility.yul\":9112:9118   */\n  dup10\n    /* \"#utility.yul\":9108:9125   */\n  and\n    /* \"#utility.yul\":9097:9106   */\n  dup3\n    /* \"#utility.yul\":9078:9126   */\n  tag_69\n  jump\t// in\ntag_188:\n    /* \"#utility.yul\":9070:9076   */\n  dup4\n    /* \"#utility.yul\":9063:9127   */\n  sstore\n    /* \"#utility.yul\":8985:9141   */\n  pop\n    /* \"#utility.yul\":8962:9141   */\ntag_187:\n    /* \"#utility.yul\":9187:9188   */\n  0x01\n    /* \"#utility.yul\":9183:9184   */\n  0x02\n    /* \"#utility.yul\":9175:9181   */\n  dup9\n    /* \"#utility.yul\":9171:9185   */\n  mul\n    /* \"#utility.yul\":9167:9189   */\n  add\n    /* \"#utility.yul\":9161:9165   */\n  dup9\n    /* \"#utility.yul\":9154:9190   */\n  sstore\n    /* \"#utility.yul\":8589:9200   */\n  pop\n  pop\n  pop\n    /* \"#utility.yul\":8552:9439   */\ntag_179:\n  pop\n    /* \"#utility.yul\":8142:9445   */\n  pop\n  pop\n  pop\n    /* \"#utility.yul\":8050:9445   */\n  pop\n  pop\n  jump\t// out\n    /* \"#utility.yul\":9451:9642   */\ntag_25:\n    /* \"#utility.yul\":9491:9494   */\n  0x00\n    /* \"#utility.yul\":9510:9530   */\n  tag_190\n    /* \"#utility.yul\":9528:9529   */\n  dup3\n    /* \"#utility.yul\":9510:9530   */\n  tag_43\n  jump\t// in\ntag_190:\n    /* \"#utility.yul\":9505:9530   */\n  swap2\n  pop\n    /* \"#utility.yul\":9544:9564   */\n  tag_191\n    /* \"#utility.yul\":9562:9563   */\n  dup4\n    /* \"#utility.yul\":9544:9564   */\n  tag_43\n  jump\t// in\ntag_191:\n    /* \"#utility.yul\":9539:9564   */\n  swap3\n  pop\n    /* \"#utility.yul\":9587:9588   */\n  dup3\n    /* \"#utility.yul\":9584:9585   */\n  dup3\n    /* \"#utility.yul\":9580:9589   */\n  add\n    /* \"#utility.yul\":9573:9589   */\n  swap1\n  pop\n    /* \"#utility.yul\":9608:9611   */\n  dup1\n    /* \"#utility.yul\":9605:9606   */\n  dup3\n    /* \"#utility.yul\":9602:9612   */\n  gt\n    /* \"#utility.yul\":9599:9635   */\n  iszero\n  tag_192\n  jumpi\n    /* \"#utility.yul\":9615:9633   */\n  tag_193\n  tag_39\n  jump\t// in\ntag_193:\n    /* \"#utility.yul\":9599:9635   */\ntag_192:\n    /* \"#utility.yul\":9451:9642   */\n  swap3\n  swap2\n  pop\n  pop\n  jump\t// out\n    /* \"#utility.yul\":9648:9817   */\ntag_71:\n    /* \"#utility.yul\":9732:9743   */\n  0x00\n    /* \"#utility.yul\":9766:9772   */\n  dup3\n    /* \"#utility.yul\":9761:9764   */\n  dup3\n    /* \"#utility.yul\":9754:9773   */\n  mstore\n    /* \"#utility.yul\":9806:9810   */\n  0x20\n    /* \"#utility.yul\":9801:9804   */\n  dup3\n    /* \"#utility.yul\":9797:9811   */\n  add\n    /* \"#utility.yul\":9782:9811   */\n  swap1\n  pop\n    /* \"#utility.yul\":9648:9817   */\n  swap3\n  swap2\n  pop\n  pop\n  jump\t// out\n    /* \"#utility.yul\":9823:10004   */\ntag_72:\n    /* \"#utility.yul\":9963:9996   */\n  0x45524332303a206d696e7420746f20746865207a65726f206164647265737300\n    /* \"#utility.yul\":9959:9960   */\n  0x00\n    /* \"#utility.yul\":9951:9957   */\n  dup3\n    /* \"#utility.yul\":9947:9961   */\n  add\n    /* \"#utility.yul\":9940:9997   */\n  mstore\n    /* \"#utility.yul\":9823:10004   */\n  pop\n  jump\t// out\n    /* \"#utility.yul\":10010:10376   */\ntag_73:\n    /* \"#utility.yul\":10152:10155   */\n  0x00\n    /* \"#utility.yul\":10173:10240   */\n  tag_197\n    /* \"#utility.yul\":10237:10239   */\n  0x1f\n    /* \"#utility.yul\":10232:10235   */\n  dup4\n    /* \"#utility.yul\":10173:10240   */\n  tag_71\n  jump\t// in\ntag_197:\n    /* \"#utility.yul\":10166:10240   */\n  swap2\n  pop\n    /* \"#utility.yul\":10249:10342   */\n  tag_198\n    /* \"#utility.yul\":10338:10341   */\n  dup3\n    /* \"#utility.yul\":10249:10342   */\n  tag_72\n  jump\t// in\ntag_198:\n    /* \"#utility.yul\":10367:10369   */\n  0x20\n    /* \"#utility.yul\":10362:10365   */\n  dup3\n    /* \"#utility.yul\":10358:10370   */\n  add\n    /* \"#utility.yul\":10351:10370   */\n  swap1\n  pop\n    /* \"#utility.yul\":10010:10376   */\n  swap2\n  swap1\n  pop\n  jump\t// out\n    /* \"#utility.yul\":10382:10801   */\ntag_34:\n    /* \"#utility.yul\":10548:10552   */\n  0x00\n    /* \"#utility.yul\":10586:10588   */\n  0x20\n    /* \"#utility.yul\":10575:10584   */\n  dup3\n    /* \"#utility.yul\":10571:10589   */\n  add\n    /* \"#utility.yul\":10563:10589   */\n  swap1\n  pop\n    /* \"#utility.yul\":10635:10644   */\n  dup2\n    /* \"#utility.yul\":10629:10633   */\n  dup2\n    /* \"#utility.yul\":10625:10645   */\n  sub\n    /* \"#utility.yul\":10621:10622   */\n  0x00\n    /* \"#utility.yul\":10610:10619   */\n  dup4\n    /* \"#utility.yul\":10606:10623   */\n  add\n    /* \"#utility.yul\":10599:10646   */\n  mstore\n    /* \"#utility.yul\":10663:10794   */\n  tag_200\n    /* \"#utility.yul\":10789:10793   */\n  dup2\n    /* \"#utility.yul\":10663:10794   */\n  tag_73\n  jump\t// in\ntag_200:\n    /* \"#utility.yul\":10655:10794   */\n  swap1\n  pop\n    /* \"#utility.yul\":10382:10801   */\n  swap2\n  swap1\n  pop\n  jump\t// out\n    /* \"#utility.yul\":10807:10925   */\ntag_74:\n    /* \"#utility.yul\":10894:10918   */\n  tag_202\n    /* \"#utility.yul\":10912:10917   */\n  dup2\n    /* \"#utility.yul\":10894:10918   */\n  tag_43\n  jump\t// in\ntag_202:\n    /* \"#utility.yul\":10889:10892   */\n  dup3\n    /* \"#utility.yul\":10882:10919   */\n  mstore\n    /* \"#utility.yul\":10807:10925   */\n  pop\n  pop\n  jump\t// out\n    /* \"#utility.yul\":10931:11153   */\ntag_38:\n    /* \"#utility.yul\":11024:11028   */\n  0x00\n    /* \"#utility.yul\":11062:11064   */\n  0x20\n    /* \"#utility.yul\":11051:11060   */\n  dup3\n    /* \"#utility.yul\":11047:11065   */\n  add\n    /* \"#utility.yul\":11039:11065   */\n  swap1\n  pop\n    /* \"#utility.yul\":11075:11146   */\n  tag_204\n    /* \"#utility.yul\":11143:11144   */\n  0x00\n    /* \"#utility.yul\":11132:11141   */\n  dup4\n    /* \"#utility.yul\":11128:11145   */\n  add\n    /* \"#utility.yul\":11119:11125   */\n  dup5\n    /* \"#utility.yul\":11075:11146   */\n  tag_74\n  jump\t// in\ntag_204:\n    /* \"#utility.yul\":10931:11153   */\n  swap3\n  swap2\n  pop\n  pop\n  jump\t// out\n    /* \"First-Run/CityTouchToken.sol\":157:3615  contract CityTouchToken is ERC20, Ownable {... */\ntag_28:\n  dataSize(sub_0)\n  dup1\n  dataOffset(sub_0)\n  0x00\n  codecopy\n  0x00\n  return\nstop\n\nsub_0: assembly {\n        /* \"First-Run/CityTouchToken.sol\":157:3615  contract CityTouchToken is ERC20, Ownable {... */\n      mstore(0x40, 0x80)\n      callvalue\n      dup1\n      iszero\n      tag_1\n      jumpi\n      revert(0x00, 0x00)\n    tag_1:\n      pop\n      jumpi(tag_2, lt(calldatasize, 0x04))\n      shr(0xe0, calldataload(0x00))\n      dup1\n      0x715018a6\n      gt\n      tag_32\n      jumpi\n      dup1\n      0xb851b7ca\n      gt\n      tag_33\n      jumpi\n      dup1\n      0xe42d0aac\n      gt\n      tag_34\n      jumpi\n      dup1\n      0xe42d0aac\n      eq\n      tag_28\n      jumpi\n      dup1\n      0xe6674a9a\n      eq\n      tag_29\n      jumpi\n      dup1\n      0xe7608ac1\n      eq\n      tag_30\n      jumpi\n      dup1\n      0xf2fde38b\n      eq\n      tag_31\n      jumpi\n      jump(tag_2)\n    tag_34:\n      dup1\n      0xb851b7ca\n      eq\n      tag_24\n      jumpi\n      dup1\n      0xbee693d2\n      eq\n      tag_25\n      jumpi\n      dup1\n      0xdc73e49c\n      eq\n      tag_26\n      jumpi\n      dup1\n      0xdd62ed3e\n      eq\n      tag_27\n      jumpi\n      jump(tag_2)\n    tag_33:\n      dup1\n      0xa114398d\n      gt\n      tag_35\n      jumpi\n      dup1\n      0xa114398d\n      eq\n      tag_20\n      jumpi\n      dup1\n      0xa457c2d7\n      eq\n      tag_21\n      jumpi\n      dup1\n      0xa9059cbb\n      eq\n      tag_22\n      jumpi\n      dup1\n      0xb665d324\n      eq\n      tag_23\n      jumpi\n      jump(tag_2)\n    tag_35:\n      dup1\n      0x715018a6\n      eq\n      tag_17\n      jumpi\n      dup1\n      0x8da5cb5b\n      eq\n      tag_18\n      jumpi\n      dup1\n      0x95d89b41\n      eq\n      tag_19\n      jumpi\n      jump(tag_2)\n    tag_32:\n      dup1\n      0x38fe91e1\n      gt\n      tag_36\n      jumpi\n      dup1\n      0x61d027b3\n      gt\n      tag_37\n      jumpi\n      dup1\n      0x61d027b3\n      eq\n      tag_13\n      jumpi\n      dup1\n      0x674d4b07\n      eq\n      tag_14\n      jumpi\n      dup1\n      0x6a47aa06\n      eq\n      tag_15\n      jumpi\n      dup1\n      0x70a08231\n      eq\n      tag_16\n      jumpi\n      jump(tag_2)\n    tag_37:\n      dup1\n      0x38fe91e1\n      eq\n      tag_10\n      jumpi\n      dup1\n      0x39509351\n      eq\n      tag_11\n      jumpi\n      dup1\n      0x40c10f19\n      eq\n      tag_12\n      jumpi\n      jump(tag_2)\n    tag_36:\n      dup1\n      0x18160ddd\n      gt\n      tag_38\n      jumpi\n      dup1\n      0x18160ddd\n      eq\n      tag_6\n      jumpi\n      dup1\n      0x228cb733\n      eq\n      tag_7\n      jumpi\n      dup1\n      0x23b872dd\n      eq\n      tag_8\n      jumpi\n      dup1\n      0x313ce567\n      eq\n      tag_9\n      jumpi\n      jump(tag_2)\n    tag_38:\n      dup1\n      0x06fdde03\n      eq\n      tag_3\n      jumpi\n      dup1\n      0x0818f44b\n      eq\n      tag_4\n      jumpi\n      dup1\n      0x095ea7b3\n      eq\n      tag_5\n      jumpi\n    tag_2:\n      revert(0x00, 0x00)\n        /* \"First-Run/ERC20.sol\":1357:1455  function name() public view virtual override returns (string memory) {... */\n    tag_3:\n      tag_39\n      tag_40\n      jump\t// in\n    tag_39:\n      mload(0x40)\n      tag_41\n      swap2\n      swap1\n      tag_42\n      jump\t// in\n    tag_41:\n      mload(0x40)\n      dup1\n      swap2\n      sub\n      swap1\n      return\n        /* \"First-Run/CityTouchToken.sol\":1343:1596  function transferWithMessage(address recipient, uint256 amount, string memory message) public returns (bool) {... */\n    tag_4:\n      tag_43\n      0x04\n      dup1\n      calldatasize\n      sub\n      dup2\n      add\n      swap1\n      tag_44\n      swap2\n      swap1\n      tag_45\n      jump\t// in\n    tag_44:\n      tag_46\n      jump\t// in\n    tag_43:\n      mload(0x40)\n      tag_47\n      swap2\n      swap1\n      tag_48\n      jump\t// in\n    tag_47:\n      mload(0x40)\n      dup1\n      swap2\n      sub\n      swap1\n      return\n        /* \"First-Run/ERC20.sol\":2242:2408  function approve(address spender, uint256 amount) public virtual override returns (bool) {... */\n    tag_5:\n      tag_49\n      0x04\n      dup1\n      calldatasize\n      sub\n      dup2\n      add\n      swap1\n      tag_50\n      swap2\n      swap1\n      tag_51\n      jump\t// in\n    tag_50:\n      tag_52\n      jump\t// in\n    tag_49:\n      mload(0x40)\n      tag_53\n      swap2\n      swap1\n      tag_48\n      jump\t// in\n    tag_53:\n      mload(0x40)\n      dup1\n      swap2\n      sub\n      swap1\n      return\n        /* \"First-Run/ERC20.sol\":1666:1772  function totalSupply() public view virtual override returns (uint256) {... */\n    tag_6:\n      tag_54\n      tag_55\n      jump\t// in\n    tag_54:\n      mload(0x40)\n      tag_56\n      swap2\n      swap1\n      tag_57\n      jump\t// in\n    tag_56:\n      mload(0x40)\n      dup1\n      swap2\n      sub\n      swap1\n      return\n        /* \"First-Run/CityTouchToken.sol\":555:602  uint256 public reward = 1000 * 10 ** decimals() */\n    tag_7:\n      tag_58\n      tag_59\n      jump\t// in\n    tag_58:\n      mload(0x40)\n      tag_60\n      swap2\n      swap1\n      tag_57\n      jump\t// in\n    tag_60:\n      mload(0x40)\n      dup1\n      swap2\n      sub\n      swap1\n      return\n        /* \"First-Run/ERC20.sol\":2414:2826  function transferFrom(address sender, address recipient, uint256 amount) public virtual override returns (bool) {... */\n    tag_8:\n      tag_61\n      0x04\n      dup1\n      calldatasize\n      sub\n      dup2\n      add\n      swap1\n      tag_62\n      swap2\n      swap1\n      tag_63\n      jump\t// in\n    tag_62:\n      tag_64\n      jump\t// in\n    tag_61:\n      mload(0x40)\n      tag_65\n      swap2\n      swap1\n      tag_48\n      jump\t// in\n    tag_65:\n      mload(0x40)\n      dup1\n      swap2\n      sub\n      swap1\n      return\n        /* \"First-Run/ERC20.sol\":1569:1660  function decimals() public view virtual override returns (uint8) {... */\n    tag_9:\n      tag_66\n      tag_67\n      jump\t// in\n    tag_66:\n      mload(0x40)\n      tag_68\n      swap2\n      swap1\n      tag_69\n      jump\t// in\n    tag_68:\n      mload(0x40)\n      dup1\n      swap2\n      sub\n      swap1\n      return\n        /* \"First-Run/CityTouchToken.sol\":3499:3613  function checkOwnerBalance() public view onlyOwner returns (uint256) {... */\n    tag_10:\n      tag_70\n      tag_71\n      jump\t// in\n    tag_70:\n      mload(0x40)\n      tag_72\n      swap2\n      swap1\n      tag_57\n      jump\t// in\n    tag_72:\n      mload(0x40)\n      dup1\n      swap2\n      sub\n      swap1\n      return\n        /* \"First-Run/ERC20.sol\":2832:3044  function increaseAllowance(address spender, uint256 addedValue) public virtual returns (bool) {... */\n    tag_11:\n      tag_73\n      0x04\n      dup1\n      calldatasize\n      sub\n      dup2\n      add\n      swap1\n      tag_74\n      swap2\n      swap1\n      tag_51\n      jump\t// in\n    tag_74:\n      tag_75\n      jump\t// in\n    tag_73:\n      mload(0x40)\n      tag_76\n      swap2\n      swap1\n      tag_48\n      jump\t// in\n    tag_76:\n      mload(0x40)\n      dup1\n      swap2\n      sub\n      swap1\n      return\n        /* \"First-Run/CityTouchToken.sol\":1208:1303  function mint(address to, uint256 amount) external onlyOwner {... */\n    tag_12:\n      tag_77\n      0x04\n      dup1\n      calldatasize\n      sub\n      dup2\n      add\n      swap1\n      tag_78\n      swap2\n      swap1\n      tag_51\n      jump\t// in\n    tag_78:\n      tag_79\n      jump\t// in\n    tag_77:\n      stop\n        /* \"First-Run/CityTouchToken.sol\":308:331  address public treasury */\n    tag_13:\n      tag_80\n      tag_81\n      jump\t// in\n    tag_80:\n      mload(0x40)\n      tag_82\n      swap2\n      swap1\n      tag_83\n      jump\t// in\n    tag_82:\n      mload(0x40)\n      dup1\n      swap2\n      sub\n      swap1\n      return\n        /* \"First-Run/CityTouchToken.sol\":3122:3247  function getSwapRate(uint256 amount) public pure returns (uint256) {... */\n    tag_14:\n      tag_84\n      0x04\n      dup1\n      calldatasize\n      sub\n      dup2\n      add\n      swap1\n      tag_85\n      swap2\n      swap1\n      tag_86\n      jump\t// in\n    tag_85:\n      tag_87\n      jump\t// in\n    tag_84:\n      mload(0x40)\n      tag_88\n      swap2\n      swap1\n      tag_57\n      jump\t// in\n    tag_88:\n      mload(0x40)\n      dup1\n      swap2\n      sub\n      swap1\n      return\n        /* \"First-Run/CityTouchToken.sol\":357:398  uint256 public halvingInterval = 365 days */\n    tag_15:\n      tag_89\n      tag_90\n      jump\t// in\n    tag_89:\n      mload(0x40)\n      tag_91\n      swap2\n      swap1\n      tag_57\n      jump\t// in\n    tag_91:\n      mload(0x40)\n      dup1\n      swap2\n      sub\n      swap1\n      return\n        /* \"First-Run/ERC20.sol\":1778:1903  function balanceOf(address account) public view virtual override returns (uint256) {... */\n    tag_16:\n      tag_92\n      0x04\n      dup1\n      calldatasize\n      sub\n      dup2\n      add\n      swap1\n      tag_93\n      swap2\n      swap1\n      tag_94\n      jump\t// in\n    tag_93:\n      tag_95\n      jump\t// in\n    tag_92:\n      mload(0x40)\n      tag_96\n      swap2\n      swap1\n      tag_57\n      jump\t// in\n    tag_96:\n      mload(0x40)\n      dup1\n      swap2\n      sub\n      swap1\n      return\n        /* \"First-Run/Ownable.sol\":470:562  function renounceOwnership() public virtual onlyOwner {... */\n    tag_17:\n      tag_97\n      tag_98\n      jump\t// in\n    tag_97:\n      stop\n        /* \"First-Run/Ownable.sol\":258:343  function owner() public view virtual returns (address) {... */\n    tag_18:\n      tag_99\n      tag_100\n      jump\t// in\n    tag_99:\n      mload(0x40)\n      tag_101\n      swap2\n      swap1\n      tag_83\n      jump\t// in\n    tag_101:\n      mload(0x40)\n      dup1\n      swap2\n      sub\n      swap1\n      return\n        /* \"First-Run/ERC20.sol\":1461:1563  function symbol() public view virtual override returns (string memory) {... */\n    tag_19:\n      tag_102\n      tag_103\n      jump\t// in\n    tag_102:\n      mload(0x40)\n      tag_104\n      swap2\n      swap1\n      tag_42\n      jump\t// in\n    tag_104:\n      mload(0x40)\n      dup1\n      swap2\n      sub\n      swap1\n      return\n        /* \"First-Run/CityTouchToken.sol\":2540:3033  function swapTokens(address to, uint256 amount) public returns (bool) {... */\n    tag_20:\n      tag_105\n      0x04\n      dup1\n      calldatasize\n      sub\n      dup2\n      add\n      swap1\n      tag_106\n      swap2\n      swap1\n      tag_51\n      jump\t// in\n    tag_106:\n      tag_107\n      jump\t// in\n    tag_105:\n      mload(0x40)\n      tag_108\n      swap2\n      swap1\n      tag_48\n      jump\t// in\n    tag_108:\n      mload(0x40)\n      dup1\n      swap2\n      sub\n      swap1\n      return\n        /* \"First-Run/ERC20.sol\":3050:3420  function decreaseAllowance(address spender, uint256 subtractedValue) public virtual returns (bool) {... */\n    tag_21:\n      tag_109\n      0x04\n      dup1\n      calldatasize\n      sub\n      dup2\n      add\n      swap1\n      tag_110\n      swap2\n      swap1\n      tag_51\n      jump\t// in\n    tag_110:\n      tag_111\n      jump\t// in\n    tag_109:\n      mload(0x40)\n      tag_112\n      swap2\n      swap1\n      tag_48\n      jump\t// in\n    tag_112:\n      mload(0x40)\n      dup1\n      swap2\n      sub\n      swap1\n      return\n        /* \"First-Run/ERC20.sol\":1909:2081  function transfer(address recipient, uint256 amount) public virtual override returns (bool) {... */\n    tag_22:\n      tag_113\n      0x04\n      dup1\n      calldatasize\n      sub\n      dup2\n      add\n      swap1\n      tag_114\n      swap2\n      swap1\n      tag_51\n      jump\t// in\n    tag_114:\n      tag_115\n      jump\t// in\n    tag_113:\n      mload(0x40)\n      tag_116\n      swap2\n      swap1\n      tag_48\n      jump\t// in\n    tag_116:\n      mload(0x40)\n      dup1\n      swap2\n      sub\n      swap1\n      return\n        /* \"First-Run/CityTouchToken.sol\":1659:2042  function transferWithTreasury(address recipient, uint256 amount) public returns (bool) {... */\n    tag_23:\n      tag_117\n      0x04\n      dup1\n      calldatasize\n      sub\n      dup2\n      add\n      swap1\n      tag_118\n      swap2\n      swap1\n      tag_51\n      jump\t// in\n    tag_118:\n      tag_119\n      jump\t// in\n    tag_117:\n      mload(0x40)\n      tag_120\n      swap2\n      swap1\n      tag_48\n      jump\t// in\n    tag_120:\n      mload(0x40)\n      dup1\n      swap2\n      sub\n      swap1\n      return\n        /* \"First-Run/CityTouchToken.sol\":2408:2506  function setSwapToken(address _swapToken) public onlyOwner {... */\n    tag_24:\n      tag_121\n      0x04\n      dup1\n      calldatasize\n      sub\n      dup2\n      add\n      swap1\n      tag_122\n      swap2\n      swap1\n      tag_94\n      jump\t// in\n    tag_122:\n      tag_123\n      jump\t// in\n    tag_121:\n      stop\n        /* \"First-Run/CityTouchToken.sol\":442:468  uint256 public nextHalving */\n    tag_25:\n      tag_124\n      tag_125\n      jump\t// in\n    tag_124:\n      mload(0x40)\n      tag_126\n      swap2\n      swap1\n      tag_57\n      jump\t// in\n    tag_126:\n      mload(0x40)\n      dup1\n      swap2\n      sub\n      swap1\n      return\n        /* \"First-Run/CityTouchToken.sol\":626:650  address public swapToken */\n    tag_26:\n      tag_127\n      tag_128\n      jump\t// in\n    tag_127:\n      mload(0x40)\n      tag_129\n      swap2\n      swap1\n      tag_83\n      jump\t// in\n    tag_129:\n      mload(0x40)\n      dup1\n      swap2\n      sub\n      swap1\n      return\n        /* \"First-Run/ERC20.sol\":2087:2236  function allowance(address owner, address spender) public view virtual override returns (uint256) {... */\n    tag_27:\n      tag_130\n      0x04\n      dup1\n      calldatasize\n      sub\n      dup2\n      add\n      swap1\n      tag_131\n      swap2\n      swap1\n      tag_132\n      jump\t// in\n    tag_131:\n      tag_133\n      jump\t// in\n    tag_130:\n      mload(0x40)\n      tag_134\n      swap2\n      swap1\n      tag_57\n      jump\t// in\n    tag_134:\n      mload(0x40)\n      dup1\n      swap2\n      sub\n      swap1\n      return\n        /* \"First-Run/CityTouchToken.sol\":3297:3436  function transferTokensToUser(address recipient, uint256 amount) public onlyOwner {... */\n    tag_28:\n      tag_135\n      0x04\n      dup1\n      calldatasize\n      sub\n      dup2\n      add\n      swap1\n      tag_136\n      swap2\n      swap1\n      tag_51\n      jump\t// in\n    tag_136:\n      tag_137\n      jump\t// in\n    tag_135:\n      stop\n        /* \"First-Run/CityTouchToken.sol\":474:506  uint256 public halvingFactor = 2 */\n    tag_29:\n      tag_138\n      tag_139\n      jump\t// in\n    tag_138:\n      mload(0x40)\n      tag_140\n      swap2\n      swap1\n      tag_57\n      jump\t// in\n    tag_140:\n      mload(0x40)\n      dup1\n      swap2\n      sub\n      swap1\n      return\n        /* \"First-Run/CityTouchToken.sol\":2115:2372  function checkHalving() public onlyOwner {... */\n    tag_30:\n      tag_141\n      tag_142\n      jump\t// in\n    tag_141:\n      stop\n        /* \"First-Run/Ownable.sol\":568:757  function transferOwnership(address newOwner) public virtual onlyOwner {... */\n    tag_31:\n      tag_143\n      0x04\n      dup1\n      calldatasize\n      sub\n      dup2\n      add\n      swap1\n      tag_144\n      swap2\n      swap1\n      tag_94\n      jump\t// in\n    tag_144:\n      tag_145\n      jump\t// in\n    tag_143:\n      stop\n        /* \"First-Run/ERC20.sol\":1357:1455  function name() public view virtual override returns (string memory) {... */\n    tag_40:\n        /* \"First-Run/ERC20.sol\":1411:1424  string memory */\n      0x60\n        /* \"First-Run/ERC20.sol\":1443:1448  _name */\n      0x03\n        /* \"First-Run/ERC20.sol\":1436:1448  return _name */\n      dup1\n      sload\n      tag_147\n      swap1\n      tag_148\n      jump\t// in\n    tag_147:\n      dup1\n      0x1f\n      add\n      0x20\n      dup1\n      swap2\n      div\n      mul\n      0x20\n      add\n      mload(0x40)\n      swap1\n      dup2\n      add\n      0x40\n      mstore\n      dup1\n      swap3\n      swap2\n      swap1\n      dup2\n      dup2\n      mstore\n      0x20\n      add\n      dup3\n      dup1\n      sload\n      tag_149\n      swap1\n      tag_148\n      jump\t// in\n    tag_149:\n      dup1\n      iszero\n      tag_150\n      jumpi\n      dup1\n      0x1f\n      lt\n      tag_151\n      jumpi\n      0x0100\n      dup1\n      dup4\n      sload\n      div\n      mul\n      dup4\n      mstore\n      swap2\n      0x20\n      add\n      swap2\n      jump(tag_150)\n    tag_151:\n      dup3\n      add\n      swap2\n      swap1\n      0x00\n      mstore\n      keccak256(0x00, 0x20)\n      swap1\n    tag_152:\n      dup2\n      sload\n      dup2\n      mstore\n      swap1\n      0x01\n      add\n      swap1\n      0x20\n      add\n      dup1\n      dup4\n      gt\n      tag_152\n      jumpi\n      dup3\n      swap1\n      sub\n      0x1f\n      and\n      dup3\n      add\n      swap2\n    tag_150:\n      pop\n      pop\n      pop\n      pop\n      pop\n      swap1\n      pop\n        /* \"First-Run/ERC20.sol\":1357:1455  function name() public view virtual override returns (string memory) {... */\n      swap1\n      jump\t// out\n        /* \"First-Run/CityTouchToken.sol\":1343:1596  function transferWithMessage(address recipient, uint256 amount, string memory message) public returns (bool) {... */\n    tag_46:\n        /* \"First-Run/CityTouchToken.sol\":1446:1450  bool */\n      0x00\n        /* \"First-Run/CityTouchToken.sol\":1462:1502  _transfer(msg.sender, recipient, amount) */\n      tag_154\n        /* \"First-Run/CityTouchToken.sol\":1472:1482  msg.sender */\n      caller\n        /* \"First-Run/CityTouchToken.sol\":1484:1493  recipient */\n      dup6\n        /* \"First-Run/CityTouchToken.sol\":1495:1501  amount */\n      dup6\n        /* \"First-Run/CityTouchToken.sol\":1462:1471  _transfer */\n      tag_155\n        /* \"First-Run/CityTouchToken.sol\":1462:1502  _transfer(msg.sender, recipient, amount) */\n      jump\t// in\n    tag_154:\n        /* \"First-Run/CityTouchToken.sol\":1541:1550  recipient */\n      dup4\n        /* \"First-Run/CityTouchToken.sol\":1517:1568  MessageSent(msg.sender, recipient, amount, message) */\n      0xffffffffffffffffffffffffffffffffffffffff\n      and\n        /* \"First-Run/CityTouchToken.sol\":1529:1539  msg.sender */\n      caller\n        /* \"First-Run/CityTouchToken.sol\":1517:1568  MessageSent(msg.sender, recipient, amount, message) */\n      0xffffffffffffffffffffffffffffffffffffffff\n      and\n      0x0b6aa398652c861e442761200431647f8622c16488a180e5354301cdcfb33715\n        /* \"First-Run/CityTouchToken.sol\":1552:1558  amount */\n      dup6\n        /* \"First-Run/CityTouchToken.sol\":1560:1567  message */\n      dup6\n        /* \"First-Run/CityTouchToken.sol\":1517:1568  MessageSent(msg.sender, recipient, amount, message) */\n      mload(0x40)\n      tag_156\n      swap3\n      swap2\n      swap1\n      tag_157\n      jump\t// in\n    tag_156:\n      mload(0x40)\n      dup1\n      swap2\n      sub\n      swap1\n      log3\n        /* \"First-Run/CityTouchToken.sol\":1585:1589  true */\n      0x01\n        /* \"First-Run/CityTouchToken.sol\":1578:1589  return true */\n      swap1\n      pop\n        /* \"First-Run/CityTouchToken.sol\":1343:1596  function transferWithMessage(address recipient, uint256 amount, string memory message) public returns (bool) {... */\n      swap4\n      swap3\n      pop\n      pop\n      pop\n      jump\t// out\n        /* \"First-Run/ERC20.sol\":2242:2408  function approve(address spender, uint256 amount) public virtual override returns (bool) {... */\n    tag_52:\n        /* \"First-Run/ERC20.sol\":2325:2329  bool */\n      0x00\n        /* \"First-Run/ERC20.sol\":2341:2380  _approve(_msgSender(), spender, amount) */\n      tag_159\n        /* \"First-Run/ERC20.sol\":2350:2362  _msgSender() */\n      tag_160\n        /* \"First-Run/ERC20.sol\":2350:2360  _msgSender */\n      tag_161\n        /* \"First-Run/ERC20.sol\":2350:2362  _msgSender() */\n      jump\t// in\n    tag_160:\n        /* \"First-Run/ERC20.sol\":2364:2371  spender */\n      dup5\n        /* \"First-Run/ERC20.sol\":2373:2379  amount */\n      dup5\n        /* \"First-Run/ERC20.sol\":2341:2349  _approve */\n      tag_162\n        /* \"First-Run/ERC20.sol\":2341:2380  _approve(_msgSender(), spender, amount) */\n      jump\t// in\n    tag_159:\n        /* \"First-Run/ERC20.sol\":2397:2401  true */\n      0x01\n        /* \"First-Run/ERC20.sol\":2390:2401  return true */\n      swap1\n      pop\n        /* \"First-Run/ERC20.sol\":2242:2408  function approve(address spender, uint256 amount) public virtual override returns (bool) {... */\n      swap3\n      swap2\n      pop\n      pop\n      jump\t// out\n        /* \"First-Run/ERC20.sol\":1666:1772  function totalSupply() public view virtual override returns (uint256) {... */\n    tag_55:\n        /* \"First-Run/ERC20.sol\":1727:1734  uint256 */\n      0x00\n        /* \"First-Run/ERC20.sol\":1753:1765  _totalSupply */\n      sload(0x02)\n        /* \"First-Run/ERC20.sol\":1746:1765  return _totalSupply */\n      swap1\n      pop\n        /* \"First-Run/ERC20.sol\":1666:1772  function totalSupply() public view virtual override returns (uint256) {... */\n      swap1\n      jump\t// out\n        /* \"First-Run/CityTouchToken.sol\":555:602  uint256 public reward = 1000 * 10 ** decimals() */\n    tag_59:\n      sload(0x0b)\n      dup2\n      jump\t// out\n        /* \"First-Run/ERC20.sol\":2414:2826  function transferFrom(address sender, address recipient, uint256 amount) public virtual override returns (bool) {... */\n    tag_64:\n        /* \"First-Run/ERC20.sol\":2520:2524  bool */\n      0x00\n        /* \"First-Run/ERC20.sol\":2536:2572  _transfer(sender, recipient, amount) */\n      tag_165\n        /* \"First-Run/ERC20.sol\":2546:2552  sender */\n      dup5\n        /* \"First-Run/ERC20.sol\":2554:2563  recipient */\n      dup5\n        /* \"First-Run/ERC20.sol\":2565:2571  amount */\n      dup5\n        /* \"First-Run/ERC20.sol\":2536:2545  _transfer */\n      tag_155\n        /* \"First-Run/ERC20.sol\":2536:2572  _transfer(sender, recipient, amount) */\n      jump\t// in\n    tag_165:\n        /* \"First-Run/ERC20.sol\":2582:2606  uint256 currentAllowance */\n      0x00\n        /* \"First-Run/ERC20.sol\":2609:2620  _allowances */\n      0x01\n        /* \"First-Run/ERC20.sol\":2609:2628  _allowances[sender] */\n      0x00\n        /* \"First-Run/ERC20.sol\":2621:2627  sender */\n      dup7\n        /* \"First-Run/ERC20.sol\":2609:2628  _allowances[sender] */\n      0xffffffffffffffffffffffffffffffffffffffff\n      and\n      0xffffffffffffffffffffffffffffffffffffffff\n      and\n      dup2\n      mstore\n      0x20\n      add\n      swap1\n      dup2\n      mstore\n      0x20\n      add\n      0x00\n      keccak256\n        /* \"First-Run/ERC20.sol\":2609:2642  _allowances[sender][_msgSender()] */\n      0x00\n        /* \"First-Run/ERC20.sol\":2629:2641  _msgSender() */\n      tag_166\n        /* \"First-Run/ERC20.sol\":2629:2639  _msgSender */\n      tag_161\n        /* \"First-Run/ERC20.sol\":2629:2641  _msgSender() */\n      jump\t// in\n    tag_166:\n        /* \"First-Run/ERC20.sol\":2609:2642  _allowances[sender][_msgSender()] */\n      0xffffffffffffffffffffffffffffffffffffffff\n      and\n      0xffffffffffffffffffffffffffffffffffffffff\n      and\n      dup2\n      mstore\n      0x20\n      add\n      swap1\n      dup2\n      mstore\n      0x20\n      add\n      0x00\n      keccak256\n      sload\n        /* \"First-Run/ERC20.sol\":2582:2642  uint256 currentAllowance = _allowances[sender][_msgSender()] */\n      swap1\n      pop\n        /* \"First-Run/ERC20.sol\":2680:2686  amount */\n      dup3\n        /* \"First-Run/ERC20.sol\":2660:2676  currentAllowance */\n      dup2\n        /* \"First-Run/ERC20.sol\":2660:2686  currentAllowance >= amount */\n      lt\n      iszero\n        /* \"First-Run/ERC20.sol\":2652:2731  require(currentAllowance >= amount, \"ERC20: transfer amount exceeds allowance\") */\n      tag_167\n      jumpi\n      mload(0x40)\n      0x08c379a000000000000000000000000000000000000000000000000000000000\n      dup2\n      mstore\n      0x04\n      add\n      tag_168\n      swap1\n      tag_169\n      jump\t// in\n    tag_168:\n      mload(0x40)\n      dup1\n      swap2\n      sub\n      swap1\n      revert\n    tag_167:\n        /* \"First-Run/ERC20.sol\":2741:2798  _approve(sender, _msgSender(), currentAllowance - amount) */\n      tag_170\n        /* \"First-Run/ERC20.sol\":2750:2756  sender */\n      dup6\n        /* \"First-Run/ERC20.sol\":2758:2770  _msgSender() */\n      tag_171\n        /* \"First-Run/ERC20.sol\":2758:2768  _msgSender */\n      tag_161\n        /* \"First-Run/ERC20.sol\":2758:2770  _msgSender() */\n      jump\t// in\n    tag_171:\n        /* \"First-Run/ERC20.sol\":2791:2797  amount */\n      dup6\n        /* \"First-Run/ERC20.sol\":2772:2788  currentAllowance */\n      dup5\n        /* \"First-Run/ERC20.sol\":2772:2797  currentAllowance - amount */\n      tag_172\n      swap2\n      swap1\n      tag_173\n      jump\t// in\n    tag_172:\n        /* \"First-Run/ERC20.sol\":2741:2749  _approve */\n      tag_162\n        /* \"First-Run/ERC20.sol\":2741:2798  _approve(sender, _msgSender(), currentAllowance - amount) */\n      jump\t// in\n    tag_170:\n        /* \"First-Run/ERC20.sol\":2815:2819  true */\n      0x01\n        /* \"First-Run/ERC20.sol\":2808:2819  return true */\n      swap2\n      pop\n      pop\n        /* \"First-Run/ERC20.sol\":2414:2826  function transferFrom(address sender, address recipient, uint256 amount) public virtual override returns (bool) {... */\n      swap4\n      swap3\n      pop\n      pop\n      pop\n      jump\t// out\n        /* \"First-Run/ERC20.sol\":1569:1660  function decimals() public view virtual override returns (uint8) {... */\n    tag_67:\n        /* \"First-Run/ERC20.sol\":1627:1632  uint8 */\n      0x00\n        /* \"First-Run/ERC20.sol\":1651:1653  18 */\n      0x12\n        /* \"First-Run/ERC20.sol\":1644:1653  return 18 */\n      swap1\n      pop\n        /* \"First-Run/ERC20.sol\":1569:1660  function decimals() public view virtual override returns (uint8) {... */\n      swap1\n      jump\t// out\n        /* \"First-Run/CityTouchToken.sol\":3499:3613  function checkOwnerBalance() public view onlyOwner returns (uint256) {... */\n    tag_71:\n        /* \"First-Run/CityTouchToken.sol\":3559:3566  uint256 */\n      0x00\n        /* \"First-Run/Ownable.sol\":399:409  msg.sender */\n      caller\n        /* \"First-Run/Ownable.sol\":388:409  owner() == msg.sender */\n      0xffffffffffffffffffffffffffffffffffffffff\n      and\n        /* \"First-Run/Ownable.sol\":388:395  owner() */\n      tag_176\n        /* \"First-Run/Ownable.sol\":388:393  owner */\n      tag_100\n        /* \"First-Run/Ownable.sol\":388:395  owner() */\n      jump\t// in\n    tag_176:\n        /* \"First-Run/Ownable.sol\":388:409  owner() == msg.sender */\n      0xffffffffffffffffffffffffffffffffffffffff\n      and\n      eq\n        /* \"First-Run/Ownable.sol\":380:446  require(owner() == msg.sender, \"Ownable: caller is not the owner\") */\n      tag_177\n      jumpi\n      mload(0x40)\n      0x08c379a000000000000000000000000000000000000000000000000000000000\n      dup2\n      mstore\n      0x04\n      add\n      tag_178\n      swap1\n      tag_179\n      jump\t// in\n    tag_178:\n      mload(0x40)\n      dup1\n      swap2\n      sub\n      swap1\n      revert\n    tag_177:\n        /* \"First-Run/CityTouchToken.sol\":3585:3606  balanceOf(msg.sender) */\n      tag_181\n        /* \"First-Run/CityTouchToken.sol\":3595:3605  msg.sender */\n      caller\n        /* \"First-Run/CityTouchToken.sol\":3585:3594  balanceOf */\n      tag_95\n        /* \"First-Run/CityTouchToken.sol\":3585:3606  balanceOf(msg.sender) */\n      jump\t// in\n    tag_181:\n        /* \"First-Run/CityTouchToken.sol\":3578:3606  return balanceOf(msg.sender) */\n      swap1\n      pop\n        /* \"First-Run/CityTouchToken.sol\":3499:3613  function checkOwnerBalance() public view onlyOwner returns (uint256) {... */\n      swap1\n      jump\t// out\n        /* \"First-Run/ERC20.sol\":2832:3044  function increaseAllowance(address spender, uint256 addedValue) public virtual returns (bool) {... */\n    tag_75:\n        /* \"First-Run/ERC20.sol\":2920:2924  bool */\n      0x00\n        /* \"First-Run/ERC20.sol\":2936:3016  _approve(_msgSender(), spender, _allowances[_msgSender()][spender] + addedValue) */\n      tag_183\n        /* \"First-Run/ERC20.sol\":2945:2957  _msgSender() */\n      tag_184\n        /* \"First-Run/ERC20.sol\":2945:2955  _msgSender */\n      tag_161\n        /* \"First-Run/ERC20.sol\":2945:2957  _msgSender() */\n      jump\t// in\n    tag_184:\n        /* \"First-Run/ERC20.sol\":2959:2966  spender */\n      dup5\n        /* \"First-Run/ERC20.sol\":3005:3015  addedValue */\n      dup5\n        /* \"First-Run/ERC20.sol\":2968:2979  _allowances */\n      0x01\n        /* \"First-Run/ERC20.sol\":2968:2993  _allowances[_msgSender()] */\n      0x00\n        /* \"First-Run/ERC20.sol\":2980:2992  _msgSender() */\n      tag_185\n        /* \"First-Run/ERC20.sol\":2980:2990  _msgSender */\n      tag_161\n        /* \"First-Run/ERC20.sol\":2980:2992  _msgSender() */\n      jump\t// in\n    tag_185:\n        /* \"First-Run/ERC20.sol\":2968:2993  _allowances[_msgSender()] */\n      0xffffffffffffffffffffffffffffffffffffffff\n      and\n      0xffffffffffffffffffffffffffffffffffffffff\n      and\n      dup2\n      mstore\n      0x20\n      add\n      swap1\n      dup2\n      mstore\n      0x20\n      add\n      0x00\n      keccak256\n        /* \"First-Run/ERC20.sol\":2968:3002  _allowances[_msgSender()][spender] */\n      0x00\n        /* \"First-Run/ERC20.sol\":2994:3001  spender */\n      dup9\n        /* \"First-Run/ERC20.sol\":2968:3002  _allowances[_msgSender()][spender] */\n      0xffffffffffffffffffffffffffffffffffffffff\n      and\n      0xffffffffffffffffffffffffffffffffffffffff\n      and\n      dup2\n      mstore\n      0x20\n      add\n      swap1\n      dup2\n      mstore\n      0x20\n      add\n      0x00\n      keccak256\n      sload\n        /* \"First-Run/ERC20.sol\":2968:3015  _allowances[_msgSender()][spender] + addedValue */\n      tag_186\n      swap2\n      swap1\n      tag_187\n      jump\t// in\n    tag_186:\n        /* \"First-Run/ERC20.sol\":2936:2944  _approve */\n      tag_162\n        /* \"First-Run/ERC20.sol\":2936:3016  _approve(_msgSender(), spender, _allowances[_msgSender()][spender] + addedValue) */\n      jump\t// in\n    tag_183:\n        /* \"First-Run/ERC20.sol\":3033:3037  true */\n      0x01\n        /* \"First-Run/ERC20.sol\":3026:3037  return true */\n      swap1\n      pop\n        /* \"First-Run/ERC20.sol\":2832:3044  function increaseAllowance(address spender, uint256 addedValue) public virtual returns (bool) {... */\n      swap3\n      swap2\n      pop\n      pop\n      jump\t// out\n        /* \"First-Run/CityTouchToken.sol\":1208:1303  function mint(address to, uint256 amount) external onlyOwner {... */\n    tag_79:\n        /* \"First-Run/Ownable.sol\":399:409  msg.sender */\n      caller\n        /* \"First-Run/Ownable.sol\":388:409  owner() == msg.sender */\n      0xffffffffffffffffffffffffffffffffffffffff\n      and\n        /* \"First-Run/Ownable.sol\":388:395  owner() */\n      tag_189\n        /* \"First-Run/Ownable.sol\":388:393  owner */\n      tag_100\n        /* \"First-Run/Ownable.sol\":388:395  owner() */\n      jump\t// in\n    tag_189:\n        /* \"First-Run/Ownable.sol\":388:409  owner() == msg.sender */\n      0xffffffffffffffffffffffffffffffffffffffff\n      and\n      eq\n        /* \"First-Run/Ownable.sol\":380:446  require(owner() == msg.sender, \"Ownable: caller is not the owner\") */\n      tag_190\n      jumpi\n      mload(0x40)\n      0x08c379a000000000000000000000000000000000000000000000000000000000\n      dup2\n      mstore\n      0x04\n      add\n      tag_191\n      swap1\n      tag_179\n      jump\t// in\n    tag_191:\n      mload(0x40)\n      dup1\n      swap2\n      sub\n      swap1\n      revert\n    tag_190:\n        /* \"First-Run/CityTouchToken.sol\":1279:1296  _mint(to, amount) */\n      tag_193\n        /* \"First-Run/CityTouchToken.sol\":1285:1287  to */\n      dup3\n        /* \"First-Run/CityTouchToken.sol\":1289:1295  amount */\n      dup3\n        /* \"First-Run/CityTouchToken.sol\":1279:1284  _mint */\n      tag_194\n        /* \"First-Run/CityTouchToken.sol\":1279:1296  _mint(to, amount) */\n      jump\t// in\n    tag_193:\n        /* \"First-Run/CityTouchToken.sol\":1208:1303  function mint(address to, uint256 amount) external onlyOwner {... */\n      pop\n      pop\n      jump\t// out\n        /* \"First-Run/CityTouchToken.sol\":308:331  address public treasury */\n    tag_81:\n      0x07\n      0x00\n      swap1\n      sload\n      swap1\n      0x0100\n      exp\n      swap1\n      div\n      0xffffffffffffffffffffffffffffffffffffffff\n      and\n      dup2\n      jump\t// out\n        /* \"First-Run/CityTouchToken.sol\":3122:3247  function getSwapRate(uint256 amount) public pure returns (uint256) {... */\n    tag_87:\n        /* \"First-Run/CityTouchToken.sol\":3180:3187  uint256 */\n      0x00\n        /* \"First-Run/CityTouchToken.sol\":3206:3212  amount */\n      dup2\n        /* \"First-Run/CityTouchToken.sol\":3199:3212  return amount */\n      swap1\n      pop\n        /* \"First-Run/CityTouchToken.sol\":3122:3247  function getSwapRate(uint256 amount) public pure returns (uint256) {... */\n      swap2\n      swap1\n      pop\n      jump\t// out\n        /* \"First-Run/CityTouchToken.sol\":357:398  uint256 public halvingInterval = 365 days */\n    tag_90:\n      sload(0x08)\n      dup2\n      jump\t// out\n        /* \"First-Run/ERC20.sol\":1778:1903  function balanceOf(address account) public view virtual override returns (uint256) {... */\n    tag_95:\n        /* \"First-Run/ERC20.sol\":1852:1859  uint256 */\n      0x00\n        /* \"First-Run/ERC20.sol\":1878:1887  _balances */\n      0x00\n        /* \"First-Run/ERC20.sol\":1878:1896  _balances[account] */\n      0x00\n        /* \"First-Run/ERC20.sol\":1888:1895  account */\n      dup4\n        /* \"First-Run/ERC20.sol\":1878:1896  _balances[account] */\n      0xffffffffffffffffffffffffffffffffffffffff\n      and\n      0xffffffffffffffffffffffffffffffffffffffff\n      and\n      dup2\n      mstore\n      0x20\n      add\n      swap1\n      dup2\n      mstore\n      0x20\n      add\n      0x00\n      keccak256\n      sload\n        /* \"First-Run/ERC20.sol\":1871:1896  return _balances[account] */\n      swap1\n      pop\n        /* \"First-Run/ERC20.sol\":1778:1903  function balanceOf(address account) public view virtual override returns (uint256) {... */\n      swap2\n      swap1\n      pop\n      jump\t// out\n        /* \"First-Run/Ownable.sol\":470:562  function renounceOwnership() public virtual onlyOwner {... */\n    tag_98:\n        /* \"First-Run/Ownable.sol\":399:409  msg.sender */\n      caller\n        /* \"First-Run/Ownable.sol\":388:409  owner() == msg.sender */\n      0xffffffffffffffffffffffffffffffffffffffff\n      and\n        /* \"First-Run/Ownable.sol\":388:395  owner() */\n      tag_198\n        /* \"First-Run/Ownable.sol\":388:393  owner */\n      tag_100\n        /* \"First-Run/Ownable.sol\":388:395  owner() */\n      jump\t// in\n    tag_198:\n        /* \"First-Run/Ownable.sol\":388:409  owner() == msg.sender */\n      0xffffffffffffffffffffffffffffffffffffffff\n      and\n      eq\n        /* \"First-Run/Ownable.sol\":380:446  require(owner() == msg.sender, \"Ownable: caller is not the owner\") */\n      tag_199\n      jumpi\n      mload(0x40)\n      0x08c379a000000000000000000000000000000000000000000000000000000000\n      dup2\n      mstore\n      0x04\n      add\n      tag_200\n      swap1\n      tag_179\n      jump\t// in\n    tag_200:\n      mload(0x40)\n      dup1\n      swap2\n      sub\n      swap1\n      revert\n    tag_199:\n        /* \"First-Run/Ownable.sol\":534:555  _setOwner(address(0)) */\n      tag_202\n        /* \"First-Run/Ownable.sol\":552:553  0 */\n      0x00\n        /* \"First-Run/Ownable.sol\":534:543  _setOwner */\n      tag_203\n        /* \"First-Run/Ownable.sol\":534:555  _setOwner(address(0)) */\n      jump\t// in\n    tag_202:\n        /* \"First-Run/Ownable.sol\":470:562  function renounceOwnership() public virtual onlyOwner {... */\n      jump\t// out\n        /* \"First-Run/Ownable.sol\":258:343  function owner() public view virtual returns (address) {... */\n    tag_100:\n        /* \"First-Run/Ownable.sol\":304:311  address */\n      0x00\n        /* \"First-Run/Ownable.sol\":330:336  _owner */\n      0x05\n      0x00\n      swap1\n      sload\n      swap1\n      0x0100\n      exp\n      swap1\n      div\n      0xffffffffffffffffffffffffffffffffffffffff\n      and\n        /* \"First-Run/Ownable.sol\":323:336  return _owner */\n      swap1\n      pop\n        /* \"First-Run/Ownable.sol\":258:343  function owner() public view virtual returns (address) {... */\n      swap1\n      jump\t// out\n        /* \"First-Run/ERC20.sol\":1461:1563  function symbol() public view virtual override returns (string memory) {... */\n    tag_103:\n        /* \"First-Run/ERC20.sol\":1517:1530  string memory */\n      0x60\n        /* \"First-Run/ERC20.sol\":1549:1556  _symbol */\n      0x04\n        /* \"First-Run/ERC20.sol\":1542:1556  return _symbol */\n      dup1\n      sload\n      tag_206\n      swap1\n      tag_148\n      jump\t// in\n    tag_206:\n      dup1\n      0x1f\n      add\n      0x20\n      dup1\n      swap2\n      div\n      mul\n      0x20\n      add\n      mload(0x40)\n      swap1\n      dup2\n      add\n      0x40\n      mstore\n      dup1\n      swap3\n      swap2\n      swap1\n      dup2\n      dup2\n      mstore\n      0x20\n      add\n      dup3\n      dup1\n      sload\n      tag_207\n      swap1\n      tag_148\n      jump\t// in\n    tag_207:\n      dup1\n      iszero\n      tag_208\n      jumpi\n      dup1\n      0x1f\n      lt\n      tag_209\n      jumpi\n      0x0100\n      dup1\n      dup4\n      sload\n      div\n      mul\n      dup4\n      mstore\n      swap2\n      0x20\n      add\n      swap2\n      jump(tag_208)\n    tag_209:\n      dup3\n      add\n      swap2\n      swap1\n      0x00\n      mstore\n      keccak256(0x00, 0x20)\n      swap1\n    tag_210:\n      dup2\n      sload\n      dup2\n      mstore\n      swap1\n      0x01\n      add\n      swap1\n      0x20\n      add\n      dup1\n      dup4\n      gt\n      tag_210\n      jumpi\n      dup3\n      swap1\n      sub\n      0x1f\n      and\n      dup3\n      add\n      swap2\n    tag_208:\n      pop\n      pop\n      pop\n      pop\n      pop\n      swap1\n      pop\n        /* \"First-Run/ERC20.sol\":1461:1563  function symbol() public view virtual override returns (string memory) {... */\n      swap1\n      jump\t// out\n        /* \"First-Run/CityTouchToken.sol\":2540:3033  function swapTokens(address to, uint256 amount) public returns (bool) {... */\n    tag_107:\n        /* \"First-Run/CityTouchToken.sol\":2604:2608  bool */\n      0x00\n        /* \"First-Run/CityTouchToken.sol\":2649:2650  0 */\n      0x00\n        /* \"First-Run/CityTouchToken.sol\":2628:2651  swapToken != address(0) */\n      0xffffffffffffffffffffffffffffffffffffffff\n      and\n        /* \"First-Run/CityTouchToken.sol\":2628:2637  swapToken */\n      0x0c\n      0x00\n      swap1\n      sload\n      swap1\n      0x0100\n      exp\n      swap1\n      div\n      0xffffffffffffffffffffffffffffffffffffffff\n      and\n        /* \"First-Run/CityTouchToken.sol\":2628:2651  swapToken != address(0) */\n      0xffffffffffffffffffffffffffffffffffffffff\n      and\n      sub\n        /* \"First-Run/CityTouchToken.sol\":2620:2674  require(swapToken != address(0), \"Swap token not set\") */\n      tag_212\n      jumpi\n      mload(0x40)\n      0x08c379a000000000000000000000000000000000000000000000000000000000\n      dup2\n      mstore\n      0x04\n      add\n      tag_213\n      swap1\n      tag_214\n      jump\t// in\n    tag_213:\n      mload(0x40)\n      dup1\n      swap2\n      sub\n      swap1\n      revert\n    tag_212:\n        /* \"First-Run/CityTouchToken.sol\":2684:2702  uint256 swapAmount */\n      0x00\n        /* \"First-Run/CityTouchToken.sol\":2705:2724  getSwapRate(amount) */\n      tag_215\n        /* \"First-Run/CityTouchToken.sol\":2717:2723  amount */\n      dup4\n        /* \"First-Run/CityTouchToken.sol\":2705:2716  getSwapRate */\n      tag_87\n        /* \"First-Run/CityTouchToken.sol\":2705:2724  getSwapRate(amount) */\n      jump\t// in\n    tag_215:\n        /* \"First-Run/CityTouchToken.sol\":2684:2724  uint256 swapAmount = getSwapRate(amount) */\n      swap1\n      pop\n        /* \"First-Run/CityTouchToken.sol\":2767:2776  swapToken */\n      0x0c\n      0x00\n      swap1\n      sload\n      swap1\n      0x0100\n      exp\n      swap1\n      div\n      0xffffffffffffffffffffffffffffffffffffffff\n      and\n        /* \"First-Run/CityTouchToken.sol\":2761:2790  ERC20(swapToken).transferFrom */\n      0xffffffffffffffffffffffffffffffffffffffff\n      and\n      0x23b872dd\n        /* \"First-Run/CityTouchToken.sol\":2791:2801  msg.sender */\n      caller\n        /* \"First-Run/CityTouchToken.sol\":2811:2815  this */\n      address\n        /* \"First-Run/CityTouchToken.sol\":2818:2824  amount */\n      dup7\n        /* \"First-Run/CityTouchToken.sol\":2761:2825  ERC20(swapToken).transferFrom(msg.sender, address(this), amount) */\n      mload(0x40)\n      dup5\n      0xffffffff\n      and\n      0xe0\n      shl\n      dup2\n      mstore\n      0x04\n      add\n      tag_216\n      swap4\n      swap3\n      swap2\n      swap1\n      tag_217\n      jump\t// in\n    tag_216:\n      0x20\n      mload(0x40)\n      dup1\n      dup4\n      sub\n      dup2\n      0x00\n      dup8\n      gas\n      call\n      iszero\n      dup1\n      iszero\n      tag_219\n      jumpi\n      returndatacopy(0x00, 0x00, returndatasize)\n      revert(0x00, returndatasize)\n    tag_219:\n      pop\n      pop\n      pop\n      pop\n      mload(0x40)\n      returndatasize\n      not(0x1f)\n      0x1f\n      dup3\n      add\n      and\n      dup3\n      add\n      dup1\n      0x40\n      mstore\n      pop\n      dup2\n      add\n      swap1\n      tag_220\n      swap2\n      swap1\n      tag_221\n      jump\t// in\n    tag_220:\n      pop\n        /* \"First-Run/CityTouchToken.sol\":2871:2911  _transfer(address(this), to, swapAmount) */\n      tag_222\n        /* \"First-Run/CityTouchToken.sol\":2889:2893  this */\n      address\n        /* \"First-Run/CityTouchToken.sol\":2896:2898  to */\n      dup6\n        /* \"First-Run/CityTouchToken.sol\":2900:2910  swapAmount */\n      dup4\n        /* \"First-Run/CityTouchToken.sol\":2871:2880  _transfer */\n      tag_155\n        /* \"First-Run/CityTouchToken.sol\":2871:2911  _transfer(address(this), to, swapAmount) */\n      jump\t// in\n    tag_222:\n        /* \"First-Run/CityTouchToken.sol\":2982:2984  to */\n      dup4\n        /* \"First-Run/CityTouchToken.sol\":2965:3005  Swap(msg.sender, to, amount, swapAmount) */\n      0xffffffffffffffffffffffffffffffffffffffff\n      and\n        /* \"First-Run/CityTouchToken.sol\":2970:2980  msg.sender */\n      caller\n        /* \"First-Run/CityTouchToken.sol\":2965:3005  Swap(msg.sender, to, amount, swapAmount) */\n      0xffffffffffffffffffffffffffffffffffffffff\n      and\n      0xfa2dda1cc1b86e41239702756b13effbc1a092b5c57e3ad320fbe4f3b13fe235\n        /* \"First-Run/CityTouchToken.sol\":2986:2992  amount */\n      dup6\n        /* \"First-Run/CityTouchToken.sol\":2994:3004  swapAmount */\n      dup5\n        /* \"First-Run/CityTouchToken.sol\":2965:3005  Swap(msg.sender, to, amount, swapAmount) */\n      mload(0x40)\n      tag_223\n      swap3\n      swap2\n      swap1\n      tag_224\n      jump\t// in\n    tag_223:\n      mload(0x40)\n      dup1\n      swap2\n      sub\n      swap1\n      log3\n        /* \"First-Run/CityTouchToken.sol\":3022:3026  true */\n      0x01\n        /* \"First-Run/CityTouchToken.sol\":3015:3026  return true */\n      swap2\n      pop\n      pop\n        /* \"First-Run/CityTouchToken.sol\":2540:3033  function swapTokens(address to, uint256 amount) public returns (bool) {... */\n      swap3\n      swap2\n      pop\n      pop\n      jump\t// out\n        /* \"First-Run/ERC20.sol\":3050:3420  function decreaseAllowance(address spender, uint256 subtractedValue) public virtual returns (bool) {... */\n    tag_111:\n        /* \"First-Run/ERC20.sol\":3143:3147  bool */\n      0x00\n        /* \"First-Run/ERC20.sol\":3159:3183  uint256 currentAllowance */\n      0x00\n        /* \"First-Run/ERC20.sol\":3186:3197  _allowances */\n      0x01\n        /* \"First-Run/ERC20.sol\":3186:3211  _allowances[_msgSender()] */\n      0x00\n        /* \"First-Run/ERC20.sol\":3198:3210  _msgSender() */\n      tag_226\n        /* \"First-Run/ERC20.sol\":3198:3208  _msgSender */\n      tag_161\n        /* \"First-Run/ERC20.sol\":3198:3210  _msgSender() */\n      jump\t// in\n    tag_226:\n        /* \"First-Run/ERC20.sol\":3186:3211  _allowances[_msgSender()] */\n      0xffffffffffffffffffffffffffffffffffffffff\n      and\n      0xffffffffffffffffffffffffffffffffffffffff\n      and\n      dup2\n      mstore\n      0x20\n      add\n      swap1\n      dup2\n      mstore\n      0x20\n      add\n      0x00\n      keccak256\n        /* \"First-Run/ERC20.sol\":3186:3220  _allowances[_msgSender()][spender] */\n      0x00\n        /* \"First-Run/ERC20.sol\":3212:3219  spender */\n      dup6\n        /* \"First-Run/ERC20.sol\":3186:3220  _allowances[_msgSender()][spender] */\n      0xffffffffffffffffffffffffffffffffffffffff\n      and\n      0xffffffffffffffffffffffffffffffffffffffff\n      and\n      dup2\n      mstore\n      0x20\n      add\n      swap1\n      dup2\n      mstore\n      0x20\n      add\n      0x00\n      keccak256\n      sload\n        /* \"First-Run/ERC20.sol\":3159:3220  uint256 currentAllowance = _allowances[_msgSender()][spender] */\n      swap1\n      pop\n        /* \"First-Run/ERC20.sol\":3258:3273  subtractedValue */\n      dup3\n        /* \"First-Run/ERC20.sol\":3238:3254  currentAllowance */\n      dup2\n        /* \"First-Run/ERC20.sol\":3238:3273  currentAllowance >= subtractedValue */\n      lt\n      iszero\n        /* \"First-Run/ERC20.sol\":3230:3315  require(currentAllowance >= subtractedValue, \"ERC20: decreased allowance below zero\") */\n      tag_227\n      jumpi\n      mload(0x40)\n      0x08c379a000000000000000000000000000000000000000000000000000000000\n      dup2\n      mstore\n      0x04\n      add\n      tag_228\n      swap1\n      tag_229\n      jump\t// in\n    tag_228:\n      mload(0x40)\n      dup1\n      swap2\n      sub\n      swap1\n      revert\n    tag_227:\n        /* \"First-Run/ERC20.sol\":3325:3392  _approve(_msgSender(), spender, currentAllowance - subtractedValue) */\n      tag_230\n        /* \"First-Run/ERC20.sol\":3334:3346  _msgSender() */\n      tag_231\n        /* \"First-Run/ERC20.sol\":3334:3344  _msgSender */\n      tag_161\n        /* \"First-Run/ERC20.sol\":3334:3346  _msgSender() */\n      jump\t// in\n    tag_231:\n        /* \"First-Run/ERC20.sol\":3348:3355  spender */\n      dup6\n        /* \"First-Run/ERC20.sol\":3376:3391  subtractedValue */\n      dup6\n        /* \"First-Run/ERC20.sol\":3357:3373  currentAllowance */\n      dup5\n        /* \"First-Run/ERC20.sol\":3357:3391  currentAllowance - subtractedValue */\n      tag_232\n      swap2\n      swap1\n      tag_173\n      jump\t// in\n    tag_232:\n        /* \"First-Run/ERC20.sol\":3325:3333  _approve */\n      tag_162\n        /* \"First-Run/ERC20.sol\":3325:3392  _approve(_msgSender(), spender, currentAllowance - subtractedValue) */\n      jump\t// in\n    tag_230:\n        /* \"First-Run/ERC20.sol\":3409:3413  true */\n      0x01\n        /* \"First-Run/ERC20.sol\":3402:3413  return true */\n      swap2\n      pop\n      pop\n        /* \"First-Run/ERC20.sol\":3050:3420  function decreaseAllowance(address spender, uint256 subtractedValue) public virtual returns (bool) {... */\n      swap3\n      swap2\n      pop\n      pop\n      jump\t// out\n        /* \"First-Run/ERC20.sol\":1909:2081  function transfer(address recipient, uint256 amount) public virtual override returns (bool) {... */\n    tag_115:\n        /* \"First-Run/ERC20.sol\":1995:1999  bool */\n      0x00\n        /* \"First-Run/ERC20.sol\":2011:2053  _transfer(_msgSender(), recipient, amount) */\n      tag_234\n        /* \"First-Run/ERC20.sol\":2021:2033  _msgSender() */\n      tag_235\n        /* \"First-Run/ERC20.sol\":2021:2031  _msgSender */\n      tag_161\n        /* \"First-Run/ERC20.sol\":2021:2033  _msgSender() */\n      jump\t// in\n    tag_235:\n        /* \"First-Run/ERC20.sol\":2035:2044  recipient */\n      dup5\n        /* \"First-Run/ERC20.sol\":2046:2052  amount */\n      dup5\n        /* \"First-Run/ERC20.sol\":2011:2020  _transfer */\n      tag_155\n        /* \"First-Run/ERC20.sol\":2011:2053  _transfer(_msgSender(), recipient, amount) */\n      jump\t// in\n    tag_234:\n        /* \"First-Run/ERC20.sol\":2070:2074  true */\n      0x01\n        /* \"First-Run/ERC20.sol\":2063:2074  return true */\n      swap1\n      pop\n        /* \"First-Run/ERC20.sol\":1909:2081  function transfer(address recipient, uint256 amount) public virtual override returns (bool) {... */\n      swap3\n      swap2\n      pop\n      pop\n      jump\t// out\n        /* \"First-Run/CityTouchToken.sol\":1659:2042  function transferWithTreasury(address recipient, uint256 amount) public returns (bool) {... */\n    tag_119:\n        /* \"First-Run/CityTouchToken.sol\":1740:1744  bool */\n      0x00\n        /* \"First-Run/CityTouchToken.sol\":1756:1778  uint256 treasuryAmount */\n      0x00\n        /* \"First-Run/CityTouchToken.sol\":1796:1799  100 */\n      0x64\n        /* \"First-Run/CityTouchToken.sol\":1791:1792  2 */\n      0x02\n        /* \"First-Run/CityTouchToken.sol\":1782:1788  amount */\n      dup5\n        /* \"First-Run/CityTouchToken.sol\":1782:1792  amount * 2 */\n      tag_237\n      swap2\n      swap1\n      tag_238\n      jump\t// in\n    tag_237:\n        /* \"First-Run/CityTouchToken.sol\":1781:1799  (amount * 2) / 100 */\n      tag_239\n      swap2\n      swap1\n      tag_240\n      jump\t// in\n    tag_239:\n        /* \"First-Run/CityTouchToken.sol\":1756:1799  uint256 treasuryAmount = (amount * 2) / 100 */\n      swap1\n      pop\n        /* \"First-Run/CityTouchToken.sol\":1827:1849  uint256 transferAmount */\n      0x00\n        /* \"First-Run/CityTouchToken.sol\":1861:1875  treasuryAmount */\n      dup2\n        /* \"First-Run/CityTouchToken.sol\":1852:1858  amount */\n      dup5\n        /* \"First-Run/CityTouchToken.sol\":1852:1875  amount - treasuryAmount */\n      tag_241\n      swap2\n      swap1\n      tag_173\n      jump\t// in\n    tag_241:\n        /* \"First-Run/CityTouchToken.sol\":1827:1875  uint256 transferAmount = amount - treasuryAmount */\n      swap1\n      pop\n        /* \"First-Run/CityTouchToken.sol\":1885:1933  _transfer(msg.sender, recipient, transferAmount) */\n      tag_242\n        /* \"First-Run/CityTouchToken.sol\":1895:1905  msg.sender */\n      caller\n        /* \"First-Run/CityTouchToken.sol\":1907:1916  recipient */\n      dup7\n        /* \"First-Run/CityTouchToken.sol\":1918:1932  transferAmount */\n      dup4\n        /* \"First-Run/CityTouchToken.sol\":1885:1894  _transfer */\n      tag_155\n        /* \"First-Run/CityTouchToken.sol\":1885:1933  _transfer(msg.sender, recipient, transferAmount) */\n      jump\t// in\n    tag_242:\n        /* \"First-Run/CityTouchToken.sol\":1943:1990  _transfer(msg.sender, treasury, treasuryAmount) */\n      tag_243\n        /* \"First-Run/CityTouchToken.sol\":1953:1963  msg.sender */\n      caller\n        /* \"First-Run/CityTouchToken.sol\":1965:1973  treasury */\n      0x07\n      0x00\n      swap1\n      sload\n      swap1\n      0x0100\n      exp\n      swap1\n      div\n      0xffffffffffffffffffffffffffffffffffffffff\n      and\n        /* \"First-Run/CityTouchToken.sol\":1975:1989  treasuryAmount */\n      dup5\n        /* \"First-Run/CityTouchToken.sol\":1943:1952  _transfer */\n      tag_155\n        /* \"First-Run/CityTouchToken.sol\":1943:1990  _transfer(msg.sender, treasury, treasuryAmount) */\n      jump\t// in\n    tag_243:\n        /* \"First-Run/CityTouchToken.sol\":2031:2035  true */\n      0x01\n        /* \"First-Run/CityTouchToken.sol\":2024:2035  return true */\n      swap3\n      pop\n      pop\n      pop\n        /* \"First-Run/CityTouchToken.sol\":1659:2042  function transferWithTreasury(address recipient, uint256 amount) public returns (bool) {... */\n      swap3\n      swap2\n      pop\n      pop\n      jump\t// out\n        /* \"First-Run/CityTouchToken.sol\":2408:2506  function setSwapToken(address _swapToken) public onlyOwner {... */\n    tag_123:\n        /* \"First-Run/Ownable.sol\":399:409  msg.sender */\n      caller\n        /* \"First-Run/Ownable.sol\":388:409  owner() == msg.sender */\n      0xffffffffffffffffffffffffffffffffffffffff\n      and\n        /* \"First-Run/Ownable.sol\":388:395  owner() */\n      tag_245\n        /* \"First-Run/Ownable.sol\":388:393  owner */\n      tag_100\n        /* \"First-Run/Ownable.sol\":388:395  owner() */\n      jump\t// in\n    tag_245:\n        /* \"First-Run/Ownable.sol\":388:409  owner() == msg.sender */\n      0xffffffffffffffffffffffffffffffffffffffff\n      and\n      eq\n        /* \"First-Run/Ownable.sol\":380:446  require(owner() == msg.sender, \"Ownable: caller is not the owner\") */\n      tag_246\n      jumpi\n      mload(0x40)\n      0x08c379a000000000000000000000000000000000000000000000000000000000\n      dup2\n      mstore\n      0x04\n      add\n      tag_247\n      swap1\n      tag_179\n      jump\t// in\n    tag_247:\n      mload(0x40)\n      dup1\n      swap2\n      sub\n      swap1\n      revert\n    tag_246:\n        /* \"First-Run/CityTouchToken.sol\":2489:2499  _swapToken */\n      dup1\n        /* \"First-Run/CityTouchToken.sol\":2477:2486  swapToken */\n      0x0c\n      0x00\n        /* \"First-Run/CityTouchToken.sol\":2477:2499  swapToken = _swapToken */\n      0x0100\n      exp\n      dup2\n      sload\n      dup2\n      0xffffffffffffffffffffffffffffffffffffffff\n      mul\n      not\n      and\n      swap1\n      dup4\n      0xffffffffffffffffffffffffffffffffffffffff\n      and\n      mul\n      or\n      swap1\n      sstore\n      pop\n        /* \"First-Run/CityTouchToken.sol\":2408:2506  function setSwapToken(address _swapToken) public onlyOwner {... */\n      pop\n      jump\t// out\n        /* \"First-Run/CityTouchToken.sol\":442:468  uint256 public nextHalving */\n    tag_125:\n      sload(0x09)\n      dup2\n      jump\t// out\n        /* \"First-Run/CityTouchToken.sol\":626:650  address public swapToken */\n    tag_128:\n      0x0c\n      0x00\n      swap1\n      sload\n      swap1\n      0x0100\n      exp\n      swap1\n      div\n      0xffffffffffffffffffffffffffffffffffffffff\n      and\n      dup2\n      jump\t// out\n        /* \"First-Run/ERC20.sol\":2087:2236  function allowance(address owner, address spender) public view virtual override returns (uint256) {... */\n    tag_133:\n        /* \"First-Run/ERC20.sol\":2176:2183  uint256 */\n      0x00\n        /* \"First-Run/ERC20.sol\":2202:2213  _allowances */\n      0x01\n        /* \"First-Run/ERC20.sol\":2202:2220  _allowances[owner] */\n      0x00\n        /* \"First-Run/ERC20.sol\":2214:2219  owner */\n      dup5\n        /* \"First-Run/ERC20.sol\":2202:2220  _allowances[owner] */\n      0xffffffffffffffffffffffffffffffffffffffff\n      and\n      0xffffffffffffffffffffffffffffffffffffffff\n      and\n      dup2\n      mstore\n      0x20\n      add\n      swap1\n      dup2\n      mstore\n      0x20\n      add\n      0x00\n      keccak256\n        /* \"First-Run/ERC20.sol\":2202:2229  _allowances[owner][spender] */\n      0x00\n        /* \"First-Run/ERC20.sol\":2221:2228  spender */\n      dup4\n        /* \"First-Run/ERC20.sol\":2202:2229  _allowances[owner][spender] */\n      0xffffffffffffffffffffffffffffffffffffffff\n      and\n      0xffffffffffffffffffffffffffffffffffffffff\n      and\n      dup2\n      mstore\n      0x20\n      add\n      swap1\n      dup2\n      mstore\n      0x20\n      add\n      0x00\n      keccak256\n      sload\n        /* \"First-Run/ERC20.sol\":2195:2229  return _allowances[owner][spender] */\n      swap1\n      pop\n        /* \"First-Run/ERC20.sol\":2087:2236  function allowance(address owner, address spender) public view virtual override returns (uint256) {... */\n      swap3\n      swap2\n      pop\n      pop\n      jump\t// out\n        /* \"First-Run/CityTouchToken.sol\":3297:3436  function transferTokensToUser(address recipient, uint256 amount) public onlyOwner {... */\n    tag_137:\n        /* \"First-Run/Ownable.sol\":399:409  msg.sender */\n      caller\n        /* \"First-Run/Ownable.sol\":388:409  owner() == msg.sender */\n      0xffffffffffffffffffffffffffffffffffffffff\n      and\n        /* \"First-Run/Ownable.sol\":388:395  owner() */\n      tag_251\n        /* \"First-Run/Ownable.sol\":388:393  owner */\n      tag_100\n        /* \"First-Run/Ownable.sol\":388:395  owner() */\n      jump\t// in\n    tag_251:\n        /* \"First-Run/Ownable.sol\":388:409  owner() == msg.sender */\n      0xffffffffffffffffffffffffffffffffffffffff\n      and\n      eq\n        /* \"First-Run/Ownable.sol\":380:446  require(owner() == msg.sender, \"Ownable: caller is not the owner\") */\n      tag_252\n      jumpi\n      mload(0x40)\n      0x08c379a000000000000000000000000000000000000000000000000000000000\n      dup2\n      mstore\n      0x04\n      add\n      tag_253\n      swap1\n      tag_179\n      jump\t// in\n    tag_253:\n      mload(0x40)\n      dup1\n      swap2\n      sub\n      swap1\n      revert\n    tag_252:\n        /* \"First-Run/CityTouchToken.sol\":3389:3429  _transfer(msg.sender, recipient, amount) */\n      tag_255\n        /* \"First-Run/CityTouchToken.sol\":3399:3409  msg.sender */\n      caller\n        /* \"First-Run/CityTouchToken.sol\":3411:3420  recipient */\n      dup4\n        /* \"First-Run/CityTouchToken.sol\":3422:3428  amount */\n      dup4\n        /* \"First-Run/CityTouchToken.sol\":3389:3398  _transfer */\n      tag_155\n        /* \"First-Run/CityTouchToken.sol\":3389:3429  _transfer(msg.sender, recipient, amount) */\n      jump\t// in\n    tag_255:\n        /* \"First-Run/CityTouchToken.sol\":3297:3436  function transferTokensToUser(address recipient, uint256 amount) public onlyOwner {... */\n      pop\n      pop\n      jump\t// out\n        /* \"First-Run/CityTouchToken.sol\":474:506  uint256 public halvingFactor = 2 */\n    tag_139:\n      sload(0x0a)\n      dup2\n      jump\t// out\n        /* \"First-Run/CityTouchToken.sol\":2115:2372  function checkHalving() public onlyOwner {... */\n    tag_142:\n        /* \"First-Run/Ownable.sol\":399:409  msg.sender */\n      caller\n        /* \"First-Run/Ownable.sol\":388:409  owner() == msg.sender */\n      0xffffffffffffffffffffffffffffffffffffffff\n      and\n        /* \"First-Run/Ownable.sol\":388:395  owner() */\n      tag_257\n        /* \"First-Run/Ownable.sol\":388:393  owner */\n      tag_100\n        /* \"First-Run/Ownable.sol\":388:395  owner() */\n      jump\t// in\n    tag_257:\n        /* \"First-Run/Ownable.sol\":388:409  owner() == msg.sender */\n      0xffffffffffffffffffffffffffffffffffffffff\n      and\n      eq\n        /* \"First-Run/Ownable.sol\":380:446  require(owner() == msg.sender, \"Ownable: caller is not the owner\") */\n      tag_258\n      jumpi\n      mload(0x40)\n      0x08c379a000000000000000000000000000000000000000000000000000000000\n      dup2\n      mstore\n      0x04\n      add\n      tag_259\n      swap1\n      tag_179\n      jump\t// in\n    tag_259:\n      mload(0x40)\n      dup1\n      swap2\n      sub\n      swap1\n      revert\n    tag_258:\n        /* \"First-Run/CityTouchToken.sol\":2189:2200  nextHalving */\n      sload(0x09)\n        /* \"First-Run/CityTouchToken.sol\":2170:2185  block.timestamp */\n      timestamp\n        /* \"First-Run/CityTouchToken.sol\":2170:2200  block.timestamp >= nextHalving */\n      lt\n        /* \"First-Run/CityTouchToken.sol\":2166:2366  if (block.timestamp >= nextHalving) {... */\n      tag_261\n      jumpi\n        /* \"First-Run/CityTouchToken.sol\":2234:2247  halvingFactor */\n      sload(0x0a)\n        /* \"First-Run/CityTouchToken.sol\":2225:2231  reward */\n      sload(0x0b)\n        /* \"First-Run/CityTouchToken.sol\":2225:2247  reward / halvingFactor */\n      tag_262\n      swap2\n      swap1\n      tag_240\n      jump\t// in\n    tag_262:\n        /* \"First-Run/CityTouchToken.sol\":2216:2222  reward */\n      0x0b\n        /* \"First-Run/CityTouchToken.sol\":2216:2247  reward = reward / halvingFactor */\n      dup2\n      swap1\n      sstore\n      pop\n        /* \"First-Run/CityTouchToken.sol\":2314:2329  halvingInterval */\n      sload(0x08)\n        /* \"First-Run/CityTouchToken.sol\":2296:2311  block.timestamp */\n      timestamp\n        /* \"First-Run/CityTouchToken.sol\":2296:2329  block.timestamp + halvingInterval */\n      tag_263\n      swap2\n      swap1\n      tag_187\n      jump\t// in\n    tag_263:\n        /* \"First-Run/CityTouchToken.sol\":2282:2293  nextHalving */\n      0x09\n        /* \"First-Run/CityTouchToken.sol\":2282:2329  nextHalving = block.timestamp + halvingInterval */\n      dup2\n      swap1\n      sstore\n      pop\n        /* \"First-Run/CityTouchToken.sol\":2166:2366  if (block.timestamp >= nextHalving) {... */\n    tag_261:\n        /* \"First-Run/CityTouchToken.sol\":2115:2372  function checkHalving() public onlyOwner {... */\n      jump\t// out\n        /* \"First-Run/Ownable.sol\":568:757  function transferOwnership(address newOwner) public virtual onlyOwner {... */\n    tag_145:\n        /* \"First-Run/Ownable.sol\":399:409  msg.sender */\n      caller\n        /* \"First-Run/Ownable.sol\":388:409  owner() == msg.sender */\n      0xffffffffffffffffffffffffffffffffffffffff\n      and\n        /* \"First-Run/Ownable.sol\":388:395  owner() */\n      tag_265\n        /* \"First-Run/Ownable.sol\":388:393  owner */\n      tag_100\n        /* \"First-Run/Ownable.sol\":388:395  owner() */\n      jump\t// in\n    tag_265:\n        /* \"First-Run/Ownable.sol\":388:409  owner() == msg.sender */\n      0xffffffffffffffffffffffffffffffffffffffff\n      and\n      eq\n        /* \"First-Run/Ownable.sol\":380:446  require(owner() == msg.sender, \"Ownable: caller is not the owner\") */\n      tag_266\n      jumpi\n      mload(0x40)\n      0x08c379a000000000000000000000000000000000000000000000000000000000\n      dup2\n      mstore\n      0x04\n      add\n      tag_267\n      swap1\n      tag_179\n      jump\t// in\n    tag_267:\n      mload(0x40)\n      dup1\n      swap2\n      sub\n      swap1\n      revert\n    tag_266:\n        /* \"First-Run/Ownable.sol\":676:677  0 */\n      0x00\n        /* \"First-Run/Ownable.sol\":656:678  newOwner != address(0) */\n      0xffffffffffffffffffffffffffffffffffffffff\n      and\n        /* \"First-Run/Ownable.sol\":656:664  newOwner */\n      dup2\n        /* \"First-Run/Ownable.sol\":656:678  newOwner != address(0) */\n      0xffffffffffffffffffffffffffffffffffffffff\n      and\n      sub\n        /* \"First-Run/Ownable.sol\":648:721  require(newOwner != address(0), \"Ownable: new owner is the zero address\") */\n      tag_269\n      jumpi\n      mload(0x40)\n      0x08c379a000000000000000000000000000000000000000000000000000000000\n      dup2\n      mstore\n      0x04\n      add\n      tag_270\n      swap1\n      tag_271\n      jump\t// in\n    tag_270:\n      mload(0x40)\n      dup1\n      swap2\n      sub\n      swap1\n      revert\n    tag_269:\n        /* \"First-Run/Ownable.sol\":731:750  _setOwner(newOwner) */\n      tag_272\n        /* \"First-Run/Ownable.sol\":741:749  newOwner */\n      dup2\n        /* \"First-Run/Ownable.sol\":731:740  _setOwner */\n      tag_203\n        /* \"First-Run/Ownable.sol\":731:750  _setOwner(newOwner) */\n      jump\t// in\n    tag_272:\n        /* \"First-Run/Ownable.sol\":568:757  function transferOwnership(address newOwner) public virtual onlyOwner {... */\n      pop\n      jump\t// out\n        /* \"First-Run/ERC20.sol\":3426:3960  function _transfer(address sender, address recipient, uint256 amount) internal virtual {... */\n    tag_155:\n        /* \"First-Run/ERC20.sol\":3549:3550  0 */\n      0x00\n        /* \"First-Run/ERC20.sol\":3531:3551  sender != address(0) */\n      0xffffffffffffffffffffffffffffffffffffffff\n      and\n        /* \"First-Run/ERC20.sol\":3531:3537  sender */\n      dup4\n        /* \"First-Run/ERC20.sol\":3531:3551  sender != address(0) */\n      0xffffffffffffffffffffffffffffffffffffffff\n      and\n      sub\n        /* \"First-Run/ERC20.sol\":3523:3593  require(sender != address(0), \"ERC20: transfer from the zero address\") */\n      tag_274\n      jumpi\n      mload(0x40)\n      0x08c379a000000000000000000000000000000000000000000000000000000000\n      dup2\n      mstore\n      0x04\n      add\n      tag_275\n      swap1\n      tag_276\n      jump\t// in\n    tag_275:\n      mload(0x40)\n      dup1\n      swap2\n      sub\n      swap1\n      revert\n    tag_274:\n        /* \"First-Run/ERC20.sol\":3632:3633  0 */\n      0x00\n        /* \"First-Run/ERC20.sol\":3611:3634  recipient != address(0) */\n      0xffffffffffffffffffffffffffffffffffffffff\n      and\n        /* \"First-Run/ERC20.sol\":3611:3620  recipient */\n      dup3\n        /* \"First-Run/ERC20.sol\":3611:3634  recipient != address(0) */\n      0xffffffffffffffffffffffffffffffffffffffff\n      and\n      sub\n        /* \"First-Run/ERC20.sol\":3603:3674  require(recipient != address(0), \"ERC20: transfer to the zero address\") */\n      tag_277\n      jumpi\n      mload(0x40)\n      0x08c379a000000000000000000000000000000000000000000000000000000000\n      dup2\n      mstore\n      0x04\n      add\n      tag_278\n      swap1\n      tag_279\n      jump\t// in\n    tag_278:\n      mload(0x40)\n      dup1\n      swap2\n      sub\n      swap1\n      revert\n    tag_277:\n        /* \"First-Run/ERC20.sol\":3685:3706  uint256 senderBalance */\n      0x00\n        /* \"First-Run/ERC20.sol\":3709:3718  _balances */\n      0x00\n        /* \"First-Run/ERC20.sol\":3709:3726  _balances[sender] */\n      0x00\n        /* \"First-Run/ERC20.sol\":3719:3725  sender */\n      dup6\n        /* \"First-Run/ERC20.sol\":3709:3726  _balances[sender] */\n      0xffffffffffffffffffffffffffffffffffffffff\n      and\n      0xffffffffffffffffffffffffffffffffffffffff\n      and\n      dup2\n      mstore\n      0x20\n      add\n      swap1\n      dup2\n      mstore\n      0x20\n      add\n      0x00\n      keccak256\n      sload\n        /* \"First-Run/ERC20.sol\":3685:3726  uint256 senderBalance = _balances[sender] */\n      swap1\n      pop\n        /* \"First-Run/ERC20.sol\":3761:3767  amount */\n      dup2\n        /* \"First-Run/ERC20.sol\":3744:3757  senderBalance */\n      dup2\n        /* \"First-Run/ERC20.sol\":3744:3767  senderBalance >= amount */\n      lt\n      iszero\n        /* \"First-Run/ERC20.sol\":3736:3810  require(senderBalance >= amount, \"ERC20: transfer amount exceeds balance\") */\n      tag_280\n      jumpi\n      mload(0x40)\n      0x08c379a000000000000000000000000000000000000000000000000000000000\n      dup2\n      mstore\n      0x04\n      add\n      tag_281\n      swap1\n      tag_282\n      jump\t// in\n    tag_281:\n      mload(0x40)\n      dup1\n      swap2\n      sub\n      swap1\n      revert\n    tag_280:\n        /* \"First-Run/ERC20.sol\":3856:3862  amount */\n      dup2\n        /* \"First-Run/ERC20.sol\":3840:3853  senderBalance */\n      dup2\n        /* \"First-Run/ERC20.sol\":3840:3862  senderBalance - amount */\n      tag_283\n      swap2\n      swap1\n      tag_173\n      jump\t// in\n    tag_283:\n        /* \"First-Run/ERC20.sol\":3820:3829  _balances */\n      0x00\n        /* \"First-Run/ERC20.sol\":3820:3837  _balances[sender] */\n      0x00\n        /* \"First-Run/ERC20.sol\":3830:3836  sender */\n      dup7\n        /* \"First-Run/ERC20.sol\":3820:3837  _balances[sender] */\n      0xffffffffffffffffffffffffffffffffffffffff\n      and\n      0xffffffffffffffffffffffffffffffffffffffff\n      and\n      dup2\n      mstore\n      0x20\n      add\n      swap1\n      dup2\n      mstore\n      0x20\n      add\n      0x00\n      keccak256\n        /* \"First-Run/ERC20.sol\":3820:3862  _balances[sender] = senderBalance - amount */\n      dup2\n      swap1\n      sstore\n      pop\n        /* \"First-Run/ERC20.sol\":3896:3902  amount */\n      dup2\n        /* \"First-Run/ERC20.sol\":3872:3881  _balances */\n      0x00\n        /* \"First-Run/ERC20.sol\":3872:3892  _balances[recipient] */\n      0x00\n        /* \"First-Run/ERC20.sol\":3882:3891  recipient */\n      dup6\n        /* \"First-Run/ERC20.sol\":3872:3892  _balances[recipient] */\n      0xffffffffffffffffffffffffffffffffffffffff\n      and\n      0xffffffffffffffffffffffffffffffffffffffff\n      and\n      dup2\n      mstore\n      0x20\n      add\n      swap1\n      dup2\n      mstore\n      0x20\n      add\n      0x00\n      keccak256\n      0x00\n        /* \"First-Run/ERC20.sol\":3872:3902  _balances[recipient] += amount */\n      dup3\n      dup3\n      sload\n      tag_284\n      swap2\n      swap1\n      tag_187\n      jump\t// in\n    tag_284:\n      swap3\n      pop\n      pop\n      dup2\n      swap1\n      sstore\n      pop\n        /* \"First-Run/ERC20.sol\":3935:3944  recipient */\n      dup3\n        /* \"First-Run/ERC20.sol\":3918:3953  Transfer(sender, recipient, amount) */\n      0xffffffffffffffffffffffffffffffffffffffff\n      and\n        /* \"First-Run/ERC20.sol\":3927:3933  sender */\n      dup5\n        /* \"First-Run/ERC20.sol\":3918:3953  Transfer(sender, recipient, amount) */\n      0xffffffffffffffffffffffffffffffffffffffff\n      and\n      0xddf252ad1be2c89b69c2b068fc378daa952ba7f163c4a11628f55a4df523b3ef\n        /* \"First-Run/ERC20.sol\":3946:3952  amount */\n      dup5\n        /* \"First-Run/ERC20.sol\":3918:3953  Transfer(sender, recipient, amount) */\n      mload(0x40)\n      tag_285\n      swap2\n      swap1\n      tag_57\n      jump\t// in\n    tag_285:\n      mload(0x40)\n      dup1\n      swap2\n      sub\n      swap1\n      log3\n        /* \"First-Run/ERC20.sol\":3513:3960  {... */\n      pop\n        /* \"First-Run/ERC20.sol\":3426:3960  function _transfer(address sender, address recipient, uint256 amount) internal virtual {... */\n      pop\n      pop\n      pop\n      jump\t// out\n        /* \"First-Run/Context.sol\":90:186  function _msgSender() internal view virtual returns (address) {... */\n    tag_161:\n        /* \"First-Run/Context.sol\":143:150  address */\n      0x00\n        /* \"First-Run/Context.sol\":169:179  msg.sender */\n      caller\n        /* \"First-Run/Context.sol\":162:179  return msg.sender */\n      swap1\n      pop\n        /* \"First-Run/Context.sol\":90:186  function _msgSender() internal view virtual returns (address) {... */\n      swap1\n      jump\t// out\n        /* \"First-Run/ERC20.sol\":4671:5011  function _approve(address owner, address spender, uint256 amount) internal virtual {... */\n    tag_162:\n        /* \"First-Run/ERC20.sol\":4789:4790  0 */\n      0x00\n        /* \"First-Run/ERC20.sol\":4772:4791  owner != address(0) */\n      0xffffffffffffffffffffffffffffffffffffffff\n      and\n        /* \"First-Run/ERC20.sol\":4772:4777  owner */\n      dup4\n        /* \"First-Run/ERC20.sol\":4772:4791  owner != address(0) */\n      0xffffffffffffffffffffffffffffffffffffffff\n      and\n      sub\n        /* \"First-Run/ERC20.sol\":4764:4832  require(owner != address(0), \"ERC20: approve from the zero address\") */\n      tag_288\n      jumpi\n      mload(0x40)\n      0x08c379a000000000000000000000000000000000000000000000000000000000\n      dup2\n      mstore\n      0x04\n      add\n      tag_289\n      swap1\n      tag_290\n      jump\t// in\n    tag_289:\n      mload(0x40)\n      dup1\n      swap2\n      sub\n      swap1\n      revert\n    tag_288:\n        /* \"First-Run/ERC20.sol\":4869:4870  0 */\n      0x00\n        /* \"First-Run/ERC20.sol\":4850:4871  spender != address(0) */\n      0xffffffffffffffffffffffffffffffffffffffff\n      and\n        /* \"First-Run/ERC20.sol\":4850:4857  spender */\n      dup3\n        /* \"First-Run/ERC20.sol\":4850:4871  spender != address(0) */\n      0xffffffffffffffffffffffffffffffffffffffff\n      and\n      sub\n        /* \"First-Run/ERC20.sol\":4842:4910  require(spender != address(0), \"ERC20: approve to the zero address\") */\n      tag_291\n      jumpi\n      mload(0x40)\n      0x08c379a000000000000000000000000000000000000000000000000000000000\n      dup2\n      mstore\n      0x04\n      add\n      tag_292\n      swap1\n      tag_293\n      jump\t// in\n    tag_292:\n      mload(0x40)\n      dup1\n      swap2\n      sub\n      swap1\n      revert\n    tag_291:\n        /* \"First-Run/ERC20.sol\":4951:4957  amount */\n      dup1\n        /* \"First-Run/ERC20.sol\":4921:4932  _allowances */\n      0x01\n        /* \"First-Run/ERC20.sol\":4921:4939  _allowances[owner] */\n      0x00\n        /* \"First-Run/ERC20.sol\":4933:4938  owner */\n      dup6\n        /* \"First-Run/ERC20.sol\":4921:4939  _allowances[owner] */\n      0xffffffffffffffffffffffffffffffffffffffff\n      and\n      0xffffffffffffffffffffffffffffffffffffffff\n      and\n      dup2\n      mstore\n      0x20\n      add\n      swap1\n      dup2\n      mstore\n      0x20\n      add\n      0x00\n      keccak256\n        /* \"First-Run/ERC20.sol\":4921:4948  _allowances[owner][spender] */\n      0x00\n        /* \"First-Run/ERC20.sol\":4940:4947  spender */\n      dup5\n        /* \"First-Run/ERC20.sol\":4921:4948  _allowances[owner][spender] */\n      0xffffffffffffffffffffffffffffffffffffffff\n      and\n      0xffffffffffffffffffffffffffffffffffffffff\n      and\n      dup2\n      mstore\n      0x20\n      add\n      swap1\n      dup2\n      mstore\n      0x20\n      add\n      0x00\n      keccak256\n        /* \"First-Run/ERC20.sol\":4921:4957  _allowances[owner][spender] = amount */\n      dup2\n      swap1\n      sstore\n      pop\n        /* \"First-Run/ERC20.sol\":4988:4995  spender */\n      dup2\n        /* \"First-Run/ERC20.sol\":4972:5004  Approval(owner, spender, amount) */\n      0xffffffffffffffffffffffffffffffffffffffff\n      and\n        /* \"First-Run/ERC20.sol\":4981:4986  owner */\n      dup4\n        /* \"First-Run/ERC20.sol\":4972:5004  Approval(owner, spender, amount) */\n      0xffffffffffffffffffffffffffffffffffffffff\n      and\n      0x8c5be1e5ebec7d5bd14f71427d1e84f3dd0314c0f7b2291e5b200ac8c7c3b925\n        /* \"First-Run/ERC20.sol\":4997:5003  amount */\n      dup4\n        /* \"First-Run/ERC20.sol\":4972:5004  Approval(owner, spender, amount) */\n      mload(0x40)\n      tag_294\n      swap2\n      swap1\n      tag_57\n      jump\t// in\n    tag_294:\n      mload(0x40)\n      dup1\n      swap2\n      sub\n      swap1\n      log3\n        /* \"First-Run/ERC20.sol\":4671:5011  function _approve(address owner, address spender, uint256 amount) internal virtual {... */\n      pop\n      pop\n      pop\n      jump\t// out\n        /* \"First-Run/ERC20.sol\":3966:4236  function _mint(address account, uint256 amount) internal virtual {... */\n    tag_194:\n        /* \"First-Run/ERC20.sol\":4068:4069  0 */\n      0x00\n        /* \"First-Run/ERC20.sol\":4049:4070  account != address(0) */\n      0xffffffffffffffffffffffffffffffffffffffff\n      and\n        /* \"First-Run/ERC20.sol\":4049:4056  account */\n      dup3\n        /* \"First-Run/ERC20.sol\":4049:4070  account != address(0) */\n      0xffffffffffffffffffffffffffffffffffffffff\n      and\n      sub\n        /* \"First-Run/ERC20.sol\":4041:4106  require(account != address(0), \"ERC20: mint to the zero address\") */\n      tag_296\n      jumpi\n      mload(0x40)\n      0x08c379a000000000000000000000000000000000000000000000000000000000\n      dup2\n      mstore\n      0x04\n      add\n      tag_297\n      swap1\n      tag_298\n      jump\t// in\n    tag_297:\n      mload(0x40)\n      dup1\n      swap2\n      sub\n      swap1\n      revert\n    tag_296:\n        /* \"First-Run/ERC20.sol\":4133:4139  amount */\n      dup1\n        /* \"First-Run/ERC20.sol\":4117:4129  _totalSupply */\n      0x02\n      0x00\n        /* \"First-Run/ERC20.sol\":4117:4139  _totalSupply += amount */\n      dup3\n      dup3\n      sload\n      tag_299\n      swap2\n      swap1\n      tag_187\n      jump\t// in\n    tag_299:\n      swap3\n      pop\n      pop\n      dup2\n      swap1\n      sstore\n      pop\n        /* \"First-Run/ERC20.sol\":4171:4177  amount */\n      dup1\n        /* \"First-Run/ERC20.sol\":4149:4158  _balances */\n      0x00\n        /* \"First-Run/ERC20.sol\":4149:4167  _balances[account] */\n      0x00\n        /* \"First-Run/ERC20.sol\":4159:4166  account */\n      dup5\n        /* \"First-Run/ERC20.sol\":4149:4167  _balances[account] */\n      0xffffffffffffffffffffffffffffffffffffffff\n      and\n      0xffffffffffffffffffffffffffffffffffffffff\n      and\n      dup2\n      mstore\n      0x20\n      add\n      swap1\n      dup2\n      mstore\n      0x20\n      add\n      0x00\n      keccak256\n      0x00\n        /* \"First-Run/ERC20.sol\":4149:4177  _balances[account] += amount */\n      dup3\n      dup3\n      sload\n      tag_300\n      swap2\n      swap1\n      tag_187\n      jump\t// in\n    tag_300:\n      swap3\n      pop\n      pop\n      dup2\n      swap1\n      sstore\n      pop\n        /* \"First-Run/ERC20.sol\":4213:4220  account */\n      dup2\n        /* \"First-Run/ERC20.sol\":4192:4229  Transfer(address(0), account, amount) */\n      0xffffffffffffffffffffffffffffffffffffffff\n      and\n        /* \"First-Run/ERC20.sol\":4209:4210  0 */\n      0x00\n        /* \"First-Run/ERC20.sol\":4192:4229  Transfer(address(0), account, amount) */\n      0xffffffffffffffffffffffffffffffffffffffff\n      and\n      0xddf252ad1be2c89b69c2b068fc378daa952ba7f163c4a11628f55a4df523b3ef\n        /* \"First-Run/ERC20.sol\":4222:4228  amount */\n      dup4\n        /* \"First-Run/ERC20.sol\":4192:4229  Transfer(address(0), account, amount) */\n      mload(0x40)\n      tag_301\n      swap2\n      swap1\n      tag_57\n      jump\t// in\n    tag_301:\n      mload(0x40)\n      dup1\n      swap2\n      sub\n      swap1\n      log3\n        /* \"First-Run/ERC20.sol\":3966:4236  function _mint(address account, uint256 amount) internal virtual {... */\n      pop\n      pop\n      jump\t// out\n        /* \"First-Run/Ownable.sol\":763:932  function _setOwner(address newOwner) private {... */\n    tag_203:\n        /* \"First-Run/Ownable.sol\":818:834  address oldOwner */\n      0x00\n        /* \"First-Run/Ownable.sol\":837:843  _owner */\n      0x05\n      0x00\n      swap1\n      sload\n      swap1\n      0x0100\n      exp\n      swap1\n      div\n      0xffffffffffffffffffffffffffffffffffffffff\n      and\n        /* \"First-Run/Ownable.sol\":818:843  address oldOwner = _owner */\n      swap1\n      pop\n        /* \"First-Run/Ownable.sol\":862:870  newOwner */\n      dup2\n        /* \"First-Run/Ownable.sol\":853:859  _owner */\n      0x05\n      0x00\n        /* \"First-Run/Ownable.sol\":853:870  _owner = newOwner */\n      0x0100\n      exp\n      dup2\n      sload\n      dup2\n      0xffffffffffffffffffffffffffffffffffffffff\n      mul\n      not\n      and\n      swap1\n      dup4\n      0xffffffffffffffffffffffffffffffffffffffff\n      and\n      mul\n      or\n      swap1\n      sstore\n      pop\n        /* \"First-Run/Ownable.sol\":916:924  newOwner */\n      dup2\n        /* \"First-Run/Ownable.sol\":885:925  OwnershipTransferred(oldOwner, newOwner) */\n      0xffffffffffffffffffffffffffffffffffffffff\n      and\n        /* \"First-Run/Ownable.sol\":906:914  oldOwner */\n      dup2\n        /* \"First-Run/Ownable.sol\":885:925  OwnershipTransferred(oldOwner, newOwner) */\n      0xffffffffffffffffffffffffffffffffffffffff\n      and\n      0x8be0079c531659141344cd1fd0a4f28419497f9722a3daafe3b4186f6b6457e0\n      mload(0x40)\n      mload(0x40)\n      dup1\n      swap2\n      sub\n      swap1\n      log3\n        /* \"First-Run/Ownable.sol\":808:932  {... */\n      pop\n        /* \"First-Run/Ownable.sol\":763:932  function _setOwner(address newOwner) private {... */\n      pop\n      jump\t// out\n        /* \"#utility.yul\":7:106   */\n    tag_303:\n        /* \"#utility.yul\":59:65   */\n      0x00\n        /* \"#utility.yul\":93:98   */\n      dup2\n        /* \"#utility.yul\":87:99   */\n      mload\n        /* \"#utility.yul\":77:99   */\n      swap1\n      pop\n        /* \"#utility.yul\":7:106   */\n      swap2\n      swap1\n      pop\n      jump\t// out\n        /* \"#utility.yul\":112:281   */\n    tag_304:\n        /* \"#utility.yul\":196:207   */\n      0x00\n        /* \"#utility.yul\":230:236   */\n      dup3\n        /* \"#utility.yul\":225:228   */\n      dup3\n        /* \"#utility.yul\":218:237   */\n      mstore\n        /* \"#utility.yul\":270:274   */\n      0x20\n        /* \"#utility.yul\":265:268   */\n      dup3\n        /* \"#utility.yul\":261:275   */\n      add\n        /* \"#utility.yul\":246:275   */\n      swap1\n      pop\n        /* \"#utility.yul\":112:281   */\n      swap3\n      swap2\n      pop\n      pop\n      jump\t// out\n        /* \"#utility.yul\":287:426   */\n    tag_305:\n        /* \"#utility.yul\":376:382   */\n      dup3\n        /* \"#utility.yul\":371:374   */\n      dup2\n        /* \"#utility.yul\":366:369   */\n      dup4\n        /* \"#utility.yul\":360:383   */\n      mcopy\n        /* \"#utility.yul\":417:418   */\n      0x00\n        /* \"#utility.yul\":408:414   */\n      dup4\n        /* \"#utility.yul\":403:406   */\n      dup4\n        /* \"#utility.yul\":399:415   */\n      add\n        /* \"#utility.yul\":392:419   */\n      mstore\n        /* \"#utility.yul\":287:426   */\n      pop\n      pop\n      pop\n      jump\t// out\n        /* \"#utility.yul\":432:534   */\n    tag_306:\n        /* \"#utility.yul\":473:479   */\n      0x00\n        /* \"#utility.yul\":524:526   */\n      0x1f\n        /* \"#utility.yul\":520:527   */\n      not\n        /* \"#utility.yul\":515:517   */\n      0x1f\n        /* \"#utility.yul\":508:513   */\n      dup4\n        /* \"#utility.yul\":504:518   */\n      add\n        /* \"#utility.yul\":500:528   */\n      and\n        /* \"#utility.yul\":490:528   */\n      swap1\n      pop\n        /* \"#utility.yul\":432:534   */\n      swap2\n      swap1\n      pop\n      jump\t// out\n        /* \"#utility.yul\":540:917   */\n    tag_307:\n        /* \"#utility.yul\":628:631   */\n      0x00\n        /* \"#utility.yul\":656:695   */\n      tag_366\n        /* \"#utility.yul\":689:694   */\n      dup3\n        /* \"#utility.yul\":656:695   */\n      tag_303\n      jump\t// in\n    tag_366:\n        /* \"#utility.yul\":711:782   */\n      tag_367\n        /* \"#utility.yul\":775:781   */\n      dup2\n        /* \"#utility.yul\":770:773   */\n      dup6\n        /* \"#utility.yul\":711:782   */\n      tag_304\n      jump\t// in\n    tag_367:\n        /* \"#utility.yul\":704:782   */\n      swap4\n      pop\n        /* \"#utility.yul\":791:856   */\n      tag_368\n        /* \"#utility.yul\":849:855   */\n      dup2\n        /* \"#utility.yul\":844:847   */\n      dup6\n        /* \"#utility.yul\":837:841   */\n      0x20\n        /* \"#utility.yul\":830:835   */\n      dup7\n        /* \"#utility.yul\":826:842   */\n      add\n        /* \"#utility.yul\":791:856   */\n      tag_305\n      jump\t// in\n    tag_368:\n        /* \"#utility.yul\":881:910   */\n      tag_369\n        /* \"#utility.yul\":903:909   */\n      dup2\n        /* \"#utility.yul\":881:910   */\n      tag_306\n      jump\t// in\n    tag_369:\n        /* \"#utility.yul\":876:879   */\n      dup5\n        /* \"#utility.yul\":872:911   */\n      add\n        /* \"#utility.yul\":865:911   */\n      swap2\n      pop\n        /* \"#utility.yul\":632:917   */\n      pop\n        /* \"#utility.yul\":540:917   */\n      swap3\n      swap2\n      pop\n      pop\n      jump\t// out\n        /* \"#utility.yul\":923:1236   */\n    tag_42:\n        /* \"#utility.yul\":1036:1040   */\n      0x00\n        /* \"#utility.yul\":1074:1076   */\n      0x20\n        /* \"#utility.yul\":1063:1072   */\n      dup3\n        /* \"#utility.yul\":1059:1077   */\n      add\n        /* \"#utility.yul\":1051:1077   */\n      swap1\n      pop\n        /* \"#utility.yul\":1123:1132   */\n      dup2\n        /* \"#utility.yul\":1117:1121   */\n      dup2\n        /* \"#utility.yul\":1113:1133   */\n      sub\n        /* \"#utility.yul\":1109:1110   */\n      0x00\n        /* \"#utility.yul\":1098:1107   */\n      dup4\n        /* \"#utility.yul\":1094:1111   */\n      add\n        /* \"#utility.yul\":1087:1134   */\n      mstore\n        /* \"#utility.yul\":1151:1229   */\n      tag_371\n        /* \"#utility.yul\":1224:1228   */\n      dup2\n        /* \"#utility.yul\":1215:1221   */\n      dup5\n        /* \"#utility.yul\":1151:1229   */\n      tag_307\n      jump\t// in\n    tag_371:\n        /* \"#utility.yul\":1143:1229   */\n      swap1\n      pop\n        /* \"#utility.yul\":923:1236   */\n      swap3\n      swap2\n      pop\n      pop\n      jump\t// out\n        /* \"#utility.yul\":1242:1317   */\n    tag_308:\n        /* \"#utility.yul\":1275:1281   */\n      0x00\n        /* \"#utility.yul\":1308:1310   */\n      0x40\n        /* \"#utility.yul\":1302:1311   */\n      mload\n        /* \"#utility.yul\":1292:1311   */\n      swap1\n      pop\n        /* \"#utility.yul\":1242:1317   */\n      swap1\n      jump\t// out\n        /* \"#utility.yul\":1323:1440   */\n    tag_309:\n        /* \"#utility.yul\":1432:1433   */\n      0x00\n        /* \"#utility.yul\":1429:1430   */\n      0x00\n        /* \"#utility.yul\":1422:1434   */\n      revert\n        /* \"#utility.yul\":1446:1563   */\n    tag_310:\n        /* \"#utility.yul\":1555:1556   */\n      0x00\n        /* \"#utility.yul\":1552:1553   */\n      0x00\n        /* \"#utility.yul\":1545:1557   */\n      revert\n        /* \"#utility.yul\":1569:1695   */\n    tag_311:\n        /* \"#utility.yul\":1606:1613   */\n      0x00\n        /* \"#utility.yul\":1646:1688   */\n      0xffffffffffffffffffffffffffffffffffffffff\n        /* \"#utility.yul\":1639:1644   */\n      dup3\n        /* \"#utility.yul\":1635:1689   */\n      and\n        /* \"#utility.yul\":1624:1689   */\n      swap1\n      pop\n        /* \"#utility.yul\":1569:1695   */\n      swap2\n      swap1\n      pop\n      jump\t// out\n        /* \"#utility.yul\":1701:1797   */\n    tag_312:\n        /* \"#utility.yul\":1738:1745   */\n      0x00\n        /* \"#utility.yul\":1767:1791   */\n      tag_377\n        /* \"#utility.yul\":1785:1790   */\n      dup3\n        /* \"#utility.yul\":1767:1791   */\n      tag_311\n      jump\t// in\n    tag_377:\n        /* \"#utility.yul\":1756:1791   */\n      swap1\n      pop\n        /* \"#utility.yul\":1701:1797   */\n      swap2\n      swap1\n      pop\n      jump\t// out\n        /* \"#utility.yul\":1803:1925   */\n    tag_313:\n        /* \"#utility.yul\":1876:1900   */\n      tag_379\n        /* \"#utility.yul\":1894:1899   */\n      dup2\n        /* \"#utility.yul\":1876:1900   */\n      tag_312\n      jump\t// in\n    tag_379:\n        /* \"#utility.yul\":1869:1874   */\n      dup2\n        /* \"#utility.yul\":1866:1901   */\n      eq\n        /* \"#utility.yul\":1856:1919   */\n      tag_380\n      jumpi\n        /* \"#utility.yul\":1915:1916   */\n      0x00\n        /* \"#utility.yul\":1912:1913   */\n      0x00\n        /* \"#utility.yul\":1905:1917   */\n      revert\n        /* \"#utility.yul\":1856:1919   */\n    tag_380:\n        /* \"#utility.yul\":1803:1925   */\n      pop\n      jump\t// out\n        /* \"#utility.yul\":1931:2070   */\n    tag_314:\n        /* \"#utility.yul\":1977:1982   */\n      0x00\n        /* \"#utility.yul\":2015:2021   */\n      dup2\n        /* \"#utility.yul\":2002:2022   */\n      calldataload\n        /* \"#utility.yul\":1993:2022   */\n      swap1\n      pop\n        /* \"#utility.yul\":2031:2064   */\n      tag_382\n        /* \"#utility.yul\":2058:2063   */\n      dup2\n        /* \"#utility.yul\":2031:2064   */\n      tag_313\n      jump\t// in\n    tag_382:\n        /* \"#utility.yul\":1931:2070   */\n      swap3\n      swap2\n      pop\n      pop\n      jump\t// out\n        /* \"#utility.yul\":2076:2153   */\n    tag_315:\n        /* \"#utility.yul\":2113:2120   */\n      0x00\n        /* \"#utility.yul\":2142:2147   */\n      dup2\n        /* \"#utility.yul\":2131:2147   */\n      swap1\n      pop\n        /* \"#utility.yul\":2076:2153   */\n      swap2\n      swap1\n      pop\n      jump\t// out\n        /* \"#utility.yul\":2159:2281   */\n    tag_316:\n        /* \"#utility.yul\":2232:2256   */\n      tag_385\n        /* \"#utility.yul\":2250:2255   */\n      dup2\n        /* \"#utility.yul\":2232:2256   */\n      tag_315\n      jump\t// in\n    tag_385:\n        /* \"#utility.yul\":2225:2230   */\n      dup2\n        /* \"#utility.yul\":2222:2257   */\n      eq\n        /* \"#utility.yul\":2212:2275   */\n      tag_386\n      jumpi\n        /* \"#utility.yul\":2271:2272   */\n      0x00\n        /* \"#utility.yul\":2268:2269   */\n      0x00\n        /* \"#utility.yul\":2261:2273   */\n      revert\n        /* \"#utility.yul\":2212:2275   */\n    tag_386:\n        /* \"#utility.yul\":2159:2281   */\n      pop\n      jump\t// out\n        /* \"#utility.yul\":2287:2426   */\n    tag_317:\n        /* \"#utility.yul\":2333:2338   */\n      0x00\n        /* \"#utility.yul\":2371:2377   */\n      dup2\n        /* \"#utility.yul\":2358:2378   */\n      calldataload\n        /* \"#utility.yul\":2349:2378   */\n      swap1\n      pop\n        /* \"#utility.yul\":2387:2420   */\n      tag_388\n        /* \"#utility.yul\":2414:2419   */\n      dup2\n        /* \"#utility.yul\":2387:2420   */\n      tag_316\n      jump\t// in\n    tag_388:\n        /* \"#utility.yul\":2287:2426   */\n      swap3\n      swap2\n      pop\n      pop\n      jump\t// out\n        /* \"#utility.yul\":2432:2549   */\n    tag_318:\n        /* \"#utility.yul\":2541:2542   */\n      0x00\n        /* \"#utility.yul\":2538:2539   */\n      0x00\n        /* \"#utility.yul\":2531:2543   */\n      revert\n        /* \"#utility.yul\":2555:2672   */\n    tag_319:\n        /* \"#utility.yul\":2664:2665   */\n      0x00\n        /* \"#utility.yul\":2661:2662   */\n      0x00\n        /* \"#utility.yul\":2654:2666   */\n      revert\n        /* \"#utility.yul\":2678:2858   */\n    tag_320:\n        /* \"#utility.yul\":2726:2803   */\n      0x4e487b7100000000000000000000000000000000000000000000000000000000\n        /* \"#utility.yul\":2723:2724   */\n      0x00\n        /* \"#utility.yul\":2716:2804   */\n      mstore\n        /* \"#utility.yul\":2823:2827   */\n      0x41\n        /* \"#utility.yul\":2820:2821   */\n      0x04\n        /* \"#utility.yul\":2813:2828   */\n      mstore\n        /* \"#utility.yul\":2847:2851   */\n      0x24\n        /* \"#utility.yul\":2844:2845   */\n      0x00\n        /* \"#utility.yul\":2837:2852   */\n      revert\n        /* \"#utility.yul\":2864:3145   */\n    tag_321:\n        /* \"#utility.yul\":2947:2974   */\n      tag_393\n        /* \"#utility.yul\":2969:2973   */\n      dup3\n        /* \"#utility.yul\":2947:2974   */\n      tag_306\n      jump\t// in\n    tag_393:\n        /* \"#utility.yul\":2939:2945   */\n      dup2\n        /* \"#utility.yul\":2935:2975   */\n      add\n        /* \"#utility.yul\":3077:3083   */\n      dup2\n        /* \"#utility.yul\":3065:3075   */\n      dup2\n        /* \"#utility.yul\":3062:3084   */\n      lt\n        /* \"#utility.yul\":3041:3059   */\n      0xffffffffffffffff\n        /* \"#utility.yul\":3029:3039   */\n      dup3\n        /* \"#utility.yul\":3026:3060   */\n      gt\n        /* \"#utility.yul\":3023:3085   */\n      or\n        /* \"#utility.yul\":3020:3108   */\n      iszero\n      tag_394\n      jumpi\n        /* \"#utility.yul\":3088:3106   */\n      tag_395\n      tag_320\n      jump\t// in\n    tag_395:\n        /* \"#utility.yul\":3020:3108   */\n    tag_394:\n        /* \"#utility.yul\":3128:3138   */\n      dup1\n        /* \"#utility.yul\":3124:3126   */\n      0x40\n        /* \"#utility.yul\":3117:3139   */\n      mstore\n        /* \"#utility.yul\":2907:3145   */\n      pop\n        /* \"#utility.yul\":2864:3145   */\n      pop\n      pop\n      jump\t// out\n        /* \"#utility.yul\":3151:3280   */\n    tag_322:\n        /* \"#utility.yul\":3185:3191   */\n      0x00\n        /* \"#utility.yul\":3212:3232   */\n      tag_397\n      tag_308\n      jump\t// in\n    tag_397:\n        /* \"#utility.yul\":3202:3232   */\n      swap1\n      pop\n        /* \"#utility.yul\":3241:3274   */\n      tag_398\n        /* \"#utility.yul\":3269:3273   */\n      dup3\n        /* \"#utility.yul\":3261:3267   */\n      dup3\n        /* \"#utility.yul\":3241:3274   */\n      tag_321\n      jump\t// in\n    tag_398:\n        /* \"#utility.yul\":3151:3280   */\n      swap2\n      swap1\n      pop\n      jump\t// out\n        /* \"#utility.yul\":3286:3594   */\n    tag_323:\n        /* \"#utility.yul\":3348:3352   */\n      0x00\n        /* \"#utility.yul\":3438:3456   */\n      0xffffffffffffffff\n        /* \"#utility.yul\":3430:3436   */\n      dup3\n        /* \"#utility.yul\":3427:3457   */\n      gt\n        /* \"#utility.yul\":3424:3480   */\n      iszero\n      tag_400\n      jumpi\n        /* \"#utility.yul\":3460:3478   */\n      tag_401\n      tag_320\n      jump\t// in\n    tag_401:\n        /* \"#utility.yul\":3424:3480   */\n    tag_400:\n        /* \"#utility.yul\":3498:3527   */\n      tag_402\n        /* \"#utility.yul\":3520:3526   */\n      dup3\n        /* \"#utility.yul\":3498:3527   */\n      tag_306\n      jump\t// in\n    tag_402:\n        /* \"#utility.yul\":3490:3527   */\n      swap1\n      pop\n        /* \"#utility.yul\":3582:3586   */\n      0x20\n        /* \"#utility.yul\":3576:3580   */\n      dup2\n        /* \"#utility.yul\":3572:3587   */\n      add\n        /* \"#utility.yul\":3564:3587   */\n      swap1\n      pop\n        /* \"#utility.yul\":3286:3594   */\n      swap2\n      swap1\n      pop\n      jump\t// out\n        /* \"#utility.yul\":3600:3748   */\n    tag_324:\n        /* \"#utility.yul\":3698:3704   */\n      dup3\n        /* \"#utility.yul\":3693:3696   */\n      dup2\n        /* \"#utility.yul\":3688:3691   */\n      dup4\n        /* \"#utility.yul\":3675:3705   */\n      calldatacopy\n        /* \"#utility.yul\":3739:3740   */\n      0x00\n        /* \"#utility.yul\":3730:3736   */\n      dup4\n        /* \"#utility.yul\":3725:3728   */\n      dup4\n        /* \"#utility.yul\":3721:3737   */\n      add\n        /* \"#utility.yul\":3714:3741   */\n      mstore\n        /* \"#utility.yul\":3600:3748   */\n      pop\n      pop\n      pop\n      jump\t// out\n        /* \"#utility.yul\":3754:4179   */\n    tag_325:\n        /* \"#utility.yul\":3832:3837   */\n      0x00\n        /* \"#utility.yul\":3857:3923   */\n      tag_405\n        /* \"#utility.yul\":3873:3922   */\n      tag_406\n        /* \"#utility.yul\":3915:3921   */\n      dup5\n        /* \"#utility.yul\":3873:3922   */\n      tag_323\n      jump\t// in\n    tag_406:\n        /* \"#utility.yul\":3857:3923   */\n      tag_322\n      jump\t// in\n    tag_405:\n        /* \"#utility.yul\":3848:3923   */\n      swap1\n      pop\n        /* \"#utility.yul\":3946:3952   */\n      dup3\n        /* \"#utility.yul\":3939:3944   */\n      dup2\n        /* \"#utility.yul\":3932:3953   */\n      mstore\n        /* \"#utility.yul\":3984:3988   */\n      0x20\n        /* \"#utility.yul\":3977:3982   */\n      dup2\n        /* \"#utility.yul\":3973:3989   */\n      add\n        /* \"#utility.yul\":4022:4025   */\n      dup5\n        /* \"#utility.yul\":4013:4019   */\n      dup5\n        /* \"#utility.yul\":4008:4011   */\n      dup5\n        /* \"#utility.yul\":4004:4020   */\n      add\n        /* \"#utility.yul\":4001:4026   */\n      gt\n        /* \"#utility.yul\":3998:4110   */\n      iszero\n      tag_407\n      jumpi\n        /* \"#utility.yul\":4029:4108   */\n      tag_408\n      tag_319\n      jump\t// in\n    tag_408:\n        /* \"#utility.yul\":3998:4110   */\n    tag_407:\n        /* \"#utility.yul\":4119:4173   */\n      tag_409\n        /* \"#utility.yul\":4166:4172   */\n      dup5\n        /* \"#utility.yul\":4161:4164   */\n      dup3\n        /* \"#utility.yul\":4156:4159   */\n      dup6\n        /* \"#utility.yul\":4119:4173   */\n      tag_324\n      jump\t// in\n    tag_409:\n        /* \"#utility.yul\":3838:4179   */\n      pop\n        /* \"#utility.yul\":3754:4179   */\n      swap4\n      swap3\n      pop\n      pop\n      pop\n      jump\t// out\n        /* \"#utility.yul\":4199:4539   */\n    tag_326:\n        /* \"#utility.yul\":4255:4260   */\n      0x00\n        /* \"#utility.yul\":4304:4307   */\n      dup3\n        /* \"#utility.yul\":4297:4301   */\n      0x1f\n        /* \"#utility.yul\":4289:4295   */\n      dup4\n        /* \"#utility.yul\":4285:4302   */\n      add\n        /* \"#utility.yul\":4281:4308   */\n      slt\n        /* \"#utility.yul\":4271:4393   */\n      tag_411\n      jumpi\n        /* \"#utility.yul\":4312:4391   */\n      tag_412\n      tag_318\n      jump\t// in\n    tag_412:\n        /* \"#utility.yul\":4271:4393   */\n    tag_411:\n        /* \"#utility.yul\":4429:4435   */\n      dup2\n        /* \"#utility.yul\":4416:4436   */\n      calldataload\n        /* \"#utility.yul\":4454:4533   */\n      tag_413\n        /* \"#utility.yul\":4529:4532   */\n      dup5\n        /* \"#utility.yul\":4521:4527   */\n      dup3\n        /* \"#utility.yul\":4514:4518   */\n      0x20\n        /* \"#utility.yul\":4506:4512   */\n      dup7\n        /* \"#utility.yul\":4502:4519   */\n      add\n        /* \"#utility.yul\":4454:4533   */\n      tag_325\n      jump\t// in\n    tag_413:\n        /* \"#utility.yul\":4445:4533   */\n      swap2\n      pop\n        /* \"#utility.yul\":4261:4539   */\n      pop\n        /* \"#utility.yul\":4199:4539   */\n      swap3\n      swap2\n      pop\n      pop\n      jump\t// out\n        /* \"#utility.yul\":4545:5344   */\n    tag_45:\n        /* \"#utility.yul\":4632:4638   */\n      0x00\n        /* \"#utility.yul\":4640:4646   */\n      0x00\n        /* \"#utility.yul\":4648:4654   */\n      0x00\n        /* \"#utility.yul\":4697:4699   */\n      0x60\n        /* \"#utility.yul\":4685:4694   */\n      dup5\n        /* \"#utility.yul\":4676:4683   */\n      dup7\n        /* \"#utility.yul\":4672:4695   */\n      sub\n        /* \"#utility.yul\":4668:4700   */\n      slt\n        /* \"#utility.yul\":4665:4784   */\n      iszero\n      tag_415\n      jumpi\n        /* \"#utility.yul\":4703:4782   */\n      tag_416\n      tag_309\n      jump\t// in\n    tag_416:\n        /* \"#utility.yul\":4665:4784   */\n    tag_415:\n        /* \"#utility.yul\":4823:4824   */\n      0x00\n        /* \"#utility.yul\":4848:4901   */\n      tag_417\n        /* \"#utility.yul\":4893:4900   */\n      dup7\n        /* \"#utility.yul\":4884:4890   */\n      dup3\n        /* \"#utility.yul\":4873:4882   */\n      dup8\n        /* \"#utility.yul\":4869:4891   */\n      add\n        /* \"#utility.yul\":4848:4901   */\n      tag_314\n      jump\t// in\n    tag_417:\n        /* \"#utility.yul\":4838:4901   */\n      swap4\n      pop\n        /* \"#utility.yul\":4794:4911   */\n      pop\n        /* \"#utility.yul\":4950:4952   */\n      0x20\n        /* \"#utility.yul\":4976:5029   */\n      tag_418\n        /* \"#utility.yul\":5021:5028   */\n      dup7\n        /* \"#utility.yul\":5012:5018   */\n      dup3\n        /* \"#utility.yul\":5001:5010   */\n      dup8\n        /* \"#utility.yul\":4997:5019   */\n      add\n        /* \"#utility.yul\":4976:5029   */\n      tag_317\n      jump\t// in\n    tag_418:\n        /* \"#utility.yul\":4966:5029   */\n      swap3\n      pop\n        /* \"#utility.yul\":4921:5039   */\n      pop\n        /* \"#utility.yul\":5106:5108   */\n      0x40\n        /* \"#utility.yul\":5095:5104   */\n      dup5\n        /* \"#utility.yul\":5091:5109   */\n      add\n        /* \"#utility.yul\":5078:5110   */\n      calldataload\n        /* \"#utility.yul\":5137:5155   */\n      0xffffffffffffffff\n        /* \"#utility.yul\":5129:5135   */\n      dup2\n        /* \"#utility.yul\":5126:5156   */\n      gt\n        /* \"#utility.yul\":5123:5240   */\n      iszero\n      tag_419\n      jumpi\n        /* \"#utility.yul\":5159:5238   */\n      tag_420\n      tag_310\n      jump\t// in\n    tag_420:\n        /* \"#utility.yul\":5123:5240   */\n    tag_419:\n        /* \"#utility.yul\":5264:5327   */\n      tag_421\n        /* \"#utility.yul\":5319:5326   */\n      dup7\n        /* \"#utility.yul\":5310:5316   */\n      dup3\n        /* \"#utility.yul\":5299:5308   */\n      dup8\n        /* \"#utility.yul\":5295:5317   */\n      add\n        /* \"#utility.yul\":5264:5327   */\n      tag_326\n      jump\t// in\n    tag_421:\n        /* \"#utility.yul\":5254:5327   */\n      swap2\n      pop\n        /* \"#utility.yul\":5049:5337   */\n      pop\n        /* \"#utility.yul\":4545:5344   */\n      swap3\n      pop\n      swap3\n      pop\n      swap3\n      jump\t// out\n        /* \"#utility.yul\":5350:5440   */\n    tag_327:\n        /* \"#utility.yul\":5384:5391   */\n      0x00\n        /* \"#utility.yul\":5427:5432   */\n      dup2\n        /* \"#utility.yul\":5420:5433   */\n      iszero\n        /* \"#utility.yul\":5413:5434   */\n      iszero\n        /* \"#utility.yul\":5402:5434   */\n      swap1\n      pop\n        /* \"#utility.yul\":5350:5440   */\n      swap2\n      swap1\n      pop\n      jump\t// out\n        /* \"#utility.yul\":5446:5555   */\n    tag_328:\n        /* \"#utility.yul\":5527:5548   */\n      tag_424\n        /* \"#utility.yul\":5542:5547   */\n      dup2\n        /* \"#utility.yul\":5527:5548   */\n      tag_327\n      jump\t// in\n    tag_424:\n        /* \"#utility.yul\":5522:5525   */\n      dup3\n        /* \"#utility.yul\":5515:5549   */\n      mstore\n        /* \"#utility.yul\":5446:5555   */\n      pop\n      pop\n      jump\t// out\n        /* \"#utility.yul\":5561:5771   */\n    tag_48:\n        /* \"#utility.yul\":5648:5652   */\n      0x00\n        /* \"#utility.yul\":5686:5688   */\n      0x20\n        /* \"#utility.yul\":5675:5684   */\n      dup3\n        /* \"#utility.yul\":5671:5689   */\n      add\n        /* \"#utility.yul\":5663:5689   */\n      swap1\n      pop\n        /* \"#utility.yul\":5699:5764   */\n      tag_426\n        /* \"#utility.yul\":5761:5762   */\n      0x00\n        /* \"#utility.yul\":5750:5759   */\n      dup4\n        /* \"#utility.yul\":5746:5763   */\n      add\n        /* \"#utility.yul\":5737:5743   */\n      dup5\n        /* \"#utility.yul\":5699:5764   */\n      tag_328\n      jump\t// in\n    tag_426:\n        /* \"#utility.yul\":5561:5771   */\n      swap3\n      swap2\n      pop\n      pop\n      jump\t// out\n        /* \"#utility.yul\":5777:6251   */\n    tag_51:\n        /* \"#utility.yul\":5845:5851   */\n      0x00\n        /* \"#utility.yul\":5853:5859   */\n      0x00\n        /* \"#utility.yul\":5902:5904   */\n      0x40\n        /* \"#utility.yul\":5890:5899   */\n      dup4\n        /* \"#utility.yul\":5881:5888   */\n      dup6\n        /* \"#utility.yul\":5877:5900   */\n      sub\n        /* \"#utility.yul\":5873:5905   */\n      slt\n        /* \"#utility.yul\":5870:5989   */\n      iszero\n      tag_428\n      jumpi\n        /* \"#utility.yul\":5908:5987   */\n      tag_429\n      tag_309\n      jump\t// in\n    tag_429:\n        /* \"#utility.yul\":5870:5989   */\n    tag_428:\n        /* \"#utility.yul\":6028:6029   */\n      0x00\n        /* \"#utility.yul\":6053:6106   */\n      tag_430\n        /* \"#utility.yul\":6098:6105   */\n      dup6\n        /* \"#utility.yul\":6089:6095   */\n      dup3\n        /* \"#utility.yul\":6078:6087   */\n      dup7\n        /* \"#utility.yul\":6074:6096   */\n      add\n        /* \"#utility.yul\":6053:6106   */\n      tag_314\n      jump\t// in\n    tag_430:\n        /* \"#utility.yul\":6043:6106   */\n      swap3\n      pop\n        /* \"#utility.yul\":5999:6116   */\n      pop\n        /* \"#utility.yul\":6155:6157   */\n      0x20\n        /* \"#utility.yul\":6181:6234   */\n      tag_431\n        /* \"#utility.yul\":6226:6233   */\n      dup6\n        /* \"#utility.yul\":6217:6223   */\n      dup3\n        /* \"#utility.yul\":6206:6215   */\n      dup7\n        /* \"#utility.yul\":6202:6224   */\n      add\n        /* \"#utility.yul\":6181:6234   */\n      tag_317\n      jump\t// in\n    tag_431:\n        /* \"#utility.yul\":6171:6234   */\n      swap2\n      pop\n        /* \"#utility.yul\":6126:6244   */\n      pop\n        /* \"#utility.yul\":5777:6251   */\n      swap3\n      pop\n      swap3\n      swap1\n      pop\n      jump\t// out\n        /* \"#utility.yul\":6257:6375   */\n    tag_329:\n        /* \"#utility.yul\":6344:6368   */\n      tag_433\n        /* \"#utility.yul\":6362:6367   */\n      dup2\n        /* \"#utility.yul\":6344:6368   */\n      tag_315\n      jump\t// in\n    tag_433:\n        /* \"#utility.yul\":6339:6342   */\n      dup3\n        /* \"#utility.yul\":6332:6369   */\n      mstore\n        /* \"#utility.yul\":6257:6375   */\n      pop\n      pop\n      jump\t// out\n        /* \"#utility.yul\":6381:6603   */\n    tag_57:\n        /* \"#utility.yul\":6474:6478   */\n      0x00\n        /* \"#utility.yul\":6512:6514   */\n      0x20\n        /* \"#utility.yul\":6501:6510   */\n      dup3\n        /* \"#utility.yul\":6497:6515   */\n      add\n        /* \"#utility.yul\":6489:6515   */\n      swap1\n      pop\n        /* \"#utility.yul\":6525:6596   */\n      tag_435\n        /* \"#utility.yul\":6593:6594   */\n      0x00\n        /* \"#utility.yul\":6582:6591   */\n      dup4\n        /* \"#utility.yul\":6578:6595   */\n      add\n        /* \"#utility.yul\":6569:6575   */\n      dup5\n        /* \"#utility.yul\":6525:6596   */\n      tag_329\n      jump\t// in\n    tag_435:\n        /* \"#utility.yul\":6381:6603   */\n      swap3\n      swap2\n      pop\n      pop\n      jump\t// out\n        /* \"#utility.yul\":6609:7228   */\n    tag_63:\n        /* \"#utility.yul\":6686:6692   */\n      0x00\n        /* \"#utility.yul\":6694:6700   */\n      0x00\n        /* \"#utility.yul\":6702:6708   */\n      0x00\n        /* \"#utility.yul\":6751:6753   */\n      0x60\n        /* \"#utility.yul\":6739:6748   */\n      dup5\n        /* \"#utility.yul\":6730:6737   */\n      dup7\n        /* \"#utility.yul\":6726:6749   */\n      sub\n        /* \"#utility.yul\":6722:6754   */\n      slt\n        /* \"#utility.yul\":6719:6838   */\n      iszero\n      tag_437\n      jumpi\n        /* \"#utility.yul\":6757:6836   */\n      tag_438\n      tag_309\n      jump\t// in\n    tag_438:\n        /* \"#utility.yul\":6719:6838   */\n    tag_437:\n        /* \"#utility.yul\":6877:6878   */\n      0x00\n        /* \"#utility.yul\":6902:6955   */\n      tag_439\n        /* \"#utility.yul\":6947:6954   */\n      dup7\n        /* \"#utility.yul\":6938:6944   */\n      dup3\n        /* \"#utility.yul\":6927:6936   */\n      dup8\n        /* \"#utility.yul\":6923:6945   */\n      add\n        /* \"#utility.yul\":6902:6955   */\n      tag_314\n      jump\t// in\n    tag_439:\n        /* \"#utility.yul\":6892:6955   */\n      swap4\n      pop\n        /* \"#utility.yul\":6848:6965   */\n      pop\n        /* \"#utility.yul\":7004:7006   */\n      0x20\n        /* \"#utility.yul\":7030:7083   */\n      tag_440\n        /* \"#utility.yul\":7075:7082   */\n      dup7\n        /* \"#utility.yul\":7066:7072   */\n      dup3\n        /* \"#utility.yul\":7055:7064   */\n      dup8\n        /* \"#utility.yul\":7051:7073   */\n      add\n        /* \"#utility.yul\":7030:7083   */\n      tag_314\n      jump\t// in\n    tag_440:\n        /* \"#utility.yul\":7020:7083   */\n      swap3\n      pop\n        /* \"#utility.yul\":6975:7093   */\n      pop\n        /* \"#utility.yul\":7132:7134   */\n      0x40\n        /* \"#utility.yul\":7158:7211   */\n      tag_441\n        /* \"#utility.yul\":7203:7210   */\n      dup7\n        /* \"#utility.yul\":7194:7200   */\n      dup3\n        /* \"#utility.yul\":7183:7192   */\n      dup8\n        /* \"#utility.yul\":7179:7201   */\n      add\n        /* \"#utility.yul\":7158:7211   */\n      tag_317\n      jump\t// in\n    tag_441:\n        /* \"#utility.yul\":7148:7211   */\n      swap2\n      pop\n        /* \"#utility.yul\":7103:7221   */\n      pop\n        /* \"#utility.yul\":6609:7228   */\n      swap3\n      pop\n      swap3\n      pop\n      swap3\n      jump\t// out\n        /* \"#utility.yul\":7234:7320   */\n    tag_330:\n        /* \"#utility.yul\":7269:7276   */\n      0x00\n        /* \"#utility.yul\":7309:7313   */\n      0xff\n        /* \"#utility.yul\":7302:7307   */\n      dup3\n        /* \"#utility.yul\":7298:7314   */\n      and\n        /* \"#utility.yul\":7287:7314   */\n      swap1\n      pop\n        /* \"#utility.yul\":7234:7320   */\n      swap2\n      swap1\n      pop\n      jump\t// out\n        /* \"#utility.yul\":7326:7438   */\n    tag_331:\n        /* \"#utility.yul\":7409:7431   */\n      tag_444\n        /* \"#utility.yul\":7425:7430   */\n      dup2\n        /* \"#utility.yul\":7409:7431   */\n      tag_330\n      jump\t// in\n    tag_444:\n        /* \"#utility.yul\":7404:7407   */\n      dup3\n        /* \"#utility.yul\":7397:7432   */\n      mstore\n        /* \"#utility.yul\":7326:7438   */\n      pop\n      pop\n      jump\t// out\n        /* \"#utility.yul\":7444:7658   */\n    tag_69:\n        /* \"#utility.yul\":7533:7537   */\n      0x00\n        /* \"#utility.yul\":7571:7573   */\n      0x20\n        /* \"#utility.yul\":7560:7569   */\n      dup3\n        /* \"#utility.yul\":7556:7574   */\n      add\n        /* \"#utility.yul\":7548:7574   */\n      swap1\n      pop\n        /* \"#utility.yul\":7584:7651   */\n      tag_446\n        /* \"#utility.yul\":7648:7649   */\n      0x00\n        /* \"#utility.yul\":7637:7646   */\n      dup4\n        /* \"#utility.yul\":7633:7650   */\n      add\n        /* \"#utility.yul\":7624:7630   */\n      dup5\n        /* \"#utility.yul\":7584:7651   */\n      tag_331\n      jump\t// in\n    tag_446:\n        /* \"#utility.yul\":7444:7658   */\n      swap3\n      swap2\n      pop\n      pop\n      jump\t// out\n        /* \"#utility.yul\":7664:7782   */\n    tag_332:\n        /* \"#utility.yul\":7751:7775   */\n      tag_448\n        /* \"#utility.yul\":7769:7774   */\n      dup2\n        /* \"#utility.yul\":7751:7775   */\n      tag_312\n      jump\t// in\n    tag_448:\n        /* \"#utility.yul\":7746:7749   */\n      dup3\n        /* \"#utility.yul\":7739:7776   */\n      mstore\n        /* \"#utility.yul\":7664:7782   */\n      pop\n      pop\n      jump\t// out\n        /* \"#utility.yul\":7788:8010   */\n    tag_83:\n        /* \"#utility.yul\":7881:7885   */\n      0x00\n        /* \"#utility.yul\":7919:7921   */\n      0x20\n        /* \"#utility.yul\":7908:7917   */\n      dup3\n        /* \"#utility.yul\":7904:7922   */\n      add\n        /* \"#utility.yul\":7896:7922   */\n      swap1\n      pop\n        /* \"#utility.yul\":7932:8003   */\n      tag_450\n        /* \"#utility.yul\":8000:8001   */\n      0x00\n        /* \"#utility.yul\":7989:7998   */\n      dup4\n        /* \"#utility.yul\":7985:8002   */\n      add\n        /* \"#utility.yul\":7976:7982   */\n      dup5\n        /* \"#utility.yul\":7932:8003   */\n      tag_332\n      jump\t// in\n    tag_450:\n        /* \"#utility.yul\":7788:8010   */\n      swap3\n      swap2\n      pop\n      pop\n      jump\t// out\n        /* \"#utility.yul\":8016:8345   */\n    tag_86:\n        /* \"#utility.yul\":8075:8081   */\n      0x00\n        /* \"#utility.yul\":8124:8126   */\n      0x20\n        /* \"#utility.yul\":8112:8121   */\n      dup3\n        /* \"#utility.yul\":8103:8110   */\n      dup5\n        /* \"#utility.yul\":8099:8122   */\n      sub\n        /* \"#utility.yul\":8095:8127   */\n      slt\n        /* \"#utility.yul\":8092:8211   */\n      iszero\n      tag_452\n      jumpi\n        /* \"#utility.yul\":8130:8209   */\n      tag_453\n      tag_309\n      jump\t// in\n    tag_453:\n        /* \"#utility.yul\":8092:8211   */\n    tag_452:\n        /* \"#utility.yul\":8250:8251   */\n      0x00\n        /* \"#utility.yul\":8275:8328   */\n      tag_454\n        /* \"#utility.yul\":8320:8327   */\n      dup5\n        /* \"#utility.yul\":8311:8317   */\n      dup3\n        /* \"#utility.yul\":8300:8309   */\n      dup6\n        /* \"#utility.yul\":8296:8318   */\n      add\n        /* \"#utility.yul\":8275:8328   */\n      tag_317\n      jump\t// in\n    tag_454:\n        /* \"#utility.yul\":8265:8328   */\n      swap2\n      pop\n        /* \"#utility.yul\":8221:8338   */\n      pop\n        /* \"#utility.yul\":8016:8345   */\n      swap3\n      swap2\n      pop\n      pop\n      jump\t// out\n        /* \"#utility.yul\":8351:8680   */\n    tag_94:\n        /* \"#utility.yul\":8410:8416   */\n      0x00\n        /* \"#utility.yul\":8459:8461   */\n      0x20\n        /* \"#utility.yul\":8447:8456   */\n      dup3\n        /* \"#utility.yul\":8438:8445   */\n      dup5\n        /* \"#utility.yul\":8434:8457   */\n      sub\n        /* \"#utility.yul\":8430:8462   */\n      slt\n        /* \"#utility.yul\":8427:8546   */\n      iszero\n      tag_456\n      jumpi\n        /* \"#utility.yul\":8465:8544   */\n      tag_457\n      tag_309\n      jump\t// in\n    tag_457:\n        /* \"#utility.yul\":8427:8546   */\n    tag_456:\n        /* \"#utility.yul\":8585:8586   */\n      0x00\n        /* \"#utility.yul\":8610:8663   */\n      tag_458\n        /* \"#utility.yul\":8655:8662   */\n      dup5\n        /* \"#utility.yul\":8646:8652   */\n      dup3\n        /* \"#utility.yul\":8635:8644   */\n      dup6\n        /* \"#utility.yul\":8631:8653   */\n      add\n        /* \"#utility.yul\":8610:8663   */\n      tag_314\n      jump\t// in\n    tag_458:\n        /* \"#utility.yul\":8600:8663   */\n      swap2\n      pop\n        /* \"#utility.yul\":8556:8673   */\n      pop\n        /* \"#utility.yul\":8351:8680   */\n      swap3\n      swap2\n      pop\n      pop\n      jump\t// out\n        /* \"#utility.yul\":8686:9160   */\n    tag_132:\n        /* \"#utility.yul\":8754:8760   */\n      0x00\n        /* \"#utility.yul\":8762:8768   */\n      0x00\n        /* \"#utility.yul\":8811:8813   */\n      0x40\n        /* \"#utility.yul\":8799:8808   */\n      dup4\n        /* \"#utility.yul\":8790:8797   */\n      dup6\n        /* \"#utility.yul\":8786:8809   */\n      sub\n        /* \"#utility.yul\":8782:8814   */\n      slt\n        /* \"#utility.yul\":8779:8898   */\n      iszero\n      tag_460\n      jumpi\n        /* \"#utility.yul\":8817:8896   */\n      tag_461\n      tag_309\n      jump\t// in\n    tag_461:\n        /* \"#utility.yul\":8779:8898   */\n    tag_460:\n        /* \"#utility.yul\":8937:8938   */\n      0x00\n        /* \"#utility.yul\":8962:9015   */\n      tag_462\n        /* \"#utility.yul\":9007:9014   */\n      dup6\n        /* \"#utility.yul\":8998:9004   */\n      dup3\n        /* \"#utility.yul\":8987:8996   */\n      dup7\n        /* \"#utility.yul\":8983:9005   */\n      add\n        /* \"#utility.yul\":8962:9015   */\n      tag_314\n      jump\t// in\n    tag_462:\n        /* \"#utility.yul\":8952:9015   */\n      swap3\n      pop\n        /* \"#utility.yul\":8908:9025   */\n      pop\n        /* \"#utility.yul\":9064:9066   */\n      0x20\n        /* \"#utility.yul\":9090:9143   */\n      tag_463\n        /* \"#utility.yul\":9135:9142   */\n      dup6\n        /* \"#utility.yul\":9126:9132   */\n      dup3\n        /* \"#utility.yul\":9115:9124   */\n      dup7\n        /* \"#utility.yul\":9111:9133   */\n      add\n        /* \"#utility.yul\":9090:9143   */\n      tag_314\n      jump\t// in\n    tag_463:\n        /* \"#utility.yul\":9080:9143   */\n      swap2\n      pop\n        /* \"#utility.yul\":9035:9153   */\n      pop\n        /* \"#utility.yul\":8686:9160   */\n      swap3\n      pop\n      swap3\n      swap1\n      pop\n      jump\t// out\n        /* \"#utility.yul\":9166:9346   */\n    tag_333:\n        /* \"#utility.yul\":9214:9291   */\n      0x4e487b7100000000000000000000000000000000000000000000000000000000\n        /* \"#utility.yul\":9211:9212   */\n      0x00\n        /* \"#utility.yul\":9204:9292   */\n      mstore\n        /* \"#utility.yul\":9311:9315   */\n      0x22\n        /* \"#utility.yul\":9308:9309   */\n      0x04\n        /* \"#utility.yul\":9301:9316   */\n      mstore\n        /* \"#utility.yul\":9335:9339   */\n      0x24\n        /* \"#utility.yul\":9332:9333   */\n      0x00\n        /* \"#utility.yul\":9325:9340   */\n      revert\n        /* \"#utility.yul\":9352:9672   */\n    tag_148:\n        /* \"#utility.yul\":9396:9402   */\n      0x00\n        /* \"#utility.yul\":9433:9434   */\n      0x02\n        /* \"#utility.yul\":9427:9431   */\n      dup3\n        /* \"#utility.yul\":9423:9435   */\n      div\n        /* \"#utility.yul\":9413:9435   */\n      swap1\n      pop\n        /* \"#utility.yul\":9480:9481   */\n      0x01\n        /* \"#utility.yul\":9474:9478   */\n      dup3\n        /* \"#utility.yul\":9470:9482   */\n      and\n        /* \"#utility.yul\":9501:9519   */\n      dup1\n        /* \"#utility.yul\":9491:9572   */\n      tag_466\n      jumpi\n        /* \"#utility.yul\":9557:9561   */\n      0x7f\n        /* \"#utility.yul\":9549:9555   */\n      dup3\n        /* \"#utility.yul\":9545:9562   */\n      and\n        /* \"#utility.yul\":9535:9562   */\n      swap2\n      pop\n        /* \"#utility.yul\":9491:9572   */\n    tag_466:\n        /* \"#utility.yul\":9619:9621   */\n      0x20\n        /* \"#utility.yul\":9611:9617   */\n      dup3\n        /* \"#utility.yul\":9608:9622   */\n      lt\n        /* \"#utility.yul\":9588:9606   */\n      dup2\n        /* \"#utility.yul\":9585:9623   */\n      sub\n        /* \"#utility.yul\":9582:9666   */\n      tag_467\n      jumpi\n        /* \"#utility.yul\":9638:9656   */\n      tag_468\n      tag_333\n      jump\t// in\n    tag_468:\n        /* \"#utility.yul\":9582:9666   */\n    tag_467:\n        /* \"#utility.yul\":9403:9672   */\n      pop\n        /* \"#utility.yul\":9352:9672   */\n      swap2\n      swap1\n      pop\n      jump\t// out\n        /* \"#utility.yul\":9678:10101   */\n    tag_157:\n        /* \"#utility.yul\":9819:9823   */\n      0x00\n        /* \"#utility.yul\":9857:9859   */\n      0x40\n        /* \"#utility.yul\":9846:9855   */\n      dup3\n        /* \"#utility.yul\":9842:9860   */\n      add\n        /* \"#utility.yul\":9834:9860   */\n      swap1\n      pop\n        /* \"#utility.yul\":9870:9941   */\n      tag_470\n        /* \"#utility.yul\":9938:9939   */\n      0x00\n        /* \"#utility.yul\":9927:9936   */\n      dup4\n        /* \"#utility.yul\":9923:9940   */\n      add\n        /* \"#utility.yul\":9914:9920   */\n      dup6\n        /* \"#utility.yul\":9870:9941   */\n      tag_329\n      jump\t// in\n    tag_470:\n        /* \"#utility.yul\":9988:9997   */\n      dup2\n        /* \"#utility.yul\":9982:9986   */\n      dup2\n        /* \"#utility.yul\":9978:9998   */\n      sub\n        /* \"#utility.yul\":9973:9975   */\n      0x20\n        /* \"#utility.yul\":9962:9971   */\n      dup4\n        /* \"#utility.yul\":9958:9976   */\n      add\n        /* \"#utility.yul\":9951:9999   */\n      mstore\n        /* \"#utility.yul\":10016:10094   */\n      tag_471\n        /* \"#utility.yul\":10089:10093   */\n      dup2\n        /* \"#utility.yul\":10080:10086   */\n      dup5\n        /* \"#utility.yul\":10016:10094   */\n      tag_307\n      jump\t// in\n    tag_471:\n        /* \"#utility.yul\":10008:10094   */\n      swap1\n      pop\n        /* \"#utility.yul\":9678:10101   */\n      swap4\n      swap3\n      pop\n      pop\n      pop\n      jump\t// out\n        /* \"#utility.yul\":10107:10334   */\n    tag_334:\n        /* \"#utility.yul\":10247:10281   */\n      0x45524332303a207472616e7366657220616d6f756e7420657863656564732061\n        /* \"#utility.yul\":10243:10244   */\n      0x00\n        /* \"#utility.yul\":10235:10241   */\n      dup3\n        /* \"#utility.yul\":10231:10245   */\n      add\n        /* \"#utility.yul\":10224:10282   */\n      mstore\n        /* \"#utility.yul\":10316:10326   */\n      0x6c6c6f77616e6365000000000000000000000000000000000000000000000000\n        /* \"#utility.yul\":10311:10313   */\n      0x20\n        /* \"#utility.yul\":10303:10309   */\n      dup3\n        /* \"#utility.yul\":10299:10314   */\n      add\n        /* \"#utility.yul\":10292:10327   */\n      mstore\n        /* \"#utility.yul\":10107:10334   */\n      pop\n      jump\t// out\n        /* \"#utility.yul\":10340:10706   */\n    tag_335:\n        /* \"#utility.yul\":10482:10485   */\n      0x00\n        /* \"#utility.yul\":10503:10570   */\n      tag_474\n        /* \"#utility.yul\":10567:10569   */\n      0x28\n        /* \"#utility.yul\":10562:10565   */\n      dup4\n        /* \"#utility.yul\":10503:10570   */\n      tag_304\n      jump\t// in\n    tag_474:\n        /* \"#utility.yul\":10496:10570   */\n      swap2\n      pop\n        /* \"#utility.yul\":10579:10672   */\n      tag_475\n        /* \"#utility.yul\":10668:10671   */\n      dup3\n        /* \"#utility.yul\":10579:10672   */\n      tag_334\n      jump\t// in\n    tag_475:\n        /* \"#utility.yul\":10697:10699   */\n      0x40\n        /* \"#utility.yul\":10692:10695   */\n      dup3\n        /* \"#utility.yul\":10688:10700   */\n      add\n        /* \"#utility.yul\":10681:10700   */\n      swap1\n      pop\n        /* \"#utility.yul\":10340:10706   */\n      swap2\n      swap1\n      pop\n      jump\t// out\n        /* \"#utility.yul\":10712:11131   */\n    tag_169:\n        /* \"#utility.yul\":10878:10882   */\n      0x00\n        /* \"#utility.yul\":10916:10918   */\n      0x20\n        /* \"#utility.yul\":10905:10914   */\n      dup3\n        /* \"#utility.yul\":10901:10919   */\n      add\n        /* \"#utility.yul\":10893:10919   */\n      swap1\n      pop\n        /* \"#utility.yul\":10965:10974   */\n      dup2\n        /* \"#utility.yul\":10959:10963   */\n      dup2\n        /* \"#utility.yul\":10955:10975   */\n      sub\n        /* \"#utility.yul\":10951:10952   */\n      0x00\n        /* \"#utility.yul\":10940:10949   */\n      dup4\n        /* \"#utility.yul\":10936:10953   */\n      add\n        /* \"#utility.yul\":10929:10976   */\n      mstore\n        /* \"#utility.yul\":10993:11124   */\n      tag_477\n        /* \"#utility.yul\":11119:11123   */\n      dup2\n        /* \"#utility.yul\":10993:11124   */\n      tag_335\n      jump\t// in\n    tag_477:\n        /* \"#utility.yul\":10985:11124   */\n      swap1\n      pop\n        /* \"#utility.yul\":10712:11131   */\n      swap2\n      swap1\n      pop\n      jump\t// out\n        /* \"#utility.yul\":11137:11317   */\n    tag_336:\n        /* \"#utility.yul\":11185:11262   */\n      0x4e487b7100000000000000000000000000000000000000000000000000000000\n        /* \"#utility.yul\":11182:11183   */\n      0x00\n        /* \"#utility.yul\":11175:11263   */\n      mstore\n        /* \"#utility.yul\":11282:11286   */\n      0x11\n        /* \"#utility.yul\":11279:11280   */\n      0x04\n        /* \"#utility.yul\":11272:11287   */\n      mstore\n        /* \"#utility.yul\":11306:11310   */\n      0x24\n        /* \"#utility.yul\":11303:11304   */\n      0x00\n        /* \"#utility.yul\":11296:11311   */\n      revert\n        /* \"#utility.yul\":11323:11517   */\n    tag_173:\n        /* \"#utility.yul\":11363:11367   */\n      0x00\n        /* \"#utility.yul\":11383:11403   */\n      tag_480\n        /* \"#utility.yul\":11401:11402   */\n      dup3\n        /* \"#utility.yul\":11383:11403   */\n      tag_315\n      jump\t// in\n    tag_480:\n        /* \"#utility.yul\":11378:11403   */\n      swap2\n      pop\n        /* \"#utility.yul\":11417:11437   */\n      tag_481\n        /* \"#utility.yul\":11435:11436   */\n      dup4\n        /* \"#utility.yul\":11417:11437   */\n      tag_315\n      jump\t// in\n    tag_481:\n        /* \"#utility.yul\":11412:11437   */\n      swap3\n      pop\n        /* \"#utility.yul\":11461:11462   */\n      dup3\n        /* \"#utility.yul\":11458:11459   */\n      dup3\n        /* \"#utility.yul\":11454:11463   */\n      sub\n        /* \"#utility.yul\":11446:11463   */\n      swap1\n      pop\n        /* \"#utility.yul\":11485:11486   */\n      dup2\n        /* \"#utility.yul\":11479:11483   */\n      dup2\n        /* \"#utility.yul\":11476:11487   */\n      gt\n        /* \"#utility.yul\":11473:11510   */\n      iszero\n      tag_482\n      jumpi\n        /* \"#utility.yul\":11490:11508   */\n      tag_483\n      tag_336\n      jump\t// in\n    tag_483:\n        /* \"#utility.yul\":11473:11510   */\n    tag_482:\n        /* \"#utility.yul\":11323:11517   */\n      swap3\n      swap2\n      pop\n      pop\n      jump\t// out\n        /* \"#utility.yul\":11523:11705   */\n    tag_337:\n        /* \"#utility.yul\":11663:11697   */\n      0x4f776e61626c653a2063616c6c6572206973206e6f7420746865206f776e6572\n        /* \"#utility.yul\":11659:11660   */\n      0x00\n        /* \"#utility.yul\":11651:11657   */\n      dup3\n        /* \"#utility.yul\":11647:11661   */\n      add\n        /* \"#utility.yul\":11640:11698   */\n      mstore\n        /* \"#utility.yul\":11523:11705   */\n      pop\n      jump\t// out\n        /* \"#utility.yul\":11711:12077   */\n    tag_338:\n        /* \"#utility.yul\":11853:11856   */\n      0x00\n        /* \"#utility.yul\":11874:11941   */\n      tag_486\n        /* \"#utility.yul\":11938:11940   */\n      0x20\n        /* \"#utility.yul\":11933:11936   */\n      dup4\n        /* \"#utility.yul\":11874:11941   */\n      tag_304\n      jump\t// in\n    tag_486:\n        /* \"#utility.yul\":11867:11941   */\n      swap2\n      pop\n        /* \"#utility.yul\":11950:12043   */\n      tag_487\n        /* \"#utility.yul\":12039:12042   */\n      dup3\n        /* \"#utility.yul\":11950:12043   */\n      tag_337\n      jump\t// in\n    tag_487:\n        /* \"#utility.yul\":12068:12070   */\n      0x20\n        /* \"#utility.yul\":12063:12066   */\n      dup3\n        /* \"#utility.yul\":12059:12071   */\n      add\n        /* \"#utility.yul\":12052:12071   */\n      swap1\n      pop\n        /* \"#utility.yul\":11711:12077   */\n      swap2\n      swap1\n      pop\n      jump\t// out\n        /* \"#utility.yul\":12083:12502   */\n    tag_179:\n        /* \"#utility.yul\":12249:12253   */\n      0x00\n        /* \"#utility.yul\":12287:12289   */\n      0x20\n        /* \"#utility.yul\":12276:12285   */\n      dup3\n        /* \"#utility.yul\":12272:12290   */\n      add\n        /* \"#utility.yul\":12264:12290   */\n      swap1\n      pop\n        /* \"#utility.yul\":12336:12345   */\n      dup2\n        /* \"#utility.yul\":12330:12334   */\n      dup2\n        /* \"#utility.yul\":12326:12346   */\n      sub\n        /* \"#utility.yul\":12322:12323   */\n      0x00\n        /* \"#utility.yul\":12311:12320   */\n      dup4\n        /* \"#utility.yul\":12307:12324   */\n      add\n        /* \"#utility.yul\":12300:12347   */\n      mstore\n        /* \"#utility.yul\":12364:12495   */\n      tag_489\n        /* \"#utility.yul\":12490:12494   */\n      dup2\n        /* \"#utility.yul\":12364:12495   */\n      tag_338\n      jump\t// in\n    tag_489:\n        /* \"#utility.yul\":12356:12495   */\n      swap1\n      pop\n        /* \"#utility.yul\":12083:12502   */\n      swap2\n      swap1\n      pop\n      jump\t// out\n        /* \"#utility.yul\":12508:12699   */\n    tag_187:\n        /* \"#utility.yul\":12548:12551   */\n      0x00\n        /* \"#utility.yul\":12567:12587   */\n      tag_491\n        /* \"#utility.yul\":12585:12586   */\n      dup3\n        /* \"#utility.yul\":12567:12587   */\n      tag_315\n      jump\t// in\n    tag_491:\n        /* \"#utility.yul\":12562:12587   */\n      swap2\n      pop\n        /* \"#utility.yul\":12601:12621   */\n      tag_492\n        /* \"#utility.yul\":12619:12620   */\n      dup4\n        /* \"#utility.yul\":12601:12621   */\n      tag_315\n      jump\t// in\n    tag_492:\n        /* \"#utility.yul\":12596:12621   */\n      swap3\n      pop\n        /* \"#utility.yul\":12644:12645   */\n      dup3\n        /* \"#utility.yul\":12641:12642   */\n      dup3\n        /* \"#utility.yul\":12637:12646   */\n      add\n        /* \"#utility.yul\":12630:12646   */\n      swap1\n      pop\n        /* \"#utility.yul\":12665:12668   */\n      dup1\n        /* \"#utility.yul\":12662:12663   */\n      dup3\n        /* \"#utility.yul\":12659:12669   */\n      gt\n        /* \"#utility.yul\":12656:12692   */\n      iszero\n      tag_493\n      jumpi\n        /* \"#utility.yul\":12672:12690   */\n      tag_494\n      tag_336\n      jump\t// in\n    tag_494:\n        /* \"#utility.yul\":12656:12692   */\n    tag_493:\n        /* \"#utility.yul\":12508:12699   */\n      swap3\n      swap2\n      pop\n      pop\n      jump\t// out\n        /* \"#utility.yul\":12705:12873   */\n    tag_339:\n        /* \"#utility.yul\":12845:12865   */\n      0x5377617020746f6b656e206e6f74207365740000000000000000000000000000\n        /* \"#utility.yul\":12841:12842   */\n      0x00\n        /* \"#utility.yul\":12833:12839   */\n      dup3\n        /* \"#utility.yul\":12829:12843   */\n      add\n        /* \"#utility.yul\":12822:12866   */\n      mstore\n        /* \"#utility.yul\":12705:12873   */\n      pop\n      jump\t// out\n        /* \"#utility.yul\":12879:13245   */\n    tag_340:\n        /* \"#utility.yul\":13021:13024   */\n      0x00\n        /* \"#utility.yul\":13042:13109   */\n      tag_497\n        /* \"#utility.yul\":13106:13108   */\n      0x12\n        /* \"#utility.yul\":13101:13104   */\n      dup4\n        /* \"#utility.yul\":13042:13109   */\n      tag_304\n      jump\t// in\n    tag_497:\n        /* \"#utility.yul\":13035:13109   */\n      swap2\n      pop\n        /* \"#utility.yul\":13118:13211   */\n      tag_498\n        /* \"#utility.yul\":13207:13210   */\n      dup3\n        /* \"#utility.yul\":13118:13211   */\n      tag_339\n      jump\t// in\n    tag_498:\n        /* \"#utility.yul\":13236:13238   */\n      0x20\n        /* \"#utility.yul\":13231:13234   */\n      dup3\n        /* \"#utility.yul\":13227:13239   */\n      add\n        /* \"#utility.yul\":13220:13239   */\n      swap1\n      pop\n        /* \"#utility.yul\":12879:13245   */\n      swap2\n      swap1\n      pop\n      jump\t// out\n        /* \"#utility.yul\":13251:13670   */\n    tag_214:\n        /* \"#utility.yul\":13417:13421   */\n      0x00\n        /* \"#utility.yul\":13455:13457   */\n      0x20\n        /* \"#utility.yul\":13444:13453   */\n      dup3\n        /* \"#utility.yul\":13440:13458   */\n      add\n        /* \"#utility.yul\":13432:13458   */\n      swap1\n      pop\n        /* \"#utility.yul\":13504:13513   */\n      dup2\n        /* \"#utility.yul\":13498:13502   */\n      dup2\n        /* \"#utility.yul\":13494:13514   */\n      sub\n        /* \"#utility.yul\":13490:13491   */\n      0x00\n        /* \"#utility.yul\":13479:13488   */\n      dup4\n        /* \"#utility.yul\":13475:13492   */\n      add\n        /* \"#utility.yul\":13468:13515   */\n      mstore\n        /* \"#utility.yul\":13532:13663   */\n      tag_500\n        /* \"#utility.yul\":13658:13662   */\n      dup2\n        /* \"#utility.yul\":13532:13663   */\n      tag_340\n      jump\t// in\n    tag_500:\n        /* \"#utility.yul\":13524:13663   */\n      swap1\n      pop\n        /* \"#utility.yul\":13251:13670   */\n      swap2\n      swap1\n      pop\n      jump\t// out\n        /* \"#utility.yul\":13676:14118   */\n    tag_217:\n        /* \"#utility.yul\":13825:13829   */\n      0x00\n        /* \"#utility.yul\":13863:13865   */\n      0x60\n        /* \"#utility.yul\":13852:13861   */\n      dup3\n        /* \"#utility.yul\":13848:13866   */\n      add\n        /* \"#utility.yul\":13840:13866   */\n      swap1\n      pop\n        /* \"#utility.yul\":13876:13947   */\n      tag_502\n        /* \"#utility.yul\":13944:13945   */\n      0x00\n        /* \"#utility.yul\":13933:13942   */\n      dup4\n        /* \"#utility.yul\":13929:13946   */\n      add\n        /* \"#utility.yul\":13920:13926   */\n      dup7\n        /* \"#utility.yul\":13876:13947   */\n      tag_332\n      jump\t// in\n    tag_502:\n        /* \"#utility.yul\":13957:14029   */\n      tag_503\n        /* \"#utility.yul\":14025:14027   */\n      0x20\n        /* \"#utility.yul\":14014:14023   */\n      dup4\n        /* \"#utility.yul\":14010:14028   */\n      add\n        /* \"#utility.yul\":14001:14007   */\n      dup6\n        /* \"#utility.yul\":13957:14029   */\n      tag_332\n      jump\t// in\n    tag_503:\n        /* \"#utility.yul\":14039:14111   */\n      tag_504\n        /* \"#utility.yul\":14107:14109   */\n      0x40\n        /* \"#utility.yul\":14096:14105   */\n      dup4\n        /* \"#utility.yul\":14092:14110   */\n      add\n        /* \"#utility.yul\":14083:14089   */\n      dup5\n        /* \"#utility.yul\":14039:14111   */\n      tag_329\n      jump\t// in\n    tag_504:\n        /* \"#utility.yul\":13676:14118   */\n      swap5\n      swap4\n      pop\n      pop\n      pop\n      pop\n      jump\t// out\n        /* \"#utility.yul\":14124:14240   */\n    tag_341:\n        /* \"#utility.yul\":14194:14215   */\n      tag_506\n        /* \"#utility.yul\":14209:14214   */\n      dup2\n        /* \"#utility.yul\":14194:14215   */\n      tag_327\n      jump\t// in\n    tag_506:\n        /* \"#utility.yul\":14187:14192   */\n      dup2\n        /* \"#utility.yul\":14184:14216   */\n      eq\n        /* \"#utility.yul\":14174:14234   */\n      tag_507\n      jumpi\n        /* \"#utility.yul\":14230:14231   */\n      0x00\n        /* \"#utility.yul\":14227:14228   */\n      0x00\n        /* \"#utility.yul\":14220:14232   */\n      revert\n        /* \"#utility.yul\":14174:14234   */\n    tag_507:\n        /* \"#utility.yul\":14124:14240   */\n      pop\n      jump\t// out\n        /* \"#utility.yul\":14246:14383   */\n    tag_342:\n        /* \"#utility.yul\":14300:14305   */\n      0x00\n        /* \"#utility.yul\":14331:14337   */\n      dup2\n        /* \"#utility.yul\":14325:14338   */\n      mload\n        /* \"#utility.yul\":14316:14338   */\n      swap1\n      pop\n        /* \"#utility.yul\":14347:14377   */\n      tag_509\n        /* \"#utility.yul\":14371:14376   */\n      dup2\n        /* \"#utility.yul\":14347:14377   */\n      tag_341\n      jump\t// in\n    tag_509:\n        /* \"#utility.yul\":14246:14383   */\n      swap3\n      swap2\n      pop\n      pop\n      jump\t// out\n        /* \"#utility.yul\":14389:14734   */\n    tag_221:\n        /* \"#utility.yul\":14456:14462   */\n      0x00\n        /* \"#utility.yul\":14505:14507   */\n      0x20\n        /* \"#utility.yul\":14493:14502   */\n      dup3\n        /* \"#utility.yul\":14484:14491   */\n      dup5\n        /* \"#utility.yul\":14480:14503   */\n      sub\n        /* \"#utility.yul\":14476:14508   */\n      slt\n        /* \"#utility.yul\":14473:14592   */\n      iszero\n      tag_511\n      jumpi\n        /* \"#utility.yul\":14511:14590   */\n      tag_512\n      tag_309\n      jump\t// in\n    tag_512:\n        /* \"#utility.yul\":14473:14592   */\n    tag_511:\n        /* \"#utility.yul\":14631:14632   */\n      0x00\n        /* \"#utility.yul\":14656:14717   */\n      tag_513\n        /* \"#utility.yul\":14709:14716   */\n      dup5\n        /* \"#utility.yul\":14700:14706   */\n      dup3\n        /* \"#utility.yul\":14689:14698   */\n      dup6\n        /* \"#utility.yul\":14685:14707   */\n      add\n        /* \"#utility.yul\":14656:14717   */\n      tag_342\n      jump\t// in\n    tag_513:\n        /* \"#utility.yul\":14646:14717   */\n      swap2\n      pop\n        /* \"#utility.yul\":14602:14727   */\n      pop\n        /* \"#utility.yul\":14389:14734   */\n      swap3\n      swap2\n      pop\n      pop\n      jump\t// out\n        /* \"#utility.yul\":14740:15072   */\n    tag_224:\n        /* \"#utility.yul\":14861:14865   */\n      0x00\n        /* \"#utility.yul\":14899:14901   */\n      0x40\n        /* \"#utility.yul\":14888:14897   */\n      dup3\n        /* \"#utility.yul\":14884:14902   */\n      add\n        /* \"#utility.yul\":14876:14902   */\n      swap1\n      pop\n        /* \"#utility.yul\":14912:14983   */\n      tag_515\n        /* \"#utility.yul\":14980:14981   */\n      0x00\n        /* \"#utility.yul\":14969:14978   */\n      dup4\n        /* \"#utility.yul\":14965:14982   */\n      add\n        /* \"#utility.yul\":14956:14962   */\n      dup6\n        /* \"#utility.yul\":14912:14983   */\n      tag_329\n      jump\t// in\n    tag_515:\n        /* \"#utility.yul\":14993:15065   */\n      tag_516\n        /* \"#utility.yul\":15061:15063   */\n      0x20\n        /* \"#utility.yul\":15050:15059   */\n      dup4\n        /* \"#utility.yul\":15046:15064   */\n      add\n        /* \"#utility.yul\":15037:15043   */\n      dup5\n        /* \"#utility.yul\":14993:15065   */\n      tag_329\n      jump\t// in\n    tag_516:\n        /* \"#utility.yul\":14740:15072   */\n      swap4\n      swap3\n      pop\n      pop\n      pop\n      jump\t// out\n        /* \"#utility.yul\":15078:15302   */\n    tag_343:\n        /* \"#utility.yul\":15218:15252   */\n      0x45524332303a2064656372656173656420616c6c6f77616e63652062656c6f77\n        /* \"#utility.yul\":15214:15215   */\n      0x00\n        /* \"#utility.yul\":15206:15212   */\n      dup3\n        /* \"#utility.yul\":15202:15216   */\n      add\n        /* \"#utility.yul\":15195:15253   */\n      mstore\n        /* \"#utility.yul\":15287:15294   */\n      0x207a65726f000000000000000000000000000000000000000000000000000000\n        /* \"#utility.yul\":15282:15284   */\n      0x20\n        /* \"#utility.yul\":15274:15280   */\n      dup3\n        /* \"#utility.yul\":15270:15285   */\n      add\n        /* \"#utility.yul\":15263:15295   */\n      mstore\n        /* \"#utility.yul\":15078:15302   */\n      pop\n      jump\t// out\n        /* \"#utility.yul\":15308:15674   */\n    tag_344:\n        /* \"#utility.yul\":15450:15453   */\n      0x00\n        /* \"#utility.yul\":15471:15538   */\n      tag_519\n        /* \"#utility.yul\":15535:15537   */\n      0x25\n        /* \"#utility.yul\":15530:15533   */\n      dup4\n        /* \"#utility.yul\":15471:15538   */\n      tag_304\n      jump\t// in\n    tag_519:\n        /* \"#utility.yul\":15464:15538   */\n      swap2\n      pop\n        /* \"#utility.yul\":15547:15640   */\n      tag_520\n        /* \"#utility.yul\":15636:15639   */\n      dup3\n        /* \"#utility.yul\":15547:15640   */\n      tag_343\n      jump\t// in\n    tag_520:\n        /* \"#utility.yul\":15665:15667   */\n      0x40\n        /* \"#utility.yul\":15660:15663   */\n      dup3\n        /* \"#utility.yul\":15656:15668   */\n      add\n        /* \"#utility.yul\":15649:15668   */\n      swap1\n      pop\n        /* \"#utility.yul\":15308:15674   */\n      swap2\n      swap1\n      pop\n      jump\t// out\n        /* \"#utility.yul\":15680:16099   */\n    tag_229:\n        /* \"#utility.yul\":15846:15850   */\n      0x00\n        /* \"#utility.yul\":15884:15886   */\n      0x20\n        /* \"#utility.yul\":15873:15882   */\n      dup3\n        /* \"#utility.yul\":15869:15887   */\n      add\n        /* \"#utility.yul\":15861:15887   */\n      swap1\n      pop\n        /* \"#utility.yul\":15933:15942   */\n      dup2\n        /* \"#utility.yul\":15927:15931   */\n      dup2\n        /* \"#utility.yul\":15923:15943   */\n      sub\n        /* \"#utility.yul\":15919:15920   */\n      0x00\n        /* \"#utility.yul\":15908:15917   */\n      dup4\n        /* \"#utility.yul\":15904:15921   */\n      add\n        /* \"#utility.yul\":15897:15944   */\n      mstore\n        /* \"#utility.yul\":15961:16092   */\n      tag_522\n        /* \"#utility.yul\":16087:16091   */\n      dup2\n        /* \"#utility.yul\":15961:16092   */\n      tag_344\n      jump\t// in\n    tag_522:\n        /* \"#utility.yul\":15953:16092   */\n      swap1\n      pop\n        /* \"#utility.yul\":15680:16099   */\n      swap2\n      swap1\n      pop\n      jump\t// out\n        /* \"#utility.yul\":16105:16515   */\n    tag_238:\n        /* \"#utility.yul\":16145:16152   */\n      0x00\n        /* \"#utility.yul\":16168:16188   */\n      tag_524\n        /* \"#utility.yul\":16186:16187   */\n      dup3\n        /* \"#utility.yul\":16168:16188   */\n      tag_315\n      jump\t// in\n    tag_524:\n        /* \"#utility.yul\":16163:16188   */\n      swap2\n      pop\n        /* \"#utility.yul\":16202:16222   */\n      tag_525\n        /* \"#utility.yul\":16220:16221   */\n      dup4\n        /* \"#utility.yul\":16202:16222   */\n      tag_315\n      jump\t// in\n    tag_525:\n        /* \"#utility.yul\":16197:16222   */\n      swap3\n      pop\n        /* \"#utility.yul\":16257:16258   */\n      dup3\n        /* \"#utility.yul\":16254:16255   */\n      dup3\n        /* \"#utility.yul\":16250:16259   */\n      mul\n        /* \"#utility.yul\":16279:16309   */\n      tag_526\n        /* \"#utility.yul\":16297:16308   */\n      dup2\n        /* \"#utility.yul\":16279:16309   */\n      tag_315\n      jump\t// in\n    tag_526:\n        /* \"#utility.yul\":16268:16309   */\n      swap2\n      pop\n        /* \"#utility.yul\":16458:16459   */\n      dup3\n        /* \"#utility.yul\":16449:16456   */\n      dup3\n        /* \"#utility.yul\":16445:16460   */\n      div\n        /* \"#utility.yul\":16442:16443   */\n      dup5\n        /* \"#utility.yul\":16439:16461   */\n      eq\n        /* \"#utility.yul\":16419:16420   */\n      dup4\n        /* \"#utility.yul\":16412:16421   */\n      iszero\n        /* \"#utility.yul\":16392:16475   */\n      or\n        /* \"#utility.yul\":16369:16508   */\n      tag_527\n      jumpi\n        /* \"#utility.yul\":16488:16506   */\n      tag_528\n      tag_336\n      jump\t// in\n    tag_528:\n        /* \"#utility.yul\":16369:16508   */\n    tag_527:\n        /* \"#utility.yul\":16153:16515   */\n      pop\n        /* \"#utility.yul\":16105:16515   */\n      swap3\n      swap2\n      pop\n      pop\n      jump\t// out\n        /* \"#utility.yul\":16521:16701   */\n    tag_345:\n        /* \"#utility.yul\":16569:16646   */\n      0x4e487b7100000000000000000000000000000000000000000000000000000000\n        /* \"#utility.yul\":16566:16567   */\n      0x00\n        /* \"#utility.yul\":16559:16647   */\n      mstore\n        /* \"#utility.yul\":16666:16670   */\n      0x12\n        /* \"#utility.yul\":16663:16664   */\n      0x04\n        /* \"#utility.yul\":16656:16671   */\n      mstore\n        /* \"#utility.yul\":16690:16694   */\n      0x24\n        /* \"#utility.yul\":16687:16688   */\n      0x00\n        /* \"#utility.yul\":16680:16695   */\n      revert\n        /* \"#utility.yul\":16707:16892   */\n    tag_240:\n        /* \"#utility.yul\":16747:16748   */\n      0x00\n        /* \"#utility.yul\":16764:16784   */\n      tag_531\n        /* \"#utility.yul\":16782:16783   */\n      dup3\n        /* \"#utility.yul\":16764:16784   */\n      tag_315\n      jump\t// in\n    tag_531:\n        /* \"#utility.yul\":16759:16784   */\n      swap2\n      pop\n        /* \"#utility.yul\":16798:16818   */\n      tag_532\n        /* \"#utility.yul\":16816:16817   */\n      dup4\n        /* \"#utility.yul\":16798:16818   */\n      tag_315\n      jump\t// in\n    tag_532:\n        /* \"#utility.yul\":16793:16818   */\n      swap3\n      pop\n        /* \"#utility.yul\":16837:16838   */\n      dup3\n        /* \"#utility.yul\":16827:16862   */\n      tag_533\n      jumpi\n        /* \"#utility.yul\":16842:16860   */\n      tag_534\n      tag_345\n      jump\t// in\n    tag_534:\n        /* \"#utility.yul\":16827:16862   */\n    tag_533:\n        /* \"#utility.yul\":16884:16885   */\n      dup3\n        /* \"#utility.yul\":16881:16882   */\n      dup3\n        /* \"#utility.yul\":16877:16886   */\n      div\n        /* \"#utility.yul\":16872:16886   */\n      swap1\n      pop\n        /* \"#utility.yul\":16707:16892   */\n      swap3\n      swap2\n      pop\n      pop\n      jump\t// out\n        /* \"#utility.yul\":16898:17123   */\n    tag_346:\n        /* \"#utility.yul\":17038:17072   */\n      0x4f776e61626c653a206e6577206f776e657220697320746865207a65726f2061\n        /* \"#utility.yul\":17034:17035   */\n      0x00\n        /* \"#utility.yul\":17026:17032   */\n      dup3\n        /* \"#utility.yul\":17022:17036   */\n      add\n        /* \"#utility.yul\":17015:17073   */\n      mstore\n        /* \"#utility.yul\":17107:17115   */\n      0x6464726573730000000000000000000000000000000000000000000000000000\n        /* \"#utility.yul\":17102:17104   */\n      0x20\n        /* \"#utility.yul\":17094:17100   */\n      dup3\n        /* \"#utility.yul\":17090:17105   */\n      add\n        /* \"#utility.yul\":17083:17116   */\n      mstore\n        /* \"#utility.yul\":16898:17123   */\n      pop\n      jump\t// out\n        /* \"#utility.yul\":17129:17495   */\n    tag_347:\n        /* \"#utility.yul\":17271:17274   */\n      0x00\n        /* \"#utility.yul\":17292:17359   */\n      tag_537\n        /* \"#utility.yul\":17356:17358   */\n      0x26\n        /* \"#utility.yul\":17351:17354   */\n      dup4\n        /* \"#utility.yul\":17292:17359   */\n      tag_304\n      jump\t// in\n    tag_537:\n        /* \"#utility.yul\":17285:17359   */\n      swap2\n      pop\n        /* \"#utility.yul\":17368:17461   */\n      tag_538\n        /* \"#utility.yul\":17457:17460   */\n      dup3\n        /* \"#utility.yul\":17368:17461   */\n      tag_346\n      jump\t// in\n    tag_538:\n        /* \"#utility.yul\":17486:17488   */\n      0x40\n        /* \"#utility.yul\":17481:17484   */\n      dup3\n        /* \"#utility.yul\":17477:17489   */\n      add\n        /* \"#utility.yul\":17470:17489   */\n      swap1\n      pop\n        /* \"#utility.yul\":17129:17495   */\n      swap2\n      swap1\n      pop\n      jump\t// out\n        /* \"#utility.yul\":17501:17920   */\n    tag_271:\n        /* \"#utility.yul\":17667:17671   */\n      0x00\n        /* \"#utility.yul\":17705:17707   */\n      0x20\n        /* \"#utility.yul\":17694:17703   */\n      dup3\n        /* \"#utility.yul\":17690:17708   */\n      add\n        /* \"#utility.yul\":17682:17708   */\n      swap1\n      pop\n        /* \"#utility.yul\":17754:17763   */\n      dup2\n        /* \"#utility.yul\":17748:17752   */\n      dup2\n        /* \"#utility.yul\":17744:17764   */\n      sub\n        /* \"#utility.yul\":17740:17741   */\n      0x00\n        /* \"#utility.yul\":17729:17738   */\n      dup4\n        /* \"#utility.yul\":17725:17742   */\n      add\n        /* \"#utility.yul\":17718:17765   */\n      mstore\n        /* \"#utility.yul\":17782:17913   */\n      tag_540\n        /* \"#utility.yul\":17908:17912   */\n      dup2\n        /* \"#utility.yul\":17782:17913   */\n      tag_347\n      jump\t// in\n    tag_540:\n        /* \"#utility.yul\":17774:17913   */\n      swap1\n      pop\n        /* \"#utility.yul\":17501:17920   */\n      swap2\n      swap1\n      pop\n      jump\t// out\n        /* \"#utility.yul\":17926:18150   */\n    tag_348:\n        /* \"#utility.yul\":18066:18100   */\n      0x45524332303a207472616e736665722066726f6d20746865207a65726f206164\n        /* \"#utility.yul\":18062:18063   */\n      0x00\n        /* \"#utility.yul\":18054:18060   */\n      dup3\n        /* \"#utility.yul\":18050:18064   */\n      add\n        /* \"#utility.yul\":18043:18101   */\n      mstore\n        /* \"#utility.yul\":18135:18142   */\n      0x6472657373000000000000000000000000000000000000000000000000000000\n        /* \"#utility.yul\":18130:18132   */\n      0x20\n        /* \"#utility.yul\":18122:18128   */\n      dup3\n        /* \"#utility.yul\":18118:18133   */\n      add\n        /* \"#utility.yul\":18111:18143   */\n      mstore\n        /* \"#utility.yul\":17926:18150   */\n      pop\n      jump\t// out\n        /* \"#utility.yul\":18156:18522   */\n    tag_349:\n        /* \"#utility.yul\":18298:18301   */\n      0x00\n        /* \"#utility.yul\":18319:18386   */\n      tag_543\n        /* \"#utility.yul\":18383:18385   */\n      0x25\n        /* \"#utility.yul\":18378:18381   */\n      dup4\n        /* \"#utility.yul\":18319:18386   */\n      tag_304\n      jump\t// in\n    tag_543:\n        /* \"#utility.yul\":18312:18386   */\n      swap2\n      pop\n        /* \"#utility.yul\":18395:18488   */\n      tag_544\n        /* \"#utility.yul\":18484:18487   */\n      dup3\n        /* \"#utility.yul\":18395:18488   */\n      tag_348\n      jump\t// in\n    tag_544:\n        /* \"#utility.yul\":18513:18515   */\n      0x40\n        /* \"#utility.yul\":18508:18511   */\n      dup3\n        /* \"#utility.yul\":18504:18516   */\n      add\n        /* \"#utility.yul\":18497:18516   */\n      swap1\n      pop\n        /* \"#utility.yul\":18156:18522   */\n      swap2\n      swap1\n      pop\n      jump\t// out\n        /* \"#utility.yul\":18528:18947   */\n    tag_276:\n        /* \"#utility.yul\":18694:18698   */\n      0x00\n        /* \"#utility.yul\":18732:18734   */\n      0x20\n        /* \"#utility.yul\":18721:18730   */\n      dup3\n        /* \"#utility.yul\":18717:18735   */\n      add\n        /* \"#utility.yul\":18709:18735   */\n      swap1\n      pop\n        /* \"#utility.yul\":18781:18790   */\n      dup2\n        /* \"#utility.yul\":18775:18779   */\n      dup2\n        /* \"#utility.yul\":18771:18791   */\n      sub\n        /* \"#utility.yul\":18767:18768   */\n      0x00\n        /* \"#utility.yul\":18756:18765   */\n      dup4\n        /* \"#utility.yul\":18752:18769   */\n      add\n        /* \"#utility.yul\":18745:18792   */\n      mstore\n        /* \"#utility.yul\":18809:18940   */\n      tag_546\n        /* \"#utility.yul\":18935:18939   */\n      dup2\n        /* \"#utility.yul\":18809:18940   */\n      tag_349\n      jump\t// in\n    tag_546:\n        /* \"#utility.yul\":18801:18940   */\n      swap1\n      pop\n        /* \"#utility.yul\":18528:18947   */\n      swap2\n      swap1\n      pop\n      jump\t// out\n        /* \"#utility.yul\":18953:19175   */\n    tag_350:\n        /* \"#utility.yul\":19093:19127   */\n      0x45524332303a207472616e7366657220746f20746865207a65726f2061646472\n        /* \"#utility.yul\":19089:19090   */\n      0x00\n        /* \"#utility.yul\":19081:19087   */\n      dup3\n        /* \"#utility.yul\":19077:19091   */\n      add\n        /* \"#utility.yul\":19070:19128   */\n      mstore\n        /* \"#utility.yul\":19162:19167   */\n      0x6573730000000000000000000000000000000000000000000000000000000000\n        /* \"#utility.yul\":19157:19159   */\n      0x20\n        /* \"#utility.yul\":19149:19155   */\n      dup3\n        /* \"#utility.yul\":19145:19160   */\n      add\n        /* \"#utility.yul\":19138:19168   */\n      mstore\n        /* \"#utility.yul\":18953:19175   */\n      pop\n      jump\t// out\n        /* \"#utility.yul\":19181:19547   */\n    tag_351:\n        /* \"#utility.yul\":19323:19326   */\n      0x00\n        /* \"#utility.yul\":19344:19411   */\n      tag_549\n        /* \"#utility.yul\":19408:19410   */\n      0x23\n        /* \"#utility.yul\":19403:19406   */\n      dup4\n        /* \"#utility.yul\":19344:19411   */\n      tag_304\n      jump\t// in\n    tag_549:\n        /* \"#utility.yul\":19337:19411   */\n      swap2\n      pop\n        /* \"#utility.yul\":19420:19513   */\n      tag_550\n        /* \"#utility.yul\":19509:19512   */\n      dup3\n        /* \"#utility.yul\":19420:19513   */\n      tag_350\n      jump\t// in\n    tag_550:\n        /* \"#utility.yul\":19538:19540   */\n      0x40\n        /* \"#utility.yul\":19533:19536   */\n      dup3\n        /* \"#utility.yul\":19529:19541   */\n      add\n        /* \"#utility.yul\":19522:19541   */\n      swap1\n      pop\n        /* \"#utility.yul\":19181:19547   */\n      swap2\n      swap1\n      pop\n      jump\t// out\n        /* \"#utility.yul\":19553:19972   */\n    tag_279:\n        /* \"#utility.yul\":19719:19723   */\n      0x00\n        /* \"#utility.yul\":19757:19759   */\n      0x20\n        /* \"#utility.yul\":19746:19755   */\n      dup3\n        /* \"#utility.yul\":19742:19760   */\n      add\n        /* \"#utility.yul\":19734:19760   */\n      swap1\n      pop\n        /* \"#utility.yul\":19806:19815   */\n      dup2\n        /* \"#utility.yul\":19800:19804   */\n      dup2\n        /* \"#utility.yul\":19796:19816   */\n      sub\n        /* \"#utility.yul\":19792:19793   */\n      0x00\n        /* \"#utility.yul\":19781:19790   */\n      dup4\n        /* \"#utility.yul\":19777:19794   */\n      add\n        /* \"#utility.yul\":19770:19817   */\n      mstore\n        /* \"#utility.yul\":19834:19965   */\n      tag_552\n        /* \"#utility.yul\":19960:19964   */\n      dup2\n        /* \"#utility.yul\":19834:19965   */\n      tag_351\n      jump\t// in\n    tag_552:\n        /* \"#utility.yul\":19826:19965   */\n      swap1\n      pop\n        /* \"#utility.yul\":19553:19972   */\n      swap2\n      swap1\n      pop\n      jump\t// out\n        /* \"#utility.yul\":19978:20203   */\n    tag_352:\n        /* \"#utility.yul\":20118:20152   */\n      0x45524332303a207472616e7366657220616d6f756e7420657863656564732062\n        /* \"#utility.yul\":20114:20115   */\n      0x00\n        /* \"#utility.yul\":20106:20112   */\n      dup3\n        /* \"#utility.yul\":20102:20116   */\n      add\n        /* \"#utility.yul\":20095:20153   */\n      mstore\n        /* \"#utility.yul\":20187:20195   */\n      0x616c616e63650000000000000000000000000000000000000000000000000000\n        /* \"#utility.yul\":20182:20184   */\n      0x20\n        /* \"#utility.yul\":20174:20180   */\n      dup3\n        /* \"#utility.yul\":20170:20185   */\n      add\n        /* \"#utility.yul\":20163:20196   */\n      mstore\n        /* \"#utility.yul\":19978:20203   */\n      pop\n      jump\t// out\n        /* \"#utility.yul\":20209:20575   */\n    tag_353:\n        /* \"#utility.yul\":20351:20354   */\n      0x00\n        /* \"#utility.yul\":20372:20439   */\n      tag_555\n        /* \"#utility.yul\":20436:20438   */\n      0x26\n        /* \"#utility.yul\":20431:20434   */\n      dup4\n        /* \"#utility.yul\":20372:20439   */\n      tag_304\n      jump\t// in\n    tag_555:\n        /* \"#utility.yul\":20365:20439   */\n      swap2\n      pop\n        /* \"#utility.yul\":20448:20541   */\n      tag_556\n        /* \"#utility.yul\":20537:20540   */\n      dup3\n        /* \"#utility.yul\":20448:20541   */\n      tag_352\n      jump\t// in\n    tag_556:\n        /* \"#utility.yul\":20566:20568   */\n      0x40\n        /* \"#utility.yul\":20561:20564   */\n      dup3\n        /* \"#utility.yul\":20557:20569   */\n      add\n        /* \"#utility.yul\":20550:20569   */\n      swap1\n      pop\n        /* \"#utility.yul\":20209:20575   */\n      swap2\n      swap1\n      pop\n      jump\t// out\n        /* \"#utility.yul\":20581:21000   */\n    tag_282:\n        /* \"#utility.yul\":20747:20751   */\n      0x00\n        /* \"#utility.yul\":20785:20787   */\n      0x20\n        /* \"#utility.yul\":20774:20783   */\n      dup3\n        /* \"#utility.yul\":20770:20788   */\n      add\n        /* \"#utility.yul\":20762:20788   */\n      swap1\n      pop\n        /* \"#utility.yul\":20834:20843   */\n      dup2\n        /* \"#utility.yul\":20828:20832   */\n      dup2\n        /* \"#utility.yul\":20824:20844   */\n      sub\n        /* \"#utility.yul\":20820:20821   */\n      0x00\n        /* \"#utility.yul\":20809:20818   */\n      dup4\n        /* \"#utility.yul\":20805:20822   */\n      add\n        /* \"#utility.yul\":20798:20845   */\n      mstore\n        /* \"#utility.yul\":20862:20993   */\n      tag_558\n        /* \"#utility.yul\":20988:20992   */\n      dup2\n        /* \"#utility.yul\":20862:20993   */\n      tag_353\n      jump\t// in\n    tag_558:\n        /* \"#utility.yul\":20854:20993   */\n      swap1\n      pop\n        /* \"#utility.yul\":20581:21000   */\n      swap2\n      swap1\n      pop\n      jump\t// out\n        /* \"#utility.yul\":21006:21229   */\n    tag_354:\n        /* \"#utility.yul\":21146:21180   */\n      0x45524332303a20617070726f76652066726f6d20746865207a65726f20616464\n        /* \"#utility.yul\":21142:21143   */\n      0x00\n        /* \"#utility.yul\":21134:21140   */\n      dup3\n        /* \"#utility.yul\":21130:21144   */\n      add\n        /* \"#utility.yul\":21123:21181   */\n      mstore\n        /* \"#utility.yul\":21215:21221   */\n      0x7265737300000000000000000000000000000000000000000000000000000000\n        /* \"#utility.yul\":21210:21212   */\n      0x20\n        /* \"#utility.yul\":21202:21208   */\n      dup3\n        /* \"#utility.yul\":21198:21213   */\n      add\n        /* \"#utility.yul\":21191:21222   */\n      mstore\n        /* \"#utility.yul\":21006:21229   */\n      pop\n      jump\t// out\n        /* \"#utility.yul\":21235:21601   */\n    tag_355:\n        /* \"#utility.yul\":21377:21380   */\n      0x00\n        /* \"#utility.yul\":21398:21465   */\n      tag_561\n        /* \"#utility.yul\":21462:21464   */\n      0x24\n        /* \"#utility.yul\":21457:21460   */\n      dup4\n        /* \"#utility.yul\":21398:21465   */\n      tag_304\n      jump\t// in\n    tag_561:\n        /* \"#utility.yul\":21391:21465   */\n      swap2\n      pop\n        /* \"#utility.yul\":21474:21567   */\n      tag_562\n        /* \"#utility.yul\":21563:21566   */\n      dup3\n        /* \"#utility.yul\":21474:21567   */\n      tag_354\n      jump\t// in\n    tag_562:\n        /* \"#utility.yul\":21592:21594   */\n      0x40\n        /* \"#utility.yul\":21587:21590   */\n      dup3\n        /* \"#utility.yul\":21583:21595   */\n      add\n        /* \"#utility.yul\":21576:21595   */\n      swap1\n      pop\n        /* \"#utility.yul\":21235:21601   */\n      swap2\n      swap1\n      pop\n      jump\t// out\n        /* \"#utility.yul\":21607:22026   */\n    tag_290:\n        /* \"#utility.yul\":21773:21777   */\n      0x00\n        /* \"#utility.yul\":21811:21813   */\n      0x20\n        /* \"#utility.yul\":21800:21809   */\n      dup3\n        /* \"#utility.yul\":21796:21814   */\n      add\n        /* \"#utility.yul\":21788:21814   */\n      swap1\n      pop\n        /* \"#utility.yul\":21860:21869   */\n      dup2\n        /* \"#utility.yul\":21854:21858   */\n      dup2\n        /* \"#utility.yul\":21850:21870   */\n      sub\n        /* \"#utility.yul\":21846:21847   */\n      0x00\n        /* \"#utility.yul\":21835:21844   */\n      dup4\n        /* \"#utility.yul\":21831:21848   */\n      add\n        /* \"#utility.yul\":21824:21871   */\n      mstore\n        /* \"#utility.yul\":21888:22019   */\n      tag_564\n        /* \"#utility.yul\":22014:22018   */\n      dup2\n        /* \"#utility.yul\":21888:22019   */\n      tag_355\n      jump\t// in\n    tag_564:\n        /* \"#utility.yul\":21880:22019   */\n      swap1\n      pop\n        /* \"#utility.yul\":21607:22026   */\n      swap2\n      swap1\n      pop\n      jump\t// out\n        /* \"#utility.yul\":22032:22253   */\n    tag_356:\n        /* \"#utility.yul\":22172:22206   */\n      0x45524332303a20617070726f766520746f20746865207a65726f206164647265\n        /* \"#utility.yul\":22168:22169   */\n      0x00\n        /* \"#utility.yul\":22160:22166   */\n      dup3\n        /* \"#utility.yul\":22156:22170   */\n      add\n        /* \"#utility.yul\":22149:22207   */\n      mstore\n        /* \"#utility.yul\":22241:22245   */\n      0x7373000000000000000000000000000000000000000000000000000000000000\n        /* \"#utility.yul\":22236:22238   */\n      0x20\n        /* \"#utility.yul\":22228:22234   */\n      dup3\n        /* \"#utility.yul\":22224:22239   */\n      add\n        /* \"#utility.yul\":22217:22246   */\n      mstore\n        /* \"#utility.yul\":22032:22253   */\n      pop\n      jump\t// out\n        /* \"#utility.yul\":22259:22625   */\n    tag_357:\n        /* \"#utility.yul\":22401:22404   */\n      0x00\n        /* \"#utility.yul\":22422:22489   */\n      tag_567\n        /* \"#utility.yul\":22486:22488   */\n      0x22\n        /* \"#utility.yul\":22481:22484   */\n      dup4\n        /* \"#utility.yul\":22422:22489   */\n      tag_304\n      jump\t// in\n    tag_567:\n        /* \"#utility.yul\":22415:22489   */\n      swap2\n      pop\n        /* \"#utility.yul\":22498:22591   */\n      tag_568\n        /* \"#utility.yul\":22587:22590   */\n      dup3\n        /* \"#utility.yul\":22498:22591   */\n      tag_356\n      jump\t// in\n    tag_568:\n        /* \"#utility.yul\":22616:22618   */\n      0x40\n        /* \"#utility.yul\":22611:22614   */\n      dup3\n        /* \"#utility.yul\":22607:22619   */\n      add\n        /* \"#utility.yul\":22600:22619   */\n      swap1\n      pop\n        /* \"#utility.yul\":22259:22625   */\n      swap2\n      swap1\n      pop\n      jump\t// out\n        /* \"#utility.yul\":22631:23050   */\n    tag_293:\n        /* \"#utility.yul\":22797:22801   */\n      0x00\n        /* \"#utility.yul\":22835:22837   */\n      0x20\n        /* \"#utility.yul\":22824:22833   */\n      dup3\n        /* \"#utility.yul\":22820:22838   */\n      add\n        /* \"#utility.yul\":22812:22838   */\n      swap1\n      pop\n        /* \"#utility.yul\":22884:22893   */\n      dup2\n        /* \"#utility.yul\":22878:22882   */\n      dup2\n        /* \"#utility.yul\":22874:22894   */\n      sub\n        /* \"#utility.yul\":22870:22871   */\n      0x00\n        /* \"#utility.yul\":22859:22868   */\n      dup4\n        /* \"#utility.yul\":22855:22872   */\n      add\n        /* \"#utility.yul\":22848:22895   */\n      mstore\n        /* \"#utility.yul\":22912:23043   */\n      tag_570\n        /* \"#utility.yul\":23038:23042   */\n      dup2\n        /* \"#utility.yul\":22912:23043   */\n      tag_357\n      jump\t// in\n    tag_570:\n        /* \"#utility.yul\":22904:23043   */\n      swap1\n      pop\n        /* \"#utility.yul\":22631:23050   */\n      swap2\n      swap1\n      pop\n      jump\t// out\n        /* \"#utility.yul\":23056:23237   */\n    tag_358:\n        /* \"#utility.yul\":23196:23229   */\n      0x45524332303a206d696e7420746f20746865207a65726f206164647265737300\n        /* \"#utility.yul\":23192:23193   */\n      0x00\n        /* \"#utility.yul\":23184:23190   */\n      dup3\n        /* \"#utility.yul\":23180:23194   */\n      add\n        /* \"#utility.yul\":23173:23230   */\n      mstore\n        /* \"#utility.yul\":23056:23237   */\n      pop\n      jump\t// out\n        /* \"#utility.yul\":23243:23609   */\n    tag_359:\n        /* \"#utility.yul\":23385:23388   */\n      0x00\n        /* \"#utility.yul\":23406:23473   */\n      tag_573\n        /* \"#utility.yul\":23470:23472   */\n      0x1f\n        /* \"#utility.yul\":23465:23468   */\n      dup4\n        /* \"#utility.yul\":23406:23473   */\n      tag_304\n      jump\t// in\n    tag_573:\n        /* \"#utility.yul\":23399:23473   */\n      swap2\n      pop\n        /* \"#utility.yul\":23482:23575   */\n      tag_574\n        /* \"#utility.yul\":23571:23574   */\n      dup3\n        /* \"#utility.yul\":23482:23575   */\n      tag_358\n      jump\t// in\n    tag_574:\n        /* \"#utility.yul\":23600:23602   */\n      0x20\n        /* \"#utility.yul\":23595:23598   */\n      dup3\n        /* \"#utility.yul\":23591:23603   */\n      add\n        /* \"#utility.yul\":23584:23603   */\n      swap1\n      pop\n        /* \"#utility.yul\":23243:23609   */\n      swap2\n      swap1\n      pop\n      jump\t// out\n        /* \"#utility.yul\":23615:24034   */\n    tag_298:\n        /* \"#utility.yul\":23781:23785   */\n      0x00\n        /* \"#utility.yul\":23819:23821   */\n      0x20\n        /* \"#utility.yul\":23808:23817   */\n      dup3\n        /* \"#utility.yul\":23804:23822   */\n      add\n        /* \"#utility.yul\":23796:23822   */\n      swap1\n      pop\n        /* \"#utility.yul\":23868:23877   */\n      dup2\n        /* \"#utility.yul\":23862:23866   */\n      dup2\n        /* \"#utility.yul\":23858:23878   */\n      sub\n        /* \"#utility.yul\":23854:23855   */\n      0x00\n        /* \"#utility.yul\":23843:23852   */\n      dup4\n        /* \"#utility.yul\":23839:23856   */\n      add\n        /* \"#utility.yul\":23832:23879   */\n      mstore\n        /* \"#utility.yul\":23896:24027   */\n      tag_576\n        /* \"#utility.yul\":24022:24026   */\n      dup2\n        /* \"#utility.yul\":23896:24027   */\n      tag_359\n      jump\t// in\n    tag_576:\n        /* \"#utility.yul\":23888:24027   */\n      swap1\n      pop\n        /* \"#utility.yul\":23615:24034   */\n      swap2\n      swap1\n      pop\n      jump\t// out\n\n    auxdata: 0xa2646970667358221220565c8493bfcdb595cca3b478f190979df9ca77a78ed95cf141f2cc9cfa869fa164736f6c634300081c0033\n}\n",
				"bytecode": {
					"linkReferences": {},
					"object": "608060405261001261019d60201b60201c565b600a61001e919061051a565b63017d784061002d9190610564565b6006556301e133806008556002600a5561004b61019d60201b60201c565b600a610057919061051a565b6103e86100649190610564565b600b55348015610072575f5ffd5b50604051612f56380380612f5683398181016040528101906100949190610603565b6040518060400160405280600981526020017f43697479546f75636800000000000000000000000000000000000000000000008152506040518060400160405280600381526020017f4354540000000000000000000000000000000000000000000000000000000000815250816003908161010f9190610862565b50806004908161011f9190610862565b505050610131336101a560201b60201c565b8060075f6101000a81548173ffffffffffffffffffffffffffffffffffffffff021916908373ffffffffffffffffffffffffffffffffffffffff1602179055506008544261017f9190610931565b6009819055506101973360065461026860201b60201c565b50610a04565b5f6012905090565b5f60055f9054906101000a900473ffffffffffffffffffffffffffffffffffffffff1690508160055f6101000a81548173ffffffffffffffffffffffffffffffffffffffff021916908373ffffffffffffffffffffffffffffffffffffffff1602179055508173ffffffffffffffffffffffffffffffffffffffff168173ffffffffffffffffffffffffffffffffffffffff167f8be0079c531659141344cd1fd0a4f28419497f9722a3daafe3b4186f6b6457e060405160405180910390a35050565b5f73ffffffffffffffffffffffffffffffffffffffff168273ffffffffffffffffffffffffffffffffffffffff16036102d6576040517f08c379a00000000000000000000000000000000000000000000000000000000081526004016102cd906109be565b60405180910390fd5b8060025f8282546102e79190610931565b92505081905550805f5f8473ffffffffffffffffffffffffffffffffffffffff1673ffffffffffffffffffffffffffffffffffffffff1681526020019081526020015f205f8282546103399190610931565b925050819055508173ffffffffffffffffffffffffffffffffffffffff165f73ffffffffffffffffffffffffffffffffffffffff167fddf252ad1be2c89b69c2b068fc378daa952ba7f163c4a11628f55a4df523b3ef8360405161039d91906109eb565b60405180910390a35050565b7f4e487b71000000000000000000000000000000000000000000000000000000005f52601160045260245ffd5b5f8160011c9050919050565b5f5f8291508390505b600185111561042b57808604811115610407576104066103a9565b5b60018516156104165780820291505b8081029050610424856103d6565b94506103eb565b94509492505050565b5f8261044357600190506104fe565b81610450575f90506104fe565b816001811461046657600281146104705761049f565b60019150506104fe565b60ff841115610482576104816103a9565b5b8360020a915084821115610499576104986103a9565b5b506104fe565b5060208310610133831016604e8410600b84101617156104d45782820a9050838111156104cf576104ce6103a9565b5b6104fe565b6104e184848460016103e2565b925090508184048111156104f8576104f76103a9565b5b81810290505b9392505050565b5f819050919050565b5f60ff82169050919050565b5f61052482610505565b915061052f8361050e565b925061055c7fffffffffffffffffffffffffffffffffffffffffffffffffffffffffffffffff8484610434565b905092915050565b5f61056e82610505565b915061057983610505565b925082820261058781610505565b9150828204841483151761059e5761059d6103a9565b5b5092915050565b5f5ffd5b5f73ffffffffffffffffffffffffffffffffffffffff82169050919050565b5f6105d2826105a9565b9050919050565b6105e2816105c8565b81146105ec575f5ffd5b50565b5f815190506105fd816105d9565b92915050565b5f60208284031215610618576106176105a5565b5b5f610625848285016105ef565b91505092915050565b5f81519050919050565b7f4e487b71000000000000000000000000000000000000000000000000000000005f52604160045260245ffd5b7f4e487b71000000000000000000000000000000000000000000000000000000005f52602260045260245ffd5b5f60028204905060018216806106a957607f821691505b6020821081036106bc576106bb610665565b5b50919050565b5f819050815f5260205f209050919050565b5f6020601f8301049050919050565b5f82821b905092915050565b5f6008830261071e7fffffffffffffffffffffffffffffffffffffffffffffffffffffffffffffffff826106e3565b61072886836106e3565b95508019841693508086168417925050509392505050565b5f819050919050565b5f61076361075e61075984610505565b610740565b610505565b9050919050565b5f819050919050565b61077c83610749565b6107906107888261076a565b8484546106ef565b825550505050565b5f5f905090565b6107a7610798565b6107b2818484610773565b505050565b5b818110156107d5576107ca5f8261079f565b6001810190506107b8565b5050565b601f82111561081a576107eb816106c2565b6107f4846106d4565b81016020851015610803578190505b61081761080f856106d4565b8301826107b7565b50505b505050565b5f82821c905092915050565b5f61083a5f198460080261081f565b1980831691505092915050565b5f610852838361082b565b9150826002028217905092915050565b61086b8261062e565b67ffffffffffffffff81111561088457610883610638565b5b61088e8254610692565b6108998282856107d9565b5f60209050601f8311600181146108ca575f84156108b8578287015190505b6108c28582610847565b865550610929565b601f1984166108d8866106c2565b5f5b828110156108ff578489015182556001820191506020850194506020810190506108da565b8683101561091c5784890151610918601f89168261082b565b8355505b6001600288020188555050505b505050505050565b5f61093b82610505565b915061094683610505565b925082820190508082111561095e5761095d6103a9565b5b92915050565b5f82825260208201905092915050565b7f45524332303a206d696e7420746f20746865207a65726f2061646472657373005f82015250565b5f6109a8601f83610964565b91506109b382610974565b602082019050919050565b5f6020820190508181035f8301526109d58161099c565b9050919050565b6109e581610505565b82525050565b5f6020820190506109fe5f8301846109dc565b92915050565b61254580610a115f395ff3fe608060405234801561000f575f5ffd5b50600436106101cd575f3560e01c8063715018a611610102578063b851b7ca116100a0578063e42d0aac1161006f578063e42d0aac1461056d578063e6674a9a14610589578063e7608ac1146105a7578063f2fde38b146105b1576101cd565b8063b851b7ca146104e5578063bee693d214610501578063dc73e49c1461051f578063dd62ed3e1461053d576101cd565b8063a114398d116100dc578063a114398d14610425578063a457c2d714610455578063a9059cbb14610485578063b665d324146104b5576101cd565b8063715018a6146103df5780638da5cb5b146103e957806395d89b4114610407576101cd565b806338fe91e11161016f57806361d027b31161014957806361d027b314610343578063674d4b07146103615780636a47aa061461039157806370a08231146103af576101cd565b806338fe91e1146102d957806339509351146102f757806340c10f1914610327576101cd565b806318160ddd116101ab57806318160ddd1461024f578063228cb7331461026d57806323b872dd1461028b578063313ce567146102bb576101cd565b806306fdde03146101d15780630818f44b146101ef578063095ea7b31461021f575b5f5ffd5b6101d96105cd565b6040516101e691906118cb565b60405180910390f35b61020960048036038101906102049190611ab5565b61065d565b6040516102169190611b3b565b60405180910390f35b61023960048036038101906102349190611b54565b6106db565b6040516102469190611b3b565b60405180910390f35b6102576106f8565b6040516102649190611ba1565b60405180910390f35b610275610701565b6040516102829190611ba1565b60405180910390f35b6102a560048036038101906102a09190611bba565b610707565b6040516102b29190611b3b565b60405180910390f35b6102c3610802565b6040516102d09190611c25565b60405180910390f35b6102e161080a565b6040516102ee9190611ba1565b60405180910390f35b610311600480360381019061030c9190611b54565b61088e565b60405161031e9190611b3b565b60405180910390f35b610341600480360381019061033c9190611b54565b610935565b005b61034b6109b8565b6040516103589190611c4d565b60405180910390f35b61037b60048036038101906103769190611c66565b6109dd565b6040516103889190611ba1565b60405180910390f35b6103996109e6565b6040516103a69190611ba1565b60405180910390f35b6103c960048036038101906103c49190611c91565b6109ec565b6040516103d69190611ba1565b60405180910390f35b6103e7610a31565b005b6103f1610ab1565b6040516103fe9190611c4d565b60405180910390f35b61040f610ad9565b60405161041c91906118cb565b60405180910390f35b61043f600480360381019061043a9190611b54565b610b69565b60405161044c9190611b3b565b60405180910390f35b61046f600480360381019061046a9190611b54565b610d21565b60405161047c9190611b3b565b60405180910390f35b61049f600480360381019061049a9190611b54565b610e10565b6040516104ac9190611b3b565b60405180910390f35b6104cf60048036038101906104ca9190611b54565b610e2d565b6040516104dc9190611b3b565b60405180910390f35b6104ff60048036038101906104fa9190611c91565b610e9c565b005b610509610f54565b6040516105169190611ba1565b60405180910390f35b610527610f5a565b6040516105349190611c4d565b60405180910390f35b61055760048036038101906105529190611cbc565b610f7f565b6040516105649190611ba1565b60405180910390f35b61058760048036038101906105829190611b54565b611001565b005b610591611085565b60405161059e9190611ba1565b60405180910390f35b6105af61108b565b005b6105cb60048036038101906105c69190611c91565b611136565b005b6060600380546105dc90611d27565b80601f016020809104026020016040519081016040528092919081815260200182805461060890611d27565b80156106535780601f1061062a57610100808354040283529160200191610653565b820191905f5260205f20905b81548152906001019060200180831161063657829003601f168201915b5050505050905090565b5f610669338585611225565b8373ffffffffffffffffffffffffffffffffffffffff163373ffffffffffffffffffffffffffffffffffffffff167f0b6aa398652c861e442761200431647f8622c16488a180e5354301cdcfb3371585856040516106c8929190611d57565b60405180910390a3600190509392505050565b5f6106ee6106e761148d565b8484611494565b6001905092915050565b5f600254905090565b600b5481565b5f610713848484611225565b5f60015f8673ffffffffffffffffffffffffffffffffffffffff1673ffffffffffffffffffffffffffffffffffffffff1681526020019081526020015f205f61075a61148d565b73ffffffffffffffffffffffffffffffffffffffff1673ffffffffffffffffffffffffffffffffffffffff1681526020019081526020015f20549050828110156107d9576040517f08c379a00000000000000000000000000000000000000000000000000000000081526004016107d090611df5565b60405180910390fd5b6107f6856107e561148d565b85846107f19190611e40565b611494565b60019150509392505050565b5f6012905090565b5f3373ffffffffffffffffffffffffffffffffffffffff1661082a610ab1565b73ffffffffffffffffffffffffffffffffffffffff1614610880576040517f08c379a000000000000000000000000000000000000000000000000000000000815260040161087790611ebd565b60405180910390fd5b610889336109ec565b905090565b5f61092b61089a61148d565b848460015f6108a761148d565b73ffffffffffffffffffffffffffffffffffffffff1673ffffffffffffffffffffffffffffffffffffffff1681526020019081526020015f205f8873ffffffffffffffffffffffffffffffffffffffff1673ffffffffffffffffffffffffffffffffffffffff1681526020019081526020015f20546109269190611edb565b611494565b6001905092915050565b3373ffffffffffffffffffffffffffffffffffffffff16610954610ab1565b73ffffffffffffffffffffffffffffffffffffffff16146109aa576040517f08c379a00000000000000000000000000000000000000000000000000000000081526004016109a190611ebd565b60405180910390fd5b6109b48282611657565b5050565b60075f9054906101000a900473ffffffffffffffffffffffffffffffffffffffff1681565b5f819050919050565b60085481565b5f5f5f8373ffffffffffffffffffffffffffffffffffffffff1673ffffffffffffffffffffffffffffffffffffffff1681526020019081526020015f20549050919050565b3373ffffffffffffffffffffffffffffffffffffffff16610a50610ab1565b73ffffffffffffffffffffffffffffffffffffffff1614610aa6576040517f08c379a0000000000000000000000000000000000000000000000000000000008152600401610a9d90611ebd565b60405180910390fd5b610aaf5f611798565b565b5f60055f9054906101000a900473ffffffffffffffffffffffffffffffffffffffff16905090565b606060048054610ae890611d27565b80601f0160208091040260200160405190810160405280929190818152602001828054610b1490611d27565b8015610b5f5780601f10610b3657610100808354040283529160200191610b5f565b820191905f5260205f20905b815481529060010190602001808311610b4257829003601f168201915b5050505050905090565b5f5f73ffffffffffffffffffffffffffffffffffffffff16600c5f9054906101000a900473ffffffffffffffffffffffffffffffffffffffff1673ffffffffffffffffffffffffffffffffffffffff1603610bf9576040517f08c379a0000000000000000000000000000000000000000000000000000000008152600401610bf090611f58565b60405180910390fd5b5f610c03836109dd565b9050600c5f9054906101000a900473ffffffffffffffffffffffffffffffffffffffff1673ffffffffffffffffffffffffffffffffffffffff166323b872dd3330866040518463ffffffff1660e01b8152600401610c6393929190611f76565b6020604051808303815f875af1158015610c7f573d5f5f3e3d5ffd5b505050506040513d601f19601f82011682018060405250810190610ca39190611fd5565b50610caf308583611225565b8373ffffffffffffffffffffffffffffffffffffffff163373ffffffffffffffffffffffffffffffffffffffff167ffa2dda1cc1b86e41239702756b13effbc1a092b5c57e3ad320fbe4f3b13fe2358584604051610d0e929190612000565b60405180910390a3600191505092915050565b5f5f60015f610d2e61148d565b73ffffffffffffffffffffffffffffffffffffffff1673ffffffffffffffffffffffffffffffffffffffff1681526020019081526020015f205f8573ffffffffffffffffffffffffffffffffffffffff1673ffffffffffffffffffffffffffffffffffffffff1681526020019081526020015f2054905082811015610de8576040517f08c379a0000000000000000000000000000000000000000000000000000000008152600401610ddf90612097565b60405180910390fd5b610e05610df361148d565b858584610e009190611e40565b611494565b600191505092915050565b5f610e23610e1c61148d565b8484611225565b6001905092915050565b5f5f6064600284610e3e91906120b5565b610e489190612123565b90505f8184610e579190611e40565b9050610e64338683611225565b610e903360075f9054906101000a900473ffffffffffffffffffffffffffffffffffffffff1684611225565b60019250505092915050565b3373ffffffffffffffffffffffffffffffffffffffff16610ebb610ab1565b73ffffffffffffffffffffffffffffffffffffffff1614610f11576040517f08c379a0000000000000000000000000000000000000000000000000000000008152600401610f0890611ebd565b60405180910390fd5b80600c5f6101000a81548173ffffffffffffffffffffffffffffffffffffffff021916908373ffffffffffffffffffffffffffffffffffffffff16021790555050565b60095481565b600c5f9054906101000a900473ffffffffffffffffffffffffffffffffffffffff1681565b5f60015f8473ffffffffffffffffffffffffffffffffffffffff1673ffffffffffffffffffffffffffffffffffffffff1681526020019081526020015f205f8373ffffffffffffffffffffffffffffffffffffffff1673ffffffffffffffffffffffffffffffffffffffff1681526020019081526020015f2054905092915050565b3373ffffffffffffffffffffffffffffffffffffffff16611020610ab1565b73ffffffffffffffffffffffffffffffffffffffff1614611076576040517f08c379a000000000000000000000000000000000000000000000000000000000815260040161106d90611ebd565b60405180910390fd5b611081338383611225565b5050565b600a5481565b3373ffffffffffffffffffffffffffffffffffffffff166110aa610ab1565b73ffffffffffffffffffffffffffffffffffffffff1614611100576040517f08c379a00000000000000000000000000000000000000000000000000000000081526004016110f790611ebd565b60405180910390fd5b600954421061113457600a54600b546111199190612123565b600b819055506008544261112d9190611edb565b6009819055505b565b3373ffffffffffffffffffffffffffffffffffffffff16611155610ab1565b73ffffffffffffffffffffffffffffffffffffffff16146111ab576040517f08c379a00000000000000000000000000000000000000000000000000000000081526004016111a290611ebd565b60405180910390fd5b5f73ffffffffffffffffffffffffffffffffffffffff168173ffffffffffffffffffffffffffffffffffffffff1603611219576040517f08c379a0000000000000000000000000000000000000000000000000000000008152600401611210906121c3565b60405180910390fd5b61122281611798565b50565b5f73ffffffffffffffffffffffffffffffffffffffff168373ffffffffffffffffffffffffffffffffffffffff1603611293576040517f08c379a000000000000000000000000000000000000000000000000000000000815260040161128a90612251565b60405180910390fd5b5f73ffffffffffffffffffffffffffffffffffffffff168273ffffffffffffffffffffffffffffffffffffffff1603611301576040517f08c379a00000000000000000000000000000000000000000000000000000000081526004016112f8906122df565b60405180910390fd5b5f5f5f8573ffffffffffffffffffffffffffffffffffffffff1673ffffffffffffffffffffffffffffffffffffffff1681526020019081526020015f2054905081811015611384576040517f08c379a000000000000000000000000000000000000000000000000000000000815260040161137b9061236d565b60405180910390fd5b81816113909190611e40565b5f5f8673ffffffffffffffffffffffffffffffffffffffff1673ffffffffffffffffffffffffffffffffffffffff1681526020019081526020015f2081905550815f5f8573ffffffffffffffffffffffffffffffffffffffff1673ffffffffffffffffffffffffffffffffffffffff1681526020019081526020015f205f82825461141b9190611edb565b925050819055508273ffffffffffffffffffffffffffffffffffffffff168473ffffffffffffffffffffffffffffffffffffffff167fddf252ad1be2c89b69c2b068fc378daa952ba7f163c4a11628f55a4df523b3ef8460405161147f9190611ba1565b60405180910390a350505050565b5f33905090565b5f73ffffffffffffffffffffffffffffffffffffffff168373ffffffffffffffffffffffffffffffffffffffff1603611502576040517f08c379a00000000000000000000000000000000000000000000000000000000081526004016114f9906123fb565b60405180910390fd5b5f73ffffffffffffffffffffffffffffffffffffffff168273ffffffffffffffffffffffffffffffffffffffff1603611570576040517f08c379a000000000000000000000000000000000000000000000000000000000815260040161156790612489565b60405180910390fd5b8060015f8573ffffffffffffffffffffffffffffffffffffffff1673ffffffffffffffffffffffffffffffffffffffff1681526020019081526020015f205f8473ffffffffffffffffffffffffffffffffffffffff1673ffffffffffffffffffffffffffffffffffffffff1681526020019081526020015f20819055508173ffffffffffffffffffffffffffffffffffffffff168373ffffffffffffffffffffffffffffffffffffffff167f8c5be1e5ebec7d5bd14f71427d1e84f3dd0314c0f7b2291e5b200ac8c7c3b9258360405161164a9190611ba1565b60405180910390a3505050565b5f73ffffffffffffffffffffffffffffffffffffffff168273ffffffffffffffffffffffffffffffffffffffff16036116c5576040517f08c379a00000000000000000000000000000000000000000000000000000000081526004016116bc906124f1565b60405180910390fd5b8060025f8282546116d69190611edb565b92505081905550805f5f8473ffffffffffffffffffffffffffffffffffffffff1673ffffffffffffffffffffffffffffffffffffffff1681526020019081526020015f205f8282546117289190611edb565b925050819055508173ffffffffffffffffffffffffffffffffffffffff165f73ffffffffffffffffffffffffffffffffffffffff167fddf252ad1be2c89b69c2b068fc378daa952ba7f163c4a11628f55a4df523b3ef8360405161178c9190611ba1565b60405180910390a35050565b5f60055f9054906101000a900473ffffffffffffffffffffffffffffffffffffffff1690508160055f6101000a81548173ffffffffffffffffffffffffffffffffffffffff021916908373ffffffffffffffffffffffffffffffffffffffff1602179055508173ffffffffffffffffffffffffffffffffffffffff168173ffffffffffffffffffffffffffffffffffffffff167f8be0079c531659141344cd1fd0a4f28419497f9722a3daafe3b4186f6b6457e060405160405180910390a35050565b5f81519050919050565b5f82825260208201905092915050565b8281835e5f83830152505050565b5f601f19601f8301169050919050565b5f61189d8261185b565b6118a78185611865565b93506118b7818560208601611875565b6118c081611883565b840191505092915050565b5f6020820190508181035f8301526118e38184611893565b905092915050565b5f604051905090565b5f5ffd5b5f5ffd5b5f73ffffffffffffffffffffffffffffffffffffffff82169050919050565b5f611925826118fc565b9050919050565b6119358161191b565b811461193f575f5ffd5b50565b5f813590506119508161192c565b92915050565b5f819050919050565b61196881611956565b8114611972575f5ffd5b50565b5f813590506119838161195f565b92915050565b5f5ffd5b5f5ffd5b7f4e487b71000000000000000000000000000000000000000000000000000000005f52604160045260245ffd5b6119c782611883565b810181811067ffffffffffffffff821117156119e6576119e5611991565b5b80604052505050565b5f6119f86118eb565b9050611a0482826119be565b919050565b5f67ffffffffffffffff821115611a2357611a22611991565b5b611a2c82611883565b9050602081019050919050565b828183375f83830152505050565b5f611a59611a5484611a09565b6119ef565b905082815260208101848484011115611a7557611a7461198d565b5b611a80848285611a39565b509392505050565b5f82601f830112611a9c57611a9b611989565b5b8135611aac848260208601611a47565b91505092915050565b5f5f5f60608486031215611acc57611acb6118f4565b5b5f611ad986828701611942565b9350506020611aea86828701611975565b925050604084013567ffffffffffffffff811115611b0b57611b0a6118f8565b5b611b1786828701611a88565b9150509250925092565b5f8115159050919050565b611b3581611b21565b82525050565b5f602082019050611b4e5f830184611b2c565b92915050565b5f5f60408385031215611b6a57611b696118f4565b5b5f611b7785828601611942565b9250506020611b8885828601611975565b9150509250929050565b611b9b81611956565b82525050565b5f602082019050611bb45f830184611b92565b92915050565b5f5f5f60608486031215611bd157611bd06118f4565b5b5f611bde86828701611942565b9350506020611bef86828701611942565b9250506040611c0086828701611975565b9150509250925092565b5f60ff82169050919050565b611c1f81611c0a565b82525050565b5f602082019050611c385f830184611c16565b92915050565b611c478161191b565b82525050565b5f602082019050611c605f830184611c3e565b92915050565b5f60208284031215611c7b57611c7a6118f4565b5b5f611c8884828501611975565b91505092915050565b5f60208284031215611ca657611ca56118f4565b5b5f611cb384828501611942565b91505092915050565b5f5f60408385031215611cd257611cd16118f4565b5b5f611cdf85828601611942565b9250506020611cf085828601611942565b9150509250929050565b7f4e487b71000000000000000000000000000000000000000000000000000000005f52602260045260245ffd5b5f6002820490506001821680611d3e57607f821691505b602082108103611d5157611d50611cfa565b5b50919050565b5f604082019050611d6a5f830185611b92565b8181036020830152611d7c8184611893565b90509392505050565b7f45524332303a207472616e7366657220616d6f756e74206578636565647320615f8201527f6c6c6f77616e6365000000000000000000000000000000000000000000000000602082015250565b5f611ddf602883611865565b9150611dea82611d85565b604082019050919050565b5f6020820190508181035f830152611e0c81611dd3565b9050919050565b7f4e487b71000000000000000000000000000000000000000000000000000000005f52601160045260245ffd5b5f611e4a82611956565b9150611e5583611956565b9250828203905081811115611e6d57611e6c611e13565b5b92915050565b7f4f776e61626c653a2063616c6c6572206973206e6f7420746865206f776e65725f82015250565b5f611ea7602083611865565b9150611eb282611e73565b602082019050919050565b5f6020820190508181035f830152611ed481611e9b565b9050919050565b5f611ee582611956565b9150611ef083611956565b9250828201905080821115611f0857611f07611e13565b5b92915050565b7f5377617020746f6b656e206e6f742073657400000000000000000000000000005f82015250565b5f611f42601283611865565b9150611f4d82611f0e565b602082019050919050565b5f6020820190508181035f830152611f6f81611f36565b9050919050565b5f606082019050611f895f830186611c3e565b611f966020830185611c3e565b611fa36040830184611b92565b949350505050565b611fb481611b21565b8114611fbe575f5ffd5b50565b5f81519050611fcf81611fab565b92915050565b5f60208284031215611fea57611fe96118f4565b5b5f611ff784828501611fc1565b91505092915050565b5f6040820190506120135f830185611b92565b6120206020830184611b92565b9392505050565b7f45524332303a2064656372656173656420616c6c6f77616e63652062656c6f775f8201527f207a65726f000000000000000000000000000000000000000000000000000000602082015250565b5f612081602583611865565b915061208c82612027565b604082019050919050565b5f6020820190508181035f8301526120ae81612075565b9050919050565b5f6120bf82611956565b91506120ca83611956565b92508282026120d881611956565b915082820484148315176120ef576120ee611e13565b5b5092915050565b7f4e487b71000000000000000000000000000000000000000000000000000000005f52601260045260245ffd5b5f61212d82611956565b915061213883611956565b925082612148576121476120f6565b5b828204905092915050565b7f4f776e61626c653a206e6577206f776e657220697320746865207a65726f20615f8201527f6464726573730000000000000000000000000000000000000000000000000000602082015250565b5f6121ad602683611865565b91506121b882612153565b604082019050919050565b5f6020820190508181035f8301526121da816121a1565b9050919050565b7f45524332303a207472616e736665722066726f6d20746865207a65726f2061645f8201527f6472657373000000000000000000000000000000000000000000000000000000602082015250565b5f61223b602583611865565b9150612246826121e1565b604082019050919050565b5f6020820190508181035f8301526122688161222f565b9050919050565b7f45524332303a207472616e7366657220746f20746865207a65726f20616464725f8201527f6573730000000000000000000000000000000000000000000000000000000000602082015250565b5f6122c9602383611865565b91506122d48261226f565b604082019050919050565b5f6020820190508181035f8301526122f6816122bd565b9050919050565b7f45524332303a207472616e7366657220616d6f756e74206578636565647320625f8201527f616c616e63650000000000000000000000000000000000000000000000000000602082015250565b5f612357602683611865565b9150612362826122fd565b604082019050919050565b5f6020820190508181035f8301526123848161234b565b9050919050565b7f45524332303a20617070726f76652066726f6d20746865207a65726f206164645f8201527f7265737300000000000000000000000000000000000000000000000000000000602082015250565b5f6123e5602483611865565b91506123f08261238b565b604082019050919050565b5f6020820190508181035f830152612412816123d9565b9050919050565b7f45524332303a20617070726f766520746f20746865207a65726f2061646472655f8201527f7373000000000000000000000000000000000000000000000000000000000000602082015250565b5f612473602283611865565b915061247e82612419565b604082019050919050565b5f6020820190508181035f8301526124a081612467565b9050919050565b7f45524332303a206d696e7420746f20746865207a65726f2061646472657373005f82015250565b5f6124db601f83611865565b91506124e6826124a7565b602082019050919050565b5f6020820190508181035f830152612508816124cf565b905091905056fea2646970667358221220565c8493bfcdb595cca3b478f190979df9ca77a78ed95cf141f2cc9cfa869fa164736f6c634300081c0033",
					"opcodes": "PUSH1 0x80 PUSH1 0x40 MSTORE PUSH2 0x12 PUSH2 0x19D PUSH1 0x20 SHL PUSH1 0x20 SHR JUMP JUMPDEST PUSH1 0xA PUSH2 0x1E SWAP2 SWAP1 PUSH2 0x51A JUMP JUMPDEST PUSH4 0x17D7840 PUSH2 0x2D SWAP2 SWAP1 PUSH2 0x564 JUMP JUMPDEST PUSH1 0x6 SSTORE PUSH4 0x1E13380 PUSH1 0x8 SSTORE PUSH1 0x2 PUSH1 0xA SSTORE PUSH2 0x4B PUSH2 0x19D PUSH1 0x20 SHL PUSH1 0x20 SHR JUMP JUMPDEST PUSH1 0xA PUSH2 0x57 SWAP2 SWAP1 PUSH2 0x51A JUMP JUMPDEST PUSH2 0x3E8 PUSH2 0x64 SWAP2 SWAP1 PUSH2 0x564 JUMP JUMPDEST PUSH1 0xB SSTORE CALLVALUE DUP1 ISZERO PUSH2 0x72 JUMPI PUSH0 PUSH0 REVERT JUMPDEST POP PUSH1 0x40 MLOAD PUSH2 0x2F56 CODESIZE SUB DUP1 PUSH2 0x2F56 DUP4 CODECOPY DUP2 DUP2 ADD PUSH1 0x40 MSTORE DUP2 ADD SWAP1 PUSH2 0x94 SWAP2 SWAP1 PUSH2 0x603 JUMP JUMPDEST PUSH1 0x40 MLOAD DUP1 PUSH1 0x40 ADD PUSH1 0x40 MSTORE DUP1 PUSH1 0x9 DUP2 MSTORE PUSH1 0x20 ADD PUSH32 0x43697479546F7563680000000000000000000000000000000000000000000000 DUP2 MSTORE POP PUSH1 0x40 MLOAD DUP1 PUSH1 0x40 ADD PUSH1 0x40 MSTORE DUP1 PUSH1 0x3 DUP2 MSTORE PUSH1 0x20 ADD PUSH32 0x4354540000000000000000000000000000000000000000000000000000000000 DUP2 MSTORE POP DUP2 PUSH1 0x3 SWAP1 DUP2 PUSH2 0x10F SWAP2 SWAP1 PUSH2 0x862 JUMP JUMPDEST POP DUP1 PUSH1 0x4 SWAP1 DUP2 PUSH2 0x11F SWAP2 SWAP1 PUSH2 0x862 JUMP JUMPDEST POP POP POP PUSH2 0x131 CALLER PUSH2 0x1A5 PUSH1 0x20 SHL PUSH1 0x20 SHR JUMP JUMPDEST DUP1 PUSH1 0x7 PUSH0 PUSH2 0x100 EXP DUP2 SLOAD DUP2 PUSH20 0xFFFFFFFFFFFFFFFFFFFFFFFFFFFFFFFFFFFFFFFF MUL NOT AND SWAP1 DUP4 PUSH20 0xFFFFFFFFFFFFFFFFFFFFFFFFFFFFFFFFFFFFFFFF AND MUL OR SWAP1 SSTORE POP PUSH1 0x8 SLOAD TIMESTAMP PUSH2 0x17F SWAP2 SWAP1 PUSH2 0x931 JUMP JUMPDEST PUSH1 0x9 DUP2 SWAP1 SSTORE POP PUSH2 0x197 CALLER PUSH1 0x6 SLOAD PUSH2 0x268 PUSH1 0x20 SHL PUSH1 0x20 SHR JUMP JUMPDEST POP PUSH2 0xA04 JUMP JUMPDEST PUSH0 PUSH1 0x12 SWAP1 POP SWAP1 JUMP JUMPDEST PUSH0 PUSH1 0x5 PUSH0 SWAP1 SLOAD SWAP1 PUSH2 0x100 EXP SWAP1 DIV PUSH20 0xFFFFFFFFFFFFFFFFFFFFFFFFFFFFFFFFFFFFFFFF AND SWAP1 POP DUP2 PUSH1 0x5 PUSH0 PUSH2 0x100 EXP DUP2 SLOAD DUP2 PUSH20 0xFFFFFFFFFFFFFFFFFFFFFFFFFFFFFFFFFFFFFFFF MUL NOT AND SWAP1 DUP4 PUSH20 0xFFFFFFFFFFFFFFFFFFFFFFFFFFFFFFFFFFFFFFFF AND MUL OR SWAP1 SSTORE POP DUP2 PUSH20 0xFFFFFFFFFFFFFFFFFFFFFFFFFFFFFFFFFFFFFFFF AND DUP2 PUSH20 0xFFFFFFFFFFFFFFFFFFFFFFFFFFFFFFFFFFFFFFFF AND PUSH32 0x8BE0079C531659141344CD1FD0A4F28419497F9722A3DAAFE3B4186F6B6457E0 PUSH1 0x40 MLOAD PUSH1 0x40 MLOAD DUP1 SWAP2 SUB SWAP1 LOG3 POP POP JUMP JUMPDEST PUSH0 PUSH20 0xFFFFFFFFFFFFFFFFFFFFFFFFFFFFFFFFFFFFFFFF AND DUP3 PUSH20 0xFFFFFFFFFFFFFFFFFFFFFFFFFFFFFFFFFFFFFFFF AND SUB PUSH2 0x2D6 JUMPI PUSH1 0x40 MLOAD PUSH32 0x8C379A000000000000000000000000000000000000000000000000000000000 DUP2 MSTORE PUSH1 0x4 ADD PUSH2 0x2CD SWAP1 PUSH2 0x9BE JUMP JUMPDEST PUSH1 0x40 MLOAD DUP1 SWAP2 SUB SWAP1 REVERT JUMPDEST DUP1 PUSH1 0x2 PUSH0 DUP3 DUP3 SLOAD PUSH2 0x2E7 SWAP2 SWAP1 PUSH2 0x931 JUMP JUMPDEST SWAP3 POP POP DUP2 SWAP1 SSTORE POP DUP1 PUSH0 PUSH0 DUP5 PUSH20 0xFFFFFFFFFFFFFFFFFFFFFFFFFFFFFFFFFFFFFFFF AND PUSH20 0xFFFFFFFFFFFFFFFFFFFFFFFFFFFFFFFFFFFFFFFF AND DUP2 MSTORE PUSH1 0x20 ADD SWAP1 DUP2 MSTORE PUSH1 0x20 ADD PUSH0 KECCAK256 PUSH0 DUP3 DUP3 SLOAD PUSH2 0x339 SWAP2 SWAP1 PUSH2 0x931 JUMP JUMPDEST SWAP3 POP POP DUP2 SWAP1 SSTORE POP DUP2 PUSH20 0xFFFFFFFFFFFFFFFFFFFFFFFFFFFFFFFFFFFFFFFF AND PUSH0 PUSH20 0xFFFFFFFFFFFFFFFFFFFFFFFFFFFFFFFFFFFFFFFF AND PUSH32 0xDDF252AD1BE2C89B69C2B068FC378DAA952BA7F163C4A11628F55A4DF523B3EF DUP4 PUSH1 0x40 MLOAD PUSH2 0x39D SWAP2 SWAP1 PUSH2 0x9EB JUMP JUMPDEST PUSH1 0x40 MLOAD DUP1 SWAP2 SUB SWAP1 LOG3 POP POP JUMP JUMPDEST PUSH32 0x4E487B7100000000000000000000000000000000000000000000000000000000 PUSH0 MSTORE PUSH1 0x11 PUSH1 0x4 MSTORE PUSH1 0x24 PUSH0 REVERT JUMPDEST PUSH0 DUP2 PUSH1 0x1 SHR SWAP1 POP SWAP2 SWAP1 POP JUMP JUMPDEST PUSH0 PUSH0 DUP3 SWAP2 POP DUP4 SWAP1 POP JUMPDEST PUSH1 0x1 DUP6 GT ISZERO PUSH2 0x42B JUMPI DUP1 DUP7 DIV DUP2 GT ISZERO PUSH2 0x407 JUMPI PUSH2 0x406 PUSH2 0x3A9 JUMP JUMPDEST JUMPDEST PUSH1 0x1 DUP6 AND ISZERO PUSH2 0x416 JUMPI DUP1 DUP3 MUL SWAP2 POP JUMPDEST DUP1 DUP2 MUL SWAP1 POP PUSH2 0x424 DUP6 PUSH2 0x3D6 JUMP JUMPDEST SWAP5 POP PUSH2 0x3EB JUMP JUMPDEST SWAP5 POP SWAP5 SWAP3 POP POP POP JUMP JUMPDEST PUSH0 DUP3 PUSH2 0x443 JUMPI PUSH1 0x1 SWAP1 POP PUSH2 0x4FE JUMP JUMPDEST DUP2 PUSH2 0x450 JUMPI PUSH0 SWAP1 POP PUSH2 0x4FE JUMP JUMPDEST DUP2 PUSH1 0x1 DUP2 EQ PUSH2 0x466 JUMPI PUSH1 0x2 DUP2 EQ PUSH2 0x470 JUMPI PUSH2 0x49F JUMP JUMPDEST PUSH1 0x1 SWAP2 POP POP PUSH2 0x4FE JUMP JUMPDEST PUSH1 0xFF DUP5 GT ISZERO PUSH2 0x482 JUMPI PUSH2 0x481 PUSH2 0x3A9 JUMP JUMPDEST JUMPDEST DUP4 PUSH1 0x2 EXP SWAP2 POP DUP5 DUP3 GT ISZERO PUSH2 0x499 JUMPI PUSH2 0x498 PUSH2 0x3A9 JUMP JUMPDEST JUMPDEST POP PUSH2 0x4FE JUMP JUMPDEST POP PUSH1 0x20 DUP4 LT PUSH2 0x133 DUP4 LT AND PUSH1 0x4E DUP5 LT PUSH1 0xB DUP5 LT AND OR ISZERO PUSH2 0x4D4 JUMPI DUP3 DUP3 EXP SWAP1 POP DUP4 DUP2 GT ISZERO PUSH2 0x4CF JUMPI PUSH2 0x4CE PUSH2 0x3A9 JUMP JUMPDEST JUMPDEST PUSH2 0x4FE JUMP JUMPDEST PUSH2 0x4E1 DUP5 DUP5 DUP5 PUSH1 0x1 PUSH2 0x3E2 JUMP JUMPDEST SWAP3 POP SWAP1 POP DUP2 DUP5 DIV DUP2 GT ISZERO PUSH2 0x4F8 JUMPI PUSH2 0x4F7 PUSH2 0x3A9 JUMP JUMPDEST JUMPDEST DUP2 DUP2 MUL SWAP1 POP JUMPDEST SWAP4 SWAP3 POP POP POP JUMP JUMPDEST PUSH0 DUP2 SWAP1 POP SWAP2 SWAP1 POP JUMP JUMPDEST PUSH0 PUSH1 0xFF DUP3 AND SWAP1 POP SWAP2 SWAP1 POP JUMP JUMPDEST PUSH0 PUSH2 0x524 DUP3 PUSH2 0x505 JUMP JUMPDEST SWAP2 POP PUSH2 0x52F DUP4 PUSH2 0x50E JUMP JUMPDEST SWAP3 POP PUSH2 0x55C PUSH32 0xFFFFFFFFFFFFFFFFFFFFFFFFFFFFFFFFFFFFFFFFFFFFFFFFFFFFFFFFFFFFFFFF DUP5 DUP5 PUSH2 0x434 JUMP JUMPDEST SWAP1 POP SWAP3 SWAP2 POP POP JUMP JUMPDEST PUSH0 PUSH2 0x56E DUP3 PUSH2 0x505 JUMP JUMPDEST SWAP2 POP PUSH2 0x579 DUP4 PUSH2 0x505 JUMP JUMPDEST SWAP3 POP DUP3 DUP3 MUL PUSH2 0x587 DUP2 PUSH2 0x505 JUMP JUMPDEST SWAP2 POP DUP3 DUP3 DIV DUP5 EQ DUP4 ISZERO OR PUSH2 0x59E JUMPI PUSH2 0x59D PUSH2 0x3A9 JUMP JUMPDEST JUMPDEST POP SWAP3 SWAP2 POP POP JUMP JUMPDEST PUSH0 PUSH0 REVERT JUMPDEST PUSH0 PUSH20 0xFFFFFFFFFFFFFFFFFFFFFFFFFFFFFFFFFFFFFFFF DUP3 AND SWAP1 POP SWAP2 SWAP1 POP JUMP JUMPDEST PUSH0 PUSH2 0x5D2 DUP3 PUSH2 0x5A9 JUMP JUMPDEST SWAP1 POP SWAP2 SWAP1 POP JUMP JUMPDEST PUSH2 0x5E2 DUP2 PUSH2 0x5C8 JUMP JUMPDEST DUP2 EQ PUSH2 0x5EC JUMPI PUSH0 PUSH0 REVERT JUMPDEST POP JUMP JUMPDEST PUSH0 DUP2 MLOAD SWAP1 POP PUSH2 0x5FD DUP2 PUSH2 0x5D9 JUMP JUMPDEST SWAP3 SWAP2 POP POP JUMP JUMPDEST PUSH0 PUSH1 0x20 DUP3 DUP5 SUB SLT ISZERO PUSH2 0x618 JUMPI PUSH2 0x617 PUSH2 0x5A5 JUMP JUMPDEST JUMPDEST PUSH0 PUSH2 0x625 DUP5 DUP3 DUP6 ADD PUSH2 0x5EF JUMP JUMPDEST SWAP2 POP POP SWAP3 SWAP2 POP POP JUMP JUMPDEST PUSH0 DUP2 MLOAD SWAP1 POP SWAP2 SWAP1 POP JUMP JUMPDEST PUSH32 0x4E487B7100000000000000000000000000000000000000000000000000000000 PUSH0 MSTORE PUSH1 0x41 PUSH1 0x4 MSTORE PUSH1 0x24 PUSH0 REVERT JUMPDEST PUSH32 0x4E487B7100000000000000000000000000000000000000000000000000000000 PUSH0 MSTORE PUSH1 0x22 PUSH1 0x4 MSTORE PUSH1 0x24 PUSH0 REVERT JUMPDEST PUSH0 PUSH1 0x2 DUP3 DIV SWAP1 POP PUSH1 0x1 DUP3 AND DUP1 PUSH2 0x6A9 JUMPI PUSH1 0x7F DUP3 AND SWAP2 POP JUMPDEST PUSH1 0x20 DUP3 LT DUP2 SUB PUSH2 0x6BC JUMPI PUSH2 0x6BB PUSH2 0x665 JUMP JUMPDEST JUMPDEST POP SWAP2 SWAP1 POP JUMP JUMPDEST PUSH0 DUP2 SWAP1 POP DUP2 PUSH0 MSTORE PUSH1 0x20 PUSH0 KECCAK256 SWAP1 POP SWAP2 SWAP1 POP JUMP JUMPDEST PUSH0 PUSH1 0x20 PUSH1 0x1F DUP4 ADD DIV SWAP1 POP SWAP2 SWAP1 POP JUMP JUMPDEST PUSH0 DUP3 DUP3 SHL SWAP1 POP SWAP3 SWAP2 POP POP JUMP JUMPDEST PUSH0 PUSH1 0x8 DUP4 MUL PUSH2 0x71E PUSH32 0xFFFFFFFFFFFFFFFFFFFFFFFFFFFFFFFFFFFFFFFFFFFFFFFFFFFFFFFFFFFFFFFF DUP3 PUSH2 0x6E3 JUMP JUMPDEST PUSH2 0x728 DUP7 DUP4 PUSH2 0x6E3 JUMP JUMPDEST SWAP6 POP DUP1 NOT DUP5 AND SWAP4 POP DUP1 DUP7 AND DUP5 OR SWAP3 POP POP POP SWAP4 SWAP3 POP POP POP JUMP JUMPDEST PUSH0 DUP2 SWAP1 POP SWAP2 SWAP1 POP JUMP JUMPDEST PUSH0 PUSH2 0x763 PUSH2 0x75E PUSH2 0x759 DUP5 PUSH2 0x505 JUMP JUMPDEST PUSH2 0x740 JUMP JUMPDEST PUSH2 0x505 JUMP JUMPDEST SWAP1 POP SWAP2 SWAP1 POP JUMP JUMPDEST PUSH0 DUP2 SWAP1 POP SWAP2 SWAP1 POP JUMP JUMPDEST PUSH2 0x77C DUP4 PUSH2 0x749 JUMP JUMPDEST PUSH2 0x790 PUSH2 0x788 DUP3 PUSH2 0x76A JUMP JUMPDEST DUP5 DUP5 SLOAD PUSH2 0x6EF JUMP JUMPDEST DUP3 SSTORE POP POP POP POP JUMP JUMPDEST PUSH0 PUSH0 SWAP1 POP SWAP1 JUMP JUMPDEST PUSH2 0x7A7 PUSH2 0x798 JUMP JUMPDEST PUSH2 0x7B2 DUP2 DUP5 DUP5 PUSH2 0x773 JUMP JUMPDEST POP POP POP JUMP JUMPDEST JUMPDEST DUP2 DUP2 LT ISZERO PUSH2 0x7D5 JUMPI PUSH2 0x7CA PUSH0 DUP3 PUSH2 0x79F JUMP JUMPDEST PUSH1 0x1 DUP2 ADD SWAP1 POP PUSH2 0x7B8 JUMP JUMPDEST POP POP JUMP JUMPDEST PUSH1 0x1F DUP3 GT ISZERO PUSH2 0x81A JUMPI PUSH2 0x7EB DUP2 PUSH2 0x6C2 JUMP JUMPDEST PUSH2 0x7F4 DUP5 PUSH2 0x6D4 JUMP JUMPDEST DUP2 ADD PUSH1 0x20 DUP6 LT ISZERO PUSH2 0x803 JUMPI DUP2 SWAP1 POP JUMPDEST PUSH2 0x817 PUSH2 0x80F DUP6 PUSH2 0x6D4 JUMP JUMPDEST DUP4 ADD DUP3 PUSH2 0x7B7 JUMP JUMPDEST POP POP JUMPDEST POP POP POP JUMP JUMPDEST PUSH0 DUP3 DUP3 SHR SWAP1 POP SWAP3 SWAP2 POP POP JUMP JUMPDEST PUSH0 PUSH2 0x83A PUSH0 NOT DUP5 PUSH1 0x8 MUL PUSH2 0x81F JUMP JUMPDEST NOT DUP1 DUP4 AND SWAP2 POP POP SWAP3 SWAP2 POP POP JUMP JUMPDEST PUSH0 PUSH2 0x852 DUP4 DUP4 PUSH2 0x82B JUMP JUMPDEST SWAP2 POP DUP3 PUSH1 0x2 MUL DUP3 OR SWAP1 POP SWAP3 SWAP2 POP POP JUMP JUMPDEST PUSH2 0x86B DUP3 PUSH2 0x62E JUMP JUMPDEST PUSH8 0xFFFFFFFFFFFFFFFF DUP2 GT ISZERO PUSH2 0x884 JUMPI PUSH2 0x883 PUSH2 0x638 JUMP JUMPDEST JUMPDEST PUSH2 0x88E DUP3 SLOAD PUSH2 0x692 JUMP JUMPDEST PUSH2 0x899 DUP3 DUP3 DUP6 PUSH2 0x7D9 JUMP JUMPDEST PUSH0 PUSH1 0x20 SWAP1 POP PUSH1 0x1F DUP4 GT PUSH1 0x1 DUP2 EQ PUSH2 0x8CA JUMPI PUSH0 DUP5 ISZERO PUSH2 0x8B8 JUMPI DUP3 DUP8 ADD MLOAD SWAP1 POP JUMPDEST PUSH2 0x8C2 DUP6 DUP3 PUSH2 0x847 JUMP JUMPDEST DUP7 SSTORE POP PUSH2 0x929 JUMP JUMPDEST PUSH1 0x1F NOT DUP5 AND PUSH2 0x8D8 DUP7 PUSH2 0x6C2 JUMP JUMPDEST PUSH0 JUMPDEST DUP3 DUP2 LT ISZERO PUSH2 0x8FF JUMPI DUP5 DUP10 ADD MLOAD DUP3 SSTORE PUSH1 0x1 DUP3 ADD SWAP2 POP PUSH1 0x20 DUP6 ADD SWAP5 POP PUSH1 0x20 DUP2 ADD SWAP1 POP PUSH2 0x8DA JUMP JUMPDEST DUP7 DUP4 LT ISZERO PUSH2 0x91C JUMPI DUP5 DUP10 ADD MLOAD PUSH2 0x918 PUSH1 0x1F DUP10 AND DUP3 PUSH2 0x82B JUMP JUMPDEST DUP4 SSTORE POP JUMPDEST PUSH1 0x1 PUSH1 0x2 DUP9 MUL ADD DUP9 SSTORE POP POP POP JUMPDEST POP POP POP POP POP POP JUMP JUMPDEST PUSH0 PUSH2 0x93B DUP3 PUSH2 0x505 JUMP JUMPDEST SWAP2 POP PUSH2 0x946 DUP4 PUSH2 0x505 JUMP JUMPDEST SWAP3 POP DUP3 DUP3 ADD SWAP1 POP DUP1 DUP3 GT ISZERO PUSH2 0x95E JUMPI PUSH2 0x95D PUSH2 0x3A9 JUMP JUMPDEST JUMPDEST SWAP3 SWAP2 POP POP JUMP JUMPDEST PUSH0 DUP3 DUP3 MSTORE PUSH1 0x20 DUP3 ADD SWAP1 POP SWAP3 SWAP2 POP POP JUMP JUMPDEST PUSH32 0x45524332303A206D696E7420746F20746865207A65726F206164647265737300 PUSH0 DUP3 ADD MSTORE POP JUMP JUMPDEST PUSH0 PUSH2 0x9A8 PUSH1 0x1F DUP4 PUSH2 0x964 JUMP JUMPDEST SWAP2 POP PUSH2 0x9B3 DUP3 PUSH2 0x974 JUMP JUMPDEST PUSH1 0x20 DUP3 ADD SWAP1 POP SWAP2 SWAP1 POP JUMP JUMPDEST PUSH0 PUSH1 0x20 DUP3 ADD SWAP1 POP DUP2 DUP2 SUB PUSH0 DUP4 ADD MSTORE PUSH2 0x9D5 DUP2 PUSH2 0x99C JUMP JUMPDEST SWAP1 POP SWAP2 SWAP1 POP JUMP JUMPDEST PUSH2 0x9E5 DUP2 PUSH2 0x505 JUMP JUMPDEST DUP3 MSTORE POP POP JUMP JUMPDEST PUSH0 PUSH1 0x20 DUP3 ADD SWAP1 POP PUSH2 0x9FE PUSH0 DUP4 ADD DUP5 PUSH2 0x9DC JUMP JUMPDEST SWAP3 SWAP2 POP POP JUMP JUMPDEST PUSH2 0x2545 DUP1 PUSH2 0xA11 PUSH0 CODECOPY PUSH0 RETURN INVALID PUSH1 0x80 PUSH1 0x40 MSTORE CALLVALUE DUP1 ISZERO PUSH2 0xF JUMPI PUSH0 PUSH0 REVERT JUMPDEST POP PUSH1 0x4 CALLDATASIZE LT PUSH2 0x1CD JUMPI PUSH0 CALLDATALOAD PUSH1 0xE0 SHR DUP1 PUSH4 0x715018A6 GT PUSH2 0x102 JUMPI DUP1 PUSH4 0xB851B7CA GT PUSH2 0xA0 JUMPI DUP1 PUSH4 0xE42D0AAC GT PUSH2 0x6F JUMPI DUP1 PUSH4 0xE42D0AAC EQ PUSH2 0x56D JUMPI DUP1 PUSH4 0xE6674A9A EQ PUSH2 0x589 JUMPI DUP1 PUSH4 0xE7608AC1 EQ PUSH2 0x5A7 JUMPI DUP1 PUSH4 0xF2FDE38B EQ PUSH2 0x5B1 JUMPI PUSH2 0x1CD JUMP JUMPDEST DUP1 PUSH4 0xB851B7CA EQ PUSH2 0x4E5 JUMPI DUP1 PUSH4 0xBEE693D2 EQ PUSH2 0x501 JUMPI DUP1 PUSH4 0xDC73E49C EQ PUSH2 0x51F JUMPI DUP1 PUSH4 0xDD62ED3E EQ PUSH2 0x53D JUMPI PUSH2 0x1CD JUMP JUMPDEST DUP1 PUSH4 0xA114398D GT PUSH2 0xDC JUMPI DUP1 PUSH4 0xA114398D EQ PUSH2 0x425 JUMPI DUP1 PUSH4 0xA457C2D7 EQ PUSH2 0x455 JUMPI DUP1 PUSH4 0xA9059CBB EQ PUSH2 0x485 JUMPI DUP1 PUSH4 0xB665D324 EQ PUSH2 0x4B5 JUMPI PUSH2 0x1CD JUMP JUMPDEST DUP1 PUSH4 0x715018A6 EQ PUSH2 0x3DF JUMPI DUP1 PUSH4 0x8DA5CB5B EQ PUSH2 0x3E9 JUMPI DUP1 PUSH4 0x95D89B41 EQ PUSH2 0x407 JUMPI PUSH2 0x1CD JUMP JUMPDEST DUP1 PUSH4 0x38FE91E1 GT PUSH2 0x16F JUMPI DUP1 PUSH4 0x61D027B3 GT PUSH2 0x149 JUMPI DUP1 PUSH4 0x61D027B3 EQ PUSH2 0x343 JUMPI DUP1 PUSH4 0x674D4B07 EQ PUSH2 0x361 JUMPI DUP1 PUSH4 0x6A47AA06 EQ PUSH2 0x391 JUMPI DUP1 PUSH4 0x70A08231 EQ PUSH2 0x3AF JUMPI PUSH2 0x1CD JUMP JUMPDEST DUP1 PUSH4 0x38FE91E1 EQ PUSH2 0x2D9 JUMPI DUP1 PUSH4 0x39509351 EQ PUSH2 0x2F7 JUMPI DUP1 PUSH4 0x40C10F19 EQ PUSH2 0x327 JUMPI PUSH2 0x1CD JUMP JUMPDEST DUP1 PUSH4 0x18160DDD GT PUSH2 0x1AB JUMPI DUP1 PUSH4 0x18160DDD EQ PUSH2 0x24F JUMPI DUP1 PUSH4 0x228CB733 EQ PUSH2 0x26D JUMPI DUP1 PUSH4 0x23B872DD EQ PUSH2 0x28B JUMPI DUP1 PUSH4 0x313CE567 EQ PUSH2 0x2BB JUMPI PUSH2 0x1CD JUMP JUMPDEST DUP1 PUSH4 0x6FDDE03 EQ PUSH2 0x1D1 JUMPI DUP1 PUSH4 0x818F44B EQ PUSH2 0x1EF JUMPI DUP1 PUSH4 0x95EA7B3 EQ PUSH2 0x21F JUMPI JUMPDEST PUSH0 PUSH0 REVERT JUMPDEST PUSH2 0x1D9 PUSH2 0x5CD JUMP JUMPDEST PUSH1 0x40 MLOAD PUSH2 0x1E6 SWAP2 SWAP1 PUSH2 0x18CB JUMP JUMPDEST PUSH1 0x40 MLOAD DUP1 SWAP2 SUB SWAP1 RETURN JUMPDEST PUSH2 0x209 PUSH1 0x4 DUP1 CALLDATASIZE SUB DUP2 ADD SWAP1 PUSH2 0x204 SWAP2 SWAP1 PUSH2 0x1AB5 JUMP JUMPDEST PUSH2 0x65D JUMP JUMPDEST PUSH1 0x40 MLOAD PUSH2 0x216 SWAP2 SWAP1 PUSH2 0x1B3B JUMP JUMPDEST PUSH1 0x40 MLOAD DUP1 SWAP2 SUB SWAP1 RETURN JUMPDEST PUSH2 0x239 PUSH1 0x4 DUP1 CALLDATASIZE SUB DUP2 ADD SWAP1 PUSH2 0x234 SWAP2 SWAP1 PUSH2 0x1B54 JUMP JUMPDEST PUSH2 0x6DB JUMP JUMPDEST PUSH1 0x40 MLOAD PUSH2 0x246 SWAP2 SWAP1 PUSH2 0x1B3B JUMP JUMPDEST PUSH1 0x40 MLOAD DUP1 SWAP2 SUB SWAP1 RETURN JUMPDEST PUSH2 0x257 PUSH2 0x6F8 JUMP JUMPDEST PUSH1 0x40 MLOAD PUSH2 0x264 SWAP2 SWAP1 PUSH2 0x1BA1 JUMP JUMPDEST PUSH1 0x40 MLOAD DUP1 SWAP2 SUB SWAP1 RETURN JUMPDEST PUSH2 0x275 PUSH2 0x701 JUMP JUMPDEST PUSH1 0x40 MLOAD PUSH2 0x282 SWAP2 SWAP1 PUSH2 0x1BA1 JUMP JUMPDEST PUSH1 0x40 MLOAD DUP1 SWAP2 SUB SWAP1 RETURN JUMPDEST PUSH2 0x2A5 PUSH1 0x4 DUP1 CALLDATASIZE SUB DUP2 ADD SWAP1 PUSH2 0x2A0 SWAP2 SWAP1 PUSH2 0x1BBA JUMP JUMPDEST PUSH2 0x707 JUMP JUMPDEST PUSH1 0x40 MLOAD PUSH2 0x2B2 SWAP2 SWAP1 PUSH2 0x1B3B JUMP JUMPDEST PUSH1 0x40 MLOAD DUP1 SWAP2 SUB SWAP1 RETURN JUMPDEST PUSH2 0x2C3 PUSH2 0x802 JUMP JUMPDEST PUSH1 0x40 MLOAD PUSH2 0x2D0 SWAP2 SWAP1 PUSH2 0x1C25 JUMP JUMPDEST PUSH1 0x40 MLOAD DUP1 SWAP2 SUB SWAP1 RETURN JUMPDEST PUSH2 0x2E1 PUSH2 0x80A JUMP JUMPDEST PUSH1 0x40 MLOAD PUSH2 0x2EE SWAP2 SWAP1 PUSH2 0x1BA1 JUMP JUMPDEST PUSH1 0x40 MLOAD DUP1 SWAP2 SUB SWAP1 RETURN JUMPDEST PUSH2 0x311 PUSH1 0x4 DUP1 CALLDATASIZE SUB DUP2 ADD SWAP1 PUSH2 0x30C SWAP2 SWAP1 PUSH2 0x1B54 JUMP JUMPDEST PUSH2 0x88E JUMP JUMPDEST PUSH1 0x40 MLOAD PUSH2 0x31E SWAP2 SWAP1 PUSH2 0x1B3B JUMP JUMPDEST PUSH1 0x40 MLOAD DUP1 SWAP2 SUB SWAP1 RETURN JUMPDEST PUSH2 0x341 PUSH1 0x4 DUP1 CALLDATASIZE SUB DUP2 ADD SWAP1 PUSH2 0x33C SWAP2 SWAP1 PUSH2 0x1B54 JUMP JUMPDEST PUSH2 0x935 JUMP JUMPDEST STOP JUMPDEST PUSH2 0x34B PUSH2 0x9B8 JUMP JUMPDEST PUSH1 0x40 MLOAD PUSH2 0x358 SWAP2 SWAP1 PUSH2 0x1C4D JUMP JUMPDEST PUSH1 0x40 MLOAD DUP1 SWAP2 SUB SWAP1 RETURN JUMPDEST PUSH2 0x37B PUSH1 0x4 DUP1 CALLDATASIZE SUB DUP2 ADD SWAP1 PUSH2 0x376 SWAP2 SWAP1 PUSH2 0x1C66 JUMP JUMPDEST PUSH2 0x9DD JUMP JUMPDEST PUSH1 0x40 MLOAD PUSH2 0x388 SWAP2 SWAP1 PUSH2 0x1BA1 JUMP JUMPDEST PUSH1 0x40 MLOAD DUP1 SWAP2 SUB SWAP1 RETURN JUMPDEST PUSH2 0x399 PUSH2 0x9E6 JUMP JUMPDEST PUSH1 0x40 MLOAD PUSH2 0x3A6 SWAP2 SWAP1 PUSH2 0x1BA1 JUMP JUMPDEST PUSH1 0x40 MLOAD DUP1 SWAP2 SUB SWAP1 RETURN JUMPDEST PUSH2 0x3C9 PUSH1 0x4 DUP1 CALLDATASIZE SUB DUP2 ADD SWAP1 PUSH2 0x3C4 SWAP2 SWAP1 PUSH2 0x1C91 JUMP JUMPDEST PUSH2 0x9EC JUMP JUMPDEST PUSH1 0x40 MLOAD PUSH2 0x3D6 SWAP2 SWAP1 PUSH2 0x1BA1 JUMP JUMPDEST PUSH1 0x40 MLOAD DUP1 SWAP2 SUB SWAP1 RETURN JUMPDEST PUSH2 0x3E7 PUSH2 0xA31 JUMP JUMPDEST STOP JUMPDEST PUSH2 0x3F1 PUSH2 0xAB1 JUMP JUMPDEST PUSH1 0x40 MLOAD PUSH2 0x3FE SWAP2 SWAP1 PUSH2 0x1C4D JUMP JUMPDEST PUSH1 0x40 MLOAD DUP1 SWAP2 SUB SWAP1 RETURN JUMPDEST PUSH2 0x40F PUSH2 0xAD9 JUMP JUMPDEST PUSH1 0x40 MLOAD PUSH2 0x41C SWAP2 SWAP1 PUSH2 0x18CB JUMP JUMPDEST PUSH1 0x40 MLOAD DUP1 SWAP2 SUB SWAP1 RETURN JUMPDEST PUSH2 0x43F PUSH1 0x4 DUP1 CALLDATASIZE SUB DUP2 ADD SWAP1 PUSH2 0x43A SWAP2 SWAP1 PUSH2 0x1B54 JUMP JUMPDEST PUSH2 0xB69 JUMP JUMPDEST PUSH1 0x40 MLOAD PUSH2 0x44C SWAP2 SWAP1 PUSH2 0x1B3B JUMP JUMPDEST PUSH1 0x40 MLOAD DUP1 SWAP2 SUB SWAP1 RETURN JUMPDEST PUSH2 0x46F PUSH1 0x4 DUP1 CALLDATASIZE SUB DUP2 ADD SWAP1 PUSH2 0x46A SWAP2 SWAP1 PUSH2 0x1B54 JUMP JUMPDEST PUSH2 0xD21 JUMP JUMPDEST PUSH1 0x40 MLOAD PUSH2 0x47C SWAP2 SWAP1 PUSH2 0x1B3B JUMP JUMPDEST PUSH1 0x40 MLOAD DUP1 SWAP2 SUB SWAP1 RETURN JUMPDEST PUSH2 0x49F PUSH1 0x4 DUP1 CALLDATASIZE SUB DUP2 ADD SWAP1 PUSH2 0x49A SWAP2 SWAP1 PUSH2 0x1B54 JUMP JUMPDEST PUSH2 0xE10 JUMP JUMPDEST PUSH1 0x40 MLOAD PUSH2 0x4AC SWAP2 SWAP1 PUSH2 0x1B3B JUMP JUMPDEST PUSH1 0x40 MLOAD DUP1 SWAP2 SUB SWAP1 RETURN JUMPDEST PUSH2 0x4CF PUSH1 0x4 DUP1 CALLDATASIZE SUB DUP2 ADD SWAP1 PUSH2 0x4CA SWAP2 SWAP1 PUSH2 0x1B54 JUMP JUMPDEST PUSH2 0xE2D JUMP JUMPDEST PUSH1 0x40 MLOAD PUSH2 0x4DC SWAP2 SWAP1 PUSH2 0x1B3B JUMP JUMPDEST PUSH1 0x40 MLOAD DUP1 SWAP2 SUB SWAP1 RETURN JUMPDEST PUSH2 0x4FF PUSH1 0x4 DUP1 CALLDATASIZE SUB DUP2 ADD SWAP1 PUSH2 0x4FA SWAP2 SWAP1 PUSH2 0x1C91 JUMP JUMPDEST PUSH2 0xE9C JUMP JUMPDEST STOP JUMPDEST PUSH2 0x509 PUSH2 0xF54 JUMP JUMPDEST PUSH1 0x40 MLOAD PUSH2 0x516 SWAP2 SWAP1 PUSH2 0x1BA1 JUMP JUMPDEST PUSH1 0x40 MLOAD DUP1 SWAP2 SUB SWAP1 RETURN JUMPDEST PUSH2 0x527 PUSH2 0xF5A JUMP JUMPDEST PUSH1 0x40 MLOAD PUSH2 0x534 SWAP2 SWAP1 PUSH2 0x1C4D JUMP JUMPDEST PUSH1 0x40 MLOAD DUP1 SWAP2 SUB SWAP1 RETURN JUMPDEST PUSH2 0x557 PUSH1 0x4 DUP1 CALLDATASIZE SUB DUP2 ADD SWAP1 PUSH2 0x552 SWAP2 SWAP1 PUSH2 0x1CBC JUMP JUMPDEST PUSH2 0xF7F JUMP JUMPDEST PUSH1 0x40 MLOAD PUSH2 0x564 SWAP2 SWAP1 PUSH2 0x1BA1 JUMP JUMPDEST PUSH1 0x40 MLOAD DUP1 SWAP2 SUB SWAP1 RETURN JUMPDEST PUSH2 0x587 PUSH1 0x4 DUP1 CALLDATASIZE SUB DUP2 ADD SWAP1 PUSH2 0x582 SWAP2 SWAP1 PUSH2 0x1B54 JUMP JUMPDEST PUSH2 0x1001 JUMP JUMPDEST STOP JUMPDEST PUSH2 0x591 PUSH2 0x1085 JUMP JUMPDEST PUSH1 0x40 MLOAD PUSH2 0x59E SWAP2 SWAP1 PUSH2 0x1BA1 JUMP JUMPDEST PUSH1 0x40 MLOAD DUP1 SWAP2 SUB SWAP1 RETURN JUMPDEST PUSH2 0x5AF PUSH2 0x108B JUMP JUMPDEST STOP JUMPDEST PUSH2 0x5CB PUSH1 0x4 DUP1 CALLDATASIZE SUB DUP2 ADD SWAP1 PUSH2 0x5C6 SWAP2 SWAP1 PUSH2 0x1C91 JUMP JUMPDEST PUSH2 0x1136 JUMP JUMPDEST STOP JUMPDEST PUSH1 0x60 PUSH1 0x3 DUP1 SLOAD PUSH2 0x5DC SWAP1 PUSH2 0x1D27 JUMP JUMPDEST DUP1 PUSH1 0x1F ADD PUSH1 0x20 DUP1 SWAP2 DIV MUL PUSH1 0x20 ADD PUSH1 0x40 MLOAD SWAP1 DUP2 ADD PUSH1 0x40 MSTORE DUP1 SWAP3 SWAP2 SWAP1 DUP2 DUP2 MSTORE PUSH1 0x20 ADD DUP3 DUP1 SLOAD PUSH2 0x608 SWAP1 PUSH2 0x1D27 JUMP JUMPDEST DUP1 ISZERO PUSH2 0x653 JUMPI DUP1 PUSH1 0x1F LT PUSH2 0x62A JUMPI PUSH2 0x100 DUP1 DUP4 SLOAD DIV MUL DUP4 MSTORE SWAP2 PUSH1 0x20 ADD SWAP2 PUSH2 0x653 JUMP JUMPDEST DUP3 ADD SWAP2 SWAP1 PUSH0 MSTORE PUSH1 0x20 PUSH0 KECCAK256 SWAP1 JUMPDEST DUP2 SLOAD DUP2 MSTORE SWAP1 PUSH1 0x1 ADD SWAP1 PUSH1 0x20 ADD DUP1 DUP4 GT PUSH2 0x636 JUMPI DUP3 SWAP1 SUB PUSH1 0x1F AND DUP3 ADD SWAP2 JUMPDEST POP POP POP POP POP SWAP1 POP SWAP1 JUMP JUMPDEST PUSH0 PUSH2 0x669 CALLER DUP6 DUP6 PUSH2 0x1225 JUMP JUMPDEST DUP4 PUSH20 0xFFFFFFFFFFFFFFFFFFFFFFFFFFFFFFFFFFFFFFFF AND CALLER PUSH20 0xFFFFFFFFFFFFFFFFFFFFFFFFFFFFFFFFFFFFFFFF AND PUSH32 0xB6AA398652C861E442761200431647F8622C16488A180E5354301CDCFB33715 DUP6 DUP6 PUSH1 0x40 MLOAD PUSH2 0x6C8 SWAP3 SWAP2 SWAP1 PUSH2 0x1D57 JUMP JUMPDEST PUSH1 0x40 MLOAD DUP1 SWAP2 SUB SWAP1 LOG3 PUSH1 0x1 SWAP1 POP SWAP4 SWAP3 POP POP POP JUMP JUMPDEST PUSH0 PUSH2 0x6EE PUSH2 0x6E7 PUSH2 0x148D JUMP JUMPDEST DUP5 DUP5 PUSH2 0x1494 JUMP JUMPDEST PUSH1 0x1 SWAP1 POP SWAP3 SWAP2 POP POP JUMP JUMPDEST PUSH0 PUSH1 0x2 SLOAD SWAP1 POP SWAP1 JUMP JUMPDEST PUSH1 0xB SLOAD DUP2 JUMP JUMPDEST PUSH0 PUSH2 0x713 DUP5 DUP5 DUP5 PUSH2 0x1225 JUMP JUMPDEST PUSH0 PUSH1 0x1 PUSH0 DUP7 PUSH20 0xFFFFFFFFFFFFFFFFFFFFFFFFFFFFFFFFFFFFFFFF AND PUSH20 0xFFFFFFFFFFFFFFFFFFFFFFFFFFFFFFFFFFFFFFFF AND DUP2 MSTORE PUSH1 0x20 ADD SWAP1 DUP2 MSTORE PUSH1 0x20 ADD PUSH0 KECCAK256 PUSH0 PUSH2 0x75A PUSH2 0x148D JUMP JUMPDEST PUSH20 0xFFFFFFFFFFFFFFFFFFFFFFFFFFFFFFFFFFFFFFFF AND PUSH20 0xFFFFFFFFFFFFFFFFFFFFFFFFFFFFFFFFFFFFFFFF AND DUP2 MSTORE PUSH1 0x20 ADD SWAP1 DUP2 MSTORE PUSH1 0x20 ADD PUSH0 KECCAK256 SLOAD SWAP1 POP DUP3 DUP2 LT ISZERO PUSH2 0x7D9 JUMPI PUSH1 0x40 MLOAD PUSH32 0x8C379A000000000000000000000000000000000000000000000000000000000 DUP2 MSTORE PUSH1 0x4 ADD PUSH2 0x7D0 SWAP1 PUSH2 0x1DF5 JUMP JUMPDEST PUSH1 0x40 MLOAD DUP1 SWAP2 SUB SWAP1 REVERT JUMPDEST PUSH2 0x7F6 DUP6 PUSH2 0x7E5 PUSH2 0x148D JUMP JUMPDEST DUP6 DUP5 PUSH2 0x7F1 SWAP2 SWAP1 PUSH2 0x1E40 JUMP JUMPDEST PUSH2 0x1494 JUMP JUMPDEST PUSH1 0x1 SWAP2 POP POP SWAP4 SWAP3 POP POP POP JUMP JUMPDEST PUSH0 PUSH1 0x12 SWAP1 POP SWAP1 JUMP JUMPDEST PUSH0 CALLER PUSH20 0xFFFFFFFFFFFFFFFFFFFFFFFFFFFFFFFFFFFFFFFF AND PUSH2 0x82A PUSH2 0xAB1 JUMP JUMPDEST PUSH20 0xFFFFFFFFFFFFFFFFFFFFFFFFFFFFFFFFFFFFFFFF AND EQ PUSH2 0x880 JUMPI PUSH1 0x40 MLOAD PUSH32 0x8C379A000000000000000000000000000000000000000000000000000000000 DUP2 MSTORE PUSH1 0x4 ADD PUSH2 0x877 SWAP1 PUSH2 0x1EBD JUMP JUMPDEST PUSH1 0x40 MLOAD DUP1 SWAP2 SUB SWAP1 REVERT JUMPDEST PUSH2 0x889 CALLER PUSH2 0x9EC JUMP JUMPDEST SWAP1 POP SWAP1 JUMP JUMPDEST PUSH0 PUSH2 0x92B PUSH2 0x89A PUSH2 0x148D JUMP JUMPDEST DUP5 DUP5 PUSH1 0x1 PUSH0 PUSH2 0x8A7 PUSH2 0x148D JUMP JUMPDEST PUSH20 0xFFFFFFFFFFFFFFFFFFFFFFFFFFFFFFFFFFFFFFFF AND PUSH20 0xFFFFFFFFFFFFFFFFFFFFFFFFFFFFFFFFFFFFFFFF AND DUP2 MSTORE PUSH1 0x20 ADD SWAP1 DUP2 MSTORE PUSH1 0x20 ADD PUSH0 KECCAK256 PUSH0 DUP9 PUSH20 0xFFFFFFFFFFFFFFFFFFFFFFFFFFFFFFFFFFFFFFFF AND PUSH20 0xFFFFFFFFFFFFFFFFFFFFFFFFFFFFFFFFFFFFFFFF AND DUP2 MSTORE PUSH1 0x20 ADD SWAP1 DUP2 MSTORE PUSH1 0x20 ADD PUSH0 KECCAK256 SLOAD PUSH2 0x926 SWAP2 SWAP1 PUSH2 0x1EDB JUMP JUMPDEST PUSH2 0x1494 JUMP JUMPDEST PUSH1 0x1 SWAP1 POP SWAP3 SWAP2 POP POP JUMP JUMPDEST CALLER PUSH20 0xFFFFFFFFFFFFFFFFFFFFFFFFFFFFFFFFFFFFFFFF AND PUSH2 0x954 PUSH2 0xAB1 JUMP JUMPDEST PUSH20 0xFFFFFFFFFFFFFFFFFFFFFFFFFFFFFFFFFFFFFFFF AND EQ PUSH2 0x9AA JUMPI PUSH1 0x40 MLOAD PUSH32 0x8C379A000000000000000000000000000000000000000000000000000000000 DUP2 MSTORE PUSH1 0x4 ADD PUSH2 0x9A1 SWAP1 PUSH2 0x1EBD JUMP JUMPDEST PUSH1 0x40 MLOAD DUP1 SWAP2 SUB SWAP1 REVERT JUMPDEST PUSH2 0x9B4 DUP3 DUP3 PUSH2 0x1657 JUMP JUMPDEST POP POP JUMP JUMPDEST PUSH1 0x7 PUSH0 SWAP1 SLOAD SWAP1 PUSH2 0x100 EXP SWAP1 DIV PUSH20 0xFFFFFFFFFFFFFFFFFFFFFFFFFFFFFFFFFFFFFFFF AND DUP2 JUMP JUMPDEST PUSH0 DUP2 SWAP1 POP SWAP2 SWAP1 POP JUMP JUMPDEST PUSH1 0x8 SLOAD DUP2 JUMP JUMPDEST PUSH0 PUSH0 PUSH0 DUP4 PUSH20 0xFFFFFFFFFFFFFFFFFFFFFFFFFFFFFFFFFFFFFFFF AND PUSH20 0xFFFFFFFFFFFFFFFFFFFFFFFFFFFFFFFFFFFFFFFF AND DUP2 MSTORE PUSH1 0x20 ADD SWAP1 DUP2 MSTORE PUSH1 0x20 ADD PUSH0 KECCAK256 SLOAD SWAP1 POP SWAP2 SWAP1 POP JUMP JUMPDEST CALLER PUSH20 0xFFFFFFFFFFFFFFFFFFFFFFFFFFFFFFFFFFFFFFFF AND PUSH2 0xA50 PUSH2 0xAB1 JUMP JUMPDEST PUSH20 0xFFFFFFFFFFFFFFFFFFFFFFFFFFFFFFFFFFFFFFFF AND EQ PUSH2 0xAA6 JUMPI PUSH1 0x40 MLOAD PUSH32 0x8C379A000000000000000000000000000000000000000000000000000000000 DUP2 MSTORE PUSH1 0x4 ADD PUSH2 0xA9D SWAP1 PUSH2 0x1EBD JUMP JUMPDEST PUSH1 0x40 MLOAD DUP1 SWAP2 SUB SWAP1 REVERT JUMPDEST PUSH2 0xAAF PUSH0 PUSH2 0x1798 JUMP JUMPDEST JUMP JUMPDEST PUSH0 PUSH1 0x5 PUSH0 SWAP1 SLOAD SWAP1 PUSH2 0x100 EXP SWAP1 DIV PUSH20 0xFFFFFFFFFFFFFFFFFFFFFFFFFFFFFFFFFFFFFFFF AND SWAP1 POP SWAP1 JUMP JUMPDEST PUSH1 0x60 PUSH1 0x4 DUP1 SLOAD PUSH2 0xAE8 SWAP1 PUSH2 0x1D27 JUMP JUMPDEST DUP1 PUSH1 0x1F ADD PUSH1 0x20 DUP1 SWAP2 DIV MUL PUSH1 0x20 ADD PUSH1 0x40 MLOAD SWAP1 DUP2 ADD PUSH1 0x40 MSTORE DUP1 SWAP3 SWAP2 SWAP1 DUP2 DUP2 MSTORE PUSH1 0x20 ADD DUP3 DUP1 SLOAD PUSH2 0xB14 SWAP1 PUSH2 0x1D27 JUMP JUMPDEST DUP1 ISZERO PUSH2 0xB5F JUMPI DUP1 PUSH1 0x1F LT PUSH2 0xB36 JUMPI PUSH2 0x100 DUP1 DUP4 SLOAD DIV MUL DUP4 MSTORE SWAP2 PUSH1 0x20 ADD SWAP2 PUSH2 0xB5F JUMP JUMPDEST DUP3 ADD SWAP2 SWAP1 PUSH0 MSTORE PUSH1 0x20 PUSH0 KECCAK256 SWAP1 JUMPDEST DUP2 SLOAD DUP2 MSTORE SWAP1 PUSH1 0x1 ADD SWAP1 PUSH1 0x20 ADD DUP1 DUP4 GT PUSH2 0xB42 JUMPI DUP3 SWAP1 SUB PUSH1 0x1F AND DUP3 ADD SWAP2 JUMPDEST POP POP POP POP POP SWAP1 POP SWAP1 JUMP JUMPDEST PUSH0 PUSH0 PUSH20 0xFFFFFFFFFFFFFFFFFFFFFFFFFFFFFFFFFFFFFFFF AND PUSH1 0xC PUSH0 SWAP1 SLOAD SWAP1 PUSH2 0x100 EXP SWAP1 DIV PUSH20 0xFFFFFFFFFFFFFFFFFFFFFFFFFFFFFFFFFFFFFFFF AND PUSH20 0xFFFFFFFFFFFFFFFFFFFFFFFFFFFFFFFFFFFFFFFF AND SUB PUSH2 0xBF9 JUMPI PUSH1 0x40 MLOAD PUSH32 0x8C379A000000000000000000000000000000000000000000000000000000000 DUP2 MSTORE PUSH1 0x4 ADD PUSH2 0xBF0 SWAP1 PUSH2 0x1F58 JUMP JUMPDEST PUSH1 0x40 MLOAD DUP1 SWAP2 SUB SWAP1 REVERT JUMPDEST PUSH0 PUSH2 0xC03 DUP4 PUSH2 0x9DD JUMP JUMPDEST SWAP1 POP PUSH1 0xC PUSH0 SWAP1 SLOAD SWAP1 PUSH2 0x100 EXP SWAP1 DIV PUSH20 0xFFFFFFFFFFFFFFFFFFFFFFFFFFFFFFFFFFFFFFFF AND PUSH20 0xFFFFFFFFFFFFFFFFFFFFFFFFFFFFFFFFFFFFFFFF AND PUSH4 0x23B872DD CALLER ADDRESS DUP7 PUSH1 0x40 MLOAD DUP5 PUSH4 0xFFFFFFFF AND PUSH1 0xE0 SHL DUP2 MSTORE PUSH1 0x4 ADD PUSH2 0xC63 SWAP4 SWAP3 SWAP2 SWAP1 PUSH2 0x1F76 JUMP JUMPDEST PUSH1 0x20 PUSH1 0x40 MLOAD DUP1 DUP4 SUB DUP2 PUSH0 DUP8 GAS CALL ISZERO DUP1 ISZERO PUSH2 0xC7F JUMPI RETURNDATASIZE PUSH0 PUSH0 RETURNDATACOPY RETURNDATASIZE PUSH0 REVERT JUMPDEST POP POP POP POP PUSH1 0x40 MLOAD RETURNDATASIZE PUSH1 0x1F NOT PUSH1 0x1F DUP3 ADD AND DUP3 ADD DUP1 PUSH1 0x40 MSTORE POP DUP2 ADD SWAP1 PUSH2 0xCA3 SWAP2 SWAP1 PUSH2 0x1FD5 JUMP JUMPDEST POP PUSH2 0xCAF ADDRESS DUP6 DUP4 PUSH2 0x1225 JUMP JUMPDEST DUP4 PUSH20 0xFFFFFFFFFFFFFFFFFFFFFFFFFFFFFFFFFFFFFFFF AND CALLER PUSH20 0xFFFFFFFFFFFFFFFFFFFFFFFFFFFFFFFFFFFFFFFF AND PUSH32 0xFA2DDA1CC1B86E41239702756B13EFFBC1A092B5C57E3AD320FBE4F3B13FE235 DUP6 DUP5 PUSH1 0x40 MLOAD PUSH2 0xD0E SWAP3 SWAP2 SWAP1 PUSH2 0x2000 JUMP JUMPDEST PUSH1 0x40 MLOAD DUP1 SWAP2 SUB SWAP1 LOG3 PUSH1 0x1 SWAP2 POP POP SWAP3 SWAP2 POP POP JUMP JUMPDEST PUSH0 PUSH0 PUSH1 0x1 PUSH0 PUSH2 0xD2E PUSH2 0x148D JUMP JUMPDEST PUSH20 0xFFFFFFFFFFFFFFFFFFFFFFFFFFFFFFFFFFFFFFFF AND PUSH20 0xFFFFFFFFFFFFFFFFFFFFFFFFFFFFFFFFFFFFFFFF AND DUP2 MSTORE PUSH1 0x20 ADD SWAP1 DUP2 MSTORE PUSH1 0x20 ADD PUSH0 KECCAK256 PUSH0 DUP6 PUSH20 0xFFFFFFFFFFFFFFFFFFFFFFFFFFFFFFFFFFFFFFFF AND PUSH20 0xFFFFFFFFFFFFFFFFFFFFFFFFFFFFFFFFFFFFFFFF AND DUP2 MSTORE PUSH1 0x20 ADD SWAP1 DUP2 MSTORE PUSH1 0x20 ADD PUSH0 KECCAK256 SLOAD SWAP1 POP DUP3 DUP2 LT ISZERO PUSH2 0xDE8 JUMPI PUSH1 0x40 MLOAD PUSH32 0x8C379A000000000000000000000000000000000000000000000000000000000 DUP2 MSTORE PUSH1 0x4 ADD PUSH2 0xDDF SWAP1 PUSH2 0x2097 JUMP JUMPDEST PUSH1 0x40 MLOAD DUP1 SWAP2 SUB SWAP1 REVERT JUMPDEST PUSH2 0xE05 PUSH2 0xDF3 PUSH2 0x148D JUMP JUMPDEST DUP6 DUP6 DUP5 PUSH2 0xE00 SWAP2 SWAP1 PUSH2 0x1E40 JUMP JUMPDEST PUSH2 0x1494 JUMP JUMPDEST PUSH1 0x1 SWAP2 POP POP SWAP3 SWAP2 POP POP JUMP JUMPDEST PUSH0 PUSH2 0xE23 PUSH2 0xE1C PUSH2 0x148D JUMP JUMPDEST DUP5 DUP5 PUSH2 0x1225 JUMP JUMPDEST PUSH1 0x1 SWAP1 POP SWAP3 SWAP2 POP POP JUMP JUMPDEST PUSH0 PUSH0 PUSH1 0x64 PUSH1 0x2 DUP5 PUSH2 0xE3E SWAP2 SWAP1 PUSH2 0x20B5 JUMP JUMPDEST PUSH2 0xE48 SWAP2 SWAP1 PUSH2 0x2123 JUMP JUMPDEST SWAP1 POP PUSH0 DUP2 DUP5 PUSH2 0xE57 SWAP2 SWAP1 PUSH2 0x1E40 JUMP JUMPDEST SWAP1 POP PUSH2 0xE64 CALLER DUP7 DUP4 PUSH2 0x1225 JUMP JUMPDEST PUSH2 0xE90 CALLER PUSH1 0x7 PUSH0 SWAP1 SLOAD SWAP1 PUSH2 0x100 EXP SWAP1 DIV PUSH20 0xFFFFFFFFFFFFFFFFFFFFFFFFFFFFFFFFFFFFFFFF AND DUP5 PUSH2 0x1225 JUMP JUMPDEST PUSH1 0x1 SWAP3 POP POP POP SWAP3 SWAP2 POP POP JUMP JUMPDEST CALLER PUSH20 0xFFFFFFFFFFFFFFFFFFFFFFFFFFFFFFFFFFFFFFFF AND PUSH2 0xEBB PUSH2 0xAB1 JUMP JUMPDEST PUSH20 0xFFFFFFFFFFFFFFFFFFFFFFFFFFFFFFFFFFFFFFFF AND EQ PUSH2 0xF11 JUMPI PUSH1 0x40 MLOAD PUSH32 0x8C379A000000000000000000000000000000000000000000000000000000000 DUP2 MSTORE PUSH1 0x4 ADD PUSH2 0xF08 SWAP1 PUSH2 0x1EBD JUMP JUMPDEST PUSH1 0x40 MLOAD DUP1 SWAP2 SUB SWAP1 REVERT JUMPDEST DUP1 PUSH1 0xC PUSH0 PUSH2 0x100 EXP DUP2 SLOAD DUP2 PUSH20 0xFFFFFFFFFFFFFFFFFFFFFFFFFFFFFFFFFFFFFFFF MUL NOT AND SWAP1 DUP4 PUSH20 0xFFFFFFFFFFFFFFFFFFFFFFFFFFFFFFFFFFFFFFFF AND MUL OR SWAP1 SSTORE POP POP JUMP JUMPDEST PUSH1 0x9 SLOAD DUP2 JUMP JUMPDEST PUSH1 0xC PUSH0 SWAP1 SLOAD SWAP1 PUSH2 0x100 EXP SWAP1 DIV PUSH20 0xFFFFFFFFFFFFFFFFFFFFFFFFFFFFFFFFFFFFFFFF AND DUP2 JUMP JUMPDEST PUSH0 PUSH1 0x1 PUSH0 DUP5 PUSH20 0xFFFFFFFFFFFFFFFFFFFFFFFFFFFFFFFFFFFFFFFF AND PUSH20 0xFFFFFFFFFFFFFFFFFFFFFFFFFFFFFFFFFFFFFFFF AND DUP2 MSTORE PUSH1 0x20 ADD SWAP1 DUP2 MSTORE PUSH1 0x20 ADD PUSH0 KECCAK256 PUSH0 DUP4 PUSH20 0xFFFFFFFFFFFFFFFFFFFFFFFFFFFFFFFFFFFFFFFF AND PUSH20 0xFFFFFFFFFFFFFFFFFFFFFFFFFFFFFFFFFFFFFFFF AND DUP2 MSTORE PUSH1 0x20 ADD SWAP1 DUP2 MSTORE PUSH1 0x20 ADD PUSH0 KECCAK256 SLOAD SWAP1 POP SWAP3 SWAP2 POP POP JUMP JUMPDEST CALLER PUSH20 0xFFFFFFFFFFFFFFFFFFFFFFFFFFFFFFFFFFFFFFFF AND PUSH2 0x1020 PUSH2 0xAB1 JUMP JUMPDEST PUSH20 0xFFFFFFFFFFFFFFFFFFFFFFFFFFFFFFFFFFFFFFFF AND EQ PUSH2 0x1076 JUMPI PUSH1 0x40 MLOAD PUSH32 0x8C379A000000000000000000000000000000000000000000000000000000000 DUP2 MSTORE PUSH1 0x4 ADD PUSH2 0x106D SWAP1 PUSH2 0x1EBD JUMP JUMPDEST PUSH1 0x40 MLOAD DUP1 SWAP2 SUB SWAP1 REVERT JUMPDEST PUSH2 0x1081 CALLER DUP4 DUP4 PUSH2 0x1225 JUMP JUMPDEST POP POP JUMP JUMPDEST PUSH1 0xA SLOAD DUP2 JUMP JUMPDEST CALLER PUSH20 0xFFFFFFFFFFFFFFFFFFFFFFFFFFFFFFFFFFFFFFFF AND PUSH2 0x10AA PUSH2 0xAB1 JUMP JUMPDEST PUSH20 0xFFFFFFFFFFFFFFFFFFFFFFFFFFFFFFFFFFFFFFFF AND EQ PUSH2 0x1100 JUMPI PUSH1 0x40 MLOAD PUSH32 0x8C379A000000000000000000000000000000000000000000000000000000000 DUP2 MSTORE PUSH1 0x4 ADD PUSH2 0x10F7 SWAP1 PUSH2 0x1EBD JUMP JUMPDEST PUSH1 0x40 MLOAD DUP1 SWAP2 SUB SWAP1 REVERT JUMPDEST PUSH1 0x9 SLOAD TIMESTAMP LT PUSH2 0x1134 JUMPI PUSH1 0xA SLOAD PUSH1 0xB SLOAD PUSH2 0x1119 SWAP2 SWAP1 PUSH2 0x2123 JUMP JUMPDEST PUSH1 0xB DUP2 SWAP1 SSTORE POP PUSH1 0x8 SLOAD TIMESTAMP PUSH2 0x112D SWAP2 SWAP1 PUSH2 0x1EDB JUMP JUMPDEST PUSH1 0x9 DUP2 SWAP1 SSTORE POP JUMPDEST JUMP JUMPDEST CALLER PUSH20 0xFFFFFFFFFFFFFFFFFFFFFFFFFFFFFFFFFFFFFFFF AND PUSH2 0x1155 PUSH2 0xAB1 JUMP JUMPDEST PUSH20 0xFFFFFFFFFFFFFFFFFFFFFFFFFFFFFFFFFFFFFFFF AND EQ PUSH2 0x11AB JUMPI PUSH1 0x40 MLOAD PUSH32 0x8C379A000000000000000000000000000000000000000000000000000000000 DUP2 MSTORE PUSH1 0x4 ADD PUSH2 0x11A2 SWAP1 PUSH2 0x1EBD JUMP JUMPDEST PUSH1 0x40 MLOAD DUP1 SWAP2 SUB SWAP1 REVERT JUMPDEST PUSH0 PUSH20 0xFFFFFFFFFFFFFFFFFFFFFFFFFFFFFFFFFFFFFFFF AND DUP2 PUSH20 0xFFFFFFFFFFFFFFFFFFFFFFFFFFFFFFFFFFFFFFFF AND SUB PUSH2 0x1219 JUMPI PUSH1 0x40 MLOAD PUSH32 0x8C379A000000000000000000000000000000000000000000000000000000000 DUP2 MSTORE PUSH1 0x4 ADD PUSH2 0x1210 SWAP1 PUSH2 0x21C3 JUMP JUMPDEST PUSH1 0x40 MLOAD DUP1 SWAP2 SUB SWAP1 REVERT JUMPDEST PUSH2 0x1222 DUP2 PUSH2 0x1798 JUMP JUMPDEST POP JUMP JUMPDEST PUSH0 PUSH20 0xFFFFFFFFFFFFFFFFFFFFFFFFFFFFFFFFFFFFFFFF AND DUP4 PUSH20 0xFFFFFFFFFFFFFFFFFFFFFFFFFFFFFFFFFFFFFFFF AND SUB PUSH2 0x1293 JUMPI PUSH1 0x40 MLOAD PUSH32 0x8C379A000000000000000000000000000000000000000000000000000000000 DUP2 MSTORE PUSH1 0x4 ADD PUSH2 0x128A SWAP1 PUSH2 0x2251 JUMP JUMPDEST PUSH1 0x40 MLOAD DUP1 SWAP2 SUB SWAP1 REVERT JUMPDEST PUSH0 PUSH20 0xFFFFFFFFFFFFFFFFFFFFFFFFFFFFFFFFFFFFFFFF AND DUP3 PUSH20 0xFFFFFFFFFFFFFFFFFFFFFFFFFFFFFFFFFFFFFFFF AND SUB PUSH2 0x1301 JUMPI PUSH1 0x40 MLOAD PUSH32 0x8C379A000000000000000000000000000000000000000000000000000000000 DUP2 MSTORE PUSH1 0x4 ADD PUSH2 0x12F8 SWAP1 PUSH2 0x22DF JUMP JUMPDEST PUSH1 0x40 MLOAD DUP1 SWAP2 SUB SWAP1 REVERT JUMPDEST PUSH0 PUSH0 PUSH0 DUP6 PUSH20 0xFFFFFFFFFFFFFFFFFFFFFFFFFFFFFFFFFFFFFFFF AND PUSH20 0xFFFFFFFFFFFFFFFFFFFFFFFFFFFFFFFFFFFFFFFF AND DUP2 MSTORE PUSH1 0x20 ADD SWAP1 DUP2 MSTORE PUSH1 0x20 ADD PUSH0 KECCAK256 SLOAD SWAP1 POP DUP2 DUP2 LT ISZERO PUSH2 0x1384 JUMPI PUSH1 0x40 MLOAD PUSH32 0x8C379A000000000000000000000000000000000000000000000000000000000 DUP2 MSTORE PUSH1 0x4 ADD PUSH2 0x137B SWAP1 PUSH2 0x236D JUMP JUMPDEST PUSH1 0x40 MLOAD DUP1 SWAP2 SUB SWAP1 REVERT JUMPDEST DUP2 DUP2 PUSH2 0x1390 SWAP2 SWAP1 PUSH2 0x1E40 JUMP JUMPDEST PUSH0 PUSH0 DUP7 PUSH20 0xFFFFFFFFFFFFFFFFFFFFFFFFFFFFFFFFFFFFFFFF AND PUSH20 0xFFFFFFFFFFFFFFFFFFFFFFFFFFFFFFFFFFFFFFFF AND DUP2 MSTORE PUSH1 0x20 ADD SWAP1 DUP2 MSTORE PUSH1 0x20 ADD PUSH0 KECCAK256 DUP2 SWAP1 SSTORE POP DUP2 PUSH0 PUSH0 DUP6 PUSH20 0xFFFFFFFFFFFFFFFFFFFFFFFFFFFFFFFFFFFFFFFF AND PUSH20 0xFFFFFFFFFFFFFFFFFFFFFFFFFFFFFFFFFFFFFFFF AND DUP2 MSTORE PUSH1 0x20 ADD SWAP1 DUP2 MSTORE PUSH1 0x20 ADD PUSH0 KECCAK256 PUSH0 DUP3 DUP3 SLOAD PUSH2 0x141B SWAP2 SWAP1 PUSH2 0x1EDB JUMP JUMPDEST SWAP3 POP POP DUP2 SWAP1 SSTORE POP DUP3 PUSH20 0xFFFFFFFFFFFFFFFFFFFFFFFFFFFFFFFFFFFFFFFF AND DUP5 PUSH20 0xFFFFFFFFFFFFFFFFFFFFFFFFFFFFFFFFFFFFFFFF AND PUSH32 0xDDF252AD1BE2C89B69C2B068FC378DAA952BA7F163C4A11628F55A4DF523B3EF DUP5 PUSH1 0x40 MLOAD PUSH2 0x147F SWAP2 SWAP1 PUSH2 0x1BA1 JUMP JUMPDEST PUSH1 0x40 MLOAD DUP1 SWAP2 SUB SWAP1 LOG3 POP POP POP POP JUMP JUMPDEST PUSH0 CALLER SWAP1 POP SWAP1 JUMP JUMPDEST PUSH0 PUSH20 0xFFFFFFFFFFFFFFFFFFFFFFFFFFFFFFFFFFFFFFFF AND DUP4 PUSH20 0xFFFFFFFFFFFFFFFFFFFFFFFFFFFFFFFFFFFFFFFF AND SUB PUSH2 0x1502 JUMPI PUSH1 0x40 MLOAD PUSH32 0x8C379A000000000000000000000000000000000000000000000000000000000 DUP2 MSTORE PUSH1 0x4 ADD PUSH2 0x14F9 SWAP1 PUSH2 0x23FB JUMP JUMPDEST PUSH1 0x40 MLOAD DUP1 SWAP2 SUB SWAP1 REVERT JUMPDEST PUSH0 PUSH20 0xFFFFFFFFFFFFFFFFFFFFFFFFFFFFFFFFFFFFFFFF AND DUP3 PUSH20 0xFFFFFFFFFFFFFFFFFFFFFFFFFFFFFFFFFFFFFFFF AND SUB PUSH2 0x1570 JUMPI PUSH1 0x40 MLOAD PUSH32 0x8C379A000000000000000000000000000000000000000000000000000000000 DUP2 MSTORE PUSH1 0x4 ADD PUSH2 0x1567 SWAP1 PUSH2 0x2489 JUMP JUMPDEST PUSH1 0x40 MLOAD DUP1 SWAP2 SUB SWAP1 REVERT JUMPDEST DUP1 PUSH1 0x1 PUSH0 DUP6 PUSH20 0xFFFFFFFFFFFFFFFFFFFFFFFFFFFFFFFFFFFFFFFF AND PUSH20 0xFFFFFFFFFFFFFFFFFFFFFFFFFFFFFFFFFFFFFFFF AND DUP2 MSTORE PUSH1 0x20 ADD SWAP1 DUP2 MSTORE PUSH1 0x20 ADD PUSH0 KECCAK256 PUSH0 DUP5 PUSH20 0xFFFFFFFFFFFFFFFFFFFFFFFFFFFFFFFFFFFFFFFF AND PUSH20 0xFFFFFFFFFFFFFFFFFFFFFFFFFFFFFFFFFFFFFFFF AND DUP2 MSTORE PUSH1 0x20 ADD SWAP1 DUP2 MSTORE PUSH1 0x20 ADD PUSH0 KECCAK256 DUP2 SWAP1 SSTORE POP DUP2 PUSH20 0xFFFFFFFFFFFFFFFFFFFFFFFFFFFFFFFFFFFFFFFF AND DUP4 PUSH20 0xFFFFFFFFFFFFFFFFFFFFFFFFFFFFFFFFFFFFFFFF AND PUSH32 0x8C5BE1E5EBEC7D5BD14F71427D1E84F3DD0314C0F7B2291E5B200AC8C7C3B925 DUP4 PUSH1 0x40 MLOAD PUSH2 0x164A SWAP2 SWAP1 PUSH2 0x1BA1 JUMP JUMPDEST PUSH1 0x40 MLOAD DUP1 SWAP2 SUB SWAP1 LOG3 POP POP POP JUMP JUMPDEST PUSH0 PUSH20 0xFFFFFFFFFFFFFFFFFFFFFFFFFFFFFFFFFFFFFFFF AND DUP3 PUSH20 0xFFFFFFFFFFFFFFFFFFFFFFFFFFFFFFFFFFFFFFFF AND SUB PUSH2 0x16C5 JUMPI PUSH1 0x40 MLOAD PUSH32 0x8C379A000000000000000000000000000000000000000000000000000000000 DUP2 MSTORE PUSH1 0x4 ADD PUSH2 0x16BC SWAP1 PUSH2 0x24F1 JUMP JUMPDEST PUSH1 0x40 MLOAD DUP1 SWAP2 SUB SWAP1 REVERT JUMPDEST DUP1 PUSH1 0x2 PUSH0 DUP3 DUP3 SLOAD PUSH2 0x16D6 SWAP2 SWAP1 PUSH2 0x1EDB JUMP JUMPDEST SWAP3 POP POP DUP2 SWAP1 SSTORE POP DUP1 PUSH0 PUSH0 DUP5 PUSH20 0xFFFFFFFFFFFFFFFFFFFFFFFFFFFFFFFFFFFFFFFF AND PUSH20 0xFFFFFFFFFFFFFFFFFFFFFFFFFFFFFFFFFFFFFFFF AND DUP2 MSTORE PUSH1 0x20 ADD SWAP1 DUP2 MSTORE PUSH1 0x20 ADD PUSH0 KECCAK256 PUSH0 DUP3 DUP3 SLOAD PUSH2 0x1728 SWAP2 SWAP1 PUSH2 0x1EDB JUMP JUMPDEST SWAP3 POP POP DUP2 SWAP1 SSTORE POP DUP2 PUSH20 0xFFFFFFFFFFFFFFFFFFFFFFFFFFFFFFFFFFFFFFFF AND PUSH0 PUSH20 0xFFFFFFFFFFFFFFFFFFFFFFFFFFFFFFFFFFFFFFFF AND PUSH32 0xDDF252AD1BE2C89B69C2B068FC378DAA952BA7F163C4A11628F55A4DF523B3EF DUP4 PUSH1 0x40 MLOAD PUSH2 0x178C SWAP2 SWAP1 PUSH2 0x1BA1 JUMP JUMPDEST PUSH1 0x40 MLOAD DUP1 SWAP2 SUB SWAP1 LOG3 POP POP JUMP JUMPDEST PUSH0 PUSH1 0x5 PUSH0 SWAP1 SLOAD SWAP1 PUSH2 0x100 EXP SWAP1 DIV PUSH20 0xFFFFFFFFFFFFFFFFFFFFFFFFFFFFFFFFFFFFFFFF AND SWAP1 POP DUP2 PUSH1 0x5 PUSH0 PUSH2 0x100 EXP DUP2 SLOAD DUP2 PUSH20 0xFFFFFFFFFFFFFFFFFFFFFFFFFFFFFFFFFFFFFFFF MUL NOT AND SWAP1 DUP4 PUSH20 0xFFFFFFFFFFFFFFFFFFFFFFFFFFFFFFFFFFFFFFFF AND MUL OR SWAP1 SSTORE POP DUP2 PUSH20 0xFFFFFFFFFFFFFFFFFFFFFFFFFFFFFFFFFFFFFFFF AND DUP2 PUSH20 0xFFFFFFFFFFFFFFFFFFFFFFFFFFFFFFFFFFFFFFFF AND PUSH32 0x8BE0079C531659141344CD1FD0A4F28419497F9722A3DAAFE3B4186F6B6457E0 PUSH1 0x40 MLOAD PUSH1 0x40 MLOAD DUP1 SWAP2 SUB SWAP1 LOG3 POP POP JUMP JUMPDEST PUSH0 DUP2 MLOAD SWAP1 POP SWAP2 SWAP1 POP JUMP JUMPDEST PUSH0 DUP3 DUP3 MSTORE PUSH1 0x20 DUP3 ADD SWAP1 POP SWAP3 SWAP2 POP POP JUMP JUMPDEST DUP3 DUP2 DUP4 MCOPY PUSH0 DUP4 DUP4 ADD MSTORE POP POP POP JUMP JUMPDEST PUSH0 PUSH1 0x1F NOT PUSH1 0x1F DUP4 ADD AND SWAP1 POP SWAP2 SWAP1 POP JUMP JUMPDEST PUSH0 PUSH2 0x189D DUP3 PUSH2 0x185B JUMP JUMPDEST PUSH2 0x18A7 DUP2 DUP6 PUSH2 0x1865 JUMP JUMPDEST SWAP4 POP PUSH2 0x18B7 DUP2 DUP6 PUSH1 0x20 DUP7 ADD PUSH2 0x1875 JUMP JUMPDEST PUSH2 0x18C0 DUP2 PUSH2 0x1883 JUMP JUMPDEST DUP5 ADD SWAP2 POP POP SWAP3 SWAP2 POP POP JUMP JUMPDEST PUSH0 PUSH1 0x20 DUP3 ADD SWAP1 POP DUP2 DUP2 SUB PUSH0 DUP4 ADD MSTORE PUSH2 0x18E3 DUP2 DUP5 PUSH2 0x1893 JUMP JUMPDEST SWAP1 POP SWAP3 SWAP2 POP POP JUMP JUMPDEST PUSH0 PUSH1 0x40 MLOAD SWAP1 POP SWAP1 JUMP JUMPDEST PUSH0 PUSH0 REVERT JUMPDEST PUSH0 PUSH0 REVERT JUMPDEST PUSH0 PUSH20 0xFFFFFFFFFFFFFFFFFFFFFFFFFFFFFFFFFFFFFFFF DUP3 AND SWAP1 POP SWAP2 SWAP1 POP JUMP JUMPDEST PUSH0 PUSH2 0x1925 DUP3 PUSH2 0x18FC JUMP JUMPDEST SWAP1 POP SWAP2 SWAP1 POP JUMP JUMPDEST PUSH2 0x1935 DUP2 PUSH2 0x191B JUMP JUMPDEST DUP2 EQ PUSH2 0x193F JUMPI PUSH0 PUSH0 REVERT JUMPDEST POP JUMP JUMPDEST PUSH0 DUP2 CALLDATALOAD SWAP1 POP PUSH2 0x1950 DUP2 PUSH2 0x192C JUMP JUMPDEST SWAP3 SWAP2 POP POP JUMP JUMPDEST PUSH0 DUP2 SWAP1 POP SWAP2 SWAP1 POP JUMP JUMPDEST PUSH2 0x1968 DUP2 PUSH2 0x1956 JUMP JUMPDEST DUP2 EQ PUSH2 0x1972 JUMPI PUSH0 PUSH0 REVERT JUMPDEST POP JUMP JUMPDEST PUSH0 DUP2 CALLDATALOAD SWAP1 POP PUSH2 0x1983 DUP2 PUSH2 0x195F JUMP JUMPDEST SWAP3 SWAP2 POP POP JUMP JUMPDEST PUSH0 PUSH0 REVERT JUMPDEST PUSH0 PUSH0 REVERT JUMPDEST PUSH32 0x4E487B7100000000000000000000000000000000000000000000000000000000 PUSH0 MSTORE PUSH1 0x41 PUSH1 0x4 MSTORE PUSH1 0x24 PUSH0 REVERT JUMPDEST PUSH2 0x19C7 DUP3 PUSH2 0x1883 JUMP JUMPDEST DUP2 ADD DUP2 DUP2 LT PUSH8 0xFFFFFFFFFFFFFFFF DUP3 GT OR ISZERO PUSH2 0x19E6 JUMPI PUSH2 0x19E5 PUSH2 0x1991 JUMP JUMPDEST JUMPDEST DUP1 PUSH1 0x40 MSTORE POP POP POP JUMP JUMPDEST PUSH0 PUSH2 0x19F8 PUSH2 0x18EB JUMP JUMPDEST SWAP1 POP PUSH2 0x1A04 DUP3 DUP3 PUSH2 0x19BE JUMP JUMPDEST SWAP2 SWAP1 POP JUMP JUMPDEST PUSH0 PUSH8 0xFFFFFFFFFFFFFFFF DUP3 GT ISZERO PUSH2 0x1A23 JUMPI PUSH2 0x1A22 PUSH2 0x1991 JUMP JUMPDEST JUMPDEST PUSH2 0x1A2C DUP3 PUSH2 0x1883 JUMP JUMPDEST SWAP1 POP PUSH1 0x20 DUP2 ADD SWAP1 POP SWAP2 SWAP1 POP JUMP JUMPDEST DUP3 DUP2 DUP4 CALLDATACOPY PUSH0 DUP4 DUP4 ADD MSTORE POP POP POP JUMP JUMPDEST PUSH0 PUSH2 0x1A59 PUSH2 0x1A54 DUP5 PUSH2 0x1A09 JUMP JUMPDEST PUSH2 0x19EF JUMP JUMPDEST SWAP1 POP DUP3 DUP2 MSTORE PUSH1 0x20 DUP2 ADD DUP5 DUP5 DUP5 ADD GT ISZERO PUSH2 0x1A75 JUMPI PUSH2 0x1A74 PUSH2 0x198D JUMP JUMPDEST JUMPDEST PUSH2 0x1A80 DUP5 DUP3 DUP6 PUSH2 0x1A39 JUMP JUMPDEST POP SWAP4 SWAP3 POP POP POP JUMP JUMPDEST PUSH0 DUP3 PUSH1 0x1F DUP4 ADD SLT PUSH2 0x1A9C JUMPI PUSH2 0x1A9B PUSH2 0x1989 JUMP JUMPDEST JUMPDEST DUP2 CALLDATALOAD PUSH2 0x1AAC DUP5 DUP3 PUSH1 0x20 DUP7 ADD PUSH2 0x1A47 JUMP JUMPDEST SWAP2 POP POP SWAP3 SWAP2 POP POP JUMP JUMPDEST PUSH0 PUSH0 PUSH0 PUSH1 0x60 DUP5 DUP7 SUB SLT ISZERO PUSH2 0x1ACC JUMPI PUSH2 0x1ACB PUSH2 0x18F4 JUMP JUMPDEST JUMPDEST PUSH0 PUSH2 0x1AD9 DUP7 DUP3 DUP8 ADD PUSH2 0x1942 JUMP JUMPDEST SWAP4 POP POP PUSH1 0x20 PUSH2 0x1AEA DUP7 DUP3 DUP8 ADD PUSH2 0x1975 JUMP JUMPDEST SWAP3 POP POP PUSH1 0x40 DUP5 ADD CALLDATALOAD PUSH8 0xFFFFFFFFFFFFFFFF DUP2 GT ISZERO PUSH2 0x1B0B JUMPI PUSH2 0x1B0A PUSH2 0x18F8 JUMP JUMPDEST JUMPDEST PUSH2 0x1B17 DUP7 DUP3 DUP8 ADD PUSH2 0x1A88 JUMP JUMPDEST SWAP2 POP POP SWAP3 POP SWAP3 POP SWAP3 JUMP JUMPDEST PUSH0 DUP2 ISZERO ISZERO SWAP1 POP SWAP2 SWAP1 POP JUMP JUMPDEST PUSH2 0x1B35 DUP2 PUSH2 0x1B21 JUMP JUMPDEST DUP3 MSTORE POP POP JUMP JUMPDEST PUSH0 PUSH1 0x20 DUP3 ADD SWAP1 POP PUSH2 0x1B4E PUSH0 DUP4 ADD DUP5 PUSH2 0x1B2C JUMP JUMPDEST SWAP3 SWAP2 POP POP JUMP JUMPDEST PUSH0 PUSH0 PUSH1 0x40 DUP4 DUP6 SUB SLT ISZERO PUSH2 0x1B6A JUMPI PUSH2 0x1B69 PUSH2 0x18F4 JUMP JUMPDEST JUMPDEST PUSH0 PUSH2 0x1B77 DUP6 DUP3 DUP7 ADD PUSH2 0x1942 JUMP JUMPDEST SWAP3 POP POP PUSH1 0x20 PUSH2 0x1B88 DUP6 DUP3 DUP7 ADD PUSH2 0x1975 JUMP JUMPDEST SWAP2 POP POP SWAP3 POP SWAP3 SWAP1 POP JUMP JUMPDEST PUSH2 0x1B9B DUP2 PUSH2 0x1956 JUMP JUMPDEST DUP3 MSTORE POP POP JUMP JUMPDEST PUSH0 PUSH1 0x20 DUP3 ADD SWAP1 POP PUSH2 0x1BB4 PUSH0 DUP4 ADD DUP5 PUSH2 0x1B92 JUMP JUMPDEST SWAP3 SWAP2 POP POP JUMP JUMPDEST PUSH0 PUSH0 PUSH0 PUSH1 0x60 DUP5 DUP7 SUB SLT ISZERO PUSH2 0x1BD1 JUMPI PUSH2 0x1BD0 PUSH2 0x18F4 JUMP JUMPDEST JUMPDEST PUSH0 PUSH2 0x1BDE DUP7 DUP3 DUP8 ADD PUSH2 0x1942 JUMP JUMPDEST SWAP4 POP POP PUSH1 0x20 PUSH2 0x1BEF DUP7 DUP3 DUP8 ADD PUSH2 0x1942 JUMP JUMPDEST SWAP3 POP POP PUSH1 0x40 PUSH2 0x1C00 DUP7 DUP3 DUP8 ADD PUSH2 0x1975 JUMP JUMPDEST SWAP2 POP POP SWAP3 POP SWAP3 POP SWAP3 JUMP JUMPDEST PUSH0 PUSH1 0xFF DUP3 AND SWAP1 POP SWAP2 SWAP1 POP JUMP JUMPDEST PUSH2 0x1C1F DUP2 PUSH2 0x1C0A JUMP JUMPDEST DUP3 MSTORE POP POP JUMP JUMPDEST PUSH0 PUSH1 0x20 DUP3 ADD SWAP1 POP PUSH2 0x1C38 PUSH0 DUP4 ADD DUP5 PUSH2 0x1C16 JUMP JUMPDEST SWAP3 SWAP2 POP POP JUMP JUMPDEST PUSH2 0x1C47 DUP2 PUSH2 0x191B JUMP JUMPDEST DUP3 MSTORE POP POP JUMP JUMPDEST PUSH0 PUSH1 0x20 DUP3 ADD SWAP1 POP PUSH2 0x1C60 PUSH0 DUP4 ADD DUP5 PUSH2 0x1C3E JUMP JUMPDEST SWAP3 SWAP2 POP POP JUMP JUMPDEST PUSH0 PUSH1 0x20 DUP3 DUP5 SUB SLT ISZERO PUSH2 0x1C7B JUMPI PUSH2 0x1C7A PUSH2 0x18F4 JUMP JUMPDEST JUMPDEST PUSH0 PUSH2 0x1C88 DUP5 DUP3 DUP6 ADD PUSH2 0x1975 JUMP JUMPDEST SWAP2 POP POP SWAP3 SWAP2 POP POP JUMP JUMPDEST PUSH0 PUSH1 0x20 DUP3 DUP5 SUB SLT ISZERO PUSH2 0x1CA6 JUMPI PUSH2 0x1CA5 PUSH2 0x18F4 JUMP JUMPDEST JUMPDEST PUSH0 PUSH2 0x1CB3 DUP5 DUP3 DUP6 ADD PUSH2 0x1942 JUMP JUMPDEST SWAP2 POP POP SWAP3 SWAP2 POP POP JUMP JUMPDEST PUSH0 PUSH0 PUSH1 0x40 DUP4 DUP6 SUB SLT ISZERO PUSH2 0x1CD2 JUMPI PUSH2 0x1CD1 PUSH2 0x18F4 JUMP JUMPDEST JUMPDEST PUSH0 PUSH2 0x1CDF DUP6 DUP3 DUP7 ADD PUSH2 0x1942 JUMP JUMPDEST SWAP3 POP POP PUSH1 0x20 PUSH2 0x1CF0 DUP6 DUP3 DUP7 ADD PUSH2 0x1942 JUMP JUMPDEST SWAP2 POP POP SWAP3 POP SWAP3 SWAP1 POP JUMP JUMPDEST PUSH32 0x4E487B7100000000000000000000000000000000000000000000000000000000 PUSH0 MSTORE PUSH1 0x22 PUSH1 0x4 MSTORE PUSH1 0x24 PUSH0 REVERT JUMPDEST PUSH0 PUSH1 0x2 DUP3 DIV SWAP1 POP PUSH1 0x1 DUP3 AND DUP1 PUSH2 0x1D3E JUMPI PUSH1 0x7F DUP3 AND SWAP2 POP JUMPDEST PUSH1 0x20 DUP3 LT DUP2 SUB PUSH2 0x1D51 JUMPI PUSH2 0x1D50 PUSH2 0x1CFA JUMP JUMPDEST JUMPDEST POP SWAP2 SWAP1 POP JUMP JUMPDEST PUSH0 PUSH1 0x40 DUP3 ADD SWAP1 POP PUSH2 0x1D6A PUSH0 DUP4 ADD DUP6 PUSH2 0x1B92 JUMP JUMPDEST DUP2 DUP2 SUB PUSH1 0x20 DUP4 ADD MSTORE PUSH2 0x1D7C DUP2 DUP5 PUSH2 0x1893 JUMP JUMPDEST SWAP1 POP SWAP4 SWAP3 POP POP POP JUMP JUMPDEST PUSH32 0x45524332303A207472616E7366657220616D6F756E7420657863656564732061 PUSH0 DUP3 ADD MSTORE PUSH32 0x6C6C6F77616E6365000000000000000000000000000000000000000000000000 PUSH1 0x20 DUP3 ADD MSTORE POP JUMP JUMPDEST PUSH0 PUSH2 0x1DDF PUSH1 0x28 DUP4 PUSH2 0x1865 JUMP JUMPDEST SWAP2 POP PUSH2 0x1DEA DUP3 PUSH2 0x1D85 JUMP JUMPDEST PUSH1 0x40 DUP3 ADD SWAP1 POP SWAP2 SWAP1 POP JUMP JUMPDEST PUSH0 PUSH1 0x20 DUP3 ADD SWAP1 POP DUP2 DUP2 SUB PUSH0 DUP4 ADD MSTORE PUSH2 0x1E0C DUP2 PUSH2 0x1DD3 JUMP JUMPDEST SWAP1 POP SWAP2 SWAP1 POP JUMP JUMPDEST PUSH32 0x4E487B7100000000000000000000000000000000000000000000000000000000 PUSH0 MSTORE PUSH1 0x11 PUSH1 0x4 MSTORE PUSH1 0x24 PUSH0 REVERT JUMPDEST PUSH0 PUSH2 0x1E4A DUP3 PUSH2 0x1956 JUMP JUMPDEST SWAP2 POP PUSH2 0x1E55 DUP4 PUSH2 0x1956 JUMP JUMPDEST SWAP3 POP DUP3 DUP3 SUB SWAP1 POP DUP2 DUP2 GT ISZERO PUSH2 0x1E6D JUMPI PUSH2 0x1E6C PUSH2 0x1E13 JUMP JUMPDEST JUMPDEST SWAP3 SWAP2 POP POP JUMP JUMPDEST PUSH32 0x4F776E61626C653A2063616C6C6572206973206E6F7420746865206F776E6572 PUSH0 DUP3 ADD MSTORE POP JUMP JUMPDEST PUSH0 PUSH2 0x1EA7 PUSH1 0x20 DUP4 PUSH2 0x1865 JUMP JUMPDEST SWAP2 POP PUSH2 0x1EB2 DUP3 PUSH2 0x1E73 JUMP JUMPDEST PUSH1 0x20 DUP3 ADD SWAP1 POP SWAP2 SWAP1 POP JUMP JUMPDEST PUSH0 PUSH1 0x20 DUP3 ADD SWAP1 POP DUP2 DUP2 SUB PUSH0 DUP4 ADD MSTORE PUSH2 0x1ED4 DUP2 PUSH2 0x1E9B JUMP JUMPDEST SWAP1 POP SWAP2 SWAP1 POP JUMP JUMPDEST PUSH0 PUSH2 0x1EE5 DUP3 PUSH2 0x1956 JUMP JUMPDEST SWAP2 POP PUSH2 0x1EF0 DUP4 PUSH2 0x1956 JUMP JUMPDEST SWAP3 POP DUP3 DUP3 ADD SWAP1 POP DUP1 DUP3 GT ISZERO PUSH2 0x1F08 JUMPI PUSH2 0x1F07 PUSH2 0x1E13 JUMP JUMPDEST JUMPDEST SWAP3 SWAP2 POP POP JUMP JUMPDEST PUSH32 0x5377617020746F6B656E206E6F74207365740000000000000000000000000000 PUSH0 DUP3 ADD MSTORE POP JUMP JUMPDEST PUSH0 PUSH2 0x1F42 PUSH1 0x12 DUP4 PUSH2 0x1865 JUMP JUMPDEST SWAP2 POP PUSH2 0x1F4D DUP3 PUSH2 0x1F0E JUMP JUMPDEST PUSH1 0x20 DUP3 ADD SWAP1 POP SWAP2 SWAP1 POP JUMP JUMPDEST PUSH0 PUSH1 0x20 DUP3 ADD SWAP1 POP DUP2 DUP2 SUB PUSH0 DUP4 ADD MSTORE PUSH2 0x1F6F DUP2 PUSH2 0x1F36 JUMP JUMPDEST SWAP1 POP SWAP2 SWAP1 POP JUMP JUMPDEST PUSH0 PUSH1 0x60 DUP3 ADD SWAP1 POP PUSH2 0x1F89 PUSH0 DUP4 ADD DUP7 PUSH2 0x1C3E JUMP JUMPDEST PUSH2 0x1F96 PUSH1 0x20 DUP4 ADD DUP6 PUSH2 0x1C3E JUMP JUMPDEST PUSH2 0x1FA3 PUSH1 0x40 DUP4 ADD DUP5 PUSH2 0x1B92 JUMP JUMPDEST SWAP5 SWAP4 POP POP POP POP JUMP JUMPDEST PUSH2 0x1FB4 DUP2 PUSH2 0x1B21 JUMP JUMPDEST DUP2 EQ PUSH2 0x1FBE JUMPI PUSH0 PUSH0 REVERT JUMPDEST POP JUMP JUMPDEST PUSH0 DUP2 MLOAD SWAP1 POP PUSH2 0x1FCF DUP2 PUSH2 0x1FAB JUMP JUMPDEST SWAP3 SWAP2 POP POP JUMP JUMPDEST PUSH0 PUSH1 0x20 DUP3 DUP5 SUB SLT ISZERO PUSH2 0x1FEA JUMPI PUSH2 0x1FE9 PUSH2 0x18F4 JUMP JUMPDEST JUMPDEST PUSH0 PUSH2 0x1FF7 DUP5 DUP3 DUP6 ADD PUSH2 0x1FC1 JUMP JUMPDEST SWAP2 POP POP SWAP3 SWAP2 POP POP JUMP JUMPDEST PUSH0 PUSH1 0x40 DUP3 ADD SWAP1 POP PUSH2 0x2013 PUSH0 DUP4 ADD DUP6 PUSH2 0x1B92 JUMP JUMPDEST PUSH2 0x2020 PUSH1 0x20 DUP4 ADD DUP5 PUSH2 0x1B92 JUMP JUMPDEST SWAP4 SWAP3 POP POP POP JUMP JUMPDEST PUSH32 0x45524332303A2064656372656173656420616C6C6F77616E63652062656C6F77 PUSH0 DUP3 ADD MSTORE PUSH32 0x207A65726F000000000000000000000000000000000000000000000000000000 PUSH1 0x20 DUP3 ADD MSTORE POP JUMP JUMPDEST PUSH0 PUSH2 0x2081 PUSH1 0x25 DUP4 PUSH2 0x1865 JUMP JUMPDEST SWAP2 POP PUSH2 0x208C DUP3 PUSH2 0x2027 JUMP JUMPDEST PUSH1 0x40 DUP3 ADD SWAP1 POP SWAP2 SWAP1 POP JUMP JUMPDEST PUSH0 PUSH1 0x20 DUP3 ADD SWAP1 POP DUP2 DUP2 SUB PUSH0 DUP4 ADD MSTORE PUSH2 0x20AE DUP2 PUSH2 0x2075 JUMP JUMPDEST SWAP1 POP SWAP2 SWAP1 POP JUMP JUMPDEST PUSH0 PUSH2 0x20BF DUP3 PUSH2 0x1956 JUMP JUMPDEST SWAP2 POP PUSH2 0x20CA DUP4 PUSH2 0x1956 JUMP JUMPDEST SWAP3 POP DUP3 DUP3 MUL PUSH2 0x20D8 DUP2 PUSH2 0x1956 JUMP JUMPDEST SWAP2 POP DUP3 DUP3 DIV DUP5 EQ DUP4 ISZERO OR PUSH2 0x20EF JUMPI PUSH2 0x20EE PUSH2 0x1E13 JUMP JUMPDEST JUMPDEST POP SWAP3 SWAP2 POP POP JUMP JUMPDEST PUSH32 0x4E487B7100000000000000000000000000000000000000000000000000000000 PUSH0 MSTORE PUSH1 0x12 PUSH1 0x4 MSTORE PUSH1 0x24 PUSH0 REVERT JUMPDEST PUSH0 PUSH2 0x212D DUP3 PUSH2 0x1956 JUMP JUMPDEST SWAP2 POP PUSH2 0x2138 DUP4 PUSH2 0x1956 JUMP JUMPDEST SWAP3 POP DUP3 PUSH2 0x2148 JUMPI PUSH2 0x2147 PUSH2 0x20F6 JUMP JUMPDEST JUMPDEST DUP3 DUP3 DIV SWAP1 POP SWAP3 SWAP2 POP POP JUMP JUMPDEST PUSH32 0x4F776E61626C653A206E6577206F776E657220697320746865207A65726F2061 PUSH0 DUP3 ADD MSTORE PUSH32 0x6464726573730000000000000000000000000000000000000000000000000000 PUSH1 0x20 DUP3 ADD MSTORE POP JUMP JUMPDEST PUSH0 PUSH2 0x21AD PUSH1 0x26 DUP4 PUSH2 0x1865 JUMP JUMPDEST SWAP2 POP PUSH2 0x21B8 DUP3 PUSH2 0x2153 JUMP JUMPDEST PUSH1 0x40 DUP3 ADD SWAP1 POP SWAP2 SWAP1 POP JUMP JUMPDEST PUSH0 PUSH1 0x20 DUP3 ADD SWAP1 POP DUP2 DUP2 SUB PUSH0 DUP4 ADD MSTORE PUSH2 0x21DA DUP2 PUSH2 0x21A1 JUMP JUMPDEST SWAP1 POP SWAP2 SWAP1 POP JUMP JUMPDEST PUSH32 0x45524332303A207472616E736665722066726F6D20746865207A65726F206164 PUSH0 DUP3 ADD MSTORE PUSH32 0x6472657373000000000000000000000000000000000000000000000000000000 PUSH1 0x20 DUP3 ADD MSTORE POP JUMP JUMPDEST PUSH0 PUSH2 0x223B PUSH1 0x25 DUP4 PUSH2 0x1865 JUMP JUMPDEST SWAP2 POP PUSH2 0x2246 DUP3 PUSH2 0x21E1 JUMP JUMPDEST PUSH1 0x40 DUP3 ADD SWAP1 POP SWAP2 SWAP1 POP JUMP JUMPDEST PUSH0 PUSH1 0x20 DUP3 ADD SWAP1 POP DUP2 DUP2 SUB PUSH0 DUP4 ADD MSTORE PUSH2 0x2268 DUP2 PUSH2 0x222F JUMP JUMPDEST SWAP1 POP SWAP2 SWAP1 POP JUMP JUMPDEST PUSH32 0x45524332303A207472616E7366657220746F20746865207A65726F2061646472 PUSH0 DUP3 ADD MSTORE PUSH32 0x6573730000000000000000000000000000000000000000000000000000000000 PUSH1 0x20 DUP3 ADD MSTORE POP JUMP JUMPDEST PUSH0 PUSH2 0x22C9 PUSH1 0x23 DUP4 PUSH2 0x1865 JUMP JUMPDEST SWAP2 POP PUSH2 0x22D4 DUP3 PUSH2 0x226F JUMP JUMPDEST PUSH1 0x40 DUP3 ADD SWAP1 POP SWAP2 SWAP1 POP JUMP JUMPDEST PUSH0 PUSH1 0x20 DUP3 ADD SWAP1 POP DUP2 DUP2 SUB PUSH0 DUP4 ADD MSTORE PUSH2 0x22F6 DUP2 PUSH2 0x22BD JUMP JUMPDEST SWAP1 POP SWAP2 SWAP1 POP JUMP JUMPDEST PUSH32 0x45524332303A207472616E7366657220616D6F756E7420657863656564732062 PUSH0 DUP3 ADD MSTORE PUSH32 0x616C616E63650000000000000000000000000000000000000000000000000000 PUSH1 0x20 DUP3 ADD MSTORE POP JUMP JUMPDEST PUSH0 PUSH2 0x2357 PUSH1 0x26 DUP4 PUSH2 0x1865 JUMP JUMPDEST SWAP2 POP PUSH2 0x2362 DUP3 PUSH2 0x22FD JUMP JUMPDEST PUSH1 0x40 DUP3 ADD SWAP1 POP SWAP2 SWAP1 POP JUMP JUMPDEST PUSH0 PUSH1 0x20 DUP3 ADD SWAP1 POP DUP2 DUP2 SUB PUSH0 DUP4 ADD MSTORE PUSH2 0x2384 DUP2 PUSH2 0x234B JUMP JUMPDEST SWAP1 POP SWAP2 SWAP1 POP JUMP JUMPDEST PUSH32 0x45524332303A20617070726F76652066726F6D20746865207A65726F20616464 PUSH0 DUP3 ADD MSTORE PUSH32 0x7265737300000000000000000000000000000000000000000000000000000000 PUSH1 0x20 DUP3 ADD MSTORE POP JUMP JUMPDEST PUSH0 PUSH2 0x23E5 PUSH1 0x24 DUP4 PUSH2 0x1865 JUMP JUMPDEST SWAP2 POP PUSH2 0x23F0 DUP3 PUSH2 0x238B JUMP JUMPDEST PUSH1 0x40 DUP3 ADD SWAP1 POP SWAP2 SWAP1 POP JUMP JUMPDEST PUSH0 PUSH1 0x20 DUP3 ADD SWAP1 POP DUP2 DUP2 SUB PUSH0 DUP4 ADD MSTORE PUSH2 0x2412 DUP2 PUSH2 0x23D9 JUMP JUMPDEST SWAP1 POP SWAP2 SWAP1 POP JUMP JUMPDEST PUSH32 0x45524332303A20617070726F766520746F20746865207A65726F206164647265 PUSH0 DUP3 ADD MSTORE PUSH32 0x7373000000000000000000000000000000000000000000000000000000000000 PUSH1 0x20 DUP3 ADD MSTORE POP JUMP JUMPDEST PUSH0 PUSH2 0x2473 PUSH1 0x22 DUP4 PUSH2 0x1865 JUMP JUMPDEST SWAP2 POP PUSH2 0x247E DUP3 PUSH2 0x2419 JUMP JUMPDEST PUSH1 0x40 DUP3 ADD SWAP1 POP SWAP2 SWAP1 POP JUMP JUMPDEST PUSH0 PUSH1 0x20 DUP3 ADD SWAP1 POP DUP2 DUP2 SUB PUSH0 DUP4 ADD MSTORE PUSH2 0x24A0 DUP2 PUSH2 0x2467 JUMP JUMPDEST SWAP1 POP SWAP2 SWAP1 POP JUMP JUMPDEST PUSH32 0x45524332303A206D696E7420746F20746865207A65726F206164647265737300 PUSH0 DUP3 ADD MSTORE POP JUMP JUMPDEST PUSH0 PUSH2 0x24DB PUSH1 0x1F DUP4 PUSH2 0x1865 JUMP JUMPDEST SWAP2 POP PUSH2 0x24E6 DUP3 PUSH2 0x24A7 JUMP JUMPDEST PUSH1 0x20 DUP3 ADD SWAP1 POP SWAP2 SWAP1 POP JUMP JUMPDEST PUSH0 PUSH1 0x20 DUP3 ADD SWAP1 POP DUP2 DUP2 SUB PUSH0 DUP4 ADD MSTORE PUSH2 0x2508 DUP2 PUSH2 0x24CF JUMP JUMPDEST SWAP1 POP SWAP2 SWAP1 POP JUMP INVALID LOG2 PUSH5 0x6970667358 0x22 SLT KECCAK256 JUMP TLOAD DUP5 SWAP4 0xBF 0xCD 0xB5 SWAP6 0xCC LOG3 0xB4 PUSH25 0xF190979DF9CA77A78ED95CF141F2CC9CFA869FA164736F6C63 NUMBER STOP ADDMOD SHR STOP CALLER "
				},
				"gasEstimates": {
					"creation": {
						"codeDepositCost": "1908200",
						"executionCost": "infinite",
						"totalCost": "infinite"
					},
					"external": {
						"allowance(address,address)": "infinite",
						"approve(address,uint256)": "infinite",
						"balanceOf(address)": "2939",
						"checkHalving()": "infinite",
						"checkOwnerBalance()": "4809",
						"decimals()": "450",
						"decreaseAllowance(address,uint256)": "infinite",
						"getSwapRate(uint256)": "infinite",
						"halvingFactor()": "2491",
						"halvingInterval()": "2514",
						"increaseAllowance(address,uint256)": "infinite",
						"mint(address,uint256)": "infinite",
						"name()": "infinite",
						"nextHalving()": "2492",
						"owner()": "2583",
						"renounceOwnership()": "30378",
						"reward()": "2493",
						"setSwapToken(address)": "26963",
						"swapToken()": "2597",
						"swapTokens(address,uint256)": "infinite",
						"symbol()": "infinite",
						"totalSupply()": "2478",
						"transfer(address,uint256)": "infinite",
						"transferFrom(address,address,uint256)": "infinite",
						"transferOwnership(address)": "30783",
						"transferTokensToUser(address,uint256)": "infinite",
						"transferWithMessage(address,uint256,string)": "infinite",
						"transferWithTreasury(address,uint256)": "infinite",
						"treasury()": "2553"
					}
				},
				"methodIdentifiers": {
					"allowance(address,address)": "dd62ed3e",
					"approve(address,uint256)": "095ea7b3",
					"balanceOf(address)": "70a08231",
					"checkHalving()": "e7608ac1",
					"checkOwnerBalance()": "38fe91e1",
					"decimals()": "313ce567",
					"decreaseAllowance(address,uint256)": "a457c2d7",
					"getSwapRate(uint256)": "674d4b07",
					"halvingFactor()": "e6674a9a",
					"halvingInterval()": "6a47aa06",
					"increaseAllowance(address,uint256)": "39509351",
					"mint(address,uint256)": "40c10f19",
					"name()": "06fdde03",
					"nextHalving()": "bee693d2",
					"owner()": "8da5cb5b",
					"renounceOwnership()": "715018a6",
					"reward()": "228cb733",
					"setSwapToken(address)": "b851b7ca",
					"swapToken()": "dc73e49c",
					"swapTokens(address,uint256)": "a114398d",
					"symbol()": "95d89b41",
					"totalSupply()": "18160ddd",
					"transfer(address,uint256)": "a9059cbb",
					"transferFrom(address,address,uint256)": "23b872dd",
					"transferOwnership(address)": "f2fde38b",
					"transferTokensToUser(address,uint256)": "e42d0aac",
					"transferWithMessage(address,uint256,string)": "0818f44b",
					"transferWithTreasury(address,uint256)": "b665d324",
					"treasury()": "61d027b3"
				}
			},
			"storageLayout": {
				"storage": [
					{
						"astId": 422,
						"contract": "First-Run/CityTouchToken.sol:CityTouchToken",
						"label": "_balances",
						"offset": 0,
						"slot": "0",
						"type": "t_mapping(t_address,t_uint256)"
					},
					{
						"astId": 428,
						"contract": "First-Run/CityTouchToken.sol:CityTouchToken",
						"label": "_allowances",
						"offset": 0,
						"slot": "1",
						"type": "t_mapping(t_address,t_mapping(t_address,t_uint256))"
					},
					{
						"astId": 430,
						"contract": "First-Run/CityTouchToken.sol:CityTouchToken",
						"label": "_totalSupply",
						"offset": 0,
						"slot": "2",
						"type": "t_uint256"
					},
					{
						"astId": 432,
						"contract": "First-Run/CityTouchToken.sol:CityTouchToken",
						"label": "_name",
						"offset": 0,
						"slot": "3",
						"type": "t_string_storage"
					},
					{
						"astId": 434,
						"contract": "First-Run/CityTouchToken.sol:CityTouchToken",
						"label": "_symbol",
						"offset": 0,
						"slot": "4",
						"type": "t_string_storage"
					},
					{
						"astId": 866,
						"contract": "First-Run/CityTouchToken.sol:CityTouchToken",
						"label": "_owner",
						"offset": 0,
						"slot": "5",
						"type": "t_address"
					},
					{
						"astId": 15,
						"contract": "First-Run/CityTouchToken.sol:CityTouchToken",
						"label": "_initialSupply",
						"offset": 0,
						"slot": "6",
						"type": "t_uint256"
					},
					{
						"astId": 17,
						"contract": "First-Run/CityTouchToken.sol:CityTouchToken",
						"label": "treasury",
						"offset": 0,
						"slot": "7",
						"type": "t_address"
					},
					{
						"astId": 20,
						"contract": "First-Run/CityTouchToken.sol:CityTouchToken",
						"label": "halvingInterval",
						"offset": 0,
						"slot": "8",
						"type": "t_uint256"
					},
					{
						"astId": 22,
						"contract": "First-Run/CityTouchToken.sol:CityTouchToken",
						"label": "nextHalving",
						"offset": 0,
						"slot": "9",
						"type": "t_uint256"
					},
					{
						"astId": 25,
						"contract": "First-Run/CityTouchToken.sol:CityTouchToken",
						"label": "halvingFactor",
						"offset": 0,
						"slot": "10",
						"type": "t_uint256"
					},
					{
						"astId": 33,
						"contract": "First-Run/CityTouchToken.sol:CityTouchToken",
						"label": "reward",
						"offset": 0,
						"slot": "11",
						"type": "t_uint256"
					},
					{
						"astId": 35,
						"contract": "First-Run/CityTouchToken.sol:CityTouchToken",
						"label": "swapToken",
						"offset": 0,
						"slot": "12",
						"type": "t_address"
					}
				],
				"types": {
					"t_address": {
						"encoding": "inplace",
						"label": "address",
						"numberOfBytes": "20"
					},
					"t_mapping(t_address,t_mapping(t_address,t_uint256))": {
						"encoding": "mapping",
						"key": "t_address",
						"label": "mapping(address => mapping(address => uint256))",
						"numberOfBytes": "32",
						"value": "t_mapping(t_address,t_uint256)"
					},
					"t_mapping(t_address,t_uint256)": {
						"encoding": "mapping",
						"key": "t_address",
						"label": "mapping(address => uint256)",
						"numberOfBytes": "32",
						"value": "t_uint256"
					},
					"t_string_storage": {
						"encoding": "bytes",
						"label": "string",
						"numberOfBytes": "32"
					},
					"t_uint256": {
						"encoding": "inplace",
						"label": "uint256",
						"numberOfBytes": "32"
					}
				}
			},
			"userdoc": {
				"kind": "user",
				"methods": {},
				"version": 1
			}
		}
	}
}